{
  "_format": "hh-sol-artifact-1",
  "contractName": "PencatatanSipil",
  "sourceName": "contracts/PencatatanSipil.sol",
  "abi": [
    {
      "inputs": [],
      "name": "AddressSudahDipakai",
      "type": "error"
    },
    {
      "inputs": [],
      "name": "AddressZero",
      "type": "error"
    },
    {
      "inputs": [],
      "name": "AksesDitolak",
      "type": "error"
    },
    {
      "inputs": [],
      "name": "BelumAdaDokumenResmi",
      "type": "error"
    },
    {
      "inputs": [],
      "name": "BelumDiverifikasiKalurahanAsal",
      "type": "error"
    },
    {
      "inputs": [],
      "name": "BukanPemilikPermohonan",
      "type": "error"
    },
    {
      "inputs": [],
      "name": "BukanPermohonanPindah",
      "type": "error"
    },
    {
      "inputs": [],
      "name": "CidKosong",
      "type": "error"
    },
    {
      "inputs": [],
      "name": "HanyaKalurahanTujuan",
      "type": "error"
    },
    {
      "inputs": [],
      "name": "IdKalurahanTujuanTidakDikenal",
      "type": "error"
    },
    {
      "inputs": [],
      "name": "IdSudahDipakai",
      "type": "error"
    },
    {
      "inputs": [],
      "name": "NikSudahDiklaim",
      "type": "error"
    },
    {
      "inputs": [],
      "name": "OnlyDukcapil",
      "type": "error"
    },
    {
      "inputs": [],
      "name": "OnlyKalurahan",
      "type": "error"
    },
    {
      "inputs": [],
      "name": "OnlyWargaTerdaftar",
      "type": "error"
    },
    {
      "inputs": [],
      "name": "PermohonanBelumDisetujuiKalurahan",
      "type": "error"
    },
    {
      "inputs": [],
      "name": "PermohonanBukanDiajukan",
      "type": "error"
    },
    {
      "inputs": [],
      "name": "PermohonanPindahBelumDisetujuiKalurahanTujuan",
      "type": "error"
    },
    {
      "inputs": [],
      "name": "StatusTidakValidUntukUploadDokumen",
      "type": "error"
    },
    {
      "inputs": [],
      "name": "TidakDapatDibatalkan",
      "type": "error"
    },
    {
      "inputs": [],
      "name": "TujuanTidakValid",
      "type": "error"
    },
    {
      "inputs": [],
      "name": "WalletSudahDigunakan",
      "type": "error"
    },
    {
      "anonymous": false,
      "inputs": [
        {
          "indexed": true,
          "internalType": "uint256",
          "name": "idPermohonan",
          "type": "uint256"
        },
        {
          "indexed": false,
          "internalType": "string",
          "name": "cidDokumen",
          "type": "string"
        },
        {
          "indexed": false,
          "internalType": "uint256",
          "name": "waktu",
          "type": "uint256"
        }
      ],
      "name": "DokumenResmiDiunggah",
      "type": "event"
    },
    {
      "anonymous": false,
      "inputs": [
        {
          "indexed": false,
          "internalType": "string",
          "name": "newCID",
          "type": "string"
        }
      ],
      "name": "KalurahanMappingCIDUpdated",
      "type": "event"
    },
    {
      "anonymous": false,
      "inputs": [
        {
          "indexed": true,
          "internalType": "uint8",
          "name": "id",
          "type": "uint8"
        },
        {
          "indexed": true,
          "internalType": "address",
          "name": "akun",
          "type": "address"
        },
        {
          "indexed": false,
          "internalType": "string",
          "name": "nama",
          "type": "string"
        }
      ],
      "name": "KalurahanRemoved",
      "type": "event"
    },
    {
      "anonymous": false,
      "inputs": [
        {
          "indexed": true,
          "internalType": "uint256",
          "name": "idPermohonan",
          "type": "uint256"
        },
        {
          "indexed": true,
          "internalType": "string",
          "name": "nikKepalaKeluargaTujuan",
          "type": "string"
        },
        {
          "indexed": false,
          "internalType": "bool",
          "name": "disetujui",
          "type": "bool"
        },
        {
          "indexed": false,
          "internalType": "uint256",
          "name": "waktu",
          "type": "uint256"
        }
      ],
      "name": "KonfirmasiKKTujuan",
      "type": "event"
    },
    {
      "anonymous": false,
      "inputs": [
        {
          "indexed": true,
          "internalType": "uint256",
          "name": "id",
          "type": "uint256"
        },
        {
          "indexed": true,
          "internalType": "address",
          "name": "pemohon",
          "type": "address"
        },
        {
          "indexed": false,
          "internalType": "enum PencatatanTypes.JenisPermohonan",
          "name": "jenis",
          "type": "uint8"
        },
        {
          "indexed": false,
          "internalType": "string",
          "name": "cidIPFS",
          "type": "string"
        },
        {
          "indexed": false,
          "internalType": "uint256",
          "name": "waktu",
          "type": "uint256"
        }
      ],
      "name": "PermohonanDiajukan",
      "type": "event"
    },
    {
      "anonymous": false,
      "inputs": [
        {
          "indexed": true,
          "internalType": "uint256",
          "name": "id",
          "type": "uint256"
        },
        {
          "indexed": true,
          "internalType": "address",
          "name": "pemohon",
          "type": "address"
        },
        {
          "indexed": false,
          "internalType": "uint256",
          "name": "waktu",
          "type": "uint256"
        }
      ],
      "name": "PermohonanDibatalkan",
      "type": "event"
    },
    {
      "anonymous": false,
      "inputs": [
        {
          "indexed": true,
          "internalType": "uint256",
          "name": "id",
          "type": "uint256"
        },
        {
          "indexed": true,
          "internalType": "address",
          "name": "pemohon",
          "type": "address"
        },
        {
          "indexed": false,
          "internalType": "enum PencatatanTypes.JenisPindah",
          "name": "jenisPindah",
          "type": "uint8"
        },
        {
          "indexed": false,
          "internalType": "string",
          "name": "cidIPFS",
          "type": "string"
        },
        {
          "indexed": false,
          "internalType": "uint256",
          "name": "waktu",
          "type": "uint256"
        }
      ],
      "name": "PermohonanPindahDiajukan",
      "type": "event"
    },
    {
      "anonymous": false,
      "inputs": [
        {
          "indexed": true,
          "internalType": "uint256",
          "name": "id",
          "type": "uint256"
        },
        {
          "indexed": true,
          "internalType": "address",
          "name": "verifikator",
          "type": "address"
        },
        {
          "indexed": false,
          "internalType": "bool",
          "name": "disetujui",
          "type": "bool"
        },
        {
          "indexed": false,
          "internalType": "string",
          "name": "alasan",
          "type": "string"
        },
        {
          "indexed": false,
          "internalType": "uint256",
          "name": "waktu",
          "type": "uint256"
        }
      ],
      "name": "VerifikasiDukcapil",
      "type": "event"
    },
    {
      "anonymous": false,
      "inputs": [
        {
          "indexed": true,
          "internalType": "uint256",
          "name": "id",
          "type": "uint256"
        },
        {
          "indexed": true,
          "internalType": "address",
          "name": "verifikator",
          "type": "address"
        },
        {
          "indexed": false,
          "internalType": "bool",
          "name": "disetujui",
          "type": "bool"
        },
        {
          "indexed": false,
          "internalType": "string",
          "name": "alasan",
          "type": "string"
        },
        {
          "indexed": false,
          "internalType": "uint256",
          "name": "waktu",
          "type": "uint256"
        }
      ],
      "name": "VerifikasiKalurahan",
      "type": "event"
    },
    {
      "anonymous": false,
      "inputs": [
        {
          "indexed": true,
          "internalType": "address",
          "name": "wallet",
          "type": "address"
        },
        {
          "indexed": false,
          "internalType": "string",
          "name": "nik",
          "type": "string"
        }
      ],
      "name": "WargaTerdaftar",
      "type": "event"
    },
    {
      "inputs": [
        {
          "internalType": "string",
          "name": "_nikKepalaKeluarga",
          "type": "string"
        }
      ],
      "name": "adaPermohonanMenungguKonfirmasi",
      "outputs": [
        {
          "internalType": "bool",
          "name": "",
          "type": "bool"
        }
      ],
      "stateMutability": "view",
      "type": "function"
    },
    {
      "inputs": [
        {
          "internalType": "uint8",
          "name": "",
          "type": "uint8"
        }
      ],
      "name": "addressKalurahanById",
      "outputs": [
        {
          "internalType": "address",
          "name": "",
          "type": "address"
        }
      ],
      "stateMutability": "view",
      "type": "function"
    },
    {
      "inputs": [
        {
          "internalType": "uint256",
          "name": "_id",
          "type": "uint256"
        }
      ],
      "name": "batalkanPermohonan",
      "outputs": [],
      "stateMutability": "nonpayable",
      "type": "function"
    },
    {
      "inputs": [
        {
          "internalType": "uint256",
          "name": "",
          "type": "uint256"
        }
      ],
      "name": "cidDokumenResmi",
      "outputs": [
        {
          "internalType": "string",
          "name": "",
          "type": "string"
        }
      ],
      "stateMutability": "view",
      "type": "function"
    },
    {
      "inputs": [
        {
          "internalType": "uint8",
          "name": "",
          "type": "uint8"
        },
        {
          "internalType": "uint256",
          "name": "",
          "type": "uint256"
        }
      ],
      "name": "daftarPermohonanKalurahanAsal",
      "outputs": [
        {
          "internalType": "uint256",
          "name": "",
          "type": "uint256"
        }
      ],
      "stateMutability": "view",
      "type": "function"
    },
    {
      "inputs": [
        {
          "internalType": "address",
          "name": "",
          "type": "address"
        },
        {
          "internalType": "uint256",
          "name": "",
          "type": "uint256"
        }
      ],
      "name": "daftarPermohonanPemohon",
      "outputs": [
        {
          "internalType": "uint256",
          "name": "",
          "type": "uint256"
        }
      ],
      "stateMutability": "view",
      "type": "function"
    },
    {
      "inputs": [
        {
          "internalType": "enum PencatatanTypes.Status",
          "name": "",
          "type": "uint8"
        },
        {
          "internalType": "uint256",
          "name": "",
          "type": "uint256"
        }
      ],
      "name": "daftarPermohonanPerStatus",
      "outputs": [
        {
          "internalType": "uint256",
          "name": "",
          "type": "uint256"
        }
      ],
      "stateMutability": "view",
      "type": "function"
    },
    {
      "inputs": [],
      "name": "dukcapil",
      "outputs": [
        {
          "internalType": "address",
          "name": "",
          "type": "address"
        }
      ],
      "stateMutability": "view",
      "type": "function"
    },
    {
      "inputs": [
        {
          "internalType": "uint256",
          "name": "_id",
          "type": "uint256"
        }
      ],
      "name": "getDokumenResmi",
      "outputs": [
        {
          "internalType": "string",
          "name": "",
          "type": "string"
        }
      ],
      "stateMutability": "view",
      "type": "function"
    },
    {
      "inputs": [
        {
          "internalType": "uint256",
          "name": "_id",
          "type": "uint256"
        }
      ],
      "name": "getJenisPermohonan",
      "outputs": [
        {
          "internalType": "string",
          "name": "",
          "type": "string"
        }
      ],
      "stateMutability": "view",
      "type": "function"
    },
    {
      "inputs": [
        {
          "internalType": "uint256",
          "name": "_id",
          "type": "uint256"
        }
      ],
      "name": "getJenisPindah",
      "outputs": [
        {
          "internalType": "string",
          "name": "",
          "type": "string"
        }
      ],
      "stateMutability": "view",
      "type": "function"
    },
    {
      "inputs": [],
      "name": "getKalurahanMappingCID",
      "outputs": [
        {
          "internalType": "string",
          "name": "",
          "type": "string"
        }
      ],
      "stateMutability": "view",
      "type": "function"
    },
    {
      "inputs": [
        {
          "internalType": "uint256",
          "name": "_id",
          "type": "uint256"
        }
      ],
      "name": "getPermohonan",
      "outputs": [
        {
          "components": [
            {
              "internalType": "uint256",
              "name": "id",
              "type": "uint256"
            },
            {
              "internalType": "uint256",
              "name": "waktuPengajuan",
              "type": "uint256"
            },
            {
              "internalType": "address",
              "name": "pemohon",
              "type": "address"
            },
            {
              "internalType": "enum PencatatanTypes.JenisPermohonan",
              "name": "jenis",
              "type": "uint8"
            },
            {
              "internalType": "enum PencatatanTypes.Status",
              "name": "status",
              "type": "uint8"
            },
            {
              "internalType": "uint8",
              "name": "idKalurahanAsal",
              "type": "uint8"
            },
            {
              "internalType": "uint8",
              "name": "idKalurahanTujuan",
              "type": "uint8"
            },
            {
              "internalType": "string",
              "name": "cidIPFS",
              "type": "string"
            },
            {
              "internalType": "string",
              "name": "alasanPenolakan",
              "type": "string"
            },
            {
              "internalType": "address",
              "name": "verifikatorKalurahan",
              "type": "address"
            },
            {
              "internalType": "address",
              "name": "verifikatorKalurahanTujuan",
              "type": "address"
            },
            {
              "internalType": "address",
              "name": "verifikatorDukcapil",
              "type": "address"
            },
            {
              "internalType": "uint256",
              "name": "waktuVerifikasiKalurahan",
              "type": "uint256"
            },
            {
              "internalType": "uint256",
              "name": "waktuVerifikasiKalurahanTujuan",
              "type": "uint256"
            },
            {
              "internalType": "uint256",
              "name": "waktuVerifikasiDukcapil",
              "type": "uint256"
            },
            {
              "internalType": "address",
              "name": "konfirmatorKKTujuan",
              "type": "address"
            },
            {
              "internalType": "uint256",
              "name": "waktuKonfirmasiKKTujuan",
              "type": "uint256"
            },
            {
              "internalType": "bool",
              "name": "konfirmasiKKTujuan",
              "type": "bool"
            },
            {
              "internalType": "enum PencatatanTypes.JenisPindah",
              "name": "jenisPindah",
              "type": "uint8"
            }
          ],
          "internalType": "struct PencatatanTypes.Permohonan",
          "name": "",
          "type": "tuple"
        }
      ],
      "stateMutability": "view",
      "type": "function"
    },
    {
      "inputs": [
        {
          "internalType": "enum PencatatanTypes.Status",
          "name": "_status",
          "type": "uint8"
        }
      ],
      "name": "getPermohonanBelumVerifikasiKalurahan",
      "outputs": [
        {
          "internalType": "uint256[]",
          "name": "",
          "type": "uint256[]"
        }
      ],
      "stateMutability": "view",
      "type": "function"
    },
    {
      "inputs": [],
      "name": "getPermohonanByKalurahanAsal",
      "outputs": [
        {
          "internalType": "uint256[]",
          "name": "",
          "type": "uint256[]"
        }
      ],
      "stateMutability": "view",
      "type": "function"
    },
    {
      "inputs": [],
      "name": "getPermohonanByKalurahanTujuan",
      "outputs": [
        {
          "internalType": "uint256[]",
          "name": "",
          "type": "uint256[]"
        }
      ],
      "stateMutability": "view",
      "type": "function"
    },
    {
      "inputs": [
        {
          "internalType": "enum PencatatanTypes.Status",
          "name": "_status",
          "type": "uint8"
        }
      ],
      "name": "getPermohonanForDukcapil",
      "outputs": [
        {
          "internalType": "uint256[]",
          "name": "",
          "type": "uint256[]"
        }
      ],
      "stateMutability": "view",
      "type": "function"
    },
    {
      "inputs": [
        {
          "internalType": "address",
          "name": "_pemohon",
          "type": "address"
        }
      ],
      "name": "getPermohonanIDsByPemohon",
      "outputs": [
        {
          "internalType": "uint256[]",
          "name": "",
          "type": "uint256[]"
        }
      ],
      "stateMutability": "view",
      "type": "function"
    },
    {
      "inputs": [
        {
          "internalType": "string",
          "name": "_nikKepalaKeluarga",
          "type": "string"
        }
      ],
      "name": "getPermohonanMenungguKonfirmasiKK",
      "outputs": [
        {
          "internalType": "uint256[]",
          "name": "",
          "type": "uint256[]"
        }
      ],
      "stateMutability": "view",
      "type": "function"
    },
    {
      "inputs": [
        {
          "internalType": "uint256",
          "name": "_id",
          "type": "uint256"
        }
      ],
      "name": "getStatusPermohonan",
      "outputs": [
        {
          "internalType": "string",
          "name": "",
          "type": "string"
        }
      ],
      "stateMutability": "view",
      "type": "function"
    },
    {
      "inputs": [
        {
          "internalType": "address",
          "name": "_akun",
          "type": "address"
        }
      ],
      "name": "hapusKalurahan",
      "outputs": [],
      "stateMutability": "nonpayable",
      "type": "function"
    },
    {
      "inputs": [
        {
          "internalType": "address",
          "name": "",
          "type": "address"
        }
      ],
      "name": "idKalurahanByAddress",
      "outputs": [
        {
          "internalType": "uint8",
          "name": "",
          "type": "uint8"
        }
      ],
      "stateMutability": "view",
      "type": "function"
    },
    {
      "inputs": [],
      "name": "jumlahPermohonan",
      "outputs": [
        {
          "internalType": "uint256",
          "name": "",
          "type": "uint256"
        }
      ],
      "stateMutability": "view",
      "type": "function"
    },
    {
      "inputs": [
        {
          "internalType": "address",
          "name": "",
          "type": "address"
        }
      ],
      "name": "kalurahan",
      "outputs": [
        {
          "internalType": "bool",
          "name": "",
          "type": "bool"
        }
      ],
      "stateMutability": "view",
      "type": "function"
    },
    {
      "inputs": [],
      "name": "kalurahanMappingCID",
      "outputs": [
        {
          "internalType": "string",
          "name": "",
          "type": "string"
        }
      ],
      "stateMutability": "view",
      "type": "function"
    },
    {
      "inputs": [
        {
          "internalType": "uint256",
          "name": "_id",
          "type": "uint256"
        },
        {
          "internalType": "bool",
          "name": "_disetujui",
          "type": "bool"
        },
        {
          "internalType": "string",
          "name": "_nikKepalaKeluargaTujuan",
          "type": "string"
        }
      ],
      "name": "konfirmasiPindahGabungKK",
      "outputs": [],
      "stateMutability": "nonpayable",
      "type": "function"
    },
    {
      "inputs": [
        {
          "internalType": "address",
          "name": "",
          "type": "address"
        }
      ],
      "name": "nikByWallet",
      "outputs": [
        {
          "internalType": "string",
          "name": "",
          "type": "string"
        }
      ],
      "stateMutability": "view",
      "type": "function"
    },
    {
      "inputs": [
        {
          "internalType": "string",
          "name": "",
          "type": "string"
        },
        {
          "internalType": "uint256",
          "name": "",
          "type": "uint256"
        }
      ],
      "name": "permohonanMenungguKonfirmasiKK",
      "outputs": [
        {
          "internalType": "uint256",
          "name": "",
          "type": "uint256"
        }
      ],
      "stateMutability": "view",
      "type": "function"
    },
    {
      "inputs": [
        {
          "internalType": "string",
          "name": "_nik",
          "type": "string"
        }
      ],
      "name": "registerWarga",
      "outputs": [],
      "stateMutability": "nonpayable",
      "type": "function"
    },
    {
      "inputs": [
        {
          "internalType": "string",
          "name": "_cid",
          "type": "string"
        }
      ],
      "name": "setKalurahanMappingCID",
      "outputs": [],
      "stateMutability": "nonpayable",
      "type": "function"
    },
    {
      "inputs": [
        {
          "internalType": "enum PencatatanTypes.JenisPermohonan",
          "name": "_jenis",
          "type": "uint8"
        },
        {
          "internalType": "string",
          "name": "_cidIPFS",
          "type": "string"
        },
        {
          "internalType": "uint8",
          "name": "_idKalurahanAsal",
          "type": "uint8"
        },
        {
          "internalType": "uint8",
          "name": "_idKalurahanTujuan",
          "type": "uint8"
        },
        {
          "internalType": "enum PencatatanTypes.JenisPindah",
          "name": "_jenisPindah",
          "type": "uint8"
        }
      ],
      "name": "submitPermohonan",
      "outputs": [],
      "stateMutability": "nonpayable",
      "type": "function"
    },
    {
      "inputs": [
        {
          "internalType": "uint8",
          "name": "_id",
          "type": "uint8"
        },
        {
          "internalType": "address",
          "name": "_akun",
          "type": "address"
        }
      ],
      "name": "tambahKalurahanById",
      "outputs": [],
      "stateMutability": "nonpayable",
      "type": "function"
    },
    {
      "inputs": [
        {
          "internalType": "uint256",
          "name": "_id",
          "type": "uint256"
        },
        {
          "internalType": "string",
          "name": "_cidDokumen",
          "type": "string"
        }
      ],
      "name": "unggahDokumenResmi",
      "outputs": [],
      "stateMutability": "nonpayable",
      "type": "function"
    },
    {
      "inputs": [
        {
          "internalType": "uint256",
          "name": "_id",
          "type": "uint256"
        },
        {
          "internalType": "bool",
          "name": "_disetujui",
          "type": "bool"
        },
        {
          "internalType": "string",
          "name": "_alasan",
          "type": "string"
        }
      ],
      "name": "verifikasiDukcapil",
      "outputs": [],
      "stateMutability": "nonpayable",
      "type": "function"
    },
    {
      "inputs": [
        {
          "internalType": "uint256",
          "name": "_id",
          "type": "uint256"
        },
        {
          "internalType": "bool",
          "name": "_disetujui",
          "type": "bool"
        },
        {
          "internalType": "string",
          "name": "_alasan",
          "type": "string"
        }
      ],
      "name": "verifikasiKalurahan",
      "outputs": [],
      "stateMutability": "nonpayable",
      "type": "function"
    },
    {
      "inputs": [
        {
          "internalType": "uint256",
          "name": "_id",
          "type": "uint256"
        },
        {
          "internalType": "bool",
          "name": "_disetujui",
          "type": "bool"
        },
        {
          "internalType": "string",
          "name": "_alasan",
          "type": "string"
        },
        {
          "internalType": "uint8",
          "name": "_idKalurahanTujuan",
          "type": "uint8"
        }
      ],
      "name": "verifikasiKalurahanAsalPindah",
      "outputs": [],
      "stateMutability": "nonpayable",
      "type": "function"
    },
    {
      "inputs": [
        {
          "internalType": "uint256",
          "name": "_id",
          "type": "uint256"
        },
        {
          "internalType": "bool",
          "name": "_disetujui",
          "type": "bool"
        },
        {
          "internalType": "string",
          "name": "_alasan",
          "type": "string"
        },
        {
          "internalType": "string",
          "name": "_nikKepalaKeluargaTujuan",
          "type": "string"
        }
      ],
      "name": "verifikasiKalurahanTujuanPindah",
      "outputs": [],
      "stateMutability": "nonpayable",
      "type": "function"
    },
    {
      "inputs": [
        {
          "internalType": "string",
          "name": "",
          "type": "string"
        }
      ],
      "name": "walletByNik",
      "outputs": [
        {
          "internalType": "address",
          "name": "",
          "type": "address"
        }
      ],
      "stateMutability": "view",
      "type": "function"
    }
  ],
  "bytecode": "0x60808060405234602757600080546001600160a01b031916331790556139ea908161002d8239f35b600080fdfe6080604052600436101561001257600080fd5b60003560e01c80630bfa49df146103555780630facc3b31461276657806311481b6d14612651578063244c82cf146122ad5780632bbe04a61461221e5780632c086747146121545780632d7c56431461211e57806349cda27e14611f405780634bef492314611ef65780634cdf813b14611ea35780634ec6202214611e235780634f5414c714611d9457806350952c1414611d2c5780636434852314611ced5780637df4ab6a146119935780637ec410f8146116ce578063825e827a146114e8578063835b1ece1461147157806389b4126214611434578063a1468b3d146111e2578063a197fb2514611177578063a439ef0614611141578063a48bff9214611105578063a7014a0c14610df7578063aa02000714610dc1578063ab0680c114610d7f578063acbb35cf14610c3e578063b4750ad314610b99578063b48da9b914610b5f578063bccf5e11146106e1578063be50586f14610694578063c76681d614610453578063d3b26d3f146103b8578063d4c0418b1461038f578063ea69c80214610371578063eae3073214610355578063f908a8ff146103155763fea8abac146101be57600080fd5b3461031057602036600319011261031057600435600d81101590816103105733600052600160205260ff60406000205416156102ff5733600052600560205260ff60406000205416600052600a602052604060002090815461021f81613366565b93600093845b83811061027357868661023781613366565b9160005b82811061025457604051806102508682612e97565b0390f35b8061026160019284613398565b5161026c8287613398565b520161023b565b61027d8183612ed1565b90549060031b1c60005260086020528260ff60026040600020015460a81c16906102e957600d8110156102e95785146102b9575b600101610225565b946102e16001916102ca8885612ed1565b90549060031b1c6102db828b613398565b526131a7565b9590506102b1565b634e487b7160e01b600052602160045260246000fd5b631902707f60e31b60005260046000fd5b600080fd5b3461031057602036600319011261031057600435600052600e60205261025061034160406000206130ec565b604051918291602083526020830190612e00565b3461031057600036600319011261031057610250610341613033565b34610310576000366003190112610310576020600754604051908152f35b34610310576000366003190112610310576000546040516001600160a01b039091168152602090f35b34610310576020366003190112610310576004356001600160401b038111610310576103ea6020913690600401612e25565b91908260405193849283378101600d81520301902060405190816020825491828152019160005260206000209060005b81811061043d576102508561043181870382612f1b565b60405191829182612e97565b825484526020909301926001928301920161041a565b34610310576040366003190112610310576004356024356001600160401b03811161031057610486903690600401612e25565b600054909291906001600160a01b031633036106835781600052600860205260ff60026040600020015460a81c16600d81101590816102e95760038114918215610675575b8215610664575b8215610653575b5050156106425782156106315781600052600e6020526040600020926001600160401b03811161061b57610517816105118654612ff9565b86613210565b600093601f82116001146105995761056982807f75c675465e0858e943fd2e773390edaac64e2ee57918f3f49a20e198c1a54425969760009161058e575b508160011b916000199060031b1c19161790565b90555b610583604051928392604084526040840191613272565b4260208301520390a2005b905085013588610555565b80855260208520601f19831695805b8781106106035750837f75c675465e0858e943fd2e773390edaac64e2ee57918f3f49a20e198c1a544259697106105e9575b5050600182811b01905561056c565b840135600019600385901b60f8161c1916905585806105da565b909160206001819285890135815501930191016105a8565b634e487b7160e01b600052604160045260246000fd5b630f4cd64160e41b60005260046000fd5b63291bd15960e11b60005260046000fd5b9091506102e957600b1484806104d9565b8092506102e95760018114916104d2565b5060078114915060006104cb565b632897e6d360e21b60005260046000fd5b3461031057604036600319011261031057600435600d811015610310576106bd6024359161318e565b8054821015610310576020916106d291612ed1565b90549060031b1c604051908152f35b34610310576106ef36612fa0565b600054929390926001600160a01b03163303610683578060005260086020526040600020936002850193845460ff8160a01c1660058110156102e957600403610ad3575060ff855460a81c16600d811015806102e9576007821490818015610ac6575b15610ab5576102e95715610a11575061076b600761318e565b9460005b865480821015610a045785610784838a612ed1565b90549060031b1c14610799575060010161076f565b600097919293949596971981019081116109ee576107ed926107cf6107c16107e89385612ed1565b90549060031b1c9184612ed1565b90919082549060031b91821b91600019901b1916179055565b6132b8565b821561089a57805460ff60a81b1916600360a81b1790556003600052600c602052929391927f6b79a244eb3993d9a079f4708e9832062b305d6080c8372aac9c82d882a9557b9261085e857fc0da782485e77ae272268ae0a3ff44c1552ecb60b3743924de17a815e0a3cfd761324a565b6007810160018060a01b0333166001600160601b0360a01b825416179055600a429101556108956040519283923397429285613293565b0390a3005b805460ff60a81b1916600160aa1b17905560048501946001600160401b03821161061b576108d2826108cc8854612ff9565b88613210565b600095601f831160011461096b5761092483807f6b79a244eb3993d9a079f4708e9832062b305d6080c8372aac9c82d882a9557b97989960009161096057508160011b916000199060031b1c19161790565b90555b6004600052600c60205261095b857f5b84bb9e0f5aa9cc45a8bb66468db5d4816d1e75ff86b5e1f1dd8d144dab809761324a565b61085e565b90508901358a610555565b80875260208720601f19841697805b8981106109d65750847f6b79a244eb3993d9a079f4708e9832062b305d6080c8372aac9c82d882a9557b979899106109bc575b5050600183811b019055610927565b880135600019600386901b60f8161c1916905587806109ad565b9091602060018192858c01358155019301910161097a565b634e487b7160e01b600052601160045260246000fd5b50509091929394506107ed565b600b60009692939495969114610a28575b506107ed565b9493929190610a37600b61318e565b865b815480821015610aa75786610a4e8385612ed1565b90549060031b1c14610a635750600101610a39565b90919293949596976000198201918211610a93575082916107cf6107c16107e893610a8d96612ed1565b86610a22565b634e487b7160e01b81526011600452602490fd5b505050909192939450610a8d565b63656d7eb560e01b60005260046000fd5b50506000600b8314610752565b60a81c60ff16600d8110156102e957600103610b4e57610af3600161318e565b9460005b865480821015610a045785610b0c838a612ed1565b90549060031b1c14610b215750600101610af7565b600097919293949596971981019081116109ee57610b49926107cf6107c16107e89385612ed1565b6107ed565b633c78815f60e01b60005260046000fd5b34610310576020366003190112610310576001600160a01b03610b80612e72565b16600052600260205261025061034160406000206130ec565b34610310576020366003190112610310576004356000818152600860209081526040808320600201548354600e909352922054336001600160a01b03928316149290911690610be790612ff9565b15610c2d573314908115610c25575b5015610c1457600052600e60205261025061034160406000206130ec565b6370436def60e11b60005260046000fd5b905082610bf6565b63c31a6dc560e01b60005260046000fd5b3461031057602036600319011261031057600435336000526002602052610c69604060002054612ff9565b15610d6e57600081815260086020526040902060028101805491929091336001600160a01b03821603610d5d5760a81c60ff16600d8110156102e957610d4c57610cb2906133ac565b805460ff60a81b1916600960a81b179055426008820155600481018054610ce290610cdc90612ff9565b826131e5565b604781556000526237b71760e91b600160206000207f5065726d6f686f6e616e206469626174616c6b616e206f6c65682070656d6f688155015554604051904282527fc32fdc85bad287b87324f2b5c9affb2708f355d219541e068064d32eaed8d66560203393a3005b634db47d8360e01b60005260046000fd5b638c1f61f360e01b60005260046000fd5b630a878caf60e31b60005260046000fd5b3461031057604036600319011261031057610d98612e62565b60ff6024359116600052600a60205260406000208054821015610310576020916106d291612ed1565b3461031057602036600319011261031057600435600052600860205261025061034160ff600d6040600020015460081c1661389e565b34610310576020366003190112610310576000610240604051610e1981612eff565b8281528260208201528260408201528260608201528260808201528260a08201528260c0820152606060e0820152606061010082015282610120820152826101408201528261016082015282610180820152826101a0820152826101c0820152826101e0820152826102008201528261022082015201526004356000526008602052604060002060405190610ead82612eff565b805482526001810154602083015260028101546001600160a01b0381166040840152610ee360a082901c60ff16606085016131b6565b60ff8160a81c1690600d8210156102e957610fc19260ff600d9281946080880152818160b01c1660a088015260b81c1660c0860152610f24600382016130ec565b60e0860152610f35600482016130ec565b61010086015260058101546001600160a01b03908116610120870152600682015481166101408701526007820154811661016087015260088083015461018088015260098301546101a0880152600a8301546101c0880152600b8301549091166101e0870152600c8201546102008701529101548281161515610220860152901c1661024083016131c2565b6040519060208252805160208301526020810151604083015260018060a01b036040820151166060830152610ffe60608201516080840190612fdf565b608081015190600d8210156102e957829160a083015260ff60a08201511660c083015260ff60c08201511660e083015261025061024061106b61105360e0850151610260610100880152610280870190612e00565b610100850151868203601f1901610120880152612e00565b9260018060a01b036101208201511661014086015260018060a01b036101408201511661016086015260018060a01b03610160820151166101808601526101808101516101a08601526101a08101516101c08601526101c08101516101e086015260018060a01b036101e0820151166102008601526102008101516102208601526102208101511515828601520151610260840190612fec565b346103105760203660031901126103105760ff611120612e62565b166000526004602052602060018060a01b0360406000205416604051908152f35b3461031057602036600319011261031057600435600052600860205261025061034160ff60026040600020015460a01c16613779565b34610310576040366003190112610310576004356001600160401b038111610310576111a7903690600401612f82565b6111c36020602435928160405193828580945193849201612ddd565b8101600d8152030190208054821015610310576020916106d291612ed1565b34610310576111f036612fa0565b92909133600052600160205260ff60406000205416156102ff5733600052600560205261123d60ff6040600020541683600052600860205260ff60026040600020015460b01c16146132f7565b8160005260086020526040600020936002850160ff815460a81c16600d8110156102e9576114235761126e846133ac565b821561130457805460ff60a81b1916600160a81b1790556001600052600c60205292939192600080516020613995833981519152926112cd857fd421a5181c571bba3f01190c922c3b2a896fc1d84e86c9f17ac10e67ebef8b5c61324a565b6005810160018060a01b0333166001600160601b0360a01b8254161790556008429101556108956040519283923397429285613293565b805460ff60a81b1916600160a91b17905560048501946001600160401b03821161061b57611336826108cc8854612ff9565b600095601f83116001146113b257611376838060008051602061399583398151915297989960009161096057508160011b916000199060031b1c19161790565b90555b6002600052600c6020526113ad857f5d6016397a73f5e079297ac5a36fef17b4d9c3831618e63ab105738020ddd72061324a565b6112cd565b80875260208720601f19841697805b89811061140b575084600080516020613995833981519152979899106113f1575b5050600183811b019055611379565b880135600019600386901b60f8161c1916905587806113e2565b9091602060018192858c0135815501930191016113c1565b63d2bc121d60e01b60005260046000fd5b34610310576020366003190112610310576001600160a01b03611455612e72565b166000526005602052602060ff60406000205416604051908152f35b34610310576020366003190112610310576001600160a01b03611492612e72565b166000526009602052604060002060405190816020825491828152019160005260206000209060005b8181106114d2576102508561043181870382612f1b565b82548452602090930192600192830192016114bb565b34610310576020366003190112610310576004356001600160401b03811161031057611518903690600401612f82565b604051815190602083019161152e818385612ddd565b60039082019081528190036020019020546001600160a01b03166116bd57336000526002602052611563604060002054612ff9565b6116ac57602061157e91604051809381928651928391612ddd565b60039082019081520301902080546001600160a01b03191633908117909155600090815260026020526040902081516001600160401b03811161061b576115cf816115c98454612ff9565b84613210565b6020601f82116001146116485790806115fd9260009161163d57508160011b916000199060031b1c19161790565b90555b7ff681a6e5cf03ecba385f32439e3a53ca704ad8f2a8d20230aa6a3971dc2ae218604051602081528061163833946020830190612e00565b0390a2005b905084015185610555565b601f1982169083600052806000209160005b8181106116945750908360019493921061167b575b5050811b019055611600565b85015160001960f88460031b161c19169055848061166f565b9192602060018192868a01518155019401920161165a565b63e278de3960e01b60005260046000fd5b631677261960e21b60005260046000fd5b34610310576080366003190112610310576004356116ea612e88565b906044356001600160401b0381116103105761170a903690600401612e25565b9092611714612e52565b9133600052600160205260ff60406000205416156102ff5733600052600560205261175f60ff6040600020541685600052600860205260ff60026040600020015460b01c16146132f7565b836000526008602052604060002060028101805460ff8160a81c16600d8110156102e9576114235760a01c60ff1660058110156102e957600403611982576117a6866133ac565b83156118655760ff85168015611854576000908152600460205260409020546001600160a01b03161561184357805460ff60b81b191660b89590951b60ff60b81b1694909417845560008051602061399583398151915293805460ff60a81b1916600560a81b1790556005600052600c6020526112cd857f2cd9ebf6ff19cdd7ffcc447d7c7d47b5991f5c7392a04512134e765802361fa661324a565b63fac301e360e01b60005260046000fd5b636c1ba33960e01b60005260046000fd5b805460ff60a81b1916600360a91b17905560048101959493506001600160401b03821161061b5761189a826108cc8854612ff9565b600095601f8311600114611911576118da838060008051602061399583398151915297989960009161096057508160011b916000199060031b1c19161790565b90555b6006600052600c6020526113ad857f980f427e00e74f6d338adfccc7468518c8c8ea00836d0dce98c5fe154e17bf2b61324a565b80875260208720601f19841697805b89811061196a57508460008051602061399583398151915297989910611950575b5050600183811b0190556118dd565b880135600019600386901b60f8161c191690558780611941565b9091602060018192858c013581550193019101611920565b63243d08b360e21b60005260046000fd5b34610310576119a136612fa0565b91923360005260026020526119ba604060002054612ff9565b15610d6e57806000526008602052604060002092600284019081549360ff8560a01c1660058110156102e95760040361198257600d86019460ff865460081c1660038110156102e957600203611c9e5760a81c60ff16600d8110156102e957600a03611c4d57611a2a600a61318e565b9560005b875480821015611c3f5786611a43838b612ed1565b90549060031b1c14611a585750600101611a2e565b60009891929394959697981981019081116109ee57611a81926107cf6107c16107e89385612ed1565b60405183838237602081858101600d81520301902060005b81548981831015611c0c575087611ab08385612ed1565b90549060031b1c14611ac55750600101611a99565b9095969760001982019182116109ee577fa25323c522b668730629025f46ec29f731ed5e7a94e4c4a2c15ffa8d94b128d297611b13846107e860409a6107cf8f976107c190611b559a612ed1565b8215611b9357805460ff60a81b1916600b60a81b179055600b6000908152600c602052879020611b44908a9061324a565b9060ff801983541691151516179055565b600b810180546001600160a01b0319163317905542600c909101558251918291819083378101600081520390209381519015158152426020820152a3005b805460ff60a81b1916600360aa1b179055600484018054611bb790610cdc90612ff9565b60478155600052623ab0b760e91b600160206000207f4469746f6c616b206f6c6568206b6570616c61206b656c75617267612074756a81550155611c0789886000600c8152600c6020522061324a565b611b44565b915050611b5591507fa25323c522b668730629025f46ec29f731ed5e7a94e4c4a2c15ffa8d94b128d29697604096611b13565b505090919293949550611a81565b60405162461bcd60e51b815260206004820152602360248201527f53746174757320746964616b2076616c696420756e74756b206b6f6e6669726d60448201526261736960e81b6064820152608490fd5b60405162461bcd60e51b815260206004820152602160248201527f42756b616e207065726d6f686f6e616e2070696e64616820676162756e67204b6044820152604b60f81b6064820152608490fd5b34610310576020366003190112610310576001600160a01b03611d0e612e72565b166000526001602052602060ff604060002054166040519015158152f35b34610310576020366003190112610310576004356001600160401b03811161031057611d5e6020913690600401612f82565b81611d726040519283815193849201612ddd565b600390820190815281900382019020546040516001600160a01b039091168152f35b346103105760003660031901126103105733600052600160205260ff60406000205416156102ff5733600052600560205260ff60406000205416600052600a602052604060002060405190816020825491828152019160005260206000209060005b818110611e0d576102508561043181870382612f1b565b8254845260209093019260019283019201611df6565b3461031057602036600319011261031057600435600d811015610310576000546001600160a01b0316330361068357611e5b9061318e565b60405190816020825491828152019160005260206000209060005b818110611e8d576102508561043181870382612f1b565b8254845260209093019260019283019201611e76565b34610310576020366003190112610310576004356001600160401b038111610310576020611ed681923690600401612e25565b91908260405193849283378101600d815203019020541515604051908152f35b3461031057604036600319011261031057611f0f612e72565b6001600160a01b0316600090815260096020526040902080546024359190821015610310576020916106d291612ed1565b34610310576020366003190112610310576004356001600160401b03811161031057611f70903690600401612e25565b6000549091906001600160a01b03163303610683576001600160401b03821161061b57611f9e600654612ff9565b601f81116120c4575b50600091601f811160011461202357611ff881807f05b7d468eb456c6bffbac7ac5f22f68ca5ce358ae4551017aeb9e69bf8fa11ee9560009161201857508160011b916000199060031b1c19161790565b6006555b612013604051928392602084526020840191613272565b0390a1005b905084013586610555565b60068352601f198116927ff652222313e28459528d920b65115c16c04f3efc82aaedc97be59f3f377c0d3f90805b8581106120ac5750827f05b7d468eb456c6bffbac7ac5f22f68ca5ce358ae4551017aeb9e69bf8fa11ee9510612092575b5050600181811b01600655611ffc565b830135600019600384901b60f8161c191690558380612082565b90916020600181928588013581550193019101612051565b600660005261210e907ff652222313e28459528d920b65115c16c04f3efc82aaedc97be59f3f377c0d3f601f850160051c81019160208610612114575b601f0160051c01906131ce565b82611fa7565b9091508190612101565b3461031057602036600319011261031057600435600052600860205261025061034160ff60026040600020015460a81c1661340c565b346103105760203660031901126103105761216d612e72565b6000546001600160a01b03163303610683576001600160a01b03166000818152600160209081526040808320805460ff19169055600590915290205460ff16806121e5575b7fff465bdd426bd62b03af572638a7fbc92e0bd4ceb6c77721a320e5d5c42b2e1e604080516020815260006020820152a3005b80600052600460205260406000206001600160601b0360a01b8154169055816000526005602052604060002060ff1981541690556121b2565b346103105760003660031901126103105733600052600160205260ff60406000205416156102ff5733600052600560205260ff60406000205416600052600b602052604060002060405190816020825491828152019160005260206000209060005b818110612297576102508561043181870382612f1b565b8254845260209093019260019283019201612280565b34610310576080366003190112610310576004356122c9612e88565b6044356001600160401b038111610310576122e8903690600401612e25565b6064939193356001600160401b0381116103105761230a903690600401612e25565b93909133600052600160205260ff60406000205416156102ff57836000526008602052604060002060028101805460ff8160a01c1660058110156102e9576004036119825760ff8160a81c16600d8110156102e9576005036126405733600052600560205260ff80604060002054169160b81c160361262f5761238d600561318e565b9660005b88548082101561262057886123a6838c612ed1565b90549060031b1c146123bb5750600101612391565b6000999192939495969798991981019081116109ee576123e5926107cf6107c16107e89385612ed1565b84156125025760ff600d84015460081c169060038210156102e9576000805160206139958339815191529688926002036124b457835460ff60a81b1916600560a91b17909355600a600052600c602090815261247d93612465847f9e6c92d7be355807bd948171438a5e65aaf9e4c36f1405c1b9ca25d27c4ea3a061324a565b8260405193849283378101600d81520301902061324a565b6006810160018060a01b0333166001600160601b0360a01b8254161790556009429101556108956040519283923397429285613293565b5050815460ff60a81b1916600760a81b17909155506007600052600c6020526124fd857fdae089abd7155aa13ce498edb0d7a7156b783d015031f10c9a3d4f5fcb51897161324a565b61247d565b50805460ff60a81b1916600160ab1b17905560048101959493506001600160401b03821161061b57612538826108cc8854612ff9565b600095601f83116001146125af57612578838060008051602061399583398151915297989960009161096057508160011b916000199060031b1c19161790565b90555b6008600052600c6020526124fd857f5ff1be3842b54290a9d10674244dae5848d2371b5314790c54805c086586e1df61324a565b80875260208720601f19841697805b898110612608575084600080516020613995833981519152979899106125ee575b5050600183811b01905561257b565b880135600019600386901b60f8161c1916905587806125df565b9091602060018192858c0135815501930191016125be565b505090919293949596506123e5565b635a6db8ab60e01b60005260046000fd5b63384bca1f60e11b60005260046000fd5b346103105760403660031901126103105761266a612e62565b6024356001600160a01b0381169190829003610310576000546001600160a01b031633036106835781156127555760ff166000818152600460205260409020546001600160a01b03166127445781600052600560205260ff60406000205416158061273b575b1561272a578060005260046020526040600020826001600160601b0360a01b82541617905581600052600560205260406000209060ff1982541617905560005260016020526040600020600160ff19825416179055600080f35b6338077c8760e21b60005260046000fd5b508015156126d0565b6348745fab60e01b60005260046000fd5b639fabe1c160e01b60005260046000fd5b346103105760a03660031901126103105760056004351015610310576024356001600160401b038111610310576127a1903690600401612e25565b60443560ff81168103610310576127b6612e52565b92608435926003841015610310573360005260026020526127db604060002054612ff9565b15610d6e5780156106315760ff83166000908152600460205260409020546001600160a01b0316156118435760009260048035149586612d9c575b60075494612823866131a7565b600755508615612d945780915b6000908815612d8d5787935b60ff6040519161284b83612eff565b898352426020840152336040840152612869600435606085016131b6565b84608084015281841660a08401521660c0820152612888368789612f3c565b60e08201526128f26020956040516128a08882612f1b565b85815261010084015284610120840152846101408401528461016084015284610180840152846101a0840152846101c0840152846101e0840152846102008401528461022084015261024083016131c2565b8783526008855260408084208251815560208301516001820155908201516002820180546001600160a01b0319166001600160a01b039290921691909117905560608201516005811015612d795760028201805460ff60a01b191660a09290921b60ff60a01b169190911790556080820151600d811015612d795760028201805460a085015160c086015162ffffff60a81b1990921660a89490941b60ff60a81b169390931760b09390931b60ff60b01b169290921760b89290921b60ff60b81b1691909117905560e08201518051906001600160401b038211612cec576129ea826129e16003860154612ff9565b60038601613210565b8790601f8311600114612d0b57612a199291879183612d00575b50508160011b916000199060031b1c19161790565b60038201555b6101008201518051906001600160401b038211612cec57612a5082612a476004860154612ff9565b60048601613210565b8790601f8311600114612c7a5782600d936102409593612a85938a92612c6f5750508160011b916000199060031b1c19161790565b60048201555b6101208401516005820180546001600160a01b039283166001600160a01b03199182161790915561014086015160068401805491841691831691909117905561016086015160078401805491841691831691909117905561018086015160088401556101a086015160098401556101c0860151600a8401556101e0860151600b84018054919093169116179055610200840151600c8201556102208401519101805460ff191691151560ff169190911781559101516003811015612c5b57815461ff00191660089190911b61ff0016179055338252600984526040822089929160ff91612b79908a9061324a565b168152600a8452612b8d876040832061324a565b808052600c8452612ba1876040832061324a565b50612c3d575b5060009515612c035791612bf39160607fa0b9d3ab20139b1dab107ee5e773449c3bc1cba0be29c7281e39e5623d699b9d94612be66040518099612fec565b8701526060860191613272565b924260408201528033940390a380f35b93507f76091af5eb885b36d291fafffdf0282c662dd305c7a5efb5f216ce4133972fca91612bf391606060405196612be688600435612fdf565b60ff16600052600b8152612c5584604060002061324a565b86612ba7565b634e487b7160e01b84526021600452602484fd5b015190503880612a04565b9060048401875288872091875b8a601f1986168210612cd6575050926102409492600192600d9583601f19811610612cbd575b505050811b016004820155612a8b565b015160001960f88460031b161c191690558f8080612cad565b6001849582939585015181550194019201612c87565b634e487b7160e01b86526041600452602486fd5b015190508e80612a04565b91906003840187528887209087935b8a601f1985168610612d6057506001945083601f19811610612d47575b505050811b016003820155612a1f565b015160001960f88460031b161c191690558d8080612d37565b8282015184559485019460019093019290910190612d1a565b634e487b7160e01b85526021600452602485fd5b819361283c565b600091612830565b60ff81168015612dce578552600460205260408520546001600160a01b03166128165763fac301e360e01b8552600485fd5b636c1ba33960e01b8652600486fd5b60005b838110612df05750506000910152565b8181015183820152602001612de0565b90602091612e1981518092818552858086019101612ddd565b601f01601f1916010190565b9181601f84011215610310578235916001600160401b038311610310576020838186019501011161031057565b6064359060ff8216820361031057565b6004359060ff8216820361031057565b600435906001600160a01b038216820361031057565b60243590811515820361031057565b602060408183019282815284518094520192019060005b818110612ebb5750505090565b8251845260209384019390920191600101612eae565b8054821015612ee95760005260206000200190600090565b634e487b7160e01b600052603260045260246000fd5b61026081019081106001600160401b0382111761061b57604052565b90601f801991011681019081106001600160401b0382111761061b57604052565b9291926001600160401b03821161061b5760405191612f65601f8201601f191660200184612f1b565b829481845281830111610310578281602093846000960137010152565b9080601f8301121561031057816020612f9d93359101612f3c565b90565b6060600319820112610310576004359160243580151581036103105791604435906001600160401b03821161031057612fdb91600401612e25565b9091565b9060058210156102e95752565b9060038210156102e95752565b90600182811c92168015613029575b602083101461301357565b634e487b7160e01b600052602260045260246000fd5b91607f1691613008565b604051906000826006549161304783612ff9565b80835292600181169081156130cd575060011461306d575b61306b92500383612f1b565b565b506006600090815290917ff652222313e28459528d920b65115c16c04f3efc82aaedc97be59f3f377c0d3f5b8183106130b157505090602061306b9282010161305f565b6020919350806001915483858901015201910190918492613099565b6020925061306b94915060ff191682840152151560051b82010161305f565b906040519182600082549261310084612ff9565b808452936001811690811561316c5750600114613125575b5061306b92500383612f1b565b90506000929192526020600020906000915b81831061315057505090602061306b9282010138613118565b6020919350806001915483858901015201910190918492613137565b90506020925061306b94915060ff191682840152151560051b82010138613118565b600d8110156102e957600052600c602052604060002090565b60001981146109ee5760010190565b60058210156102e95752565b60038210156102e95752565b8181106131d9575050565b600081556001016131ce565b90601f81116131f2575050565b61306b916000526002601f6020600020920160051c820191016131ce565b9190601f811161321f57505050565b61306b926000526020600020906020601f840160051c8301931061211457601f0160051c01906131ce565b908154916801000000000000000083101561061b57826107cf91600161306b95018155612ed1565b908060209392818452848401376000828201840152601f01601f1916010190565b949392916040926132b39215158752606060208801526060870191613272565b930152565b805480156132e15760001901906132cf8282612ed1565b8154906000199060031b1b1916905555565b634e487b7160e01b600052603160045260246000fd5b156132fe57565b60405162461bcd60e51b8152602060048201526024808201527f48616e7961206b616c75726168616e206173616c2079616e672062657277656e604482015263616e672160e01b6064820152608490fd5b6001600160401b03811161061b5760051b60200190565b906133708261334f565b61337d6040519182612f1b565b828152809261338e601f199161334f565b0190602036910137565b8051821015612ee95760209160051b010190565b6133b6600061318e565b60005b81548082101561340657836133ce8385612ed1565b90549060031b1c146133e357506001016133b9565b90925060001981019081116109ee5761306b926107cf6107c16107e89385612ed1565b50505050565b600d8110156102e95780156137525760006001821461371e5750600281146136ee576000600382146136bb57506004811461368c5760006005821461364e575060068114613619576000600782146135db57506008811461359f576000600982146135615750600a811461352557600090600b81146134ef57600c9150146134c05760405161349c604082612f1b565b601481527314dd185d1d5cc8151a59185ac8111a5ad95b985b60621b602082015290565b6040516134ce604082612f1b565b60118152702234ba37b630b59025a5902a3ab53ab0b760791b602082015290565b50506040516134ff604082612f1b565b60168152752234b5b7b73334b936b0b9b49025a5902a3ab53ab0b760511b602082015290565b50604051613534604082612f1b565b601d81527f4d656e756e676775204b6f6e6669726d617369204b4b2054756a75616e000000602082015290565b505060408051906135729082612f1b565b601781527f4469626174616c6b616e206f6c65682050656d6f686f6e000000000000000000602082015290565b506040516135ae604082612f1b565b601881527f4469746f6c616b204b616c75726168616e2054756a75616e0000000000000000602082015290565b505060408051906135ec9082612f1b565b601a81527f4469736574756a7569204b616c75726168616e2054756a75616e000000000000602082015290565b50604051613628604082612f1b565b6016815275111a5d1bdb185ac812d85b1d5c985a185b88105cd85b60521b602082015290565b5050604080519061365f9082612f1b565b601881527f4469736574756a7569204b616c75726168616e204173616c0000000000000000602082015290565b5060405161369b604082612f1b565b601081526f111a5d1bdb185ac8111d5ad8d85c1a5b60821b602082015290565b505060408051906136cc9082612f1b565b6012815271111a5cd95d1d5a9d5a48111d5ad8d85c1a5b60721b602082015290565b506040516136fd604082612f1b565b60118152702234ba37b630b59025b0b63ab930b430b760791b602082015290565b5050604080519061372f9082612f1b565b60138152722234b9b2ba3ab53ab49025b0b63ab930b430b760691b602082015290565b50604051613761604082612f1b565b60088152672234b0b53ab5b0b760c11b602082015290565b60058110156102e95780156138765760006001821461384d57506002811461382957600090600381146138045760049150146137e0576040516137bd604082612f1b565b601381527212995b9a5cc8151a59185ac8111a5ad95b985b606a1b602082015290565b6040516137ee604082612f1b565b60068152650a0d2dcc8c2d60d31b602082015290565b5050604051613814604082612f1b565b6005815264436572616960d81b602082015290565b50604051613838604082612f1b565b600581526425b0bbb4b760d91b602082015290565b5050604080519061385e9082612f1b565b600881526725b2b6b0ba34b0b760c11b602082015290565b50604051613885604082612f1b565b600981526825b2b630b434b930b760b91b602082015290565b60038110156102e9578015613958576000906001811461392a5760029150146138fc576040516138cf604082612f1b565b601a81527f4a656e69732050696e64616820546964616b2044696b656e616c000000000000602082015290565b60405161390a604082612f1b565b601081526f50696e64616820476162756e67204b4b60801b602082015290565b505060405161393a604082612f1b565b600e81526d50696e646168204d616e6469726960901b602082015290565b50604051613967604082612f1b565b601781527f50696e6461682053656c75727568204b656c756172676100000000000000000060208201529056feb464c40b6330ada9cbaedc9b928b83d905cd3051349abb7332ae44607384da59a264697066735822122066d4de96c0cbb75fde7455d91dadd23bf46b29e33e7f036235b5222b69ecd20c64736f6c634300081c0033",
  "linkReferences": {},
  "deployedLinkReferences": {}
}