{
  "_format": "hh-sol-artifact-1",
  "contractName": "PencatatanSipil",
  "sourceName": "contracts/PencatatanSipil.sol",
  "abi": [
    {
      "inputs": [
        {
          "internalType": "string",
          "name": "_initialNikMappingCID",
          "type": "string"
        }
      ],
      "stateMutability": "nonpayable",
      "type": "constructor"
    },
    {
      "inputs": [],
      "name": "AddressSudahDipakai",
      "type": "error"
    },
    {
      "inputs": [],
      "name": "AddressZero",
      "type": "error"
    },
    {
      "inputs": [],
      "name": "AksesDitolak",
      "type": "error"
    },
    {
      "inputs": [],
      "name": "BelumAdaDokumenResmi",
      "type": "error"
    },
    {
      "inputs": [],
      "name": "BelumDiverifikasiKalurahanAsal",
      "type": "error"
    },
    {
      "inputs": [],
      "name": "BukanPemilikPermohonan",
      "type": "error"
    },
    {
      "inputs": [],
      "name": "BukanPermohonanPindah",
      "type": "error"
    },
    {
      "inputs": [],
      "name": "CidKosong",
      "type": "error"
    },
    {
      "inputs": [],
      "name": "HanyaKalurahanTujuan",
      "type": "error"
    },
    {
      "inputs": [],
      "name": "IdKalurahanTujuanTidakDikenal",
      "type": "error"
    },
    {
      "inputs": [],
      "name": "IdSudahDipakai",
      "type": "error"
    },
    {
      "inputs": [],
      "name": "NikSudahDiklaim",
      "type": "error"
    },
    {
      "inputs": [],
      "name": "OnlyDukcapil",
      "type": "error"
    },
    {
      "inputs": [],
      "name": "OnlyKalurahan",
      "type": "error"
    },
    {
      "inputs": [],
      "name": "OnlyWargaTerdaftar",
      "type": "error"
    },
    {
      "inputs": [],
      "name": "PermohonanBelumDisetujuiKalurahan",
      "type": "error"
    },
    {
      "inputs": [],
      "name": "PermohonanBukanDiajukan",
      "type": "error"
    },
    {
      "inputs": [],
      "name": "PermohonanPindahBelumDisetujuiKalurahanTujuan",
      "type": "error"
    },
    {
      "inputs": [],
      "name": "StatusTidakValidUntukUploadDokumen",
      "type": "error"
    },
    {
      "inputs": [],
      "name": "TidakDapatDibatalkan",
      "type": "error"
    },
    {
      "inputs": [],
      "name": "TujuanTidakValid",
      "type": "error"
    },
    {
      "inputs": [],
      "name": "WalletSudahDigunakan",
      "type": "error"
    },
    {
      "anonymous": false,
      "inputs": [
        {
          "indexed": true,
          "internalType": "uint256",
          "name": "idPermohonan",
          "type": "uint256"
        },
        {
          "indexed": false,
          "internalType": "string",
          "name": "cidDokumen",
          "type": "string"
        },
        {
          "indexed": false,
          "internalType": "uint256",
          "name": "waktu",
          "type": "uint256"
        }
      ],
      "name": "DokumenResmiDiunggah",
      "type": "event"
    },
    {
      "anonymous": false,
      "inputs": [
        {
          "indexed": false,
          "internalType": "string",
          "name": "newCID",
          "type": "string"
        }
      ],
      "name": "KalurahanMappingCIDUpdated",
      "type": "event"
    },
    {
      "anonymous": false,
      "inputs": [
        {
          "indexed": true,
          "internalType": "uint8",
          "name": "id",
          "type": "uint8"
        },
        {
          "indexed": true,
          "internalType": "address",
          "name": "akun",
          "type": "address"
        },
        {
          "indexed": false,
          "internalType": "string",
          "name": "nama",
          "type": "string"
        },
        {
          "indexed": false,
          "internalType": "string",
          "name": "newMappingCID",
          "type": "string"
        }
      ],
      "name": "KalurahanRemoved",
      "type": "event"
    },
    {
      "anonymous": false,
      "inputs": [
        {
          "indexed": true,
          "internalType": "uint8",
          "name": "id",
          "type": "uint8"
        },
        {
          "indexed": true,
          "internalType": "address",
          "name": "akun",
          "type": "address"
        },
        {
          "indexed": false,
          "internalType": "string",
          "name": "newMappingCID",
          "type": "string"
        }
      ],
      "name": "KalurahanAdded",
      "type": "event"
    },
    {
      "anonymous": false,
      "inputs": [
        {
          "indexed": true,
          "internalType": "uint256",
          "name": "idPermohonan",
          "type": "uint256"
        },
        {
          "indexed": true,
          "internalType": "string",
          "name": "nikKepalaKeluargaTujuan",
          "type": "string"
        },
        {
          "indexed": false,
          "internalType": "bool",
          "name": "disetujui",
          "type": "bool"
        },
        {
          "indexed": false,
          "internalType": "uint256",
          "name": "waktu",
          "type": "uint256"
        }
      ],
      "name": "KonfirmasiKKTujuan",
      "type": "event"
    },
    {
      "anonymous": false,
      "inputs": [
        {
          "indexed": false,
          "internalType": "string",
          "name": "newCID",
          "type": "string"
        }
      ],
      "name": "NikMappingCIDUpdated",
      "type": "event"
    },
    {
      "anonymous": false,
      "inputs": [
        {
          "indexed": true,
          "internalType": "uint256",
          "name": "id",
          "type": "uint256"
        },
        {
          "indexed": true,
          "internalType": "address",
          "name": "pemohon",
          "type": "address"
        },
        {
          "indexed": false,
          "internalType": "enum PencatatanTypes.JenisPermohonan",
          "name": "jenis",
          "type": "uint8"
        },
        {
          "indexed": false,
          "internalType": "string",
          "name": "cidIPFS",
          "type": "string"
        },
        {
          "indexed": false,
          "internalType": "uint256",
          "name": "waktu",
          "type": "uint256"
        }
      ],
      "name": "PermohonanDiajukan",
      "type": "event"
    },
    {
      "anonymous": false,
      "inputs": [
        {
          "indexed": true,
          "internalType": "uint256",
          "name": "id",
          "type": "uint256"
        },
        {
          "indexed": true,
          "internalType": "address",
          "name": "pemohon",
          "type": "address"
        },
        {
          "indexed": false,
          "internalType": "uint256",
          "name": "waktu",
          "type": "uint256"
        }
      ],
      "name": "PermohonanDibatalkan",
      "type": "event"
    },
    {
      "anonymous": false,
      "inputs": [
        {
          "indexed": true,
          "internalType": "uint256",
          "name": "id",
          "type": "uint256"
        },
        {
          "indexed": true,
          "internalType": "address",
          "name": "pemohon",
          "type": "address"
        },
        {
          "indexed": false,
          "internalType": "enum PencatatanTypes.JenisPindah",
          "name": "jenisPindah",
          "type": "uint8"
        },
        {
          "indexed": false,
          "internalType": "string",
          "name": "cidIPFS",
          "type": "string"
        },
        {
          "indexed": false,
          "internalType": "uint256",
          "name": "waktu",
          "type": "uint256"
        }
      ],
      "name": "PermohonanPindahDiajukan",
      "type": "event"
    },
    {
      "anonymous": false,
      "inputs": [
        {
          "indexed": true,
          "internalType": "uint256",
          "name": "id",
          "type": "uint256"
        },
        {
          "indexed": true,
          "internalType": "address",
          "name": "verifikator",
          "type": "address"
        },
        {
          "indexed": false,
          "internalType": "bool",
          "name": "disetujui",
          "type": "bool"
        },
        {
          "indexed": false,
          "internalType": "string",
          "name": "alasan",
          "type": "string"
        },
        {
          "indexed": false,
          "internalType": "uint256",
          "name": "waktu",
          "type": "uint256"
        }
      ],
      "name": "VerifikasiDukcapil",
      "type": "event"
    },
    {
      "anonymous": false,
      "inputs": [
        {
          "indexed": true,
          "internalType": "uint256",
          "name": "id",
          "type": "uint256"
        },
        {
          "indexed": true,
          "internalType": "address",
          "name": "verifikator",
          "type": "address"
        },
        {
          "indexed": false,
          "internalType": "bool",
          "name": "disetujui",
          "type": "bool"
        },
        {
          "indexed": false,
          "internalType": "string",
          "name": "alasan",
          "type": "string"
        },
        {
          "indexed": false,
          "internalType": "uint256",
          "name": "waktu",
          "type": "uint256"
        }
      ],
      "name": "VerifikasiKalurahan",
      "type": "event"
    },
    {
      "anonymous": false,
      "inputs": [
        {
          "indexed": true,
          "internalType": "address",
          "name": "wallet",
          "type": "address"
        },
        {
          "indexed": false,
          "internalType": "string",
          "name": "nik",
          "type": "string"
        }
      ],
      "name": "WargaTerdaftar",
      "type": "event"
    },
    {
      "inputs": [
        {
          "internalType": "string",
          "name": "_nikKepalaKeluarga",
          "type": "string"
        }
      ],
      "name": "adaPermohonanMenungguKonfirmasi",
      "outputs": [
        {
          "internalType": "bool",
          "name": "",
          "type": "bool"
        }
      ],
      "stateMutability": "view",
      "type": "function"
    },
    {
      "inputs": [
        {
          "internalType": "uint8",
          "name": "",
          "type": "uint8"
        }
      ],
      "name": "addressKalurahanById",
      "outputs": [
        {
          "internalType": "address",
          "name": "",
          "type": "address"
        }
      ],
      "stateMutability": "view",
      "type": "function"
    },
    {
      "inputs": [
        {
          "internalType": "uint256",
          "name": "_id",
          "type": "uint256"
        }
      ],
      "name": "batalkanPermohonan",
      "outputs": [],
      "stateMutability": "nonpayable",
      "type": "function"
    },
    {
      "inputs": [
        {
          "internalType": "uint256",
          "name": "",
          "type": "uint256"
        }
      ],
      "name": "cidDokumenResmi",
      "outputs": [
        {
          "internalType": "string",
          "name": "",
          "type": "string"
        }
      ],
      "stateMutability": "view",
      "type": "function"
    },
    {
      "inputs": [
        {
          "internalType": "uint8",
          "name": "",
          "type": "uint8"
        },
        {
          "internalType": "uint256",
          "name": "",
          "type": "uint256"
        }
      ],
      "name": "daftarPermohonanKalurahanAsal",
      "outputs": [
        {
          "internalType": "uint256",
          "name": "",
          "type": "uint256"
        }
      ],
      "stateMutability": "view",
      "type": "function"
    },
    {
      "inputs": [
        {
          "internalType": "address",
          "name": "",
          "type": "address"
        },
        {
          "internalType": "uint256",
          "name": "",
          "type": "uint256"
        }
      ],
      "name": "daftarPermohonanPemohon",
      "outputs": [
        {
          "internalType": "uint256",
          "name": "",
          "type": "uint256"
        }
      ],
      "stateMutability": "view",
      "type": "function"
    },
    {
      "inputs": [
        {
          "internalType": "enum PencatatanTypes.Status",
          "name": "",
          "type": "uint8"
        },
        {
          "internalType": "uint256",
          "name": "",
          "type": "uint256"
        }
      ],
      "name": "daftarPermohonanPerStatus",
      "outputs": [
        {
          "internalType": "uint256",
          "name": "",
          "type": "uint256"
        }
      ],
      "stateMutability": "view",
      "type": "function"
    },
    {
      "inputs": [],
      "name": "dukcapil",
      "outputs": [
        {
          "internalType": "address",
          "name": "",
          "type": "address"
        }
      ],
      "stateMutability": "view",
      "type": "function"
    },
    {
      "inputs": [
        {
          "internalType": "uint256",
          "name": "_id",
          "type": "uint256"
        }
      ],
      "name": "getDokumenResmi",
      "outputs": [
        {
          "internalType": "string",
          "name": "",
          "type": "string"
        }
      ],
      "stateMutability": "view",
      "type": "function"
    },
    {
      "inputs": [
        {
          "internalType": "uint256",
          "name": "_id",
          "type": "uint256"
        }
      ],
      "name": "getJenisPermohonan",
      "outputs": [
        {
          "internalType": "string",
          "name": "",
          "type": "string"
        }
      ],
      "stateMutability": "view",
      "type": "function"
    },
    {
      "inputs": [
        {
          "internalType": "uint256",
          "name": "_id",
          "type": "uint256"
        }
      ],
      "name": "getJenisPindah",
      "outputs": [
        {
          "internalType": "string",
          "name": "",
          "type": "string"
        }
      ],
      "stateMutability": "view",
      "type": "function"
    },
    {
      "inputs": [],
      "name": "getKalurahanMappingCID",
      "outputs": [
        {
          "internalType": "string",
          "name": "",
          "type": "string"
        }
      ],
      "stateMutability": "view",
      "type": "function"
    },
    {
      "inputs": [],
      "name": "getNikMappingCID",
      "outputs": [
        {
          "internalType": "string",
          "name": "",
          "type": "string"
        }
      ],
      "stateMutability": "view",
      "type": "function"
    },
    {
      "inputs": [
        {
          "internalType": "uint256",
          "name": "_id",
          "type": "uint256"
        }
      ],
      "name": "getPermohonan",
      "outputs": [
        {
          "components": [
            {
              "internalType": "uint256",
              "name": "id",
              "type": "uint256"
            },
            {
              "internalType": "uint256",
              "name": "waktuPengajuan",
              "type": "uint256"
            },
            {
              "internalType": "address",
              "name": "pemohon",
              "type": "address"
            },
            {
              "internalType": "enum PencatatanTypes.JenisPermohonan",
              "name": "jenis",
              "type": "uint8"
            },
            {
              "internalType": "enum PencatatanTypes.Status",
              "name": "status",
              "type": "uint8"
            },
            {
              "internalType": "uint8",
              "name": "idKalurahanAsal",
              "type": "uint8"
            },
            {
              "internalType": "uint8",
              "name": "idKalurahanTujuan",
              "type": "uint8"
            },
            {
              "internalType": "string",
              "name": "cidIPFS",
              "type": "string"
            },
            {
              "internalType": "string",
              "name": "alasanPenolakan",
              "type": "string"
            },
            {
              "internalType": "address",
              "name": "verifikatorKalurahan",
              "type": "address"
            },
            {
              "internalType": "address",
              "name": "verifikatorKalurahanTujuan",
              "type": "address"
            },
            {
              "internalType": "address",
              "name": "verifikatorDukcapil",
              "type": "address"
            },
            {
              "internalType": "uint256",
              "name": "waktuVerifikasiKalurahan",
              "type": "uint256"
            },
            {
              "internalType": "uint256",
              "name": "waktuVerifikasiKalurahanTujuan",
              "type": "uint256"
            },
            {
              "internalType": "uint256",
              "name": "waktuVerifikasiDukcapil",
              "type": "uint256"
            },
            {
              "internalType": "address",
              "name": "konfirmatorKKTujuan",
              "type": "address"
            },
            {
              "internalType": "uint256",
              "name": "waktuKonfirmasiKKTujuan",
              "type": "uint256"
            },
            {
              "internalType": "bool",
              "name": "konfirmasiKKTujuan",
              "type": "bool"
            },
            {
              "internalType": "enum PencatatanTypes.JenisPindah",
              "name": "jenisPindah",
              "type": "uint8"
            }
          ],
          "internalType": "struct PencatatanTypes.Permohonan",
          "name": "",
          "type": "tuple"
        }
      ],
      "stateMutability": "view",
      "type": "function"
    },
    {
      "inputs": [
        {
          "internalType": "enum PencatatanTypes.Status",
          "name": "_status",
          "type": "uint8"
        }
      ],
      "name": "getPermohonanBelumVerifikasiKalurahan",
      "outputs": [
        {
          "internalType": "uint256[]",
          "name": "",
          "type": "uint256[]"
        }
      ],
      "stateMutability": "view",
      "type": "function"
    },
    {
      "inputs": [],
      "name": "getPermohonanByKalurahanAsal",
      "outputs": [
        {
          "internalType": "uint256[]",
          "name": "",
          "type": "uint256[]"
        }
      ],
      "stateMutability": "view",
      "type": "function"
    },
    {
      "inputs": [],
      "name": "getPermohonanByKalurahanTujuan",
      "outputs": [
        {
          "internalType": "uint256[]",
          "name": "",
          "type": "uint256[]"
        }
      ],
      "stateMutability": "view",
      "type": "function"
    },
    {
      "inputs": [
        {
          "internalType": "enum PencatatanTypes.Status",
          "name": "_status",
          "type": "uint8"
        }
      ],
      "name": "getPermohonanForDukcapil",
      "outputs": [
        {
          "internalType": "uint256[]",
          "name": "",
          "type": "uint256[]"
        }
      ],
      "stateMutability": "view",
      "type": "function"
    },
    {
      "inputs": [
        {
          "internalType": "address",
          "name": "_pemohon",
          "type": "address"
        }
      ],
      "name": "getPermohonanIDsByPemohon",
      "outputs": [
        {
          "internalType": "uint256[]",
          "name": "",
          "type": "uint256[]"
        }
      ],
      "stateMutability": "view",
      "type": "function"
    },
    {
      "inputs": [
        {
          "internalType": "string",
          "name": "_nikKepalaKeluarga",
          "type": "string"
        }
      ],
      "name": "getPermohonanMenungguKonfirmasiKK",
      "outputs": [
        {
          "internalType": "uint256[]",
          "name": "",
          "type": "uint256[]"
        }
      ],
      "stateMutability": "view",
      "type": "function"
    },
    {
      "inputs": [
        {
          "internalType": "uint256",
          "name": "_id",
          "type": "uint256"
        }
      ],
      "name": "getStatusPermohonan",
      "outputs": [
        {
          "internalType": "string",
          "name": "",
          "type": "string"
        }
      ],
      "stateMutability": "view",
      "type": "function"
    },
    {
      "inputs": [
        {
          "internalType": "address",
          "name": "_akun",
          "type": "address"
        },
        {
          "internalType": "string",
          "name": "_newMappingCID",
          "type": "string"
        }
      ],
      "name": "hapusKalurahan",
      "outputs": [],
      "stateMutability": "nonpayable",
      "type": "function"
    },
    {
      "inputs": [
        {
          "internalType": "address",
          "name": "",
          "type": "address"
        }
      ],
      "name": "idKalurahanByAddress",
      "outputs": [
        {
          "internalType": "uint8",
          "name": "",
          "type": "uint8"
        }
      ],
      "stateMutability": "view",
      "type": "function"
    },
    {
      "inputs": [],
      "name": "jumlahPermohonan",
      "outputs": [
        {
          "internalType": "uint256",
          "name": "",
          "type": "uint256"
        }
      ],
      "stateMutability": "view",
      "type": "function"
    },
    {
      "inputs": [
        {
          "internalType": "address",
          "name": "",
          "type": "address"
        }
      ],
      "name": "kalurahan",
      "outputs": [
        {
          "internalType": "bool",
          "name": "",
          "type": "bool"
        }
      ],
      "stateMutability": "view",
      "type": "function"
    },
    {
      "inputs": [],
      "name": "kalurahanMappingCID",
      "outputs": [
        {
          "internalType": "string",
          "name": "",
          "type": "string"
        }
      ],
      "stateMutability": "view",
      "type": "function"
    },
    {
      "inputs": [
        {
          "internalType": "uint256",
          "name": "_id",
          "type": "uint256"
        },
        {
          "internalType": "bool",
          "name": "_disetujui",
          "type": "bool"
        },
        {
          "internalType": "string",
          "name": "_nikKepalaKeluargaTujuan",
          "type": "string"
        }
      ],
      "name": "konfirmasiPindahGabungKK",
      "outputs": [],
      "stateMutability": "nonpayable",
      "type": "function"
    },
    {
      "inputs": [
        {
          "internalType": "address",
          "name": "",
          "type": "address"
        }
      ],
      "name": "nikByWallet",
      "outputs": [
        {
          "internalType": "string",
          "name": "",
          "type": "string"
        }
      ],
      "stateMutability": "view",
      "type": "function"
    },
    {
      "inputs": [],
      "name": "nikMappingCID",
      "outputs": [
        {
          "internalType": "string",
          "name": "",
          "type": "string"
        }
      ],
      "stateMutability": "view",
      "type": "function"
    },
    {
      "inputs": [
        {
          "internalType": "string",
          "name": "",
          "type": "string"
        },
        {
          "internalType": "uint256",
          "name": "",
          "type": "uint256"
        }
      ],
      "name": "permohonanMenungguKonfirmasiKK",
      "outputs": [
        {
          "internalType": "uint256",
          "name": "",
          "type": "uint256"
        }
      ],
      "stateMutability": "view",
      "type": "function"
    },
    {
      "inputs": [
        {
          "internalType": "string",
          "name": "_nik",
          "type": "string"
        }
      ],
      "name": "registerWarga",
      "outputs": [],
      "stateMutability": "nonpayable",
      "type": "function"
    },
    {
      "inputs": [
        {
          "internalType": "string",
          "name": "_nik",
          "type": "string"
        },
        {
          "internalType": "string",
          "name": "_mappingCID",
          "type": "string"
        }
      ],
      "name": "registerWargaAndUpdateMapping",
      "outputs": [],
      "stateMutability": "nonpayable",
      "type": "function"
    },
    {
      "inputs": [
        {
          "internalType": "enum PencatatanTypes.JenisPermohonan",
          "name": "_jenis",
          "type": "uint8"
        },
        {
          "internalType": "string",
          "name": "_cidIPFS",
          "type": "string"
        },
        {
          "internalType": "uint8",
          "name": "_idKalurahanAsal",
          "type": "uint8"
        },
        {
          "internalType": "uint8",
          "name": "_idKalurahanTujuan",
          "type": "uint8"
        },
        {
          "internalType": "enum PencatatanTypes.JenisPindah",
          "name": "_jenisPindah",
          "type": "uint8"
        }
      ],
      "name": "submitPermohonan",
      "outputs": [],
      "stateMutability": "nonpayable",
      "type": "function"
    },
    {
      "inputs": [
        {
          "internalType": "uint8",
          "name": "_id",
          "type": "uint8"
        },
        {
          "internalType": "address",
          "name": "_akun",
          "type": "address"
        },
        {
          "internalType": "string",
          "name": "_newMappingCID",
          "type": "string"
        }
      ],
      "name": "tambahKalurahanById",
      "outputs": [],
      "stateMutability": "nonpayable",
      "type": "function"
    },
    {
      "inputs": [
        {
          "internalType": "uint256",
          "name": "_id",
          "type": "uint256"
        },
        {
          "internalType": "string",
          "name": "_cidDokumen",
          "type": "string"
        }
      ],
      "name": "unggahDokumenResmi",
      "outputs": [],
      "stateMutability": "nonpayable",
      "type": "function"
    },
    {
      "inputs": [
        {
          "internalType": "uint256",
          "name": "_id",
          "type": "uint256"
        },
        {
          "internalType": "bool",
          "name": "_disetujui",
          "type": "bool"
        },
        {
          "internalType": "string",
          "name": "_alasan",
          "type": "string"
        }
      ],
      "name": "verifikasiDukcapil",
      "outputs": [],
      "stateMutability": "nonpayable",
      "type": "function"
    },
    {
      "inputs": [
        {
          "internalType": "uint256",
          "name": "_id",
          "type": "uint256"
        },
        {
          "internalType": "bool",
          "name": "_disetujui",
          "type": "bool"
        },
        {
          "internalType": "string",
          "name": "_alasan",
          "type": "string"
        }
      ],
      "name": "verifikasiKalurahan",
      "outputs": [],
      "stateMutability": "nonpayable",
      "type": "function"
    },
    {
      "inputs": [
        {
          "internalType": "uint256",
          "name": "_id",
          "type": "uint256"
        },
        {
          "internalType": "bool",
          "name": "_disetujui",
          "type": "bool"
        },
        {
          "internalType": "string",
          "name": "_alasan",
          "type": "string"
        },
        {
          "internalType": "uint8",
          "name": "_idKalurahanTujuan",
          "type": "uint8"
        }
      ],
      "name": "verifikasiKalurahanAsalPindah",
      "outputs": [],
      "stateMutability": "nonpayable",
      "type": "function"
    },
    {
      "inputs": [
        {
          "internalType": "uint256",
          "name": "_id",
          "type": "uint256"
        },
        {
          "internalType": "bool",
          "name": "_disetujui",
          "type": "bool"
        },
        {
          "internalType": "string",
          "name": "_alasan",
          "type": "string"
        },
        {
          "internalType": "string",
          "name": "_nikKepalaKeluargaTujuan",
          "type": "string"
        }
      ],
      "name": "verifikasiKalurahanTujuanPindah",
      "outputs": [],
      "stateMutability": "nonpayable",
      "type": "function"
    },
    {
      "inputs": [
        {
          "internalType": "string",
          "name": "",
          "type": "string"
        }
      ],
      "name": "walletByNik",
      "outputs": [
        {
          "internalType": "address",
          "name": "",
          "type": "address"
        }
      ],
      "stateMutability": "view",
      "type": "function"
    }
  ],
  "bytecode": "0x6080604052346102315761407e8038038061001981610236565b928339810190602081830312610231578051906001600160401b038211610231570181601f82011215610231578051906001600160401b0382116102065761006a601f8301601f1916602001610236565b92828452602083830101116102315760005b82811061021c57600083850160200181905280546001600160a01b03191633179055835184906001600160401b03811161020657600754600181811c911680156101fc575b60208210146101e657601f8111610181575b50602091601f821160011461011d57918192600092610112575b50508160011b916000199060031b1c1916176007555b604051613e22908161025c8239f35b0151905082806100ed565b601f198216926007600052806000209160005b85811061016957508360019510610150575b505050811b01600755610103565b015160001960f88460031b161c19169055828080610142565b91926020600181928685015181550194019201610130565b60076000527fa66cc928b5edb82af9bd49922954155ab7b0942694bea4ce44661d9a8736c688601f830160051c810191602084106101dc575b601f0160051c01905b8181106101d057506100d3565b600081556001016101c3565b90915081906101ba565b634e487b7160e01b600052602260045260246000fd5b90607f16906100c1565b634e487b7160e01b600052604160045260246000fd5b8060208092840101518282870101520161007c565b600080fd5b6040519190601f01601f191682016001600160401b038111838210176102065760405256fe6080604052600436101561001257600080fd5b60003560e01c80630bfa49df146103765780630facc3b314612b0757806311481b6d146129f2578063219d541f1461268e578063244c82cf146122ea5780632bbe04a61461225b5780632c086747146121915780632d7c56431461215b5780634635e378146103b057806349cda27e14611f7d5780634bef492314611f335780634cdf813b14611ee05780634ec6202214611e605780634f5414c714611dd157806350952c1414611d695780636434852314611d2a5780637df4ab6a146119d05780637ec410f81461170b578063825e827a14611525578063835b1ece146114ae57806389b4126214611471578063a1468b3d1461121f578063a197fb25146111b4578063a439ef061461117e578063a48bff9214611142578063a7014a0c14610e34578063aa02000714610dfe578063ab0680c114610dbc578063acbb35cf14610c7b578063b4750ad314610bd6578063b48da9b914610b9c578063bccf5e111461071e578063be50586f146106d1578063c76681d614610490578063d3b26d3f146103f5578063d4c0418b146103cc578063e1140b0d146103b0578063ea69c80214610392578063eae3073214610376578063f908a8ff146103365763fea8abac146101df57600080fd5b3461033157602036600319011261033157600435600d81101590816103315733600052600160205260ff60406000205416156103205733600052600560205260ff60406000205416600052600b60205260406000209081546102408161379e565b93600093845b8381106102945786866102588161379e565b9160005b828110610275576040518061027186826132d9565b0390f35b80610282600192846137d0565b5161028d82876137d0565b520161025c565b61029e818361353f565b90549060031b1c60005260096020528260ff60026040600020015460a81c169061030a57600d81101561030a5785146102da575b600101610246565b946103026001916102eb888561353f565b90549060031b1c6102fc828b6137d0565b526135df565b9590506102d2565b634e487b7160e01b600052602160045260246000fd5b631902707f60e31b60005260046000fd5b600080fd5b3461033157602036600319011261033157600435600052600f602052610271610362604060002061349d565b6040519182916020835260208301906131a1565b346103315760003660031901126103315761027161036261334d565b34610331576000366003190112610331576020600854604051908152f35b3461033157600036600319011261033157610271610362613406565b34610331576000366003190112610331576000546040516001600160a01b039091168152602090f35b34610331576020366003190112610331576004356001600160401b0381116103315761042760209136906004016131c6565b91908260405193849283378101600e81520301902060405190816020825491828152019160005260206000209060005b81811061047a576102718561046e81870382613245565b604051918291826132d9565b8254845260209093019260019283019201610457565b34610331576040366003190112610331576004356024356001600160401b038111610331576104c39036906004016131c6565b600054909291906001600160a01b031633036106c05781600052600960205260ff60026040600020015460a81c16600d811015908161030a57600381149182156106b2575b82156106a1575b8215610690575b50501561067f57821561066e5781600052600f6020526040600020926001600160401b038111610658576105548161054e8654613313565b86613648565b600093601f82116001146105d6576105a682807f75c675465e0858e943fd2e773390edaac64e2ee57918f3f49a20e198c1a5442596976000916105cb575b508160011b916000199060031b1c19161790565b90555b6105c06040519283926040845260408401916136aa565b4260208301520390a2005b905085013588610592565b80855260208520601f19831695805b8781106106405750837f75c675465e0858e943fd2e773390edaac64e2ee57918f3f49a20e198c1a54425969710610626575b5050600182811b0190556105a9565b840135600019600385901b60f8161c191690558580610617565b909160206001819285890135815501930191016105e5565b634e487b7160e01b600052604160045260246000fd5b630f4cd64160e41b60005260046000fd5b63291bd15960e11b60005260046000fd5b90915061030a57600b148480610516565b80925061030a57600181149161050f565b506007811491506000610508565b632897e6d360e21b60005260046000fd5b3461033157604036600319011261033157600435600d811015610331576106fa602435916135c6565b80548210156103315760209161070f9161353f565b90549060031b1c604051908152f35b346103315761072c3661356d565b600054929390926001600160a01b031633036106c0578060005260096020526040600020936002850193845460ff8160a01c16600581101561030a57600403610b10575060ff855460a81c16600d8110158061030a576007821490818015610b03575b15610af25761030a5715610a4e57506107a860076135c6565b9460005b865480821015610a4157856107c1838a61353f565b90549060031b1c146107d657506001016107ac565b60009791929394959697198101908111610a2b5761082a9261080c6107fe610825938561353f565b90549060031b1c918461353f565b90919082549060031b91821b91600019901b1916179055565b6136f0565b82156108d757805460ff60a81b1916600360a81b1790556003600052600d602052929391927f6b79a244eb3993d9a079f4708e9832062b305d6080c8372aac9c82d882a9557b9261089b857f26b4a10d0f0b04925c23bd4480ee147c916e5e87a7d68206a533dad160ac81e2613682565b6007810160018060a01b0333166001600160601b0360a01b825416179055600a429101556108d260405192839233974292856136cb565b0390a3005b805460ff60a81b1916600160aa1b17905560048501946001600160401b0382116106585761090f826109098854613313565b88613648565b600095601f83116001146109a85761096183807f6b79a244eb3993d9a079f4708e9832062b305d6080c8372aac9c82d882a9557b97989960009161099d57508160011b916000199060031b1c19161790565b90555b6004600052600d602052610998857fafafe8948a4ed9d478b1e9a5780b119b5edd00ea7d07bc35bef7c814824eb94b613682565b61089b565b90508901358a610592565b80875260208720601f19841697805b898110610a135750847f6b79a244eb3993d9a079f4708e9832062b305d6080c8372aac9c82d882a9557b979899106109f9575b5050600183811b019055610964565b880135600019600386901b60f8161c1916905587806109ea565b9091602060018192858c0135815501930191016109b7565b634e487b7160e01b600052601160045260246000fd5b505090919293945061082a565b600b60009692939495969114610a65575b5061082a565b9493929190610a74600b6135c6565b865b815480821015610ae45786610a8b838561353f565b90549060031b1c14610aa05750600101610a76565b90919293949596976000198201918211610ad05750829161080c6107fe61082593610aca9661353f565b86610a5f565b634e487b7160e01b81526011600452602490fd5b505050909192939450610aca565b63656d7eb560e01b60005260046000fd5b50506000600b831461078f565b60a81c60ff16600d81101561030a57600103610b8b57610b3060016135c6565b9460005b865480821015610a415785610b49838a61353f565b90549060031b1c14610b5e5750600101610b34565b60009791929394959697198101908111610a2b57610b869261080c6107fe610825938561353f565b61082a565b633c78815f60e01b60005260046000fd5b34610331576020366003190112610331576001600160a01b03610bbd613213565b166000526002602052610271610362604060002061349d565b34610331576020366003190112610331576004356000818152600960209081526040808320600201548354600f909352922054336001600160a01b03928316149290911690610c2490613313565b15610c6a573314908115610c62575b5015610c5157600052600f602052610271610362604060002061349d565b6370436def60e11b60005260046000fd5b905082610c33565b63c31a6dc560e01b60005260046000fd5b3461033157602036600319011261033157600435336000526002602052610ca6604060002054613313565b15610dab57600081815260096020526040902060028101805491929091336001600160a01b03821603610d9a5760a81c60ff16600d81101561030a57610d8957610cef906137e4565b805460ff60a81b1916600960a81b179055426008820155600481018054610d1f90610d1990613313565b8261361d565b604781556000526237b71760e91b600160206000207f5065726d6f686f6e616e206469626174616c6b616e206f6c65682070656d6f688155015554604051904282527fc32fdc85bad287b87324f2b5c9affb2708f355d219541e068064d32eaed8d66560203393a3005b634db47d8360e01b60005260046000fd5b638c1f61f360e01b60005260046000fd5b630a878caf60e31b60005260046000fd5b3461033157604036600319011261033157610dd5613203565b60ff6024359116600052600b602052604060002080548210156103315760209161070f9161353f565b3461033157602036600319011261033157600435600052600960205261027161036260ff600d6040600020015460081c16613cd6565b34610331576020366003190112610331576000610240604051610e5681613229565b8281528260208201528260408201528260608201528260808201528260a08201528260c0820152606060e0820152606061010082015282610120820152826101408201528261016082015282610180820152826101a0820152826101c0820152826101e0820152826102008201528261022082015201526004356000526009602052604060002060405190610eea82613229565b805482526001810154602083015260028101546001600160a01b0381166040840152610f2060a082901c60ff16606085016135ee565b60ff8160a81c1690600d82101561030a57610ffe9260ff600d9281946080880152818160b01c1660a088015260b81c1660c0860152610f616003820161349d565b60e0860152610f726004820161349d565b61010086015260058101546001600160a01b03908116610120870152600682015481166101408701526007820154811661016087015260088083015461018088015260098301546101a0880152600a8301546101c0880152600b8301549091166101e0870152600c8201546102008701529101548281161515610220860152901c1661024083016135fa565b6040519060208252805160208301526020810151604083015260018060a01b03604082015116606083015261103b606082015160808401906135ac565b608081015190600d82101561030a57829160a083015260ff60a08201511660c083015260ff60c08201511660e08301526102716102406110a861109060e08501516102606101008801526102808701906131a1565b610100850151868203601f19016101208801526131a1565b9260018060a01b036101208201511661014086015260018060a01b036101408201511661016086015260018060a01b03610160820151166101808601526101808101516101a08601526101a08101516101c08601526101c08101516101e086015260018060a01b036101e08201511661020086015261020081015161022086015261022081015115158286015201516102608401906135b9565b346103315760203660031901126103315760ff61115d613203565b166000526004602052602060018060a01b0360406000205416604051908152f35b3461033157602036600319011261033157600435600052600960205261027161036260ff60026040600020015460a01c16613bb1565b34610331576040366003190112610331576004356001600160401b038111610331576111e49036906004016132ac565b611200602060243592816040519382858094519384920161317e565b8101600e81520301902080548210156103315760209161070f9161353f565b346103315761122d3661356d565b92909133600052600160205260ff60406000205416156103205733600052600560205261127a60ff6040600020541683600052600960205260ff60026040600020015460b01c161461372f565b8160005260096020526040600020936002850160ff815460a81c16600d81101561030a57611460576112ab846137e4565b821561134157805460ff60a81b1916600160a81b1790556001600052600d60205292939192600080516020613dcd8339815191529261130a857ffd54ff1ed53f34a900b24c5ba64f85761163b5d82d98a47b9bd80e45466993c5613682565b6005810160018060a01b0333166001600160601b0360a01b8254161790556008429101556108d260405192839233974292856136cb565b805460ff60a81b1916600160a91b17905560048501946001600160401b03821161065857611373826109098854613313565b600095601f83116001146113ef576113b38380600080516020613dcd83398151915297989960009161099d57508160011b916000199060031b1c19161790565b90555b6002600052600d6020526113ea857f10a81eed9d63d16face5e76357905348e6253d3394086026bb2bf2145d7cc249613682565b61130a565b80875260208720601f19841697805b898110611448575084600080516020613dcd8339815191529798991061142e575b5050600183811b0190556113b6565b880135600019600386901b60f8161c19169055878061141f565b9091602060018192858c0135815501930191016113fe565b63d2bc121d60e01b60005260046000fd5b34610331576020366003190112610331576001600160a01b03611492613213565b166000526005602052602060ff60406000205416604051908152f35b34610331576020366003190112610331576001600160a01b036114cf613213565b16600052600a602052604060002060405190816020825491828152019160005260206000209060005b81811061150f576102718561046e81870382613245565b82548452602090930192600192830192016114f8565b34610331576020366003190112610331576004356001600160401b038111610331576115559036906004016132ac565b604051815190602083019161156b81838561317e565b60039082019081528190036020019020546001600160a01b03166116fa573360005260026020526115a0604060002054613313565b6116e95760206115bb9160405180938192865192839161317e565b60039082019081520301902080546001600160a01b03191633908117909155600090815260026020526040902081516001600160401b0381116106585761160c816116068454613313565b84613648565b6020601f821160011461168557908061163a9260009161167a57508160011b916000199060031b1c19161790565b90555b7ff681a6e5cf03ecba385f32439e3a53ca704ad8f2a8d20230aa6a3971dc2ae2186040516020815280611675339460208301906131a1565b0390a2005b905084015185610592565b601f1982169083600052806000209160005b8181106116d1575090836001949392106116b8575b5050811b01905561163d565b85015160001960f88460031b161c1916905584806116ac565b9192602060018192868a015181550194019201611697565b63e278de3960e01b60005260046000fd5b631677261960e21b60005260046000fd5b34610331576080366003190112610331576004356117276132ca565b906044356001600160401b038111610331576117479036906004016131c6565b90926117516131f3565b9133600052600160205260ff60406000205416156103205733600052600560205261179c60ff6040600020541685600052600960205260ff60026040600020015460b01c161461372f565b836000526009602052604060002060028101805460ff8160a81c16600d81101561030a576114605760a01c60ff16600581101561030a576004036119bf576117e3866137e4565b83156118a25760ff85168015611891576000908152600460205260409020546001600160a01b03161561188057805460ff60b81b191660b89590951b60ff60b81b16949094178455600080516020613dcd83398151915293805460ff60a81b1916600560a81b1790556005600052600d60205261130a857fa5049387d9cb649c59f4bda666105ba636c2a103d8e2b232ba4d125737cd2149613682565b63fac301e360e01b60005260046000fd5b636c1ba33960e01b60005260046000fd5b805460ff60a81b1916600360a91b17905560048101959493506001600160401b038211610658576118d7826109098854613313565b600095601f831160011461194e576119178380600080516020613dcd83398151915297989960009161099d57508160011b916000199060031b1c19161790565b90555b6006600052600d6020526113ea857fa48544818c2c710afa9849c61ec9c60e8acdb3eaa2885f33b37e118cc8fd04ac613682565b80875260208720601f19841697805b8981106119a7575084600080516020613dcd8339815191529798991061198d575b5050600183811b01905561191a565b880135600019600386901b60f8161c19169055878061197e565b9091602060018192858c01358155019301910161195d565b63243d08b360e21b60005260046000fd5b34610331576119de3661356d565b91923360005260026020526119f7604060002054613313565b15610dab57806000526009602052604060002092600284019081549360ff8560a01c16600581101561030a576004036119bf57600d86019460ff865460081c16600381101561030a57600203611cdb5760a81c60ff16600d81101561030a57600a03611c8a57611a67600a6135c6565b9560005b875480821015611c7c5786611a80838b61353f565b90549060031b1c14611a955750600101611a6b565b6000989192939495969798198101908111610a2b57611abe9261080c6107fe610825938561353f565b60405183838237602081858101600e81520301902060005b81548981831015611c49575087611aed838561353f565b90549060031b1c14611b025750600101611ad6565b909596976000198201918211610a2b577fa25323c522b668730629025f46ec29f731ed5e7a94e4c4a2c15ffa8d94b128d297611b508461082560409a61080c8f976107fe90611b929a61353f565b8215611bd057805460ff60a81b1916600b60a81b179055600b6000908152600d602052879020611b81908a90613682565b9060ff801983541691151516179055565b600b810180546001600160a01b0319163317905542600c909101558251918291819083378101600081520390209381519015158152426020820152a3005b805460ff60a81b1916600360aa1b179055600484018054611bf490610d1990613313565b60478155600052623ab0b760e91b600160206000207f4469746f6c616b206f6c6568206b6570616c61206b656c75617267612074756a81550155611c4489886000600c8152600d60205220613682565b611b81565b915050611b9291507fa25323c522b668730629025f46ec29f731ed5e7a94e4c4a2c15ffa8d94b128d29697604096611b50565b505090919293949550611abe565b60405162461bcd60e51b815260206004820152602360248201527f53746174757320746964616b2076616c696420756e74756b206b6f6e6669726d60448201526261736960e81b6064820152608490fd5b60405162461bcd60e51b815260206004820152602160248201527f42756b616e207065726d6f686f6e616e2070696e64616820676162756e67204b6044820152604b60f81b6064820152608490fd5b34610331576020366003190112610331576001600160a01b03611d4b613213565b166000526001602052602060ff604060002054166040519015158152f35b34610331576020366003190112610331576004356001600160401b03811161033157611d9b60209136906004016132ac565b81611daf604051928381519384920161317e565b600390820190815281900382019020546040516001600160a01b039091168152f35b346103315760003660031901126103315733600052600160205260ff60406000205416156103205733600052600560205260ff60406000205416600052600b602052604060002060405190816020825491828152019160005260206000209060005b818110611e4a576102718561046e81870382613245565b8254845260209093019260019283019201611e33565b3461033157602036600319011261033157600435600d811015610331576000546001600160a01b031633036106c057611e98906135c6565b60405190816020825491828152019160005260206000209060005b818110611eca576102718561046e81870382613245565b8254845260209093019260019283019201611eb3565b34610331576020366003190112610331576004356001600160401b038111610331576020611f13819236906004016131c6565b91908260405193849283378101600e815203019020541515604051908152f35b3461033157604036600319011261033157611f4c613213565b6001600160a01b03166000908152600a60205260409020805460243591908210156103315760209161070f9161353f565b34610331576020366003190112610331576004356001600160401b03811161033157611fad9036906004016131c6565b6000549091906001600160a01b031633036106c0576001600160401b03821161065857611fdb600654613313565b601f8111612101575b50600091601f81116001146120605761203581807f05b7d468eb456c6bffbac7ac5f22f68ca5ce358ae4551017aeb9e69bf8fa11ee9560009161205557508160011b916000199060031b1c19161790565b6006555b6120506040519283926020845260208401916136aa565b0390a1005b905084013586610592565b60068352601f198116927ff652222313e28459528d920b65115c16c04f3efc82aaedc97be59f3f377c0d3f90805b8581106120e95750827f05b7d468eb456c6bffbac7ac5f22f68ca5ce358ae4551017aeb9e69bf8fa11ee95106120cf575b5050600181811b01600655612039565b830135600019600384901b60f8161c1916905583806120bf565b9091602060018192858801358155019301910161208e565b600660005261214b907ff652222313e28459528d920b65115c16c04f3efc82aaedc97be59f3f377c0d3f601f850160051c81019160208610612151575b601f0160051c0190613606565b82611fe4565b909150819061213e565b3461033157602036600319011261033157600435600052600960205261027161036260ff60026040600020015460a81c16613844565b34610331576020366003190112610331576121aa613213565b6000546001600160a01b031633036106c0576001600160a01b03166000818152600160209081526040808320805460ff19169055600590915290205460ff1680612222575b7fff465bdd426bd62b03af572638a7fbc92e0bd4ceb6c77721a320e5d5c42b2e1e604080516020815260006020820152a3005b80600052600460205260406000206001600160601b0360a01b8154169055816000526005602052604060002060ff1981541690556121ef565b346103315760003660031901126103315733600052600160205260ff60406000205416156103205733600052600560205260ff60406000205416600052600c602052604060002060405190816020825491828152019160005260206000209060005b8181106122d4576102718561046e81870382613245565b82548452602090930192600192830192016122bd565b34610331576080366003190112610331576004356123066132ca565b6044356001600160401b038111610331576123259036906004016131c6565b6064939193356001600160401b038111610331576123479036906004016131c6565b93909133600052600160205260ff604060002054161561032057836000526009602052604060002060028101805460ff8160a01c16600581101561030a576004036119bf5760ff8160a81c16600d81101561030a5760050361267d5733600052600560205260ff80604060002054169160b81c160361266c576123ca60056135c6565b9660005b88548082101561265d57886123e3838c61353f565b90549060031b1c146123f857506001016123ce565b600099919293949596979899198101908111610a2b576124229261080c6107fe610825938561353f565b841561253f5760ff600d84015460081c1690600382101561030a57600080516020613dcd8339815191529688926002036124f157835460ff60a81b1916600560a91b17909355600a600052600d60209081526124ba936124a2847fba9d637f252776d5e1b3534bbd7554a1265a4ef0539d9ca50abe118598a6973c613682565b8260405193849283378101600e815203019020613682565b6006810160018060a01b0333166001600160601b0360a01b8254161790556009429101556108d260405192839233974292856136cb565b5050815460ff60a81b1916600760a81b17909155506007600052600d60205261253a857fb91432bedff11256dbe14161d3606a2657bc9dacf8742f6b817d871dd53fb976613682565b6124ba565b50805460ff60a81b1916600160ab1b17905560048101959493506001600160401b03821161065857612575826109098854613313565b600095601f83116001146125ec576125b58380600080516020613dcd83398151915297989960009161099d57508160011b916000199060031b1c19161790565b90555b6008600052600d60205261253a857f0b705463cf5f7356780ee6e96132d37412c1b5816a4d207b8dcd42c349767457613682565b80875260208720601f19841697805b898110612645575084600080516020613dcd8339815191529798991061262b575b5050600183811b0190556125b8565b880135600019600386901b60f8161c19169055878061261c565b9091602060018192858c0135815501930191016125fb565b50509091929394959650612422565b635a6db8ab60e01b60005260046000fd5b63384bca1f60e11b60005260046000fd5b34610331576040366003190112610331576004356001600160401b038111610331576126be9036906004016132ac565b6024356001600160401b038111610331576126dd9036906004016131c6565b60405183519060208501916126f381838561317e565b60039082019081528190036020019020546001600160a01b03166116fa57336000526002602052612728604060002054613313565b6116e95760206127439160405180938192885192839161317e565b60039082019081520301902080546001600160a01b03191633908117909155600090815260026020526040902083516001600160401b0381116106585761278e816116068454613313565b6020601f821160011461298e5790806127bc9260009161298357508160011b916000199060031b1c19161790565b90555b6001600160401b038111610658576127d8600754613313565b601f8111612934575b50600092601f82116001146128935761283282807f262db39bd0808699e53948bb8d4427b6399e3aa80e4e5d22462b61781dab6cd79660009161288857508160011b916000199060031b1c19161790565b6007555b7ff681a6e5cf03ecba385f32439e3a53ca704ad8f2a8d20230aa6a3971dc2ae218604051602081528061286e339460208301906131a1565b0390a26120506040519283926020845260208401916136aa565b905085013587610592565b60078452601f198216937fa66cc928b5edb82af9bd49922954155ab7b0942694bea4ce44661d9a8736c68890805b86811061291c5750837f262db39bd0808699e53948bb8d4427b6399e3aa80e4e5d22462b61781dab6cd79610612902575b5050600182811b01600755612836565b840135600019600385901b60f8161c1916905584806128f2565b909160206001819285890135815501930191016128c1565b600760005261297d907fa66cc928b5edb82af9bd49922954155ab7b0942694bea4ce44661d9a8736c688601f840160051c8101916020851061215157601f0160051c0190613606565b836127e1565b905086015187610592565b601f1982169083600052806000209160005b8181106129da575090836001949392106129c1575b5050811b0190556127bf565b87015160001960f88460031b161c1916905586806129b5565b9192602060018192868c0151815501940192016129a0565b3461033157604036600319011261033157612a0b613203565b6024356001600160a01b0381169190829003610331576000546001600160a01b031633036106c0578115612af65760ff166000818152600460205260409020546001600160a01b0316612ae55781600052600560205260ff604060002054161580612adc575b15612acb578060005260046020526040600020826001600160601b0360a01b82541617905581600052600560205260406000209060ff1982541617905560005260016020526040600020600160ff19825416179055600080f35b6338077c8760e21b60005260046000fd5b50801515612a71565b6348745fab60e01b60005260046000fd5b639fabe1c160e01b60005260046000fd5b346103315760a03660031901126103315760056004351015610331576024356001600160401b03811161033157612b429036906004016131c6565b60443560ff8116810361033157612b576131f3565b9260843592600384101561033157336000526002602052612b7c604060002054613313565b15610dab57801561066e5760ff83166000908152600460205260409020546001600160a01b031615611880576000926004803514958661313d575b60085494612bc4866135df565b6008555086156131355780915b600090881561312e5787935b60ff60405191612bec83613229565b898352426020840152336040840152612c0a600435606085016135ee565b84608084015281841660a08401521660c0820152612c29368789613266565b60e0820152612c93602095604051612c418882613245565b85815261010084015284610120840152846101408401528461016084015284610180840152846101a0840152846101c0840152846101e0840152846102008401528461022084015261024083016135fa565b8783526009855260408084208251815560208301516001820155908201516002820180546001600160a01b0319166001600160a01b03929092169190911790556060820151600581101561311a5760028201805460ff60a01b191660a09290921b60ff60a01b169190911790556080820151600d81101561311a5760028201805460a085015160c086015162ffffff60a81b1990921660a89490941b60ff60a81b169390931760b09390931b60ff60b01b169290921760b89290921b60ff60b81b1691909117905560e08201518051906001600160401b03821161308d57612d8b82612d826003860154613313565b60038601613648565b8790601f83116001146130ac57612dba92918791836130a1575b50508160011b916000199060031b1c19161790565b60038201555b6101008201518051906001600160401b03821161308d57612df182612de86004860154613313565b60048601613648565b8790601f831160011461301b5782600d936102409593612e26938a926130105750508160011b916000199060031b1c19161790565b60048201555b6101208401516005820180546001600160a01b039283166001600160a01b03199182161790915561014086015160068401805491841691831691909117905561016086015160078401805491841691831691909117905561018086015160088401556101a086015160098401556101c0860151600a8401556101e0860151600b84018054919093169116179055610200840151600c8201556102208401519101805460ff191691151560ff169190911781559101516003811015612ffc57815461ff00191660089190911b61ff0016179055338252600a84526040822089929160ff91612f1a908a90613682565b168152600b8452612f2e8760408320613682565b808052600d8452612f428760408320613682565b50612fde575b5060009515612fa45791612f949160607fa0b9d3ab20139b1dab107ee5e773449c3bc1cba0be29c7281e39e5623d699b9d94612f8760405180996135b9565b87015260608601916136aa565b924260408201528033940390a380f35b93507f76091af5eb885b36d291fafffdf0282c662dd305c7a5efb5f216ce4133972fca91612f9491606060405196612f87886004356135ac565b60ff16600052600c8152612ff6846040600020613682565b86612f48565b634e487b7160e01b84526021600452602484fd5b015190503880612da5565b9060048401875288872091875b8a601f1986168210613077575050926102409492600192600d9583601f1981161061305e575b505050811b016004820155612e2c565b015160001960f88460031b161c191690558f808061304e565b6001849582939585015181550194019201613028565b634e487b7160e01b86526041600452602486fd5b015190508e80612da5565b91906003840187528887209087935b8a601f198516861061310157506001945083601f198116106130e8575b505050811b016003820155612dc0565b015160001960f88460031b161c191690558d80806130d8565b82820151845594850194600190930192909101906130bb565b634e487b7160e01b85526021600452602485fd5b8193612bdd565b600091612bd1565b60ff8116801561316f578552600460205260408520546001600160a01b0316612bb75763fac301e360e01b8552600485fd5b636c1ba33960e01b8652600486fd5b60005b8381106131915750506000910152565b8181015183820152602001613181565b906020916131ba8151809281855285808601910161317e565b601f01601f1916010190565b9181601f84011215610331578235916001600160401b038311610331576020838186019501011161033157565b6064359060ff8216820361033157565b6004359060ff8216820361033157565b600435906001600160a01b038216820361033157565b61026081019081106001600160401b0382111761065857604052565b90601f801991011681019081106001600160401b0382111761065857604052565b9291926001600160401b038211610658576040519161328f601f8201601f191660200184613245565b829481845281830111610331578281602093846000960137010152565b9080601f83011215610331578160206132c793359101613266565b90565b60243590811515820361033157565b602060408183019282815284518094520192019060005b8181106132fd5750505090565b82518452602093840193909201916001016132f0565b90600182811c92168015613343575b602083101461332d57565b634e487b7160e01b600052602260045260246000fd5b91607f1691613322565b604051906000826006549161336183613313565b80835292600181169081156133e75750600114613387575b61338592500383613245565b565b506006600090815290917ff652222313e28459528d920b65115c16c04f3efc82aaedc97be59f3f377c0d3f5b8183106133cb57505090602061338592820101613379565b60209193508060019154838589010152019101909184926133b3565b6020925061338594915060ff191682840152151560051b820101613379565b604051906000826007549161341a83613313565b80835292600181169081156133e7575060011461343d5761338592500383613245565b506007600090815290917fa66cc928b5edb82af9bd49922954155ab7b0942694bea4ce44661d9a8736c6885b81831061348157505090602061338592820101613379565b6020919350806001915483858901015201910190918492613469565b90604051918260008254926134b184613313565b808452936001811690811561351d57506001146134d6575b5061338592500383613245565b90506000929192526020600020906000915b81831061350157505090602061338592820101386134c9565b60209193508060019154838589010152019101909184926134e8565b90506020925061338594915060ff191682840152151560051b820101386134c9565b80548210156135575760005260206000200190600090565b634e487b7160e01b600052603260045260246000fd5b6060600319820112610331576004359160243580151581036103315791604435906001600160401b038211610331576135a8916004016131c6565b9091565b90600582101561030a5752565b90600382101561030a5752565b600d81101561030a57600052600d602052604060002090565b6000198114610a2b5760010190565b600582101561030a5752565b600382101561030a5752565b818110613611575050565b60008155600101613606565b90601f811161362a575050565b613385916000526002601f6020600020920160051c82019101613606565b9190601f811161365757505050565b613385926000526020600020906020601f840160051c8301931061215157601f0160051c0190613606565b9081549168010000000000000000831015610658578261080c9160016133859501815561353f565b908060209392818452848401376000828201840152601f01601f1916010190565b949392916040926136eb92151587526060602088015260608701916136aa565b930152565b80548015613719576000190190613707828261353f565b8154906000199060031b1b1916905555565b634e487b7160e01b600052603160045260246000fd5b1561373657565b60405162461bcd60e51b8152602060048201526024808201527f48616e7961206b616c75726168616e206173616c2079616e672062657277656e604482015263616e672160e01b6064820152608490fd5b6001600160401b0381116106585760051b60200190565b906137a882613787565b6137b56040519182613245565b82815280926137c6601f1991613787565b0190602036910137565b80518210156135575760209160051b010190565b6137ee60006135c6565b60005b81548082101561383e5783613806838561353f565b90549060031b1c1461381b57506001016137f1565b9092506000198101908111610a2b576133859261080c6107fe610825938561353f565b50505050565b600d81101561030a578015613b8a57600060018214613b56575060028114613b2657600060038214613af3575060048114613ac457600060058214613a86575060068114613a5157600060078214613a135750600881146139d7576000600982146139995750600a811461395d57600090600b811461392757600c9150146138f8576040516138d4604082613245565b601481527314dd185d1d5cc8151a59185ac8111a5ad95b985b60621b602082015290565b604051613906604082613245565b60118152702234ba37b630b59025a5902a3ab53ab0b760791b602082015290565b5050604051613937604082613245565b60168152752234b5b7b73334b936b0b9b49025a5902a3ab53ab0b760511b602082015290565b5060405161396c604082613245565b601d81527f4d656e756e676775204b6f6e6669726d617369204b4b2054756a75616e000000602082015290565b505060408051906139aa9082613245565b601781527f4469626174616c6b616e206f6c65682050656d6f686f6e000000000000000000602082015290565b506040516139e6604082613245565b601881527f4469746f6c616b204b616c75726168616e2054756a75616e0000000000000000602082015290565b50506040805190613a249082613245565b601a81527f4469736574756a7569204b616c75726168616e2054756a75616e000000000000602082015290565b50604051613a60604082613245565b6016815275111a5d1bdb185ac812d85b1d5c985a185b88105cd85b60521b602082015290565b50506040805190613a979082613245565b601881527f4469736574756a7569204b616c75726168616e204173616c0000000000000000602082015290565b50604051613ad3604082613245565b601081526f111a5d1bdb185ac8111d5ad8d85c1a5b60821b602082015290565b50506040805190613b049082613245565b6012815271111a5cd95d1d5a9d5a48111d5ad8d85c1a5b60721b602082015290565b50604051613b35604082613245565b60118152702234ba37b630b59025b0b63ab930b430b760791b602082015290565b50506040805190613b679082613245565b60138152722234b9b2ba3ab53ab49025b0b63ab930b430b760691b602082015290565b50604051613b99604082613245565b60088152672234b0b53ab5b0b760c11b602082015290565b600581101561030a578015613cae57600060018214613c85575060028114613c615760009060038114613c3c576004915014613c1857604051613bf5604082613245565b601381527212995b9a5cc8151a59185ac8111a5ad95b985b606a1b602082015290565b604051613c26604082613245565b60068152650a0d2dcc8c2d60d31b602082015290565b5050604051613c4c604082613245565b6005815264436572616960d81b602082015290565b50604051613c70604082613245565b600581526425b0bbb4b760d91b602082015290565b50506040805190613c969082613245565b600881526725b2b6b0ba34b0b760c11b602082015290565b50604051613cbd604082613245565b600981526825b2b630b434b930b760b91b602082015290565b600381101561030a578015613d905760009060018114613d62576002915014613d3457604051613d07604082613245565b601a81527f4a656e69732050696e64616820546964616b2044696b656e616c000000000000602082015290565b604051613d42604082613245565b601081526f50696e64616820476162756e67204b4b60801b602082015290565b5050604051613d72604082613245565b600e81526d50696e646168204d616e6469726960901b602082015290565b50604051613d9f604082613245565b601781527f50696e6461682053656c75727568204b656c756172676100000000000000000060208201529056feb464c40b6330ada9cbaedc9b928b83d905cd3051349abb7332ae44607384da59a264697066735822122093623b1b5825827bf34b1158240863dc1246ff73307a7868bb39f67ffabfc7c164736f6c634300081c0033",
  "linkReferences": {},
  "deployedLinkReferences": {}
}