{
  "_format": "hh-sol-artifact-1",
  "contractName": "PencatatanSipil",
  "sourceName": "contracts/PencatatanSipil.sol",
  "abi": [
    {
      "inputs": [],
      "name": "AddressSudahDipakai",
      "type": "error"
    },
    {
      "inputs": [],
      "name": "AddressZero",
      "type": "error"
    },
    {
      "inputs": [],
      "name": "AksesDitolak",
      "type": "error"
    },
    {
      "inputs": [],
      "name": "BelumAdaDokumenResmi",
      "type": "error"
    },
    {
      "inputs": [],
      "name": "BelumDisetujuiDukcapil",
      "type": "error"
    },
    {
      "inputs": [],
      "name": "BelumDiverifikasiKalurahanAsal",
      "type": "error"
    },
    {
      "inputs": [],
      "name": "BukanPemilikPermohonan",
      "type": "error"
    },
    {
      "inputs": [],
      "name": "BukanPermohonanPindah",
      "type": "error"
    },
    {
      "inputs": [],
      "name": "CidKosong",
      "type": "error"
    },
    {
      "inputs": [],
      "name": "HanyaKalurahanTujuan",
      "type": "error"
    },
    {
      "inputs": [],
      "name": "IdKalurahanTujuanTidakDikenal",
      "type": "error"
    },
    {
      "inputs": [],
      "name": "IdSudahDipakai",
      "type": "error"
    },
    {
      "inputs": [],
      "name": "NikSudahDiklaim",
      "type": "error"
    },
    {
      "inputs": [],
      "name": "OnlyDukcapil",
      "type": "error"
    },
    {
      "inputs": [],
      "name": "OnlyKalurahan",
      "type": "error"
    },
    {
      "inputs": [],
      "name": "OnlyWargaTerdaftar",
      "type": "error"
    },
    {
      "inputs": [],
      "name": "PermohonanBelumDisetujuiKalurahan",
      "type": "error"
    },
    {
      "inputs": [],
      "name": "PermohonanBukanDiajukan",
      "type": "error"
    },
    {
      "inputs": [],
      "name": "PermohonanPindahBelumDisetujuiKalurahanTujuan",
      "type": "error"
    },
    {
      "inputs": [],
      "name": "TidakDapatDibatalkan",
      "type": "error"
    },
    {
      "inputs": [],
      "name": "TujuanTidakValid",
      "type": "error"
    },
    {
      "inputs": [],
      "name": "WalletSudahDigunakan",
      "type": "error"
    },
    {
      "anonymous": false,
      "inputs": [
        {
          "indexed": true,
          "internalType": "uint256",
          "name": "idPermohonan",
          "type": "uint256"
        },
        {
          "indexed": false,
          "internalType": "string",
          "name": "cidDokumen",
          "type": "string"
        },
        {
          "indexed": false,
          "internalType": "uint256",
          "name": "waktu",
          "type": "uint256"
        }
      ],
      "name": "DokumenResmiDiunggah",
      "type": "event"
    },
    {
      "anonymous": false,
      "inputs": [
        {
          "indexed": false,
          "internalType": "string",
          "name": "newCID",
          "type": "string"
        }
      ],
      "name": "KalurahanMappingCIDUpdated",
      "type": "event"
    },
    {
      "anonymous": false,
      "inputs": [
        {
          "indexed": true,
          "internalType": "uint8",
          "name": "id",
          "type": "uint8"
        },
        {
          "indexed": true,
          "internalType": "address",
          "name": "akun",
          "type": "address"
        },
        {
          "indexed": false,
          "internalType": "string",
          "name": "nama",
          "type": "string"
        }
      ],
      "name": "KalurahanRemoved",
      "type": "event"
    },
    {
      "anonymous": false,
      "inputs": [
        {
          "indexed": true,
          "internalType": "uint256",
          "name": "idPermohonan",
          "type": "uint256"
        },
        {
          "indexed": true,
          "internalType": "string",
          "name": "nikKepalaKeluargaTujuan",
          "type": "string"
        },
        {
          "indexed": false,
          "internalType": "bool",
          "name": "disetujui",
          "type": "bool"
        },
        {
          "indexed": false,
          "internalType": "uint256",
          "name": "waktu",
          "type": "uint256"
        }
      ],
      "name": "KonfirmasiKKTujuan",
      "type": "event"
    },
    {
      "anonymous": false,
      "inputs": [
        {
          "indexed": true,
          "internalType": "uint256",
          "name": "id",
          "type": "uint256"
        },
        {
          "indexed": true,
          "internalType": "address",
          "name": "pemohon",
          "type": "address"
        },
        {
          "indexed": false,
          "internalType": "enum PencatatanTypes.JenisPermohonan",
          "name": "jenis",
          "type": "uint8"
        },
        {
          "indexed": false,
          "internalType": "string",
          "name": "cidIPFS",
          "type": "string"
        },
        {
          "indexed": false,
          "internalType": "uint256",
          "name": "waktu",
          "type": "uint256"
        }
      ],
      "name": "PermohonanDiajukan",
      "type": "event"
    },
    {
      "anonymous": false,
      "inputs": [
        {
          "indexed": true,
          "internalType": "uint256",
          "name": "id",
          "type": "uint256"
        },
        {
          "indexed": true,
          "internalType": "address",
          "name": "pemohon",
          "type": "address"
        },
        {
          "indexed": false,
          "internalType": "uint256",
          "name": "waktu",
          "type": "uint256"
        }
      ],
      "name": "PermohonanDibatalkan",
      "type": "event"
    },
    {
      "anonymous": false,
      "inputs": [
        {
          "indexed": true,
          "internalType": "uint256",
          "name": "id",
          "type": "uint256"
        },
        {
          "indexed": true,
          "internalType": "address",
          "name": "pemohon",
          "type": "address"
        },
        {
          "indexed": false,
          "internalType": "enum PencatatanTypes.JenisPindah",
          "name": "jenisPindah",
          "type": "uint8"
        },
        {
          "indexed": false,
          "internalType": "string",
          "name": "cidIPFS",
          "type": "string"
        },
        {
          "indexed": false,
          "internalType": "uint256",
          "name": "waktu",
          "type": "uint256"
        }
      ],
      "name": "PermohonanPindahDiajukan",
      "type": "event"
    },
    {
      "anonymous": false,
      "inputs": [
        {
          "indexed": true,
          "internalType": "uint256",
          "name": "id",
          "type": "uint256"
        },
        {
          "indexed": true,
          "internalType": "address",
          "name": "verifikator",
          "type": "address"
        },
        {
          "indexed": false,
          "internalType": "bool",
          "name": "disetujui",
          "type": "bool"
        },
        {
          "indexed": false,
          "internalType": "string",
          "name": "alasan",
          "type": "string"
        },
        {
          "indexed": false,
          "internalType": "uint256",
          "name": "waktu",
          "type": "uint256"
        }
      ],
      "name": "VerifikasiDukcapil",
      "type": "event"
    },
    {
      "anonymous": false,
      "inputs": [
        {
          "indexed": true,
          "internalType": "uint256",
          "name": "id",
          "type": "uint256"
        },
        {
          "indexed": true,
          "internalType": "address",
          "name": "verifikator",
          "type": "address"
        },
        {
          "indexed": false,
          "internalType": "bool",
          "name": "disetujui",
          "type": "bool"
        },
        {
          "indexed": false,
          "internalType": "string",
          "name": "alasan",
          "type": "string"
        },
        {
          "indexed": false,
          "internalType": "uint256",
          "name": "waktu",
          "type": "uint256"
        }
      ],
      "name": "VerifikasiKalurahan",
      "type": "event"
    },
    {
      "anonymous": false,
      "inputs": [
        {
          "indexed": true,
          "internalType": "address",
          "name": "wallet",
          "type": "address"
        },
        {
          "indexed": false,
          "internalType": "string",
          "name": "nik",
          "type": "string"
        }
      ],
      "name": "WargaTerdaftar",
      "type": "event"
    },
    {
      "inputs": [
        {
          "internalType": "string",
          "name": "_nikKepalaKeluarga",
          "type": "string"
        }
      ],
      "name": "adaPermohonanMenungguKonfirmasi",
      "outputs": [
        {
          "internalType": "bool",
          "name": "",
          "type": "bool"
        }
      ],
      "stateMutability": "view",
      "type": "function"
    },
    {
      "inputs": [
        {
          "internalType": "uint8",
          "name": "",
          "type": "uint8"
        }
      ],
      "name": "addressKalurahanById",
      "outputs": [
        {
          "internalType": "address",
          "name": "",
          "type": "address"
        }
      ],
      "stateMutability": "view",
      "type": "function"
    },
    {
      "inputs": [
        {
          "internalType": "uint256",
          "name": "_id",
          "type": "uint256"
        }
      ],
      "name": "batalkanPermohonan",
      "outputs": [],
      "stateMutability": "nonpayable",
      "type": "function"
    },
    {
      "inputs": [
        {
          "internalType": "uint256",
          "name": "",
          "type": "uint256"
        }
      ],
      "name": "cidDokumenResmi",
      "outputs": [
        {
          "internalType": "string",
          "name": "",
          "type": "string"
        }
      ],
      "stateMutability": "view",
      "type": "function"
    },
    {
      "inputs": [
        {
          "internalType": "uint8",
          "name": "",
          "type": "uint8"
        },
        {
          "internalType": "uint256",
          "name": "",
          "type": "uint256"
        }
      ],
      "name": "daftarPermohonanKalurahanAsal",
      "outputs": [
        {
          "internalType": "uint256",
          "name": "",
          "type": "uint256"
        }
      ],
      "stateMutability": "view",
      "type": "function"
    },
    {
      "inputs": [
        {
          "internalType": "address",
          "name": "",
          "type": "address"
        },
        {
          "internalType": "uint256",
          "name": "",
          "type": "uint256"
        }
      ],
      "name": "daftarPermohonanPemohon",
      "outputs": [
        {
          "internalType": "uint256",
          "name": "",
          "type": "uint256"
        }
      ],
      "stateMutability": "view",
      "type": "function"
    },
    {
      "inputs": [
        {
          "internalType": "enum PencatatanTypes.Status",
          "name": "",
          "type": "uint8"
        },
        {
          "internalType": "uint256",
          "name": "",
          "type": "uint256"
        }
      ],
      "name": "daftarPermohonanPerStatus",
      "outputs": [
        {
          "internalType": "uint256",
          "name": "",
          "type": "uint256"
        }
      ],
      "stateMutability": "view",
      "type": "function"
    },
    {
      "inputs": [],
      "name": "dukcapil",
      "outputs": [
        {
          "internalType": "address",
          "name": "",
          "type": "address"
        }
      ],
      "stateMutability": "view",
      "type": "function"
    },
    {
      "inputs": [
        {
          "internalType": "uint256",
          "name": "_id",
          "type": "uint256"
        }
      ],
      "name": "getDokumenResmi",
      "outputs": [
        {
          "internalType": "string",
          "name": "",
          "type": "string"
        }
      ],
      "stateMutability": "view",
      "type": "function"
    },
    {
      "inputs": [
        {
          "internalType": "uint256",
          "name": "_id",
          "type": "uint256"
        }
      ],
      "name": "getJenisPermohonan",
      "outputs": [
        {
          "internalType": "string",
          "name": "",
          "type": "string"
        }
      ],
      "stateMutability": "view",
      "type": "function"
    },
    {
      "inputs": [
        {
          "internalType": "uint256",
          "name": "_id",
          "type": "uint256"
        }
      ],
      "name": "getJenisPindah",
      "outputs": [
        {
          "internalType": "string",
          "name": "",
          "type": "string"
        }
      ],
      "stateMutability": "view",
      "type": "function"
    },
    {
      "inputs": [],
      "name": "getKalurahanMappingCID",
      "outputs": [
        {
          "internalType": "string",
          "name": "",
          "type": "string"
        }
      ],
      "stateMutability": "view",
      "type": "function"
    },
    {
      "inputs": [
        {
          "internalType": "uint256",
          "name": "_id",
          "type": "uint256"
        }
      ],
      "name": "getPermohonan",
      "outputs": [
        {
          "components": [
            {
              "internalType": "uint256",
              "name": "id",
              "type": "uint256"
            },
            {
              "internalType": "uint256",
              "name": "waktuPengajuan",
              "type": "uint256"
            },
            {
              "internalType": "address",
              "name": "pemohon",
              "type": "address"
            },
            {
              "internalType": "enum PencatatanTypes.JenisPermohonan",
              "name": "jenis",
              "type": "uint8"
            },
            {
              "internalType": "enum PencatatanTypes.Status",
              "name": "status",
              "type": "uint8"
            },
            {
              "internalType": "uint8",
              "name": "idKalurahanAsal",
              "type": "uint8"
            },
            {
              "internalType": "uint8",
              "name": "idKalurahanTujuan",
              "type": "uint8"
            },
            {
              "internalType": "string",
              "name": "cidIPFS",
              "type": "string"
            },
            {
              "internalType": "string",
              "name": "alasanPenolakan",
              "type": "string"
            },
            {
              "internalType": "address",
              "name": "verifikatorKalurahan",
              "type": "address"
            },
            {
              "internalType": "address",
              "name": "verifikatorKalurahanTujuan",
              "type": "address"
            },
            {
              "internalType": "address",
              "name": "verifikatorDukcapil",
              "type": "address"
            },
            {
              "internalType": "uint256",
              "name": "waktuVerifikasiKalurahan",
              "type": "uint256"
            },
            {
              "internalType": "uint256",
              "name": "waktuVerifikasiKalurahanTujuan",
              "type": "uint256"
            },
            {
              "internalType": "uint256",
              "name": "waktuVerifikasiDukcapil",
              "type": "uint256"
            },
            {
              "internalType": "address",
              "name": "konfirmatorKKTujuan",
              "type": "address"
            },
            {
              "internalType": "uint256",
              "name": "waktuKonfirmasiKKTujuan",
              "type": "uint256"
            },
            {
              "internalType": "bool",
              "name": "konfirmasiKKTujuan",
              "type": "bool"
            },
            {
              "internalType": "enum PencatatanTypes.JenisPindah",
              "name": "jenisPindah",
              "type": "uint8"
            }
          ],
          "internalType": "struct PencatatanTypes.Permohonan",
          "name": "",
          "type": "tuple"
        }
      ],
      "stateMutability": "view",
      "type": "function"
    },
    {
      "inputs": [
        {
          "internalType": "enum PencatatanTypes.Status",
          "name": "_status",
          "type": "uint8"
        }
      ],
      "name": "getPermohonanBelumVerifikasiKalurahan",
      "outputs": [
        {
          "internalType": "uint256[]",
          "name": "",
          "type": "uint256[]"
        }
      ],
      "stateMutability": "view",
      "type": "function"
    },
    {
      "inputs": [],
      "name": "getPermohonanByKalurahanAsal",
      "outputs": [
        {
          "internalType": "uint256[]",
          "name": "",
          "type": "uint256[]"
        }
      ],
      "stateMutability": "view",
      "type": "function"
    },
    {
      "inputs": [],
      "name": "getPermohonanByKalurahanTujuan",
      "outputs": [
        {
          "internalType": "uint256[]",
          "name": "",
          "type": "uint256[]"
        }
      ],
      "stateMutability": "view",
      "type": "function"
    },
    {
      "inputs": [
        {
          "internalType": "enum PencatatanTypes.Status",
          "name": "_status",
          "type": "uint8"
        }
      ],
      "name": "getPermohonanForDukcapil",
      "outputs": [
        {
          "internalType": "uint256[]",
          "name": "",
          "type": "uint256[]"
        }
      ],
      "stateMutability": "view",
      "type": "function"
    },
    {
      "inputs": [
        {
          "internalType": "address",
          "name": "_pemohon",
          "type": "address"
        }
      ],
      "name": "getPermohonanIDsByPemohon",
      "outputs": [
        {
          "internalType": "uint256[]",
          "name": "",
          "type": "uint256[]"
        }
      ],
      "stateMutability": "view",
      "type": "function"
    },
    {
      "inputs": [
        {
          "internalType": "string",
          "name": "_nikKepalaKeluarga",
          "type": "string"
        }
      ],
      "name": "getPermohonanMenungguKonfirmasiKK",
      "outputs": [
        {
          "internalType": "uint256[]",
          "name": "",
          "type": "uint256[]"
        }
      ],
      "stateMutability": "view",
      "type": "function"
    },
    {
      "inputs": [
        {
          "internalType": "uint256",
          "name": "_id",
          "type": "uint256"
        }
      ],
      "name": "getStatusPermohonan",
      "outputs": [
        {
          "internalType": "string",
          "name": "",
          "type": "string"
        }
      ],
      "stateMutability": "view",
      "type": "function"
    },
    {
      "inputs": [
        {
          "internalType": "address",
          "name": "_akun",
          "type": "address"
        }
      ],
      "name": "hapusKalurahan",
      "outputs": [],
      "stateMutability": "nonpayable",
      "type": "function"
    },
    {
      "inputs": [
        {
          "internalType": "address",
          "name": "",
          "type": "address"
        }
      ],
      "name": "idKalurahanByAddress",
      "outputs": [
        {
          "internalType": "uint8",
          "name": "",
          "type": "uint8"
        }
      ],
      "stateMutability": "view",
      "type": "function"
    },
    {
      "inputs": [],
      "name": "jumlahPermohonan",
      "outputs": [
        {
          "internalType": "uint256",
          "name": "",
          "type": "uint256"
        }
      ],
      "stateMutability": "view",
      "type": "function"
    },
    {
      "inputs": [
        {
          "internalType": "address",
          "name": "",
          "type": "address"
        }
      ],
      "name": "kalurahan",
      "outputs": [
        {
          "internalType": "bool",
          "name": "",
          "type": "bool"
        }
      ],
      "stateMutability": "view",
      "type": "function"
    },
    {
      "inputs": [],
      "name": "kalurahanMappingCID",
      "outputs": [
        {
          "internalType": "string",
          "name": "",
          "type": "string"
        }
      ],
      "stateMutability": "view",
      "type": "function"
    },
    {
      "inputs": [
        {
          "internalType": "uint256",
          "name": "_id",
          "type": "uint256"
        },
        {
          "internalType": "bool",
          "name": "_disetujui",
          "type": "bool"
        }
      ],
      "name": "konfirmasiPindahGabungKK",
      "outputs": [],
      "stateMutability": "nonpayable",
      "type": "function"
    },
    {
      "inputs": [
        {
          "internalType": "address",
          "name": "",
          "type": "address"
        }
      ],
      "name": "nikByWallet",
      "outputs": [
        {
          "internalType": "string",
          "name": "",
          "type": "string"
        }
      ],
      "stateMutability": "view",
      "type": "function"
    },
    {
      "inputs": [
        {
          "internalType": "string",
          "name": "",
          "type": "string"
        },
        {
          "internalType": "uint256",
          "name": "",
          "type": "uint256"
        }
      ],
      "name": "permohonanMenungguKonfirmasiKK",
      "outputs": [
        {
          "internalType": "uint256",
          "name": "",
          "type": "uint256"
        }
      ],
      "stateMutability": "view",
      "type": "function"
    },
    {
      "inputs": [
        {
          "internalType": "string",
          "name": "_nik",
          "type": "string"
        }
      ],
      "name": "registerWarga",
      "outputs": [],
      "stateMutability": "nonpayable",
      "type": "function"
    },
    {
      "inputs": [
        {
          "internalType": "string",
          "name": "_cid",
          "type": "string"
        }
      ],
      "name": "setKalurahanMappingCID",
      "outputs": [],
      "stateMutability": "nonpayable",
      "type": "function"
    },
    {
      "inputs": [
        {
          "internalType": "enum PencatatanTypes.JenisPermohonan",
          "name": "_jenis",
          "type": "uint8"
        },
        {
          "internalType": "string",
          "name": "_cidIPFS",
          "type": "string"
        },
        {
          "internalType": "uint8",
          "name": "_idKalurahanAsal",
          "type": "uint8"
        },
        {
          "internalType": "uint8",
          "name": "_idKalurahanTujuan",
          "type": "uint8"
        },
        {
          "internalType": "enum PencatatanTypes.JenisPindah",
          "name": "_jenisPindah",
          "type": "uint8"
        }
      ],
      "name": "submitPermohonan",
      "outputs": [],
      "stateMutability": "nonpayable",
      "type": "function"
    },
    {
      "inputs": [
        {
          "internalType": "uint8",
          "name": "_id",
          "type": "uint8"
        },
        {
          "internalType": "address",
          "name": "_akun",
          "type": "address"
        }
      ],
      "name": "tambahKalurahanById",
      "outputs": [],
      "stateMutability": "nonpayable",
      "type": "function"
    },
    {
      "inputs": [
        {
          "internalType": "uint256",
          "name": "_id",
          "type": "uint256"
        },
        {
          "internalType": "string",
          "name": "_cidDokumen",
          "type": "string"
        }
      ],
      "name": "unggahDokumenResmi",
      "outputs": [],
      "stateMutability": "nonpayable",
      "type": "function"
    },
    {
      "inputs": [
        {
          "internalType": "uint256",
          "name": "_id",
          "type": "uint256"
        },
        {
          "internalType": "bool",
          "name": "_disetujui",
          "type": "bool"
        },
        {
          "internalType": "string",
          "name": "_alasan",
          "type": "string"
        }
      ],
      "name": "verifikasiDukcapil",
      "outputs": [],
      "stateMutability": "nonpayable",
      "type": "function"
    },
    {
      "inputs": [
        {
          "internalType": "uint256",
          "name": "_id",
          "type": "uint256"
        },
        {
          "internalType": "bool",
          "name": "_disetujui",
          "type": "bool"
        },
        {
          "internalType": "string",
          "name": "_alasan",
          "type": "string"
        }
      ],
      "name": "verifikasiKalurahan",
      "outputs": [],
      "stateMutability": "nonpayable",
      "type": "function"
    },
    {
      "inputs": [
        {
          "internalType": "uint256",
          "name": "_id",
          "type": "uint256"
        },
        {
          "internalType": "bool",
          "name": "_disetujui",
          "type": "bool"
        },
        {
          "internalType": "string",
          "name": "_alasan",
          "type": "string"
        },
        {
          "internalType": "uint8",
          "name": "_idKalurahanTujuan",
          "type": "uint8"
        }
      ],
      "name": "verifikasiKalurahanAsalPindah",
      "outputs": [],
      "stateMutability": "nonpayable",
      "type": "function"
    },
    {
      "inputs": [
        {
          "internalType": "uint256",
          "name": "_id",
          "type": "uint256"
        },
        {
          "internalType": "bool",
          "name": "_disetujui",
          "type": "bool"
        },
        {
          "internalType": "string",
          "name": "_alasan",
          "type": "string"
        }
      ],
      "name": "verifikasiKalurahanTujuanPindah",
      "outputs": [],
      "stateMutability": "nonpayable",
      "type": "function"
    },
    {
      "inputs": [
        {
          "internalType": "string",
          "name": "",
          "type": "string"
        }
      ],
      "name": "walletByNik",
      "outputs": [
        {
          "internalType": "address",
          "name": "",
          "type": "address"
        }
      ],
      "stateMutability": "view",
      "type": "function"
    }
  ],
  "bytecode": "0x60808060405234602757600080546001600160a01b0319163317905561386d908161002d8239f35b600080fdfe6080604052600436101561001257600080fd5b60003560e01c80630bfa49df146103555780630facc3b31461260f57806311481b6d146124fa5780632bbe04a61461246b5780632c086747146123a15780632d7c56431461236b57806349cda27e1461218d5780634bef4923146121435780634cdf813b146120f05780634ea609a314611dab5780634ec6202214611d2b5780634f5414c714611c9c57806350952c1414611c345780636434852314611bf55780637ec410f814611941578063825e827a1461175b578063835b1ece146116e457806389b41262146116a7578063a1468b3d14611455578063a197fb25146113ea578063a439ef06146113b4578063a48bff9214611378578063a7014a0c1461106a578063aa02000714611034578063ab0680c114610ff2578063acbb35cf14610ec8578063b4750ad314610e23578063b48da9b914610de9578063bccf5e1114610a37578063be50586f146109ea578063c1a1253e14610648578063c76681d614610453578063d3b26d3f146103b8578063d4c0418b1461038f578063ea69c80214610371578063eae3073214610355578063f908a8ff146103155763fea8abac146101be57600080fd5b3461031057602036600319011261031057600435600d81101590816103105733600052600160205260ff60406000205416156102ff5733600052600560205260ff60406000205416600052600a602052604060002090815461021f816131d0565b93600093845b838110610273578686610237816131d0565b9160005b82811061025457604051806102508682612d31565b0390f35b8061026160019284613202565b5161026c8287613202565b520161023b565b61027d8183612d6b565b90549060031b1c60005260086020528260ff60026040600020015460a81c16906102e957600d8110156102e95785146102b9575b600101610225565b946102e16001916102ca8885612d6b565b90549060031b1c6102db828b613202565b52613050565b9590506102b1565b634e487b7160e01b600052602160045260246000fd5b631902707f60e31b60005260046000fd5b600080fd5b3461031057602036600319011261031057600435600052600e6020526102506103416040600020612f95565b604051918291602083526020830190612ca9565b3461031057600036600319011261031057610250610341612edc565b34610310576000366003190112610310576020600754604051908152f35b34610310576000366003190112610310576000546040516001600160a01b039091168152602090f35b34610310576020366003190112610310576004356001600160401b038111610310576103ea6020913690600401612cce565b91908260405193849283378101600d81520301902060405190816020825491828152019160005260206000209060005b81811061043d576102508561043181870382612e03565b60405191829182612d31565b825484526020909301926001928301920161041a565b34610310576040366003190112610310576004356024356001600160401b03811161031057610486903690600401612cce565b600054909291906001600160a01b031633036106375781600052600860205260ff60026040600020015460a81c16600d8110156102e9576003036106265782156106155781600052600e6020526040600020926001600160401b0381116105ff576104fb816104f58654612ea2565b866130b9565b600093601f821160011461057d5761054d82807f75c675465e0858e943fd2e773390edaac64e2ee57918f3f49a20e198c1a544259697600091610572575b508160011b916000199060031b1c19161790565b90555b61056760405192839260408452604084019161311b565b4260208301520390a2005b905085013588610539565b80855260208520601f19831695805b8781106105e75750837f75c675465e0858e943fd2e773390edaac64e2ee57918f3f49a20e198c1a544259697106105cd575b5050600182811b019055610550565b840135600019600385901b60f8161c1916905585806105be565b9091602060018192858901358155019301910161058c565b634e487b7160e01b600052604160045260246000fd5b630f4cd64160e41b60005260046000fd5b634241280360e01b60005260046000fd5b632897e6d360e21b60005260046000fd5b3461031057604036600319011261031057600435610664612d99565b9033600052600260205261067c604060002054612ea2565b156109d957806000526008602052604060002090600282019182549260ff8460a01c1660058110156102e9576004036109c857600d82019360ff855460081c1660038110156102e9576002036109795760a81c60ff16600d8110156102e957600a03610928576106ec600a613037565b9060005b825487818310156109185750856107078386612d6b565b90549060031b1c1461071c57506001016106f0565b9060009692939495961982019182116109025761074d61073f6107669387612d6b565b90549060031b1c9186612d6b565b90919082549060031b91821b91600019901b1916179055565b82549182156108ec576107f693879360001901906107986107878383612d6b565b8154906000199060031b1b19169055565b555b821561086c57805460ff60a81b1916600b60a81b179055600b600052600c6020526107e5857f6a9911425952520efa6de3784a0ac63c35d3c5bb392028ea0beb0dc41a1919576130f3565b9060ff801983541691151516179055565b600b810180546001600160a01b0319163317905542600c90910181905560408051931515845260208401919091527fc5d2460186f7233c927e7db2dcc703c0e500b653ca82273b7bfad8045d85a470927fa25323c522b668730629025f46ec29f731ed5e7a94e4c4a2c15ffa8d94b128d29190a3005b805460ff60a81b1916600360aa1b1790556004840180546108969061089090612ea2565b8261308e565b60478155600052623ab0b760e91b600160206000207f4469746f6c616b206f6c6568206b6570616c61206b656c75617267612074756a815501556108e78560406000600c8152600c602052206130f3565b6107e5565b634e487b7160e01b600052603160045260246000fd5b634e487b7160e01b600052601160045260246000fd5b93505050936107f692939461079a565b60405162461bcd60e51b815260206004820152602360248201527f53746174757320746964616b2076616c696420756e74756b206b6f6e6669726d60448201526261736960e81b6064820152608490fd5b60405162461bcd60e51b815260206004820152602160248201527f42756b616e207065726d6f686f6e616e2070696e64616820676162756e67204b6044820152604b60f81b6064820152608490fd5b63243d08b360e21b60005260046000fd5b630a878caf60e31b60005260046000fd5b3461031057604036600319011261031057600435600d81101561031057610a1360243591613037565b805482101561031057602091610a2891612d6b565b90549060031b1c604051908152f35b3461031057610a4536612da8565b600054929390926001600160a01b03163303610637578060005260086020526040600020936002850193845460ff8160a01c1660058110156102e957600403610d46575060ff855460a81c16600d8110156102e957600703610d3557610aab6007613037565b9460005b865480821015610d285785610ac4838a612d6b565b90549060031b1c14610ad95750600101610aaf565b906000979293949596971982019182116109025761074d610afd610b0b9385612d6b565b90549060031b1c9184612d6b565b805480156108ec576000190190610b256107878383612d6b565b555b8215610bd457805460ff60a81b1916600360a81b1790556003600052600c602052929391927f6b79a244eb3993d9a079f4708e9832062b305d6080c8372aac9c82d882a9557b92610b98857fc0da782485e77ae272268ae0a3ff44c1552ecb60b3743924de17a815e0a3cfd76130f3565b6007810160018060a01b0333166001600160601b0360a01b825416179055600a42910155610bcf604051928392339742928561313c565b0390a3005b805460ff60a81b1916600160aa1b17905560048501946001600160401b0382116105ff57610c0c82610c068854612ea2565b886130b9565b600095601f8311600114610ca557610c5e83807f6b79a244eb3993d9a079f4708e9832062b305d6080c8372aac9c82d882a9557b979899600091610c9a57508160011b916000199060031b1c19161790565b90555b6004600052600c602052610c95857f5b84bb9e0f5aa9cc45a8bb66468db5d4816d1e75ff86b5e1f1dd8d144dab80976130f3565b610b98565b90508901358a610539565b80875260208720601f19841697805b898110610d105750847f6b79a244eb3993d9a079f4708e9832062b305d6080c8372aac9c82d882a9557b97989910610cf6575b5050600183811b019055610c61565b880135600019600386901b60f8161c191690558780610ce7565b9091602060018192858c013581550193019101610cb4565b5050909192939450610b27565b63656d7eb560e01b60005260046000fd5b60a81c60ff16600d8110156102e957600103610dd857610d666001613037565b9460005b865480821015610d285785610d7f838a612d6b565b90549060031b1c14610d945750600101610d6a565b906000979293949596971982019182116109025761074d610afd610db89385612d6b565b805480156108ec576000190190610dd26107878383612d6b565b55610b27565b633c78815f60e01b60005260046000fd5b34610310576020366003190112610310576001600160a01b03610e0a612d1b565b1660005260026020526102506103416040600020612f95565b34610310576020366003190112610310576004356000818152600860209081526040808320600201548354600e909352922054336001600160a01b03928316149290911690610e7190612ea2565b15610eb7573314908115610eaf575b5015610e9e57600052600e6020526102506103416040600020612f95565b6370436def60e11b60005260046000fd5b905082610e80565b63c31a6dc560e01b60005260046000fd5b3461031057602036600319011261031057600435336000526002602052610ef3604060002054612ea2565b156109d957600081815260086020526040902060028101805491929091336001600160a01b03821603610fe15760a81c60ff16600d8110156102e957610fd057610f3c90613583565b805460ff60a81b1916600960a81b179055426008820155600481018054610f669061089090612ea2565b604781556000526237b71760e91b600160206000207f5065726d6f686f6e616e206469626174616c6b616e206f6c65682070656d6f688155015554604051904282527fc32fdc85bad287b87324f2b5c9affb2708f355d219541e068064d32eaed8d66560203393a3005b634db47d8360e01b60005260046000fd5b638c1f61f360e01b60005260046000fd5b346103105760403660031901126103105761100b612d0b565b60ff6024359116600052600a6020526040600020805482101561031057602091610a2891612d6b565b3461031057602036600319011261031057600435600052600860205261025061034160ff600d6040600020015460081c16613721565b3461031057602036600319011261031057600061024060405161108c81612de7565b8281528260208201528260408201528260608201528260808201528260a08201528260c0820152606060e0820152606061010082015282610120820152826101408201528261016082015282610180820152826101a0820152826101c0820152826101e082015282610200820152826102208201520152600435600052600860205260406000206040519061112082612de7565b805482526001810154602083015260028101546001600160a01b038116604084015261115660a082901c60ff166060850161305f565b60ff8160a81c1690600d8210156102e9576112349260ff600d9281946080880152818160b01c1660a088015260b81c1660c086015261119760038201612f95565b60e08601526111a860048201612f95565b61010086015260058101546001600160a01b03908116610120870152600682015481166101408701526007820154811661016087015260088083015461018088015260098301546101a0880152600a8301546101c0880152600b8301549091166101e0870152600c8201546102008701529101548281161515610220860152901c16610240830161306b565b6040519060208252805160208301526020810151604083015260018060a01b03604082015116606083015261127160608201516080840190612e88565b608081015190600d8210156102e957829160a083015260ff60a08201511660c083015260ff60c08201511660e08301526102506102406112de6112c660e0850151610260610100880152610280870190612ca9565b610100850151868203601f1901610120880152612ca9565b9260018060a01b036101208201511661014086015260018060a01b036101408201511661016086015260018060a01b03610160820151166101808601526101808101516101a08601526101a08101516101c08601526101c08101516101e086015260018060a01b036101e0820151166102008601526102008101516102208601526102208101511515828601520151610260840190612e95565b346103105760203660031901126103105760ff611393612d0b565b166000526004602052602060018060a01b0360406000205416604051908152f35b3461031057602036600319011261031057600435600052600860205261025061034160ff60026040600020015460a01c166135fc565b34610310576040366003190112610310576004356001600160401b0381116103105761141a903690600401612e6a565b6114366020602435928160405193828580945193849201612c86565b8101600d815203019020805482101561031057602091610a2891612d6b565b346103105761146336612da8565b92909133600052600160205260ff60406000205416156102ff573360005260056020526114b060ff6040600020541683600052600860205260ff60026040600020015460b01c1614613161565b8160005260086020526040600020936002850160ff815460a81c16600d8110156102e957611696576114e184613583565b821561157757805460ff60a81b1916600160a81b1790556001600052600c6020529293919260008051602061381883398151915292611540857fd421a5181c571bba3f01190c922c3b2a896fc1d84e86c9f17ac10e67ebef8b5c6130f3565b6005810160018060a01b0333166001600160601b0360a01b825416179055600842910155610bcf604051928392339742928561313c565b805460ff60a81b1916600160a91b17905560048501946001600160401b0382116105ff576115a982610c068854612ea2565b600095601f8311600114611625576115e98380600080516020613818833981519152979899600091610c9a57508160011b916000199060031b1c19161790565b90555b6002600052600c602052611620857f5d6016397a73f5e079297ac5a36fef17b4d9c3831618e63ab105738020ddd7206130f3565b611540565b80875260208720601f19841697805b89811061167e57508460008051602061381883398151915297989910611664575b5050600183811b0190556115ec565b880135600019600386901b60f8161c191690558780611655565b9091602060018192858c013581550193019101611634565b63d2bc121d60e01b60005260046000fd5b34610310576020366003190112610310576001600160a01b036116c8612d1b565b166000526005602052602060ff60406000205416604051908152f35b34610310576020366003190112610310576001600160a01b03611705612d1b565b166000526009602052604060002060405190816020825491828152019160005260206000209060005b818110611745576102508561043181870382612e03565b825484526020909301926001928301920161172e565b34610310576020366003190112610310576004356001600160401b0381116103105761178b903690600401612e6a565b60405181519060208301916117a1818385612c86565b60039082019081528190036020019020546001600160a01b0316611930573360005260026020526117d6604060002054612ea2565b61191f5760206117f191604051809381928651928391612c86565b60039082019081520301902080546001600160a01b03191633908117909155600090815260026020526040902081516001600160401b0381116105ff576118428161183c8454612ea2565b846130b9565b6020601f82116001146118bb579080611870926000916118b057508160011b916000199060031b1c19161790565b90555b7ff681a6e5cf03ecba385f32439e3a53ca704ad8f2a8d20230aa6a3971dc2ae21860405160208152806118ab33946020830190612ca9565b0390a2005b905084015185610539565b601f1982169083600052806000209160005b818110611907575090836001949392106118ee575b5050811b019055611873565b85015160001960f88460031b161c1916905584806118e2565b9192602060018192868a0151815501940192016118cd565b63e278de3960e01b60005260046000fd5b631677261960e21b60005260046000fd5b346103105760803660031901126103105760043561195d612d99565b906044356001600160401b0381116103105761197d903690600401612cce565b9092611987612cfb565b9133600052600160205260ff60406000205416156102ff573360005260056020526119d260ff6040600020541685600052600860205260ff60026040600020015460b01c1614613161565b836000526008602052604060002060028101805460ff8160a81c16600d8110156102e9576116965760a01c60ff1660058110156102e9576004036109c857611a1986613583565b8315611ad85760ff85168015611ac7576000908152600460205260409020546001600160a01b031615611ab657805460ff60b81b191660b89590951b60ff60b81b1694909417845560008051602061381883398151915293805460ff60a81b1916600560a81b1790556005600052600c602052611540857f2cd9ebf6ff19cdd7ffcc447d7c7d47b5991f5c7392a04512134e765802361fa66130f3565b63fac301e360e01b60005260046000fd5b636c1ba33960e01b60005260046000fd5b805460ff60a81b1916600360a91b17905560048101959493506001600160401b0382116105ff57611b0d82610c068854612ea2565b600095601f8311600114611b8457611b4d8380600080516020613818833981519152979899600091610c9a57508160011b916000199060031b1c19161790565b90555b6006600052600c602052611620857f980f427e00e74f6d338adfccc7468518c8c8ea00836d0dce98c5fe154e17bf2b6130f3565b80875260208720601f19841697805b898110611bdd57508460008051602061381883398151915297989910611bc3575b5050600183811b019055611b50565b880135600019600386901b60f8161c191690558780611bb4565b9091602060018192858c013581550193019101611b93565b34610310576020366003190112610310576001600160a01b03611c16612d1b565b166000526001602052602060ff604060002054166040519015158152f35b34610310576020366003190112610310576004356001600160401b03811161031057611c666020913690600401612e6a565b81611c7a6040519283815193849201612c86565b600390820190815281900382019020546040516001600160a01b039091168152f35b346103105760003660031901126103105733600052600160205260ff60406000205416156102ff5733600052600560205260ff60406000205416600052600a602052604060002060405190816020825491828152019160005260206000209060005b818110611d15576102508561043181870382612e03565b8254845260209093019260019283019201611cfe565b3461031057602036600319011261031057600435600d811015610310576000546001600160a01b0316330361063757611d6390613037565b60405190816020825491828152019160005260206000209060005b818110611d95576102508561043181870382612e03565b8254845260209093019260019283019201611d7e565b3461031057611db936612da8565b92909233600052600160205260ff60406000205416156102ff578160005260086020526040600020926002840191825460ff8160a01c1660058110156102e9576004036109c85760ff8160a81c16600d8110156102e9576005036120df5733600052600560205260ff80604060002054169160b81c16036120ce57611e3e6005613037565b9460005b8654808210156120c15786611e57838a612d6b565b90549060031b1c14611e6c5750600101611e42565b906000979293949596971982019182116109025761074d610afd611e909385612d6b565b805480156108ec576000190190611eaa6107878383612d6b565b555b8215611fa45760ff600d82015460081c169360038510156102e95760008051602061381883398151915294600203611f5a57805460ff60a81b1916600560a91b179055600a600052600c602052611f23857f9e6c92d7be355807bd948171438a5e65aaf9e4c36f1405c1b9ca25d27c4ea3a06130f3565b6006810160018060a01b0333166001600160601b0360a01b825416179055600942910155610bcf604051928392339742928561313c565b805460ff60a81b1916600760a81b1790556007600052600c602052611f9f857fdae089abd7155aa13ce498edb0d7a7156b783d015031f10c9a3d4f5fcb5189716130f3565b611f23565b835460ff60a81b1916600160ab1b17909355600483019493926001600160401b0382116105ff57611fd982610c068854612ea2565b600095601f8311600114612050576120198380600080516020613818833981519152979899600091610c9a57508160011b916000199060031b1c19161790565b90555b6008600052600c602052611f9f857f5ff1be3842b54290a9d10674244dae5848d2371b5314790c54805c086586e1df6130f3565b80875260208720601f19841697805b8981106120a95750846000805160206138188339815191529798991061208f575b5050600183811b01905561201c565b880135600019600386901b60f8161c191690558780612080565b9091602060018192858c01358155019301910161205f565b5050909192939450611eac565b635a6db8ab60e01b60005260046000fd5b63384bca1f60e11b60005260046000fd5b34610310576020366003190112610310576004356001600160401b03811161031057602061212381923690600401612cce565b91908260405193849283378101600d815203019020541515604051908152f35b346103105760403660031901126103105761215c612d1b565b6001600160a01b031660009081526009602052604090208054602435919082101561031057602091610a2891612d6b565b34610310576020366003190112610310576004356001600160401b038111610310576121bd903690600401612cce565b6000549091906001600160a01b03163303610637576001600160401b0382116105ff576121eb600654612ea2565b601f8111612311575b50600091601f81116001146122705761224581807f05b7d468eb456c6bffbac7ac5f22f68ca5ce358ae4551017aeb9e69bf8fa11ee9560009161226557508160011b916000199060031b1c19161790565b6006555b61226060405192839260208452602084019161311b565b0390a1005b905084013586610539565b60068352601f198116927ff652222313e28459528d920b65115c16c04f3efc82aaedc97be59f3f377c0d3f90805b8581106122f95750827f05b7d468eb456c6bffbac7ac5f22f68ca5ce358ae4551017aeb9e69bf8fa11ee95106122df575b5050600181811b01600655612249565b830135600019600384901b60f8161c1916905583806122cf565b9091602060018192858801358155019301910161229e565b600660005261235b907ff652222313e28459528d920b65115c16c04f3efc82aaedc97be59f3f377c0d3f601f850160051c81019160208610612361575b601f0160051c0190613077565b826121f4565b909150819061234e565b3461031057602036600319011261031057600435600052600860205261025061034160ff60026040600020015460a81c16613216565b34610310576020366003190112610310576123ba612d1b565b6000546001600160a01b03163303610637576001600160a01b03166000818152600160209081526040808320805460ff19169055600590915290205460ff1680612432575b7fff465bdd426bd62b03af572638a7fbc92e0bd4ceb6c77721a320e5d5c42b2e1e604080516020815260006020820152a3005b80600052600460205260406000206001600160601b0360a01b8154169055816000526005602052604060002060ff1981541690556123ff565b346103105760003660031901126103105733600052600160205260ff60406000205416156102ff5733600052600560205260ff60406000205416600052600b602052604060002060405190816020825491828152019160005260206000209060005b8181106124e4576102508561043181870382612e03565b82548452602090930192600192830192016124cd565b3461031057604036600319011261031057612513612d0b565b6024356001600160a01b0381169190829003610310576000546001600160a01b031633036106375781156125fe5760ff166000818152600460205260409020546001600160a01b03166125ed5781600052600560205260ff6040600020541615806125e4575b156125d3578060005260046020526040600020826001600160601b0360a01b82541617905581600052600560205260406000209060ff1982541617905560005260016020526040600020600160ff19825416179055600080f35b6338077c8760e21b60005260046000fd5b50801515612579565b6348745fab60e01b60005260046000fd5b639fabe1c160e01b60005260046000fd5b346103105760a03660031901126103105760056004351015610310576024356001600160401b0381116103105761264a903690600401612cce565b60443560ff811681036103105761265f612cfb565b9260843592600384101561031057336000526002602052612684604060002054612ea2565b156109d95780156106155760ff83166000908152600460205260409020546001600160a01b031615611ab65760009260048035149586612c45575b600754946126cc86613050565b600755508615612c3d5780915b6000908815612c365787935b60ff604051916126f483612de7565b8983524260208401523360408401526127126004356060850161305f565b84608084015281841660a08401521660c0820152612731368789612e24565b60e082015261279b6020956040516127498882612e03565b85815261010084015284610120840152846101408401528461016084015284610180840152846101a0840152846101c0840152846101e08401528461020084015284610220840152610240830161306b565b8783526008855260408084208251815560208301516001820155908201516002820180546001600160a01b0319166001600160a01b039290921691909117905560608201516005811015612c225760028201805460ff60a01b191660a09290921b60ff60a01b169190911790556080820151600d811015612c225760028201805460a085015160c086015162ffffff60a81b1990921660a89490941b60ff60a81b169390931760b09390931b60ff60b01b169290921760b89290921b60ff60b81b1691909117905560e08201518051906001600160401b038211612b95576128938261288a6003860154612ea2565b600386016130b9565b8790601f8311600114612bb4576128c29291879183612ba9575b50508160011b916000199060031b1c19161790565b60038201555b6101008201518051906001600160401b038211612b95576128f9826128f06004860154612ea2565b600486016130b9565b8790601f8311600114612b235782600d93610240959361292e938a92612b185750508160011b916000199060031b1c19161790565b60048201555b6101208401516005820180546001600160a01b039283166001600160a01b03199182161790915561014086015160068401805491841691831691909117905561016086015160078401805491841691831691909117905561018086015160088401556101a086015160098401556101c0860151600a8401556101e0860151600b84018054919093169116179055610200840151600c8201556102208401519101805460ff191691151560ff169190911781559101516003811015612b0457815461ff00191660089190911b61ff0016179055338252600984526040822089929160ff91612a22908a906130f3565b168152600a8452612a3687604083206130f3565b808052600c8452612a4a87604083206130f3565b50612ae6575b5060009515612aac5791612a9c9160607fa0b9d3ab20139b1dab107ee5e773449c3bc1cba0be29c7281e39e5623d699b9d94612a8f6040518099612e95565b870152606086019161311b565b924260408201528033940390a380f35b93507f76091af5eb885b36d291fafffdf0282c662dd305c7a5efb5f216ce4133972fca91612a9c91606060405196612a8f88600435612e88565b60ff16600052600b8152612afe8460406000206130f3565b86612a50565b634e487b7160e01b84526021600452602484fd5b0151905038806128ad565b9060048401875288872091875b8a601f1986168210612b7f575050926102409492600192600d9583601f19811610612b66575b505050811b016004820155612934565b015160001960f88460031b161c191690558f8080612b56565b6001849582939585015181550194019201612b30565b634e487b7160e01b86526041600452602486fd5b015190508e806128ad565b91906003840187528887209087935b8a601f1985168610612c0957506001945083601f19811610612bf0575b505050811b0160038201556128c8565b015160001960f88460031b161c191690558d8080612be0565b8282015184559485019460019093019290910190612bc3565b634e487b7160e01b85526021600452602485fd5b81936126e5565b6000916126d9565b60ff81168015612c77578552600460205260408520546001600160a01b03166126bf5763fac301e360e01b8552600485fd5b636c1ba33960e01b8652600486fd5b60005b838110612c995750506000910152565b8181015183820152602001612c89565b90602091612cc281518092818552858086019101612c86565b601f01601f1916010190565b9181601f84011215610310578235916001600160401b038311610310576020838186019501011161031057565b6064359060ff8216820361031057565b6004359060ff8216820361031057565b600435906001600160a01b038216820361031057565b602060408183019282815284518094520192019060005b818110612d555750505090565b8251845260209384019390920191600101612d48565b8054821015612d835760005260206000200190600090565b634e487b7160e01b600052603260045260246000fd5b60243590811515820361031057565b6060600319820112610310576004359160243580151581036103105791604435906001600160401b03821161031057612de391600401612cce565b9091565b61026081019081106001600160401b038211176105ff57604052565b90601f801991011681019081106001600160401b038211176105ff57604052565b9291926001600160401b0382116105ff5760405191612e4d601f8201601f191660200184612e03565b829481845281830111610310578281602093846000960137010152565b9080601f8301121561031057816020612e8593359101612e24565b90565b9060058210156102e95752565b9060038210156102e95752565b90600182811c92168015612ed2575b6020831014612ebc57565b634e487b7160e01b600052602260045260246000fd5b91607f1691612eb1565b6040519060008260065491612ef083612ea2565b8083529260018116908115612f765750600114612f16575b612f1492500383612e03565b565b506006600090815290917ff652222313e28459528d920b65115c16c04f3efc82aaedc97be59f3f377c0d3f5b818310612f5a575050906020612f1492820101612f08565b6020919350806001915483858901015201910190918492612f42565b60209250612f1494915060ff191682840152151560051b820101612f08565b9060405191826000825492612fa984612ea2565b80845293600181169081156130155750600114612fce575b50612f1492500383612e03565b90506000929192526020600020906000915b818310612ff9575050906020612f149282010138612fc1565b6020919350806001915483858901015201910190918492612fe0565b905060209250612f1494915060ff191682840152151560051b82010138612fc1565b600d8110156102e957600052600c602052604060002090565b60001981146109025760010190565b60058210156102e95752565b60038210156102e95752565b818110613082575050565b60008155600101613077565b90601f811161309b575050565b612f14916000526002601f6020600020920160051c82019101613077565b9190601f81116130c857505050565b612f14926000526020600020906020601f840160051c8301931061236157601f0160051c0190613077565b90815491680100000000000000008310156105ff578261074d916001612f1495018155612d6b565b908060209392818452848401376000828201840152601f01601f1916010190565b9493929160409261315c921515875260606020880152606087019161311b565b930152565b1561316857565b60405162461bcd60e51b8152602060048201526024808201527f48616e7961206b616c75726168616e206173616c2079616e672062657277656e604482015263616e672160e01b6064820152608490fd5b6001600160401b0381116105ff5760051b60200190565b906131da826131b9565b6131e76040519182612e03565b82815280926131f8601f19916131b9565b0190602036910137565b8051821015612d835760209160051b010190565b600d8110156102e957801561355c576000600182146135285750600281146134f8576000600382146134c557506004811461349657600060058214613458575060068114613423576000600782146133e55750600881146133a95760006009821461336b5750600a811461332f57600090600b81146132f957600c9150146132ca576040516132a6604082612e03565b601481527314dd185d1d5cc8151a59185ac8111a5ad95b985b60621b602082015290565b6040516132d8604082612e03565b60118152702234ba37b630b59025a5902a3ab53ab0b760791b602082015290565b5050604051613309604082612e03565b60168152752234b5b7b73334b936b0b9b49025a5902a3ab53ab0b760511b602082015290565b5060405161333e604082612e03565b601d81527f4d656e756e676775204b6f6e6669726d617369204b4b2054756a75616e000000602082015290565b5050604080519061337c9082612e03565b601781527f4469626174616c6b616e206f6c65682050656d6f686f6e000000000000000000602082015290565b506040516133b8604082612e03565b601881527f4469746f6c616b204b616c75726168616e2054756a75616e0000000000000000602082015290565b505060408051906133f69082612e03565b601a81527f4469736574756a7569204b616c75726168616e2054756a75616e000000000000602082015290565b50604051613432604082612e03565b6016815275111a5d1bdb185ac812d85b1d5c985a185b88105cd85b60521b602082015290565b505060408051906134699082612e03565b601881527f4469736574756a7569204b616c75726168616e204173616c0000000000000000602082015290565b506040516134a5604082612e03565b601081526f111a5d1bdb185ac8111d5ad8d85c1a5b60821b602082015290565b505060408051906134d69082612e03565b6012815271111a5cd95d1d5a9d5a48111d5ad8d85c1a5b60721b602082015290565b50604051613507604082612e03565b60118152702234ba37b630b59025b0b63ab930b430b760791b602082015290565b505060408051906135399082612e03565b60138152722234b9b2ba3ab53ab49025b0b63ab930b430b760691b602082015290565b5060405161356b604082612e03565b60088152672234b0b53ab5b0b760c11b602082015290565b61358d6000613037565b60005b8154808210156135f657836135a58385612d6b565b90549060031b1c146135ba5750600101613590565b91925060001982019182116109025761074d610afd6135d99385612d6b565b805480156108ec5760001901906135f36107878383612d6b565b55565b50505050565b60058110156102e95780156136f9576000600182146136d05750600281146136ac576000906003811461368757600491501461366357604051613640604082612e03565b601381527212995b9a5cc8151a59185ac8111a5ad95b985b606a1b602082015290565b604051613671604082612e03565b60068152650a0d2dcc8c2d60d31b602082015290565b5050604051613697604082612e03565b6005815264436572616960d81b602082015290565b506040516136bb604082612e03565b600581526425b0bbb4b760d91b602082015290565b505060408051906136e19082612e03565b600881526725b2b6b0ba34b0b760c11b602082015290565b50604051613708604082612e03565b600981526825b2b630b434b930b760b91b602082015290565b60038110156102e95780156137db57600090600181146137ad57600291501461377f57604051613752604082612e03565b601a81527f4a656e69732050696e64616820546964616b2044696b656e616c000000000000602082015290565b60405161378d604082612e03565b601081526f50696e64616820476162756e67204b4b60801b602082015290565b50506040516137bd604082612e03565b600e81526d50696e646168204d616e6469726960901b602082015290565b506040516137ea604082612e03565b601781527f50696e6461682053656c75727568204b656c756172676100000000000000000060208201529056feb464c40b6330ada9cbaedc9b928b83d905cd3051349abb7332ae44607384da59a26469706673582212209324c0a91ac5468871ae046ada8b2bb77009789a5f7e1d86487d76c3b25ff66c64736f6c634300081c0033",
  "linkReferences": {},
  "deployedLinkReferences": {}
}