{
  "_format": "hh-sol-artifact-1",
  "contractName": "PencatatanSipil",
  "sourceName": "contracts/PencatatanSipil.sol",
  "abi": [
    {
      "inputs": [
        {
          "internalType": "string",
          "name": "_initialNikMappingCID",
          "type": "string"
        }
      ],
      "stateMutability": "nonpayable",
      "type": "constructor"
    },
    {
      "inputs": [],
      "name": "AddressSudahDipakai",
      "type": "error"
    },
    {
      "inputs": [],
      "name": "AddressZero",
      "type": "error"
    },
    {
      "inputs": [],
      "name": "AksesDitolak",
      "type": "error"
    },
    {
      "inputs": [],
      "name": "BelumAdaDokumenResmi",
      "type": "error"
    },
    {
      "inputs": [],
      "name": "BelumDiverifikasiKalurahanAsal",
      "type": "error"
    },
    {
      "inputs": [],
      "name": "BukanPemilikPermohonan",
      "type": "error"
    },
    {
      "inputs": [],
      "name": "BukanPermohonanPindah",
      "type": "error"
    },
    {
      "inputs": [],
      "name": "CidKosong",
      "type": "error"
    },
    {
      "inputs": [],
      "name": "DokumenResmiSudahAda",
      "type": "error"
    },
    {
      "inputs": [],
      "name": "HanyaKalurahanTujuan",
      "type": "error"
    },
    {
      "inputs": [],
      "name": "IdKalurahanTujuanTidakDikenal",
      "type": "error"
    },
    {
      "inputs": [],
      "name": "IdSudahDipakai",
      "type": "error"
    },
    {
      "inputs": [],
      "name": "NikSudahDiklaim",
      "type": "error"
    },
    {
      "inputs": [],
      "name": "OnlyDukcapil",
      "type": "error"
    },
    {
      "inputs": [],
      "name": "OnlyKalurahan",
      "type": "error"
    },
    {
      "inputs": [],
      "name": "OnlyWargaTerdaftar",
      "type": "error"
    },
    {
      "inputs": [],
      "name": "PermohonanBelumDisetujuiKalurahan",
      "type": "error"
    },
    {
      "inputs": [],
      "name": "PermohonanBukanDiajukan",
      "type": "error"
    },
    {
      "inputs": [],
      "name": "StatusTidakValidUntukUploadDokumen",
      "type": "error"
    },
    {
      "inputs": [],
      "name": "TidakDapatDibatalkan",
      "type": "error"
    },
    {
      "inputs": [],
      "name": "TujuanTidakValid",
      "type": "error"
    },
    {
      "inputs": [],
      "name": "WalletSudahDigunakan",
      "type": "error"
    },
    {
      "anonymous": false,
      "inputs": [
        {
          "indexed": true,
          "internalType": "uint256",
          "name": "idPermohonan",
          "type": "uint256"
        },
        {
          "indexed": false,
          "internalType": "string",
          "name": "cidDokumen",
          "type": "string"
        },
        {
          "indexed": false,
          "internalType": "uint256",
          "name": "waktu",
          "type": "uint256"
        }
      ],
      "name": "DokumenResmiDiunggah",
      "type": "event"
    },
    {
      "anonymous": false,
      "inputs": [
        {
          "indexed": true,
          "internalType": "uint8",
          "name": "id",
          "type": "uint8"
        },
        {
          "indexed": true,
          "internalType": "address",
          "name": "akun",
          "type": "address"
        },
        {
          "indexed": false,
          "internalType": "string",
          "name": "newMappingCID",
          "type": "string"
        }
      ],
      "name": "KalurahanAdded",
      "type": "event"
    },
    {
      "anonymous": false,
      "inputs": [
        {
          "indexed": false,
          "internalType": "string",
          "name": "newCID",
          "type": "string"
        }
      ],
      "name": "KalurahanMappingCIDUpdated",
      "type": "event"
    },
    {
      "anonymous": false,
      "inputs": [
        {
          "indexed": true,
          "internalType": "uint8",
          "name": "id",
          "type": "uint8"
        },
        {
          "indexed": true,
          "internalType": "address",
          "name": "akun",
          "type": "address"
        },
        {
          "indexed": false,
          "internalType": "string",
          "name": "nama",
          "type": "string"
        },
        {
          "indexed": false,
          "internalType": "string",
          "name": "newMappingCID",
          "type": "string"
        }
      ],
      "name": "KalurahanRemoved",
      "type": "event"
    },
    {
      "anonymous": false,
      "inputs": [
        {
          "indexed": true,
          "internalType": "uint256",
          "name": "idPermohonan",
          "type": "uint256"
        },
        {
          "indexed": true,
          "internalType": "bytes32",
          "name": "nikKepalaKeluargaTujuanHash",
          "type": "bytes32"
        },
        {
          "indexed": false,
          "internalType": "bool",
          "name": "disetujui",
          "type": "bool"
        },
        {
          "indexed": false,
          "internalType": "uint256",
          "name": "waktu",
          "type": "uint256"
        }
      ],
      "name": "KonfirmasiKKTujuan",
      "type": "event"
    },
    {
      "anonymous": false,
      "inputs": [
        {
          "indexed": false,
          "internalType": "string",
          "name": "newCID",
          "type": "string"
        }
      ],
      "name": "NikMappingCIDUpdated",
      "type": "event"
    },
    {
      "anonymous": false,
      "inputs": [
        {
          "indexed": true,
          "internalType": "uint256",
          "name": "id",
          "type": "uint256"
        },
        {
          "indexed": true,
          "internalType": "address",
          "name": "pemohon",
          "type": "address"
        },
        {
          "indexed": false,
          "internalType": "enum PencatatanTypes.JenisPermohonan",
          "name": "jenis",
          "type": "uint8"
        },
        {
          "indexed": false,
          "internalType": "string",
          "name": "cidIPFS",
          "type": "string"
        },
        {
          "indexed": false,
          "internalType": "uint256",
          "name": "waktu",
          "type": "uint256"
        }
      ],
      "name": "PermohonanDiajukan",
      "type": "event"
    },
    {
      "anonymous": false,
      "inputs": [
        {
          "indexed": true,
          "internalType": "uint256",
          "name": "id",
          "type": "uint256"
        },
        {
          "indexed": true,
          "internalType": "address",
          "name": "pemohon",
          "type": "address"
        },
        {
          "indexed": false,
          "internalType": "uint256",
          "name": "waktu",
          "type": "uint256"
        }
      ],
      "name": "PermohonanDibatalkan",
      "type": "event"
    },
    {
      "anonymous": false,
      "inputs": [
        {
          "indexed": true,
          "internalType": "uint256",
          "name": "id",
          "type": "uint256"
        },
        {
          "indexed": true,
          "internalType": "address",
          "name": "pemohon",
          "type": "address"
        },
        {
          "indexed": false,
          "internalType": "enum PencatatanTypes.JenisPindah",
          "name": "jenisPindah",
          "type": "uint8"
        },
        {
          "indexed": false,
          "internalType": "string",
          "name": "cidIPFS",
          "type": "string"
        },
        {
          "indexed": false,
          "internalType": "uint256",
          "name": "waktu",
          "type": "uint256"
        }
      ],
      "name": "PermohonanPindahDiajukan",
      "type": "event"
    },
    {
      "anonymous": false,
      "inputs": [
        {
          "indexed": true,
          "internalType": "uint256",
          "name": "id",
          "type": "uint256"
        },
        {
          "indexed": true,
          "internalType": "address",
          "name": "verifikator",
          "type": "address"
        },
        {
          "indexed": false,
          "internalType": "bool",
          "name": "disetujui",
          "type": "bool"
        },
        {
          "indexed": false,
          "internalType": "string",
          "name": "alasan",
          "type": "string"
        },
        {
          "indexed": false,
          "internalType": "uint256",
          "name": "waktu",
          "type": "uint256"
        }
      ],
      "name": "VerifikasiDukcapil",
      "type": "event"
    },
    {
      "anonymous": false,
      "inputs": [
        {
          "indexed": true,
          "internalType": "uint256",
          "name": "id",
          "type": "uint256"
        },
        {
          "indexed": true,
          "internalType": "address",
          "name": "verifikator",
          "type": "address"
        },
        {
          "indexed": false,
          "internalType": "bool",
          "name": "disetujui",
          "type": "bool"
        },
        {
          "indexed": false,
          "internalType": "string",
          "name": "alasan",
          "type": "string"
        },
        {
          "indexed": false,
          "internalType": "uint256",
          "name": "waktu",
          "type": "uint256"
        }
      ],
      "name": "VerifikasiKalurahan",
      "type": "event"
    },
    {
      "anonymous": false,
      "inputs": [
        {
          "indexed": true,
          "internalType": "address",
          "name": "wallet",
          "type": "address"
        },
        {
          "indexed": false,
          "internalType": "string",
          "name": "nik",
          "type": "string"
        }
      ],
      "name": "WargaTerdaftar",
      "type": "event"
    },
    {
      "inputs": [
        {
          "internalType": "bytes32",
          "name": "_nikKepalaKeluargaHash",
          "type": "bytes32"
        }
      ],
      "name": "adaPermohonanMenungguKonfirmasi",
      "outputs": [
        {
          "internalType": "bool",
          "name": "",
          "type": "bool"
        }
      ],
      "stateMutability": "view",
      "type": "function"
    },
    {
      "inputs": [
        {
          "internalType": "uint8",
          "name": "",
          "type": "uint8"
        }
      ],
      "name": "addressKalurahanById",
      "outputs": [
        {
          "internalType": "address",
          "name": "",
          "type": "address"
        }
      ],
      "stateMutability": "view",
      "type": "function"
    },
    {
      "inputs": [
        {
          "internalType": "uint256",
          "name": "_id",
          "type": "uint256"
        }
      ],
      "name": "batalkanPermohonan",
      "outputs": [],
      "stateMutability": "nonpayable",
      "type": "function"
    },
    {
      "inputs": [
        {
          "internalType": "uint256",
          "name": "",
          "type": "uint256"
        }
      ],
      "name": "cidDokumenResmi",
      "outputs": [
        {
          "internalType": "string",
          "name": "",
          "type": "string"
        }
      ],
      "stateMutability": "view",
      "type": "function"
    },
    {
      "inputs": [
        {
          "internalType": "uint8",
          "name": "",
          "type": "uint8"
        },
        {
          "internalType": "uint256",
          "name": "",
          "type": "uint256"
        }
      ],
      "name": "daftarPermohonanKalurahanAsal",
      "outputs": [
        {
          "internalType": "uint256",
          "name": "",
          "type": "uint256"
        }
      ],
      "stateMutability": "view",
      "type": "function"
    },
    {
      "inputs": [
        {
          "internalType": "address",
          "name": "",
          "type": "address"
        },
        {
          "internalType": "uint256",
          "name": "",
          "type": "uint256"
        }
      ],
      "name": "daftarPermohonanPemohon",
      "outputs": [
        {
          "internalType": "uint256",
          "name": "",
          "type": "uint256"
        }
      ],
      "stateMutability": "view",
      "type": "function"
    },
    {
      "inputs": [
        {
          "internalType": "enum PencatatanTypes.Status",
          "name": "",
          "type": "uint8"
        },
        {
          "internalType": "uint256",
          "name": "",
          "type": "uint256"
        }
      ],
      "name": "daftarPermohonanPerStatus",
      "outputs": [
        {
          "internalType": "uint256",
          "name": "",
          "type": "uint256"
        }
      ],
      "stateMutability": "view",
      "type": "function"
    },
    {
      "inputs": [],
      "name": "dukcapil",
      "outputs": [
        {
          "internalType": "address",
          "name": "",
          "type": "address"
        }
      ],
      "stateMutability": "view",
      "type": "function"
    },
    {
      "inputs": [
        {
          "internalType": "uint256",
          "name": "_id",
          "type": "uint256"
        }
      ],
      "name": "getDokumenResmi",
      "outputs": [
        {
          "internalType": "string",
          "name": "",
          "type": "string"
        }
      ],
      "stateMutability": "view",
      "type": "function"
    },
    {
      "inputs": [
        {
          "internalType": "uint256",
          "name": "_id",
          "type": "uint256"
        }
      ],
      "name": "getJenisPermohonan",
      "outputs": [
        {
          "internalType": "string",
          "name": "",
          "type": "string"
        }
      ],
      "stateMutability": "view",
      "type": "function"
    },
    {
      "inputs": [
        {
          "internalType": "uint256",
          "name": "_id",
          "type": "uint256"
        }
      ],
      "name": "getJenisPindah",
      "outputs": [
        {
          "internalType": "string",
          "name": "",
          "type": "string"
        }
      ],
      "stateMutability": "view",
      "type": "function"
    },
    {
      "inputs": [],
      "name": "getKalurahanMappingCID",
      "outputs": [
        {
          "internalType": "string",
          "name": "",
          "type": "string"
        }
      ],
      "stateMutability": "view",
      "type": "function"
    },
    {
      "inputs": [],
      "name": "getNikMappingCID",
      "outputs": [
        {
          "internalType": "string",
          "name": "",
          "type": "string"
        }
      ],
      "stateMutability": "view",
      "type": "function"
    },
    {
      "inputs": [
        {
          "internalType": "uint256",
          "name": "_id",
          "type": "uint256"
        }
      ],
      "name": "getPermohonan",
      "outputs": [
        {
          "components": [
            {
              "internalType": "uint256",
              "name": "id",
              "type": "uint256"
            },
            {
              "internalType": "uint256",
              "name": "waktuPengajuan",
              "type": "uint256"
            },
            {
              "internalType": "address",
              "name": "pemohon",
              "type": "address"
            },
            {
              "internalType": "enum PencatatanTypes.JenisPermohonan",
              "name": "jenis",
              "type": "uint8"
            },
            {
              "internalType": "enum PencatatanTypes.Status",
              "name": "status",
              "type": "uint8"
            },
            {
              "internalType": "uint8",
              "name": "idKalurahanAsal",
              "type": "uint8"
            },
            {
              "internalType": "uint8",
              "name": "idKalurahanTujuan",
              "type": "uint8"
            },
            {
              "internalType": "string",
              "name": "cidIPFS",
              "type": "string"
            },
            {
              "internalType": "string",
              "name": "alasanPenolakan",
              "type": "string"
            },
            {
              "internalType": "address",
              "name": "verifikatorKalurahan",
              "type": "address"
            },
            {
              "internalType": "address",
              "name": "verifikatorKalurahanTujuan",
              "type": "address"
            },
            {
              "internalType": "address",
              "name": "verifikatorDukcapil",
              "type": "address"
            },
            {
              "internalType": "uint256",
              "name": "waktuVerifikasiKalurahan",
              "type": "uint256"
            },
            {
              "internalType": "uint256",
              "name": "waktuVerifikasiKalurahanTujuan",
              "type": "uint256"
            },
            {
              "internalType": "uint256",
              "name": "waktuVerifikasiDukcapil",
              "type": "uint256"
            },
            {
              "internalType": "address",
              "name": "konfirmatorKKTujuan",
              "type": "address"
            },
            {
              "internalType": "uint256",
              "name": "waktuKonfirmasiKKTujuan",
              "type": "uint256"
            },
            {
              "internalType": "bool",
              "name": "konfirmasiKKTujuan",
              "type": "bool"
            },
            {
              "internalType": "enum PencatatanTypes.JenisPindah",
              "name": "jenisPindah",
              "type": "uint8"
            }
          ],
          "internalType": "struct PencatatanTypes.Permohonan",
          "name": "",
          "type": "tuple"
        }
      ],
      "stateMutability": "view",
      "type": "function"
    },
    {
      "inputs": [
        {
          "internalType": "enum PencatatanTypes.Status",
          "name": "_status",
          "type": "uint8"
        }
      ],
      "name": "getPermohonanBelumVerifikasiKalurahan",
      "outputs": [
        {
          "internalType": "uint256[]",
          "name": "",
          "type": "uint256[]"
        }
      ],
      "stateMutability": "view",
      "type": "function"
    },
    {
      "inputs": [],
      "name": "getPermohonanByKalurahanAsal",
      "outputs": [
        {
          "internalType": "uint256[]",
          "name": "",
          "type": "uint256[]"
        }
      ],
      "stateMutability": "view",
      "type": "function"
    },
    {
      "inputs": [],
      "name": "getPermohonanByKalurahanTujuan",
      "outputs": [
        {
          "internalType": "uint256[]",
          "name": "",
          "type": "uint256[]"
        }
      ],
      "stateMutability": "view",
      "type": "function"
    },
    {
      "inputs": [
        {
          "internalType": "enum PencatatanTypes.Status",
          "name": "_status",
          "type": "uint8"
        }
      ],
      "name": "getPermohonanForDukcapil",
      "outputs": [
        {
          "internalType": "uint256[]",
          "name": "",
          "type": "uint256[]"
        }
      ],
      "stateMutability": "view",
      "type": "function"
    },
    {
      "inputs": [
        {
          "internalType": "address",
          "name": "_pemohon",
          "type": "address"
        }
      ],
      "name": "getPermohonanIDsByPemohon",
      "outputs": [
        {
          "internalType": "uint256[]",
          "name": "",
          "type": "uint256[]"
        }
      ],
      "stateMutability": "view",
      "type": "function"
    },
    {
      "inputs": [
        {
          "internalType": "bytes32",
          "name": "_nikKepalaKeluargaHash",
          "type": "bytes32"
        }
      ],
      "name": "getPermohonanMenungguKonfirmasiKK",
      "outputs": [
        {
          "internalType": "uint256[]",
          "name": "",
          "type": "uint256[]"
        }
      ],
      "stateMutability": "view",
      "type": "function"
    },
    {
      "inputs": [],
      "name": "getPermohonanSiapVerifikasiKalurahanAsal",
      "outputs": [
        {
          "internalType": "uint256[]",
          "name": "",
          "type": "uint256[]"
        }
      ],
      "stateMutability": "view",
      "type": "function"
    },
    {
      "inputs": [
        {
          "internalType": "uint256",
          "name": "_id",
          "type": "uint256"
        }
      ],
      "name": "getStatusPermohonan",
      "outputs": [
        {
          "internalType": "string",
          "name": "",
          "type": "string"
        }
      ],
      "stateMutability": "view",
      "type": "function"
    },
    {
      "inputs": [
        {
          "internalType": "address",
          "name": "_akun",
          "type": "address"
        },
        {
          "internalType": "string",
          "name": "_newMappingCID",
          "type": "string"
        }
      ],
      "name": "hapusKalurahan",
      "outputs": [],
      "stateMutability": "nonpayable",
      "type": "function"
    },
    {
      "inputs": [
        {
          "internalType": "address",
          "name": "",
          "type": "address"
        }
      ],
      "name": "idKalurahanByAddress",
      "outputs": [
        {
          "internalType": "uint8",
          "name": "",
          "type": "uint8"
        }
      ],
      "stateMutability": "view",
      "type": "function"
    },
    {
      "inputs": [],
      "name": "jumlahPermohonan",
      "outputs": [
        {
          "internalType": "uint256",
          "name": "",
          "type": "uint256"
        }
      ],
      "stateMutability": "view",
      "type": "function"
    },
    {
      "inputs": [
        {
          "internalType": "address",
          "name": "",
          "type": "address"
        }
      ],
      "name": "kalurahan",
      "outputs": [
        {
          "internalType": "bool",
          "name": "",
          "type": "bool"
        }
      ],
      "stateMutability": "view",
      "type": "function"
    },
    {
      "inputs": [],
      "name": "kalurahanMappingCID",
      "outputs": [
        {
          "internalType": "string",
          "name": "",
          "type": "string"
        }
      ],
      "stateMutability": "view",
      "type": "function"
    },
    {
      "inputs": [
        {
          "internalType": "uint256",
          "name": "_id",
          "type": "uint256"
        },
        {
          "internalType": "bool",
          "name": "_disetujui",
          "type": "bool"
        },
        {
          "internalType": "bytes32",
          "name": "_nikKepalaKeluargaTujuanHash",
          "type": "bytes32"
        }
      ],
      "name": "konfirmasiPindahGabungKK",
      "outputs": [],
      "stateMutability": "nonpayable",
      "type": "function"
    },
    {
      "inputs": [
        {
          "internalType": "address",
          "name": "",
          "type": "address"
        }
      ],
      "name": "nikByWallet",
      "outputs": [
        {
          "internalType": "string",
          "name": "",
          "type": "string"
        }
      ],
      "stateMutability": "view",
      "type": "function"
    },
    {
      "inputs": [],
      "name": "nikMappingCID",
      "outputs": [
        {
          "internalType": "string",
          "name": "",
          "type": "string"
        }
      ],
      "stateMutability": "view",
      "type": "function"
    },
    {
      "inputs": [
        {
          "internalType": "bytes32",
          "name": "",
          "type": "bytes32"
        },
        {
          "internalType": "uint256",
          "name": "",
          "type": "uint256"
        }
      ],
      "name": "permohonanMenungguKonfirmasiKK",
      "outputs": [
        {
          "internalType": "uint256",
          "name": "",
          "type": "uint256"
        }
      ],
      "stateMutability": "view",
      "type": "function"
    },
    {
      "inputs": [
        {
          "internalType": "string",
          "name": "_nik",
          "type": "string"
        }
      ],
      "name": "registerWarga",
      "outputs": [],
      "stateMutability": "nonpayable",
      "type": "function"
    },
    {
      "inputs": [
        {
          "internalType": "string",
          "name": "_nik",
          "type": "string"
        },
        {
          "internalType": "string",
          "name": "_mappingCID",
          "type": "string"
        }
      ],
      "name": "registerWargaAndUpdateMapping",
      "outputs": [],
      "stateMutability": "nonpayable",
      "type": "function"
    },
    {
      "inputs": [
        {
          "internalType": "enum PencatatanTypes.JenisPermohonan",
          "name": "_jenis",
          "type": "uint8"
        },
        {
          "internalType": "string",
          "name": "_cidIPFS",
          "type": "string"
        },
        {
          "internalType": "uint8",
          "name": "_idKalurahanAsal",
          "type": "uint8"
        },
        {
          "internalType": "uint8",
          "name": "_idKalurahanTujuan",
          "type": "uint8"
        },
        {
          "internalType": "enum PencatatanTypes.JenisPindah",
          "name": "_jenisPindah",
          "type": "uint8"
        },
        {
          "internalType": "bytes32",
          "name": "_nikKepalaKeluargaTujuanHash",
          "type": "bytes32"
        }
      ],
      "name": "submitPermohonan",
      "outputs": [],
      "stateMutability": "nonpayable",
      "type": "function"
    },
    {
      "inputs": [
        {
          "internalType": "uint8",
          "name": "_id",
          "type": "uint8"
        },
        {
          "internalType": "address",
          "name": "_akun",
          "type": "address"
        },
        {
          "internalType": "string",
          "name": "_newMappingCID",
          "type": "string"
        }
      ],
      "name": "tambahKalurahanById",
      "outputs": [],
      "stateMutability": "nonpayable",
      "type": "function"
    },
    {
      "inputs": [
        {
          "internalType": "uint256",
          "name": "_id",
          "type": "uint256"
        },
        {
          "internalType": "string",
          "name": "_cidDokumen",
          "type": "string"
        }
      ],
      "name": "unggahDokumenResmi",
      "outputs": [],
      "stateMutability": "nonpayable",
      "type": "function"
    },
    {
      "inputs": [
        {
          "internalType": "uint256",
          "name": "_id",
          "type": "uint256"
        },
        {
          "internalType": "bool",
          "name": "_disetujui",
          "type": "bool"
        },
        {
          "internalType": "string",
          "name": "_alasan",
          "type": "string"
        },
        {
          "internalType": "string",
          "name": "_cidDokumen",
          "type": "string"
        },
        {
          "internalType": "string",
          "name": "_mappingNIKCID",
          "type": "string"
        }
      ],
      "name": "verifikasiDukcapil",
      "outputs": [],
      "stateMutability": "nonpayable",
      "type": "function"
    },
    {
      "inputs": [
        {
          "internalType": "uint256",
          "name": "_id",
          "type": "uint256"
        },
        {
          "internalType": "bool",
          "name": "_disetujui",
          "type": "bool"
        },
        {
          "internalType": "string",
          "name": "_alasan",
          "type": "string"
        }
      ],
      "name": "verifikasiKalurahan",
      "outputs": [],
      "stateMutability": "nonpayable",
      "type": "function"
    },
    {
      "inputs": [
        {
          "internalType": "uint256",
          "name": "_id",
          "type": "uint256"
        },
        {
          "internalType": "bool",
          "name": "_disetujui",
          "type": "bool"
        },
        {
          "internalType": "string",
          "name": "_alasan",
          "type": "string"
        },
        {
          "internalType": "uint8",
          "name": "_idKalurahanTujuan",
          "type": "uint8"
        }
      ],
      "name": "verifikasiKalurahanAsalPindah",
      "outputs": [],
      "stateMutability": "nonpayable",
      "type": "function"
    },
    {
      "inputs": [
        {
          "internalType": "uint256",
          "name": "_id",
          "type": "uint256"
        },
        {
          "internalType": "bool",
          "name": "_disetujui",
          "type": "bool"
        },
        {
          "internalType": "string",
          "name": "_alasan",
          "type": "string"
        }
      ],
      "name": "verifikasiKalurahanTujuanPindah",
      "outputs": [],
      "stateMutability": "nonpayable",
      "type": "function"
    },
    {
      "inputs": [
        {
          "internalType": "string",
          "name": "",
          "type": "string"
        }
      ],
      "name": "walletByNik",
      "outputs": [
        {
          "internalType": "address",
          "name": "",
          "type": "address"
        }
      ],
      "stateMutability": "view",
      "type": "function"
    }
  ],
  "bytecode": "0x608060405234610231576147688038038061001981610236565b928339810190602081830312610231578051906001600160401b038211610231570181601f82011215610231578051906001600160401b0382116102065761006a601f8301601f1916602001610236565b92828452602083830101116102315760005b82811061021c57600083850160200181905280546001600160a01b03191633179055835184906001600160401b03811161020657600754600181811c911680156101fc575b60208210146101e657601f8111610181575b50602091601f821160011461011d57918192600092610112575b50508160011b916000199060031b1c1916176007555b60405161450c908161025c8239f35b0151905082806100ed565b601f198216926007600052806000209160005b85811061016957508360019510610150575b505050811b01600755610103565b015160001960f88460031b161c19169055828080610142565b91926020600181928685015181550194019201610130565b60076000527fa66cc928b5edb82af9bd49922954155ab7b0942694bea4ce44661d9a8736c688601f830160051c810191602084106101dc575b601f0160051c01905b8181106101d057506100d3565b600081556001016101c3565b90915081906101ba565b634e487b7160e01b600052602260045260246000fd5b90607f16906100c1565b634e487b7160e01b600052604160045260246000fd5b8060208092840101518282870101520161007c565b600080fd5b6040519190601f01601f191682016001600160401b038111838210176102065760405256fe6080604052600436101561001257600080fd5b60003560e01c8063080b5c41146136d95780630bfa49df14610b43578063219d541f146133ee5780632bbe04a61461335f5780632d7c5643146133295780634635e37814610b7d5780634835980e146132c05780634bef4923146132765780634ea609a314612faa5780634ec6202214612f2a5780634f5414c714612e9b57806350952c1414612e335780635b2a3282146126ac578063643485231461266d57806364c4f1131461241157806370ec4e06146121f457806372e4e7a0146121c65780637dc40b6e14611edf5780637ec410f814611ae8578063825e827a14611907578063835b1ece1461188457806389b41262146118475780639d4a5257146116cd578063a1468b3d14611470578063a439ef061461143a578063a48bff92146113fe578063a7014a0c146110f7578063aa020007146110c1578063ab0680c11461107f578063acbb35cf14610efd578063b4750ad314610e58578063b48da9b914610e1e578063be50586f14610dd1578063c76681d614610bc2578063d4c0418b14610b99578063e1140b0d14610b7d578063ea69c80214610b5f578063eae3073214610b43578063f908a8ff14610b03578063fea8abac146109c75763ff66d9f0146101df57600080fd5b346108e45760a03660031901126108e4576004356101fb613ace565b6044356001600160401b0381116108e45761021a903690600401613825565b926064356001600160401b0381116108e45761023a903690600401613825565b9390946084356001600160401b0381116108e45761025c903690600401613825565b6000549197916001600160a01b031633036109b6578460005260096020526040600020916002830197885460ff8160a01c1660058110156108e9576004036108ff5750909192939495969760ff815460a81c16600d8110156108e95760071480156108e45760009061081e575b505b86156106ea5783156106a557811561066057602e841061061057602e82106105cb57805460ff60a81b1916600360a81b1790556003600052600d602052610332877f26b4a10d0f0b04925c23bd4480ee147c916e5e87a7d68206a533dad160ac81e2613c8b565b86600052600e6020526040600020916001600160401b0382116105375781610365899361035f865461388c565b86613c30565b600093601f8211600114610558576103a582806000805160206144b7833981519152969760009161054d575b508160011b916000199060031b1c19161790565b90555b6103b9604051928392429184613dff565b0390a26001600160401b038111610537576103de816103d960075461388c565b613b86565b6000601f821160011461049457968161042e8160008051602061443783398151915294600080516020614497833981519152999a9b60009161048957508160011b916000199060031b1c19161790565b6007555b610449604051928392602084526020840191613c6a565b0390a15b6007810160018060a01b0333166001600160601b0360a01b825416179055600a429101556104846040519283923397429285613cb3565b0390a3005b905084013538610391565b600781527fa66cc928b5edb82af9bd49922954155ab7b0942694bea4ce44661d9a8736c68890601f198316815b81811061051f575091839160008051602061443783398151915294600080516020614497833981519152999a9b9410610505575b5050600181811b01600755610432565b830135600019600384901b60f8161c1916905538806104f5565b9192602060018192868e0135815501940192016104c1565b634e487b7160e01b600052604160045260246000fd5b905085013538610391565b80855260208520601f198316865b8181106105b0575095836000805160206144b7833981519152969710610596575b5050600182811b0190556103a8565b840135600019600385901b60f8161c191690553880610587565b8786013583556020978801978d975060019093019201610566565b60405162461bcd60e51b815260206004820152601e60248201527f466f726d61742043494420646f6b756d656e20746964616b2076616c696400006044820152606490fd5b60405162461bcd60e51b815260206004820152602260248201527f466f726d617420434944206d617070696e67204e494b20746964616b2076616c6044820152611a5960f21b6064820152608490fd5b60405162461bcd60e51b815260206004820152601d60248201527f43494420646f6b756d656e207265736d692068617275732064696973690000006044820152606490fd5b60405162461bcd60e51b815260206004820152601b60248201527f434944206d617070696e67204e494b20686172757320646969736900000000006044820152606490fd5b805460ff60a81b1916600160aa1b1790555050600482019650506001600160401b0382116105375761072682610720885461388c565b88613c30565b600095601f83116001146107ad5761076683806000805160206144978339815191529798996000916107a257508160011b916000199060031b1c19161790565b90555b6004600052600d60205261079d857fafafe8948a4ed9d478b1e9a5780b119b5edd00ea7d07bc35bef7c814824eb94b613c8b565b61044d565b905089013538610391565b80875260208720601f19841697805b898110610806575084600080516020614497833981519152979899106107ec575b5050600183811b019055610769565b880135600019600386901b60f8161c1916905538806107dd565b9091602060018192858c0135815501930191016107bc565b9897969594939291906108316007613b56565b60005b8154808210156108d2578a610849838561370e565b90549060031b1c1461085e5750600101610834565b909192939495969798999a9b60001982019182116108be5750829161089a61088c6108b3936108b89661370e565b90549060031b1c918461370e565b90919082549060031b91821b91600019901b1916179055565b613d0b565b386102c9565b634e487b7160e01b81526011600452602490fd5b505050909192939495969798506108b8565b600080fd5b634e487b7160e01b600052602160045260246000fd5b60a81c60ff16600d8110156108e9576001036109a55761091f6001613b56565b9860005b8a54808210156109945789610938838e61370e565b90549060031b1c1461094d5750600101610923565b60009b9192939495969798999a9b19810190811161097e576109799261089a61088c6108b3938561370e565b6102cb565b634e487b7160e01b600052601160045260246000fd5b5050909192939495969798506102cb565b633c78815f60e01b60005260046000fd5b632897e6d360e21b60005260046000fd5b346108e45760203660031901126108e457600435600d81101590816108e45733600052600160205260ff6040600020541615610af25733600052600560205260ff60406000205416600052600b6020526040600020908154610a2881613db9565b93600093845b838110610a7c578686610a4081613db9565b9160005b828110610a5d5760405180610a598682613852565b0390f35b80610a6a60019284613deb565b51610a758287613deb565b5201610a44565b610a86818361370e565b90549060031b1c60005260096020528260ff60026040600020015460a81c16906108e957600d8110156108e9578514610ac2575b600101610a2e565b94610aea600191610ad3888561370e565b90549060031b1c610ae4828b613deb565b52613cd8565b959050610aba565b631902707f60e31b60005260046000fd5b346108e45760203660031901126108e457600435600052600e602052610a59610b2f6040600020613a16565b60405191829160208352602083019061375f565b346108e45760003660031901126108e457610a59610b2f6138c6565b346108e45760003660031901126108e4576020600854604051908152f35b346108e45760003660031901126108e457610a59610b2f61397f565b346108e45760003660031901126108e4576000546040516001600160a01b039091168152602090f35b346108e45760403660031901126108e4576004356024356001600160401b0381116108e457610bf5903690600401613825565b600054909291906001600160a01b031633036109b65781600052600960205260ff60026040600020015460a81c16600d81101590816108e95760038114918215610dc3575b8215610db2575b8215610da1575b505015610d90578215610d7f5781600052600e602052610c6c60406000205461388c565b610d6e5781600052600e6020526040600020926001600160401b03811161053757610c9b8161035f865461388c565b600093601f8211600114610cfe57610cda82806000805160206144b78339815191529697600091610cf357508160011b916000199060031b1c19161790565b90555b610cee604051928392429184613dff565b0390a2005b905085013588610391565b80855260208520601f19831695805b878110610d565750836000805160206144b7833981519152969710610d3c575b5050600182811b019055610cdd565b840135600019600385901b60f8161c191690558580610d2d565b90916020600181928589013581550193019101610d0d565b6317ef2a1d60e31b60005260046000fd5b630f4cd64160e41b60005260046000fd5b63291bd15960e11b60005260046000fd5b9091506108e957600b148480610c48565b8092506108e9576001811491610c41565b506007811491506000610c3a565b346108e45760403660031901126108e457600435600d8110156108e457610dfa60243591613b56565b80548210156108e457602091610e0f9161370e565b90549060031b1c604051908152f35b346108e45760203660031901126108e4576001600160a01b03610e3f613ab8565b166000526002602052610a59610b2f6040600020613a16565b346108e45760203660031901126108e4576004356000818152600960209081526040808320600201548354600e909352922054336001600160a01b03928316149290911690610ea69061388c565b15610eec573314908115610ee4575b5015610ed357600052600e602052610a59610b2f6040600020613a16565b6370436def60e11b60005260046000fd5b905082610eb5565b63c31a6dc560e01b60005260046000fd5b346108e45760203660031901126108e457600435336000526002602052610f2860406000205461388c565b1561106e57600081815260096020526040902060028101805491929091336001600160a01b0382160361105d5760a81c60ff16600d811015806108e957811590818015611050575b1561103f576108e957156110225750610f88906141e4565b805460ff60a81b1916600960a81b179055426008820155600481018054610fb890610fb29061388c565b82613c05565b604781556000526237b71760e91b600160206000207f5065726d6f686f6e616e206469626174616c6b616e206f6c65682070656d6f688155015554604051904282527fc32fdc85bad287b87324f2b5c9affb2708f355d219541e068064d32eaed8d66560203393a3005b600a14611030575b50610f88565b61103990614184565b8261102a565b634db47d8360e01b60005260046000fd5b50506000600a8314610f70565b638c1f61f360e01b60005260046000fd5b630a878caf60e31b60005260046000fd5b346108e45760403660031901126108e457611098613b2c565b60ff6024359116600052600b602052604060002080548210156108e457602091610e0f9161370e565b346108e45760203660031901126108e4576004356000526009602052610a59610b2f60ff600d6040600020015460081c16614340565b346108e45760203660031901126108e457600061024060405161111981613784565b8281528260208201528260408201528260608201528260808201528260a08201528260c0820152606060e0820152606061010082015282610120820152826101408201528261016082015282610180820152826101a0820152826101c0820152826101e082015282610200820152826102208201520152600435600052600960205260406000206112ba60ff600d604051936111b485613784565b805485526001810154602086015260028101546001600160a01b038116604087015283906111eb60a082901c831660608901613ce7565b6111fd828260a81c1660808901613cf3565b818160b01c1660a088015260b81c1660c086015261121d60038201613a16565b60e086015261122e60048201613a16565b61010086015260058101546001600160a01b03908116610120870152600682015481166101408701526007820154811661016087015260088083015461018088015260098301546101a0880152600a8301546101c0880152600b8301549091166101e0870152600c8201546102008701529101548281161515610220860152901c166102408301613cff565b6040519060208252805160208301526020810151604083015260018060a01b0360408201511660608301526112f760608201516080840190613b3c565b608081015190600d8210156108e957829160a083015260ff60a08201511660c083015260ff60c08201511660e0830152610a5961024061136461134c60e085015161026061010088015261028087019061375f565b610100850151868203601f190161012088015261375f565b9260018060a01b036101208201511661014086015260018060a01b036101408201511661016086015260018060a01b03610160820151166101808601526101808101516101a08601526101a08101516101c08601526101c08101516101e086015260018060a01b036101e0820151166102008601526102008101516102208601526102208101511515828601520151610260840190613b49565b346108e45760203660031901126108e45760ff611419613b2c565b166000526004602052602060018060a01b0360406000205416604051908152f35b346108e45760203660031901126108e4576004356000526009602052610a59610b2f60ff60026040600020015460a01c1661421b565b346108e45761147e36613add565b92909133600052600160205260ff6040600020541615610af2573360005260056020526114cb60ff6040600020541683600052600960205260ff60026040600020015460b01c1614613d4a565b8160005260096020526040600020936002850160ff815460a81c16600d8110156108e9576116bc576114fc846141e4565b821561159257805460ff60a81b1916600160a81b1790556001600052600d602052929391926000805160206144778339815191529261155b857ffd54ff1ed53f34a900b24c5ba64f85761163b5d82d98a47b9bd80e45466993c5613c8b565b6005810160018060a01b0333166001600160601b0360a01b8254161790556008429101556104846040519283923397429285613cb3565b805460ff60a81b1916600160a91b17905560048501946001600160401b038211610537576115c482610720885461388c565b600095601f831160011461164b57611604838060008051602061447783398151915297989960009161164057508160011b916000199060031b1c19161790565b90555b6002600052600d60205261163b857f10a81eed9d63d16face5e76357905348e6253d3394086026bb2bf2145d7cc249613c8b565b61155b565b90508901358a610391565b80875260208720601f19841697805b8981106116a45750846000805160206144778339815191529798991061168a575b5050600183811b019055611607565b880135600019600386901b60f8161c19169055878061167b565b9091602060018192858c01358155019301910161165a565b63d2bc121d60e01b60005260046000fd5b346108e45760003660031901126108e45733600052600160205260ff6040600020541615610af25733600052600560205260ff60406000205416600052600b602052604060002080549061172082613db9565b91600091825b8281106117715750505061173981613db9565b9160005b8281106117525760405180610a598682613852565b8061175f60019284613deb565b5161176a8287613deb565b520161173d565b61177b818361370e565b90549060031b1c60005260096020526040600020600281015460ff8160a01c1660058110156108e9576004149182611827575b508161180c575b81156117f4575b506117ca575b600101611726565b926117ec6001916117db868561370e565b90549060031b1c610ae48289613deb565b9390506117c2565b60ff915060a81c16600d8110156108e95715866117bc565b905060ff8160a81c16600d8110156108e957600b14906117b5565b60ff919250600d015460081c1660038110156108e95760021490876117ae565b346108e45760203660031901126108e4576001600160a01b03611868613ab8565b166000526005602052602060ff60406000205416604051908152f35b346108e45760203660031901126108e4576001600160a01b036118a5613ab8565b16600052600a602052604060002060405190816020825491828152019160005260206000209060005b8181106118f157610a59856118e5818703826137a0565b60405191829182613852565b82548452602090930192600192830192016118ce565b346108e45760203660031901126108e4576004356001600160401b0381116108e457611937903690600401613807565b604051815190602083019161194d81838561373c565b60039082019081528190036020019020546001600160a01b0316611ad75733600052600260205261198260406000205461388c565b611ac657602061199d9160405180938192865192839161373c565b60039082019081520301902080546001600160a01b03191633908117909155600090815260026020526040902081516001600160401b038111610537576119ee816119e8845461388c565b84613c30565b6020601f8211600114611a62579080611a1c92600091611a5757508160011b916000199060031b1c19161790565b90555b7ff681a6e5cf03ecba385f32439e3a53ca704ad8f2a8d20230aa6a3971dc2ae2186040516020815280610cee3394602083019061375f565b905084015185610391565b601f1982169083600052806000209160005b818110611aae57509083600194939210611a95575b5050811b019055611a1f565b85015160001960f88460031b161c191690558480611a89565b9192602060018192868a015181550194019201611a74565b63e278de3960e01b60005260046000fd5b631677261960e21b60005260046000fd5b346108e45760803660031901126108e457600435611b04613ace565b906044356001600160401b0381116108e457611b24903690600401613825565b919092611b2f613b1c565b9033600052600160205260ff6040600020541615610af257336000526005602052611b7a60ff6040600020541684600052600960205260ff60026040600020015460b01c1614613d4a565b8260005260096020526040600020936002850194855460ff8160a01c1660058110156108e957600403611ece5760ff600d83015460081c1660038110156108e957600203611ea5575060ff865460a81c16600d8110156108e957600b03611e2657611be5600b613b56565b9560005b875480821015611e185787611bfe838b61370e565b90549060031b1c14611c135750600101611be9565b600098919293949596979819810190811161097e57611c3c9261089a61088c6108b3938561370e565b8315611cfb5760ff85168015611cea576000908152600460205260409020546001600160a01b031615611cd957805460ff60b81b191660b89590951b60ff60b81b1694909417845560008051602061447783398151915293805460ff60a81b1916600560a81b1790556005600052600d60205261155b857fa5049387d9cb649c59f4bda666105ba636c2a103d8e2b232ba4d125737cd2149613c8b565b63fac301e360e01b60005260046000fd5b636c1ba33960e01b60005260046000fd5b805460ff60a81b1916600360a91b17905560048101959493506001600160401b03821161053757611d3082610720885461388c565b600095601f8311600114611da757611d70838060008051602061447783398151915297989960009161164057508160011b916000199060031b1c19161790565b90555b6006600052600d60205261163b857fa48544818c2c710afa9849c61ec9c60e8acdb3eaa2885f33b37e118cc8fd04ac613c8b565b80875260208720601f19841697805b898110611e0057508460008051602061447783398151915297989910611de6575b5050600183811b019055611d73565b880135600019600386901b60f8161c191690558780611dd7565b9091602060018192858c013581550193019101611db6565b505090919293949550611c3c565b60405162461bcd60e51b815260206004820152604b60248201527f5065726d6f686f6e616e2070696e64616820676162756e67204b4b206861727560448201527f732073756461682064696b6f6e6669726d617369206b6570616c61206b656c7560648201526a30b933b0903a3ab53ab0b760a91b608482015260a490fd5b60ff9060a8979293949596971c16600d8110156108e9576116bc57611ec9866141e4565b611c3c565b63243d08b360e21b60005260046000fd5b346108e45760603660031901126108e457600435611efb613ace565b60443591336000526002602052611f1660406000205461388c565b1561106e57806000526009602052604060002091600283019081549360ff8560a01c1660058110156108e957600403611ece57600d81019460ff865460081c1660038110156108e9576002036121775760a81c60ff16600d8110156108e957600a0361212657611f8584614184565b85600052600f602052604060002060005b8154808210156120f45786611fab838561370e565b90549060031b1c14611fc05750600101611f96565b90949596600019820191821161097e577fb3d39cbcdbaa7e9151453dc7f6f4856b95e939800ab547c6b91a4e1ac65aadb09661200d846108b360409961089a61088c8b9861204f9a61370e565b821561207b57805460ff60a81b1916600b60a81b179055600b6000908152600d60205286902061203e908990613c8b565b9060ff801983541691151516179055565b600b810180546001600160a01b0319163317905542600c909101819055825191151582526020820152a3005b805460ff60a81b1916600360aa1b17905560048401805461209f90610fb29061388c565b60478155600052623ab0b760e91b600160206000207f4469746f6c616b206f6c6568206b6570616c61206b656c75617267612074756a815501556120ef88876000600c8152600d60205220613c8b565b61203e565b50505061204f827fb3d39cbcdbaa7e9151453dc7f6f4856b95e939800ab547c6b91a4e1ac65aadb0959660409561200d565b60405162461bcd60e51b815260206004820152602360248201527f53746174757320746964616b2076616c696420756e74756b206b6f6e6669726d60448201526261736960e81b6064820152608490fd5b60405162461bcd60e51b815260206004820152602160248201527f42756b616e207065726d6f686f6e616e2070696e64616820676162756e67204b6044820152604b60f81b6064820152608490fd5b346108e45760203660031901126108e457600435600052600f60205260206040600020541515604051908152f35b346108e45760403660031901126108e45761220d613ab8565b6024356001600160401b0381116108e45761222c903690600401613825565b6000549092906001600160a01b031633036109b6576001600160a01b03166000818152600160209081526040808320805460ff19169055600590915290205460ff169290836123d8575b6001600160401b038211610537576122988261229360065461388c565b613bcb565b600093601f8311600114612349576122d683806000805160206144578339815191529760009161233e57508160011b916000199060031b1c19161790565b6006555b7fc008778747a33ed2186935953768eacc55b807b5e3af2943d345b200d5fecd496040516040815260006040820152606060208201528061231f606082018789613c6a565b0390a3612339604051928392602084526020840191613c6a565b0390a1005b905086013588610391565b60068552601f198316947ff652222313e28459528d920b65115c16c04f3efc82aaedc97be59f3f377c0d3f90805b8781106123c057508460008051602061445783398151915297106123a6575b5050600183811b016006556122da565b850135600019600386901b60f8161c191690558580612396565b9091602060018192858a013581550193019101612377565b83600052600460205260406000206001600160601b0360a01b8154169055806000526005602052604060002060ff198154169055612276565b346108e45760603660031901126108e45761242a613b2c565b6024356001600160a01b03811691908290036108e4576044356001600160401b0381116108e45761245f903690600401613825565b600054919290916001600160a01b031633036109b657831561265c5760ff166000818152600460205260409020549093906001600160a01b031661264b5780600052600560205260ff604060002054161580612642575b15612631578360005260046020526040600020816001600160601b0360a01b82541617905580600052600560205260406000208460ff198254161790558060005260016020526040600020600160ff198254161790556001600160401b038211610537576125298261229360065461388c565b600093601f83116001146125a25761256783806000805160206144578339815191529760009161233e57508160011b916000199060031b1c19161790565b6006555b7f8418aea3839e9ae83ed3f1125ef966aa3033c97a2c25a85e07bfe51e7e4fa41a604051602081528061231f602082018789613c6a565b60068552601f198316947ff652222313e28459528d920b65115c16c04f3efc82aaedc97be59f3f377c0d3f90805b87811061261957508460008051602061445783398151915297106125ff575b5050600183811b0160065561256b565b850135600019600386901b60f8161c1916905585806125ef565b9091602060018192858a0135815501930191016125d0565b6338077c8760e21b60005260046000fd5b508315156124b6565b6348745fab60e01b60005260046000fd5b639fabe1c160e01b60005260046000fd5b346108e45760203660031901126108e4576001600160a01b0361268e613ab8565b166000526001602052602060ff604060002054166040519015158152f35b346108e45760c03660031901126108e457600560043510156108e4576024356001600160401b0381116108e4576126e7903690600401613825565b6044359060ff821682036108e4576126fd613b1c565b926003608435101591826108e45733600052600260205261272260406000205461388c565b1561106e578015610d7f5760ff84166000908152600460205260409020546001600160a01b031615611cd9576000926004803514612df2575b6008549361276885613cd8565b60085550600480351480612de3575b15612ddb57600a955b6000966004803503612dd55781975b506004803503612dcd57608435965b60ff604051996127ad8b613784565b888b524260208c01523360408c01526127cb60043560608d01613ce7565b6127d88460808d01613cf3565b81831660a08c01521660c08a01526127f13686886137c1565b60e08a01526128656020986040516128098b826137a0565b600081526101008c015260006101208c015260006101408c015260006101608c015260006101808c015260006101a08c015260006101c08c015260006101e08c015260006102008c015260006102208c01526102408b01613cff565b6000878152600989526040908190208a51815560208b01516001820155908a01516002820180546001600160a01b0319166001600160a01b039290921691909117905560608a0151999060058b10156108e95760028101805460ff60a01b191660a09c909c1b60ff60a01b169b909b17909a55608081015160009a90600d811015612db95760028201805460a085015160c086015162ffffff60a81b1990921660a89490941b60ff60a81b169390931760b09390931b60ff60b01b169290921760b89290921b60ff60b81b1691909117905560e082015180516001600160401b038111612d2c576129668161295d600386015461388c565b60038601613c30565b8b8d601f8311600114612d4b57906129939383612d40575b50508160011b916000199060031b1c19161790565b60038201555b6101008201518051906001600160401b038211612d2c576129ca826129c1600486015461388c565b60048601613c30565b8b908d601f8411600114612cb95792806102409593612a0093600d9692612cae5750508160011b916000199060031b1c19161790565b60048201555b6101208401516005820180546001600160a01b039283166001600160a01b03199182161790915561014086015160068401805491841691831691909117905561016086015160078401805491841691831691909117905561018086015160088401556101a086015160098401556101c0860151600a8401556101e0860151600b84018054919093169116179055610200840151600c8201556102208401519101805460ff191691151560ff169190911781559101516003811015612c9a579260ff8993612af98560408f8f600a90612b1299612b179c61ff0082549160081b169061ff0019161790553383525220613c8b565b168b52600b8a52612b0d8360408d20613c8b565b613b56565b613c8b565b6004803514612c7e575b5060048035149081612c58575b50612bca575b6004803503612b92577fa0b9d3ab20139b1dab107ee5e773449c3bc1cba0be29c7281e39e5623d699b9d91612b8291606060405196612b7588608435613b49565b8701526060860191613c6a565b924260408201528033940390a380f35b7f76091af5eb885b36d291fafffdf0282c662dd305c7a5efb5f216ce4133972fca91612b8291606060405196612b7588600435613b3c565b60a43515612bed5760a4358552600f8452612be88360408720613c8b565b612b34565b60405162461bcd60e51b815260048101859052603d60248201527f4e494b206b6570616c61206b656c75617267612074756a75616e2077616a696260448201527f20646969736920756e74756b2070696e64616820676162756e67204b4b0000006064820152608490fd5b9050612c6a5760026084351486612b2e565b634e487b7160e01b85526021600452602485fd5b60ff168652600c8552612c948460408820613c8b565b86612b21565b634e487b7160e01b8b52602160045260248bfd5b01519050388061297e565b6004850181528d81209291908e5b601f1986168210612d15575050926102409492600192600d9583601f19811610612cfc575b505050811b016004820155612a06565b015160001960f88460031b161c191690558f8080612cec565b60018495829395850151815501940192018e612cc7565b634e487b7160e01b8d52604160045260248dfd5b015190508e8061297e565b908d9360038601835284832092945b601f1985168610612d9f57506001945083601f19811610612d86575b505050811b016003820155612999565b015160001960f88460031b161c191690558d8080612d76565b82820151845594850194600190930192909101908e612d5a565b634e487b7160e01b8c52602160045260248cfd5b60009661279e565b8761278f565b600095612780565b50506000600260843514612777565b60ff86168015612e24578452600460205260408420546001600160a01b031661275b5763fac301e360e01b8452600484fd5b636c1ba33960e01b8552600485fd5b346108e45760203660031901126108e4576004356001600160401b0381116108e457612e656020913690600401613807565b81612e79604051928381519384920161373c565b600390820190815281900382019020546040516001600160a01b039091168152f35b346108e45760003660031901126108e45733600052600160205260ff6040600020541615610af25733600052600560205260ff60406000205416600052600b602052604060002060405190816020825491828152019160005260206000209060005b818110612f1457610a59856118e5818703826137a0565b8254845260209093019260019283019201612efd565b346108e45760203660031901126108e457600435600d8110156108e4576000546001600160a01b031633036109b657612f6290613b56565b60405190816020825491828152019160005260206000209060005b818110612f9457610a59856118e5818703826137a0565b8254845260209093019260019283019201612f7d565b346108e457612fb836613add565b919233600052600160205260ff6040600020541615610af2578060005260096020526040600020936002850193845460ff8160a01c1660058110156108e957600403611ece5760ff8160a81c16600d8110156108e9576005036132655733600052600560205260ff80604060002054169160b81c16036132545761303c6005613b56565b9460005b8654808210156132475785613055838a61370e565b90549060031b1c1461306a5750600101613040565b6000979192939495969719810190811161097e576130929261089a61088c6108b3938561370e565b821561312857805460ff60a81b1916600760a81b1790556007600052600d60205292939192600080516020614477833981519152926130f1857fb91432bedff11256dbe14161d3606a2657bc9dacf8742f6b817d871dd53fb976613c8b565b6006810160018060a01b0333166001600160601b0360a01b8254161790556009429101556104846040519283923397429285613cb3565b805460ff60a81b1916600160ab1b17905560048501946001600160401b0382116105375761315a82610720885461388c565b600095601f83116001146131d65761319a838060008051602061447783398151915297989960009161164057508160011b916000199060031b1c19161790565b90555b6008600052600d6020526131d1857f0b705463cf5f7356780ee6e96132d37412c1b5816a4d207b8dcd42c349767457613c8b565b6130f1565b80875260208720601f19841697805b89811061322f57508460008051602061447783398151915297989910613215575b5050600183811b01905561319d565b880135600019600386901b60f8161c191690558780613206565b9091602060018192858c0135815501930191016131e5565b5050909192939450613092565b635a6db8ab60e01b60005260046000fd5b63384bca1f60e11b60005260046000fd5b346108e45760403660031901126108e45761328f613ab8565b6001600160a01b03166000908152600a60205260409020805460243591908210156108e457602091610e0f9161370e565b346108e45760203660031901126108e457600435600052600f602052604060002060405190816020825491828152019160005260206000209060005b81811061331357610a59856118e5818703826137a0565b82548452602090930192600192830192016132fc565b346108e45760203660031901126108e4576004356000526009602052610a59610b2f60ff60026040600020015460a81c16613e17565b346108e45760003660031901126108e45733600052600160205260ff6040600020541615610af25733600052600560205260ff60406000205416600052600c602052604060002060405190816020825491828152019160005260206000209060005b8181106133d857610a59856118e5818703826137a0565b82548452602090930192600192830192016133c1565b346108e45760403660031901126108e4576004356001600160401b0381116108e45761341e903690600401613807565b6024356001600160401b0381116108e45761343d903690600401613825565b604051835190602085019161345381838561373c565b60039082019081528190036020019020546001600160a01b0316611ad75733600052600260205261348860406000205461388c565b611ac65760206134a39160405180938192885192839161373c565b60039082019081520301902080546001600160a01b03191633908117909155600090815260026020526040902083516001600160401b038111610537576134ee816119e8845461388c565b6020601f821160011461367557908061351c9260009161366a57508160011b916000199060031b1c19161790565b90555b6001600160401b0381116105375761353c816103d960075461388c565b600092601f82116001146135db5761357a8280600080516020614437833981519152966000916135d057508160011b916000199060031b1c19161790565b6007555b7ff681a6e5cf03ecba385f32439e3a53ca704ad8f2a8d20230aa6a3971dc2ae21860405160208152806135b63394602083019061375f565b0390a2612339604051928392602084526020840191613c6a565b905085013587610391565b60078452601f198216937fa66cc928b5edb82af9bd49922954155ab7b0942694bea4ce44661d9a8736c68890805b8681106136525750836000805160206144378339815191529610613638575b5050600182811b0160075561357e565b840135600019600385901b60f8161c191690558480613628565b90916020600181928589013581550193019101613609565b905086015187610391565b601f1982169083600052806000209160005b8181106136c1575090836001949392106136a8575b5050811b01905561351f565b87015160001960f88460031b161c19169055868061369c565b9192602060018192868c015181550194019201613687565b346108e45760403660031901126108e457602435600435600052600f602052604060002080548210156108e457602091610e0f915b80548210156137265760005260206000200190600090565b634e487b7160e01b600052603260045260246000fd5b60005b83811061374f5750506000910152565b818101518382015260200161373f565b906020916137788151809281855285808601910161373c565b601f01601f1916010190565b61026081019081106001600160401b0382111761053757604052565b90601f801991011681019081106001600160401b0382111761053757604052565b9291926001600160401b03821161053757604051916137ea601f8201601f1916602001846137a0565b8294818452818301116108e4578281602093846000960137010152565b9080601f830112156108e457816020613822933591016137c1565b90565b9181601f840112156108e4578235916001600160401b0383116108e457602083818601950101116108e457565b602060408183019282815284518094520192019060005b8181106138765750505090565b8251845260209384019390920191600101613869565b90600182811c921680156138bc575b60208310146138a657565b634e487b7160e01b600052602260045260246000fd5b91607f169161389b565b60405190600082600654916138da8361388c565b80835292600181169081156139605750600114613900575b6138fe925003836137a0565b565b506006600090815290917ff652222313e28459528d920b65115c16c04f3efc82aaedc97be59f3f377c0d3f5b8183106139445750509060206138fe928201016138f2565b602091935080600191548385890101520191019091849261392c565b602092506138fe94915060ff191682840152151560051b8201016138f2565b60405190600082600754916139938361388c565b808352926001811690811561396057506001146139b6576138fe925003836137a0565b506007600090815290917fa66cc928b5edb82af9bd49922954155ab7b0942694bea4ce44661d9a8736c6885b8183106139fa5750509060206138fe928201016138f2565b60209193508060019154838589010152019101909184926139e2565b9060405191826000825492613a2a8461388c565b8084529360018116908115613a965750600114613a4f575b506138fe925003836137a0565b90506000929192526020600020906000915b818310613a7a5750509060206138fe9282010138613a42565b6020919350806001915483858901015201910190918492613a61565b9050602092506138fe94915060ff191682840152151560051b82010138613a42565b600435906001600160a01b03821682036108e457565b6024359081151582036108e457565b60606003198201126108e4576004359160243580151581036108e45791604435906001600160401b0382116108e457613b1891600401613825565b9091565b6064359060ff821682036108e457565b6004359060ff821682036108e457565b9060058210156108e95752565b9060038210156108e95752565b600d8110156108e957600052600d602052604060002090565b818110613b7a575050565b60008155600101613b6f565b90601f8211613b93575050565b6138fe9160076000526020600020906020601f840160051c83019310613bc1575b601f0160051c0190613b6f565b9091508190613bb4565b90601f8211613bd8575050565b6138fe9160066000526020600020906020601f840160051c83019310613bc157601f0160051c0190613b6f565b90601f8111613c12575050565b6138fe916000526002601f6020600020920160051c82019101613b6f565b9190601f8111613c3f57505050565b6138fe926000526020600020906020601f840160051c83019310613bc157601f0160051c0190613b6f565b908060209392818452848401376000828201840152601f01601f1916010190565b9081549168010000000000000000831015610537578261089a9160016138fe9501815561370e565b94939291604092613cd39215158752606060208801526060870191613c6a565b930152565b600019811461097e5760010190565b60058210156108e95752565b600d8210156108e95752565b60038210156108e95752565b80548015613d34576000190190613d22828261370e565b8154906000199060031b1b1916905555565b634e487b7160e01b600052603160045260246000fd5b15613d5157565b60405162461bcd60e51b8152602060048201526024808201527f48616e7961206b616c75726168616e206173616c2079616e672062657277656e604482015263616e672160e01b6064820152608490fd5b6001600160401b0381116105375760051b60200190565b90613dc382613da2565b613dd060405191826137a0565b8281528092613de1601f1991613da2565b0190602036910137565b80518210156137265760209160051b010190565b939291602091613cd391604087526040870191613c6a565b600d8110156108e957801561415d576000600182146141295750600281146140f9576000600382146140c65750600481146140975760006005821461405957506006811461402457600060078214613fe6575060088114613faa57600060098214613f6c5750600a8114613f3057600090600b8114613efa57600c915014613ecb57604051613ea76040826137a0565b601481527314dd185d1d5cc8151a59185ac8111a5ad95b985b60621b602082015290565b604051613ed96040826137a0565b60118152702234ba37b630b59025a5902a3ab53ab0b760791b602082015290565b5050604051613f0a6040826137a0565b60168152752234b5b7b73334b936b0b9b49025a5902a3ab53ab0b760511b602082015290565b50604051613f3f6040826137a0565b601d81527f4d656e756e676775204b6f6e6669726d617369204b4b2054756a75616e000000602082015290565b50506040805190613f7d90826137a0565b601781527f4469626174616c6b616e206f6c65682050656d6f686f6e000000000000000000602082015290565b50604051613fb96040826137a0565b601881527f4469746f6c616b204b616c75726168616e2054756a75616e0000000000000000602082015290565b50506040805190613ff790826137a0565b601a81527f4469736574756a7569204b616c75726168616e2054756a75616e000000000000602082015290565b506040516140336040826137a0565b6016815275111a5d1bdb185ac812d85b1d5c985a185b88105cd85b60521b602082015290565b5050604080519061406a90826137a0565b601881527f4469736574756a7569204b616c75726168616e204173616c0000000000000000602082015290565b506040516140a66040826137a0565b601081526f111a5d1bdb185ac8111d5ad8d85c1a5b60821b602082015290565b505060408051906140d790826137a0565b6012815271111a5cd95d1d5a9d5a48111d5ad8d85c1a5b60721b602082015290565b506040516141086040826137a0565b60118152702234ba37b630b59025b0b63ab930b430b760791b602082015290565b5050604080519061413a90826137a0565b60138152722234b9b2ba3ab53ab49025b0b63ab930b430b760691b602082015290565b5060405161416c6040826137a0565b60088152672234b0b53ab5b0b760c11b602082015290565b61418e600a613b56565b60005b8154808210156141de57836141a6838561370e565b90549060031b1c146141bb5750600101614191565b909250600019810190811161097e576138fe9261089a61088c6108b3938561370e565b50505050565b6141ee6000613b56565b60005b8154808210156141de5783614206838561370e565b90549060031b1c146141bb57506001016141f1565b60058110156108e9578015614318576000600182146142ef5750600281146142cb57600090600381146142a65760049150146142825760405161425f6040826137a0565b601381527212995b9a5cc8151a59185ac8111a5ad95b985b606a1b602082015290565b6040516142906040826137a0565b60068152650a0d2dcc8c2d60d31b602082015290565b50506040516142b66040826137a0565b6005815264436572616960d81b602082015290565b506040516142da6040826137a0565b600581526425b0bbb4b760d91b602082015290565b5050604080519061430090826137a0565b600881526725b2b6b0ba34b0b760c11b602082015290565b506040516143276040826137a0565b600981526825b2b630b434b930b760b91b602082015290565b60038110156108e95780156143fa57600090600181146143cc57600291501461439e576040516143716040826137a0565b601a81527f4a656e69732050696e64616820546964616b2044696b656e616c000000000000602082015290565b6040516143ac6040826137a0565b601081526f50696e64616820476162756e67204b4b60801b602082015290565b50506040516143dc6040826137a0565b600e81526d50696e646168204d616e6469726960901b602082015290565b506040516144096040826137a0565b601781527f50696e6461682053656c75727568204b656c756172676100000000000000000060208201529056fe262db39bd0808699e53948bb8d4427b6399e3aa80e4e5d22462b61781dab6cd705b7d468eb456c6bffbac7ac5f22f68ca5ce358ae4551017aeb9e69bf8fa11eeb464c40b6330ada9cbaedc9b928b83d905cd3051349abb7332ae44607384da596b79a244eb3993d9a079f4708e9832062b305d6080c8372aac9c82d882a9557b75c675465e0858e943fd2e773390edaac64e2ee57918f3f49a20e198c1a54425a2646970667358221220e2fd1fe336c8a6289ee504fa759b142b8733db272b7c67a138ac52b8c7d6347264736f6c634300081c0033",
  "linkReferences": {},
  "deployedLinkReferences": {}
}