{
  "_format": "hh-sol-artifact-1",
  "contractName": "PencatatanSipil",
  "sourceName": "contracts/PencatatanSipil.sol",
  "abi": [
    {
      "inputs": [
        {
          "internalType": "string",
          "name": "_initialNikMappingCID",
          "type": "string"
        }
      ],
      "stateMutability": "nonpayable",
      "type": "constructor"
    },
    {
      "inputs": [],
      "name": "AddressSudahDipakai",
      "type": "error"
    },
    {
      "inputs": [],
      "name": "AddressZero",
      "type": "error"
    },
    {
      "inputs": [],
      "name": "AksesDitolak",
      "type": "error"
    },
    {
      "inputs": [],
      "name": "BelumAdaDokumenResmi",
      "type": "error"
    },
    {
      "inputs": [],
      "name": "BelumDiverifikasiKalurahanAsal",
      "type": "error"
    },
    {
      "inputs": [],
      "name": "BukanPemilikPermohonan",
      "type": "error"
    },
    {
      "inputs": [],
      "name": "BukanPermohonanPindah",
      "type": "error"
    },
    {
      "inputs": [],
      "name": "CidKosong",
      "type": "error"
    },
    {
      "inputs": [],
      "name": "DokumenResmiSudahAda",
      "type": "error"
    },
    {
      "inputs": [],
      "name": "HanyaKalurahanTujuan",
      "type": "error"
    },
    {
      "inputs": [],
      "name": "IdKalurahanTujuanTidakDikenal",
      "type": "error"
    },
    {
      "inputs": [],
      "name": "IdSudahDipakai",
      "type": "error"
    },
    {
      "inputs": [],
      "name": "NikSudahDiklaim",
      "type": "error"
    },
    {
      "inputs": [],
      "name": "OnlyDukcapil",
      "type": "error"
    },
    {
      "inputs": [],
      "name": "OnlyKalurahan",
      "type": "error"
    },
    {
      "inputs": [],
      "name": "OnlyWargaTerdaftar",
      "type": "error"
    },
    {
      "inputs": [],
      "name": "PermohonanBelumDisetujuiKalurahan",
      "type": "error"
    },
    {
      "inputs": [],
      "name": "PermohonanBukanDiajukan",
      "type": "error"
    },
    {
      "inputs": [],
      "name": "PermohonanPindahBelumDisetujuiKalurahanTujuan",
      "type": "error"
    },
    {
      "inputs": [],
      "name": "StatusTidakValidUntukUploadDokumen",
      "type": "error"
    },
    {
      "inputs": [],
      "name": "TidakDapatDibatalkan",
      "type": "error"
    },
    {
      "inputs": [],
      "name": "TujuanTidakValid",
      "type": "error"
    },
    {
      "inputs": [],
      "name": "WalletSudahDigunakan",
      "type": "error"
    },
    {
      "anonymous": false,
      "inputs": [
        {
          "indexed": true,
          "internalType": "uint256",
          "name": "idPermohonan",
          "type": "uint256"
        },
        {
          "indexed": false,
          "internalType": "string",
          "name": "cidDokumen",
          "type": "string"
        },
        {
          "indexed": false,
          "internalType": "uint256",
          "name": "waktu",
          "type": "uint256"
        }
      ],
      "name": "DokumenResmiDiunggah",
      "type": "event"
    },
    {
      "anonymous": false,
      "inputs": [
        {
          "indexed": true,
          "internalType": "uint8",
          "name": "id",
          "type": "uint8"
        },
        {
          "indexed": true,
          "internalType": "address",
          "name": "akun",
          "type": "address"
        },
        {
          "indexed": false,
          "internalType": "string",
          "name": "newMappingCID",
          "type": "string"
        }
      ],
      "name": "KalurahanAdded",
      "type": "event"
    },
    {
      "anonymous": false,
      "inputs": [
        {
          "indexed": false,
          "internalType": "string",
          "name": "newCID",
          "type": "string"
        }
      ],
      "name": "KalurahanMappingCIDUpdated",
      "type": "event"
    },
    {
      "anonymous": false,
      "inputs": [
        {
          "indexed": true,
          "internalType": "uint8",
          "name": "id",
          "type": "uint8"
        },
        {
          "indexed": true,
          "internalType": "address",
          "name": "akun",
          "type": "address"
        },
        {
          "indexed": false,
          "internalType": "string",
          "name": "nama",
          "type": "string"
        },
        {
          "indexed": false,
          "internalType": "string",
          "name": "newMappingCID",
          "type": "string"
        }
      ],
      "name": "KalurahanRemoved",
      "type": "event"
    },
    {
      "anonymous": false,
      "inputs": [
        {
          "indexed": true,
          "internalType": "uint256",
          "name": "idPermohonan",
          "type": "uint256"
        },
        {
          "indexed": true,
          "internalType": "string",
          "name": "nikKepalaKeluargaTujuan",
          "type": "string"
        },
        {
          "indexed": false,
          "internalType": "bool",
          "name": "disetujui",
          "type": "bool"
        },
        {
          "indexed": false,
          "internalType": "uint256",
          "name": "waktu",
          "type": "uint256"
        }
      ],
      "name": "KonfirmasiKKTujuan",
      "type": "event"
    },
    {
      "anonymous": false,
      "inputs": [
        {
          "indexed": false,
          "internalType": "string",
          "name": "newCID",
          "type": "string"
        }
      ],
      "name": "NikMappingCIDUpdated",
      "type": "event"
    },
    {
      "anonymous": false,
      "inputs": [
        {
          "indexed": true,
          "internalType": "uint256",
          "name": "id",
          "type": "uint256"
        },
        {
          "indexed": true,
          "internalType": "address",
          "name": "pemohon",
          "type": "address"
        },
        {
          "indexed": false,
          "internalType": "enum PencatatanTypes.JenisPermohonan",
          "name": "jenis",
          "type": "uint8"
        },
        {
          "indexed": false,
          "internalType": "string",
          "name": "cidIPFS",
          "type": "string"
        },
        {
          "indexed": false,
          "internalType": "uint256",
          "name": "waktu",
          "type": "uint256"
        }
      ],
      "name": "PermohonanDiajukan",
      "type": "event"
    },
    {
      "anonymous": false,
      "inputs": [
        {
          "indexed": true,
          "internalType": "uint256",
          "name": "id",
          "type": "uint256"
        },
        {
          "indexed": true,
          "internalType": "address",
          "name": "pemohon",
          "type": "address"
        },
        {
          "indexed": false,
          "internalType": "uint256",
          "name": "waktu",
          "type": "uint256"
        }
      ],
      "name": "PermohonanDibatalkan",
      "type": "event"
    },
    {
      "anonymous": false,
      "inputs": [
        {
          "indexed": true,
          "internalType": "uint256",
          "name": "id",
          "type": "uint256"
        },
        {
          "indexed": true,
          "internalType": "address",
          "name": "pemohon",
          "type": "address"
        },
        {
          "indexed": false,
          "internalType": "enum PencatatanTypes.JenisPindah",
          "name": "jenisPindah",
          "type": "uint8"
        },
        {
          "indexed": false,
          "internalType": "string",
          "name": "cidIPFS",
          "type": "string"
        },
        {
          "indexed": false,
          "internalType": "uint256",
          "name": "waktu",
          "type": "uint256"
        }
      ],
      "name": "PermohonanPindahDiajukan",
      "type": "event"
    },
    {
      "anonymous": false,
      "inputs": [
        {
          "indexed": true,
          "internalType": "uint256",
          "name": "id",
          "type": "uint256"
        },
        {
          "indexed": true,
          "internalType": "address",
          "name": "verifikator",
          "type": "address"
        },
        {
          "indexed": false,
          "internalType": "bool",
          "name": "disetujui",
          "type": "bool"
        },
        {
          "indexed": false,
          "internalType": "string",
          "name": "alasan",
          "type": "string"
        },
        {
          "indexed": false,
          "internalType": "uint256",
          "name": "waktu",
          "type": "uint256"
        }
      ],
      "name": "VerifikasiDukcapil",
      "type": "event"
    },
    {
      "anonymous": false,
      "inputs": [
        {
          "indexed": true,
          "internalType": "uint256",
          "name": "id",
          "type": "uint256"
        },
        {
          "indexed": true,
          "internalType": "address",
          "name": "verifikator",
          "type": "address"
        },
        {
          "indexed": false,
          "internalType": "bool",
          "name": "disetujui",
          "type": "bool"
        },
        {
          "indexed": false,
          "internalType": "string",
          "name": "alasan",
          "type": "string"
        },
        {
          "indexed": false,
          "internalType": "uint256",
          "name": "waktu",
          "type": "uint256"
        }
      ],
      "name": "VerifikasiKalurahan",
      "type": "event"
    },
    {
      "anonymous": false,
      "inputs": [
        {
          "indexed": true,
          "internalType": "address",
          "name": "wallet",
          "type": "address"
        },
        {
          "indexed": false,
          "internalType": "string",
          "name": "nik",
          "type": "string"
        }
      ],
      "name": "WargaTerdaftar",
      "type": "event"
    },
    {
      "inputs": [
        {
          "internalType": "string",
          "name": "_nikKepalaKeluarga",
          "type": "string"
        }
      ],
      "name": "adaPermohonanMenungguKonfirmasi",
      "outputs": [
        {
          "internalType": "bool",
          "name": "",
          "type": "bool"
        }
      ],
      "stateMutability": "view",
      "type": "function"
    },
    {
      "inputs": [
        {
          "internalType": "uint8",
          "name": "",
          "type": "uint8"
        }
      ],
      "name": "addressKalurahanById",
      "outputs": [
        {
          "internalType": "address",
          "name": "",
          "type": "address"
        }
      ],
      "stateMutability": "view",
      "type": "function"
    },
    {
      "inputs": [
        {
          "internalType": "uint256",
          "name": "_id",
          "type": "uint256"
        }
      ],
      "name": "batalkanPermohonan",
      "outputs": [],
      "stateMutability": "nonpayable",
      "type": "function"
    },
    {
      "inputs": [
        {
          "internalType": "uint256",
          "name": "",
          "type": "uint256"
        }
      ],
      "name": "cidDokumenResmi",
      "outputs": [
        {
          "internalType": "string",
          "name": "",
          "type": "string"
        }
      ],
      "stateMutability": "view",
      "type": "function"
    },
    {
      "inputs": [
        {
          "internalType": "uint8",
          "name": "",
          "type": "uint8"
        },
        {
          "internalType": "uint256",
          "name": "",
          "type": "uint256"
        }
      ],
      "name": "daftarPermohonanKalurahanAsal",
      "outputs": [
        {
          "internalType": "uint256",
          "name": "",
          "type": "uint256"
        }
      ],
      "stateMutability": "view",
      "type": "function"
    },
    {
      "inputs": [
        {
          "internalType": "address",
          "name": "",
          "type": "address"
        },
        {
          "internalType": "uint256",
          "name": "",
          "type": "uint256"
        }
      ],
      "name": "daftarPermohonanPemohon",
      "outputs": [
        {
          "internalType": "uint256",
          "name": "",
          "type": "uint256"
        }
      ],
      "stateMutability": "view",
      "type": "function"
    },
    {
      "inputs": [
        {
          "internalType": "enum PencatatanTypes.Status",
          "name": "",
          "type": "uint8"
        },
        {
          "internalType": "uint256",
          "name": "",
          "type": "uint256"
        }
      ],
      "name": "daftarPermohonanPerStatus",
      "outputs": [
        {
          "internalType": "uint256",
          "name": "",
          "type": "uint256"
        }
      ],
      "stateMutability": "view",
      "type": "function"
    },
    {
      "inputs": [],
      "name": "dukcapil",
      "outputs": [
        {
          "internalType": "address",
          "name": "",
          "type": "address"
        }
      ],
      "stateMutability": "view",
      "type": "function"
    },
    {
      "inputs": [
        {
          "internalType": "uint256",
          "name": "_id",
          "type": "uint256"
        }
      ],
      "name": "getDokumenResmi",
      "outputs": [
        {
          "internalType": "string",
          "name": "",
          "type": "string"
        }
      ],
      "stateMutability": "view",
      "type": "function"
    },
    {
      "inputs": [
        {
          "internalType": "uint256",
          "name": "_id",
          "type": "uint256"
        }
      ],
      "name": "getJenisPermohonan",
      "outputs": [
        {
          "internalType": "string",
          "name": "",
          "type": "string"
        }
      ],
      "stateMutability": "view",
      "type": "function"
    },
    {
      "inputs": [
        {
          "internalType": "uint256",
          "name": "_id",
          "type": "uint256"
        }
      ],
      "name": "getJenisPindah",
      "outputs": [
        {
          "internalType": "string",
          "name": "",
          "type": "string"
        }
      ],
      "stateMutability": "view",
      "type": "function"
    },
    {
      "inputs": [],
      "name": "getKalurahanMappingCID",
      "outputs": [
        {
          "internalType": "string",
          "name": "",
          "type": "string"
        }
      ],
      "stateMutability": "view",
      "type": "function"
    },
    {
      "inputs": [],
      "name": "getNikMappingCID",
      "outputs": [
        {
          "internalType": "string",
          "name": "",
          "type": "string"
        }
      ],
      "stateMutability": "view",
      "type": "function"
    },
    {
      "inputs": [
        {
          "internalType": "uint256",
          "name": "_id",
          "type": "uint256"
        }
      ],
      "name": "getPermohonan",
      "outputs": [
        {
          "components": [
            {
              "internalType": "uint256",
              "name": "id",
              "type": "uint256"
            },
            {
              "internalType": "uint256",
              "name": "waktuPengajuan",
              "type": "uint256"
            },
            {
              "internalType": "address",
              "name": "pemohon",
              "type": "address"
            },
            {
              "internalType": "enum PencatatanTypes.JenisPermohonan",
              "name": "jenis",
              "type": "uint8"
            },
            {
              "internalType": "enum PencatatanTypes.Status",
              "name": "status",
              "type": "uint8"
            },
            {
              "internalType": "uint8",
              "name": "idKalurahanAsal",
              "type": "uint8"
            },
            {
              "internalType": "uint8",
              "name": "idKalurahanTujuan",
              "type": "uint8"
            },
            {
              "internalType": "string",
              "name": "cidIPFS",
              "type": "string"
            },
            {
              "internalType": "string",
              "name": "alasanPenolakan",
              "type": "string"
            },
            {
              "internalType": "address",
              "name": "verifikatorKalurahan",
              "type": "address"
            },
            {
              "internalType": "address",
              "name": "verifikatorKalurahanTujuan",
              "type": "address"
            },
            {
              "internalType": "address",
              "name": "verifikatorDukcapil",
              "type": "address"
            },
            {
              "internalType": "uint256",
              "name": "waktuVerifikasiKalurahan",
              "type": "uint256"
            },
            {
              "internalType": "uint256",
              "name": "waktuVerifikasiKalurahanTujuan",
              "type": "uint256"
            },
            {
              "internalType": "uint256",
              "name": "waktuVerifikasiDukcapil",
              "type": "uint256"
            },
            {
              "internalType": "address",
              "name": "konfirmatorKKTujuan",
              "type": "address"
            },
            {
              "internalType": "uint256",
              "name": "waktuKonfirmasiKKTujuan",
              "type": "uint256"
            },
            {
              "internalType": "bool",
              "name": "konfirmasiKKTujuan",
              "type": "bool"
            },
            {
              "internalType": "enum PencatatanTypes.JenisPindah",
              "name": "jenisPindah",
              "type": "uint8"
            }
          ],
          "internalType": "struct PencatatanTypes.Permohonan",
          "name": "",
          "type": "tuple"
        }
      ],
      "stateMutability": "view",
      "type": "function"
    },
    {
      "inputs": [
        {
          "internalType": "enum PencatatanTypes.Status",
          "name": "_status",
          "type": "uint8"
        }
      ],
      "name": "getPermohonanBelumVerifikasiKalurahan",
      "outputs": [
        {
          "internalType": "uint256[]",
          "name": "",
          "type": "uint256[]"
        }
      ],
      "stateMutability": "view",
      "type": "function"
    },
    {
      "inputs": [],
      "name": "getPermohonanByKalurahanAsal",
      "outputs": [
        {
          "internalType": "uint256[]",
          "name": "",
          "type": "uint256[]"
        }
      ],
      "stateMutability": "view",
      "type": "function"
    },
    {
      "inputs": [],
      "name": "getPermohonanByKalurahanTujuan",
      "outputs": [
        {
          "internalType": "uint256[]",
          "name": "",
          "type": "uint256[]"
        }
      ],
      "stateMutability": "view",
      "type": "function"
    },
    {
      "inputs": [
        {
          "internalType": "enum PencatatanTypes.Status",
          "name": "_status",
          "type": "uint8"
        }
      ],
      "name": "getPermohonanForDukcapil",
      "outputs": [
        {
          "internalType": "uint256[]",
          "name": "",
          "type": "uint256[]"
        }
      ],
      "stateMutability": "view",
      "type": "function"
    },
    {
      "inputs": [
        {
          "internalType": "address",
          "name": "_pemohon",
          "type": "address"
        }
      ],
      "name": "getPermohonanIDsByPemohon",
      "outputs": [
        {
          "internalType": "uint256[]",
          "name": "",
          "type": "uint256[]"
        }
      ],
      "stateMutability": "view",
      "type": "function"
    },
    {
      "inputs": [
        {
          "internalType": "string",
          "name": "_nikKepalaKeluarga",
          "type": "string"
        }
      ],
      "name": "getPermohonanMenungguKonfirmasiKK",
      "outputs": [
        {
          "internalType": "uint256[]",
          "name": "",
          "type": "uint256[]"
        }
      ],
      "stateMutability": "view",
      "type": "function"
    },
    {
      "inputs": [],
      "name": "getPermohonanSiapVerifikasiKalurahanAsal",
      "outputs": [
        {
          "internalType": "uint256[]",
          "name": "",
          "type": "uint256[]"
        }
      ],
      "stateMutability": "view",
      "type": "function"
    },
    {
      "inputs": [
        {
          "internalType": "uint256",
          "name": "_id",
          "type": "uint256"
        }
      ],
      "name": "getStatusPermohonan",
      "outputs": [
        {
          "internalType": "string",
          "name": "",
          "type": "string"
        }
      ],
      "stateMutability": "view",
      "type": "function"
    },
    {
      "inputs": [
        {
          "internalType": "address",
          "name": "_akun",
          "type": "address"
        },
        {
          "internalType": "string",
          "name": "_newMappingCID",
          "type": "string"
        }
      ],
      "name": "hapusKalurahan",
      "outputs": [],
      "stateMutability": "nonpayable",
      "type": "function"
    },
    {
      "inputs": [
        {
          "internalType": "address",
          "name": "",
          "type": "address"
        }
      ],
      "name": "idKalurahanByAddress",
      "outputs": [
        {
          "internalType": "uint8",
          "name": "",
          "type": "uint8"
        }
      ],
      "stateMutability": "view",
      "type": "function"
    },
    {
      "inputs": [],
      "name": "jumlahPermohonan",
      "outputs": [
        {
          "internalType": "uint256",
          "name": "",
          "type": "uint256"
        }
      ],
      "stateMutability": "view",
      "type": "function"
    },
    {
      "inputs": [
        {
          "internalType": "address",
          "name": "",
          "type": "address"
        }
      ],
      "name": "kalurahan",
      "outputs": [
        {
          "internalType": "bool",
          "name": "",
          "type": "bool"
        }
      ],
      "stateMutability": "view",
      "type": "function"
    },
    {
      "inputs": [],
      "name": "kalurahanMappingCID",
      "outputs": [
        {
          "internalType": "string",
          "name": "",
          "type": "string"
        }
      ],
      "stateMutability": "view",
      "type": "function"
    },
    {
      "inputs": [
        {
          "internalType": "uint256",
          "name": "_id",
          "type": "uint256"
        },
        {
          "internalType": "bool",
          "name": "_disetujui",
          "type": "bool"
        },
        {
          "internalType": "string",
          "name": "_nikKepalaKeluargaTujuan",
          "type": "string"
        }
      ],
      "name": "konfirmasiPindahGabungKK",
      "outputs": [],
      "stateMutability": "nonpayable",
      "type": "function"
    },
    {
      "inputs": [
        {
          "internalType": "address",
          "name": "",
          "type": "address"
        }
      ],
      "name": "nikByWallet",
      "outputs": [
        {
          "internalType": "string",
          "name": "",
          "type": "string"
        }
      ],
      "stateMutability": "view",
      "type": "function"
    },
    {
      "inputs": [],
      "name": "nikMappingCID",
      "outputs": [
        {
          "internalType": "string",
          "name": "",
          "type": "string"
        }
      ],
      "stateMutability": "view",
      "type": "function"
    },
    {
      "inputs": [
        {
          "internalType": "string",
          "name": "",
          "type": "string"
        },
        {
          "internalType": "uint256",
          "name": "",
          "type": "uint256"
        }
      ],
      "name": "permohonanMenungguKonfirmasiKK",
      "outputs": [
        {
          "internalType": "uint256",
          "name": "",
          "type": "uint256"
        }
      ],
      "stateMutability": "view",
      "type": "function"
    },
    {
      "inputs": [
        {
          "internalType": "string",
          "name": "_nik",
          "type": "string"
        }
      ],
      "name": "registerWarga",
      "outputs": [],
      "stateMutability": "nonpayable",
      "type": "function"
    },
    {
      "inputs": [
        {
          "internalType": "string",
          "name": "_nik",
          "type": "string"
        },
        {
          "internalType": "string",
          "name": "_mappingCID",
          "type": "string"
        }
      ],
      "name": "registerWargaAndUpdateMapping",
      "outputs": [],
      "stateMutability": "nonpayable",
      "type": "function"
    },
    {
      "inputs": [
        {
          "internalType": "enum PencatatanTypes.JenisPermohonan",
          "name": "_jenis",
          "type": "uint8"
        },
        {
          "internalType": "string",
          "name": "_cidIPFS",
          "type": "string"
        },
        {
          "internalType": "uint8",
          "name": "_idKalurahanAsal",
          "type": "uint8"
        },
        {
          "internalType": "uint8",
          "name": "_idKalurahanTujuan",
          "type": "uint8"
        },
        {
          "internalType": "enum PencatatanTypes.JenisPindah",
          "name": "_jenisPindah",
          "type": "uint8"
        },
        {
          "internalType": "string",
          "name": "_nikKepalaKeluargaTujuan",
          "type": "string"
        }
      ],
      "name": "submitPermohonan",
      "outputs": [],
      "stateMutability": "nonpayable",
      "type": "function"
    },
    {
      "inputs": [
        {
          "internalType": "uint8",
          "name": "_id",
          "type": "uint8"
        },
        {
          "internalType": "address",
          "name": "_akun",
          "type": "address"
        },
        {
          "internalType": "string",
          "name": "_newMappingCID",
          "type": "string"
        }
      ],
      "name": "tambahKalurahanById",
      "outputs": [],
      "stateMutability": "nonpayable",
      "type": "function"
    },
    {
      "inputs": [
        {
          "internalType": "uint256",
          "name": "_id",
          "type": "uint256"
        },
        {
          "internalType": "string",
          "name": "_cidDokumen",
          "type": "string"
        }
      ],
      "name": "unggahDokumenResmi",
      "outputs": [],
      "stateMutability": "nonpayable",
      "type": "function"
    },
    {
      "inputs": [
        {
          "internalType": "uint256",
          "name": "_id",
          "type": "uint256"
        },
        {
          "internalType": "bool",
          "name": "_disetujui",
          "type": "bool"
        },
        {
          "internalType": "string",
          "name": "_alasan",
          "type": "string"
        },
        {
          "internalType": "string",
          "name": "_cidDokumen",
          "type": "string"
        }
      ],
      "name": "verifikasiDukcapil",
      "outputs": [],
      "stateMutability": "nonpayable",
      "type": "function"
    },
    {
      "inputs": [
        {
          "internalType": "uint256",
          "name": "_id",
          "type": "uint256"
        },
        {
          "internalType": "bool",
          "name": "_disetujui",
          "type": "bool"
        },
        {
          "internalType": "string",
          "name": "_alasan",
          "type": "string"
        }
      ],
      "name": "verifikasiKalurahan",
      "outputs": [],
      "stateMutability": "nonpayable",
      "type": "function"
    },
    {
      "inputs": [
        {
          "internalType": "uint256",
          "name": "_id",
          "type": "uint256"
        },
        {
          "internalType": "bool",
          "name": "_disetujui",
          "type": "bool"
        },
        {
          "internalType": "string",
          "name": "_alasan",
          "type": "string"
        },
        {
          "internalType": "uint8",
          "name": "_idKalurahanTujuan",
          "type": "uint8"
        }
      ],
      "name": "verifikasiKalurahanAsalPindah",
      "outputs": [],
      "stateMutability": "nonpayable",
      "type": "function"
    },
    {
      "inputs": [
        {
          "internalType": "uint256",
          "name": "_id",
          "type": "uint256"
        },
        {
          "internalType": "bool",
          "name": "_disetujui",
          "type": "bool"
        },
        {
          "internalType": "string",
          "name": "_alasan",
          "type": "string"
        }
      ],
      "name": "verifikasiKalurahanTujuanPindah",
      "outputs": [],
      "stateMutability": "nonpayable",
      "type": "function"
    },
    {
      "inputs": [
        {
          "internalType": "string",
          "name": "",
          "type": "string"
        }
      ],
      "name": "walletByNik",
      "outputs": [
        {
          "internalType": "address",
          "name": "",
          "type": "address"
        }
      ],
      "stateMutability": "view",
      "type": "function"
    }
  ],
  "bytecode": "0x608060405234610231576145ca8038038061001981610236565b928339810190602081830312610231578051906001600160401b038211610231570181601f82011215610231578051906001600160401b0382116102065761006a601f8301601f1916602001610236565b92828452602083830101116102315760005b82811061021c57600083850160200181905280546001600160a01b03191633179055835184906001600160401b03811161020657600754600181811c911680156101fc575b60208210146101e657601f8111610181575b50602091601f821160011461011d57918192600092610112575b50508160011b916000199060031b1c1916176007555b60405161436e908161025c8239f35b0151905082806100ed565b601f198216926007600052806000209160005b85811061016957508360019510610150575b505050811b01600755610103565b015160001960f88460031b161c19169055828080610142565b91926020600181928685015181550194019201610130565b60076000527fa66cc928b5edb82af9bd49922954155ab7b0942694bea4ce44661d9a8736c688601f830160051c810191602084106101dc575b601f0160051c01905b8181106101d057506100d3565b600081556001016101c3565b90915081906101ba565b634e487b7160e01b600052602260045260246000fd5b90607f16906100c1565b634e487b7160e01b600052604160045260246000fd5b8060208092840101518282870101520161007c565b600080fd5b6040519190601f01601f191682016001600160401b038111838210176102065760405256fe60a0604052600436101561001257600080fd5b60003560e01c80630bfa49df14610376578063219d541f1461322f5780632bbe04a6146131a05780632d7c56431461316a5780634635e378146103b05780634bef4923146131205780634cdf813b146130cd5780634ea609a314612e015780634ec6202214612d815780634f5414c714612cf257806350952c1414612c8a5780636434852314612c4b57806364c4f113146129ef57806365c945691461221f5780636c89cf8c14611d2857806370ec4e0614611b0b5780637df4ab6a146117d45780637ec410f81461144e578063825e827a1461126d578063835b1ece146111f657806389b41262146111b95780639d4a52571461103f578063a1468b3d14610dd7578063a197fb2514610d6c578063a439ef0614610d36578063a48bff9214610cfa578063a7014a0c146109f3578063aa020007146109bd578063ab0680c11461097b578063acbb35cf146107f9578063b4750ad314610754578063b48da9b91461071a578063be50586f146106cd578063c76681d614610490578063d3b26d3f146103f5578063d4c0418b146103cc578063e1140b0d146103b0578063ea69c80214610392578063eae3073214610376578063f908a8ff146103365763fea8abac146101df57600080fd5b3461033157602036600319011261033157600435600d81101590816103315733600052600160205260ff60406000205416156103205733600052600560205260ff60406000205416600052600b602052604060002090815461024081613c1c565b93600093845b83811061029457868661025881613c1c565b9160005b828110610275576040518061027186826136b4565b0390f35b8061028260019284613c4e565b5161028d8287613c4e565b520161025c565b61029e8183613930565b90549060031b1c60005260096020528260ff60026040600020015460a81c169061030a57600d81101561030a5785146102da575b600101610246565b946103026001916102eb8885613930565b90549060031b1c6102fc828b613c4e565b52613b23565b9590506102d2565b634e487b7160e01b600052602160045260246000fd5b631902707f60e31b60005260046000fd5b600080fd5b3461033157602036600319011261033157600435600052600e6020526102716103626040600020613878565b6040519182916020835260208301906135c1565b3461033157600036600319011261033157610271610362613728565b34610331576000366003190112610331576020600854604051908152f35b34610331576000366003190112610331576102716103626137e1565b34610331576000366003190112610331576000546040516001600160a01b039091168152602090f35b34610331576020366003190112610331576004356001600160401b038111610331576104276020913690600401613687565b91908260405193849283378101600f81520301902060405190816020825491828152019160005260206000209060005b81811061047a576102718561046e81870382613602565b604051918291826136b4565b8254845260209093019260019283019201610457565b34610331576040366003190112610331576004356024356001600160401b038111610331576104c3903690600401613687565b600054909291906001600160a01b031633036106bc5781600052600960205260ff60026040600020015460a81c16600d811015908161030a57600381149182156106ae575b821561069d575b821561068c575b50501561067b57821561066a5781600052600e60205261053a6040600020546136ee565b6106595781600052600e6020526040600020926001600160401b0381116106435761056f8161056986546136ee565b86613a7b565b600093601f82116001146105d3576105af828060008051602061431983398151915296976000916105c8575b508160011b916000199060031b1c19161790565b90555b6105c3604051928392429184613b56565b0390a2005b90508501358861059b565b80855260208520601f19831695805b87811061062b575083600080516020614319833981519152969710610611575b5050600182811b0190556105b2565b840135600019600385901b60f8161c191690558580610602565b909160206001819285890135815501930191016105e2565b634e487b7160e01b600052604160045260246000fd5b6317ef2a1d60e31b60005260046000fd5b630f4cd64160e41b60005260046000fd5b63291bd15960e11b60005260046000fd5b90915061030a57600b148480610516565b80925061030a57600181149161050f565b506007811491506000610508565b632897e6d360e21b60005260046000fd5b3461033157604036600319011261033157600435600d811015610331576106f6602435916139e6565b80548210156103315760209161070b91613930565b90549060031b1c604051908152f35b34610331576020366003190112610331576001600160a01b0361073b61391a565b1660005260026020526102716103626040600020613878565b34610331576020366003190112610331576004356000818152600960209081526040808320600201548354600e909352922054336001600160a01b039283161492909116906107a2906136ee565b156107e85733149081156107e0575b50156107cf57600052600e6020526102716103626040600020613878565b6370436def60e11b60005260046000fd5b9050826107b1565b63c31a6dc560e01b60005260046000fd5b34610331576020366003190112610331576004353360005260026020526108246040600020546136ee565b1561096a57600081815260096020526040902060028101805491929091336001600160a01b038216036109595760a81c60ff16600d8110158061030a5781159081801561094c575b1561093b5761030a571561091e575061088490614066565b805460ff60a81b1916600960a81b1790554260088201556004810180546108b4906108ae906136ee565b82613a50565b604781556000526237b71760e91b600160206000207f5065726d6f686f6e616e206469626174616c6b616e206f6c65682070656d6f688155015554604051904282527fc32fdc85bad287b87324f2b5c9affb2708f355d219541e068064d32eaed8d66560203393a3005b600a1461092c575b50610884565b6109359061402f565b82610926565b634db47d8360e01b60005260046000fd5b50506000600a831461086c565b638c1f61f360e01b60005260046000fd5b630a878caf60e31b60005260046000fd5b34610331576040366003190112610331576109946139ac565b60ff6024359116600052600b602052604060002080548210156103315760209161070b91613930565b3461033157602036600319011261033157600435600052600960205261027161036260ff600d6040600020015460081c166141c2565b34610331576020366003190112610331576000610240604051610a15816135e6565b8281528260208201528260408201528260608201528260808201528260a08201528260c0820152606060e0820152606061010082015282610120820152826101408201528261016082015282610180820152826101a0820152826101c0820152826101e08201528261020082015282610220820152015260043560005260096020526040600020610bb660ff600d60405193610ab0856135e6565b805485526001810154602086015260028101546001600160a01b03811660408701528390610ae760a082901c831660608901613b32565b610af9828260a81c1660808901613b3e565b818160b01c1660a088015260b81c1660c0860152610b1960038201613878565b60e0860152610b2a60048201613878565b61010086015260058101546001600160a01b03908116610120870152600682015481166101408701526007820154811661016087015260088083015461018088015260098301546101a0880152600a8301546101c0880152600b8301549091166101e0870152600c8201546102008701529101548281161515610220860152901c166102408301613b4a565b6040519060208252805160208301526020810151604083015260018060a01b036040820151166060830152610bf3606082015160808401906139cc565b608081015190600d82101561030a57829160a083015260ff60a08201511660c083015260ff60c08201511660e0830152610271610240610c60610c4860e08501516102606101008801526102808701906135c1565b610100850151868203601f19016101208801526135c1565b9260018060a01b036101208201511661014086015260018060a01b036101408201511661016086015260018060a01b03610160820151166101808601526101808101516101a08601526101a08101516101c08601526101c08101516101e086015260018060a01b036101e08201511661020086015261020081015161022086015261022081015115158286015201516102608401906139d9565b346103315760203660031901126103315760ff610d156139ac565b166000526004602052602060018060a01b0360406000205416604051908152f35b3461033157602036600319011261033157600435600052600960205261027161036260ff60026040600020015460a01c1661409d565b34610331576040366003190112610331576004356001600160401b03811161033157610d9c903690600401613669565b610db8602060243592816040519382858094519384920161359e565b8101600f81520301902080548210156103315760209161070b91613930565b3461033157610de53661396d565b92909133600052600160205260ff604060002054161561032057336000526005602052610e3260ff6040600020541683600052600960205260ff60026040600020015460b01c1614613bad565b8160005260096020526040600020936002850160ff815460a81c16600d81101561030a5761102e57610e6384614066565b8215610efe57805460ff60a81b1916600160a81b1790556001600052600d602052929391926000805160206142d983398151915292610ec2857ffd54ff1ed53f34a900b24c5ba64f85761163b5d82d98a47b9bd80e45466993c5613ad6565b6005810160018060a01b0333166001600160601b0360a01b825416179055600842910155610ef96040519283923397429285613afe565b0390a3005b805460ff60a81b1916600160a91b17905560048501946001600160401b03821161064357610f3682610f3088546136ee565b88613a7b565b600095601f8311600114610fbd57610f7683806000805160206142d9833981519152979899600091610fb257508160011b916000199060031b1c19161790565b90555b6002600052600d602052610fad857f10a81eed9d63d16face5e76357905348e6253d3394086026bb2bf2145d7cc249613ad6565b610ec2565b90508901358a61059b565b80875260208720601f19841697805b8981106110165750846000805160206142d983398151915297989910610ffc575b5050600183811b019055610f79565b880135600019600386901b60f8161c191690558780610fed565b9091602060018192858c013581550193019101610fcc565b63d2bc121d60e01b60005260046000fd5b346103315760003660031901126103315733600052600160205260ff60406000205416156103205733600052600560205260ff60406000205416600052600b602052604060002080549061109282613c1c565b91600091825b8281106110e3575050506110ab81613c1c565b9160005b8281106110c4576040518061027186826136b4565b806110d160019284613c4e565b516110dc8287613c4e565b52016110af565b6110ed8183613930565b90549060031b1c60005260096020526040600020600281015460ff8160a01c16600581101561030a576004149182611199575b508161117e575b8115611166575b5061113c575b600101611098565b9261115e60019161114d8685613930565b90549060031b1c6102fc8289613c4e565b939050611134565b60ff915060a81c16600d81101561030a57158661112e565b905060ff8160a81c16600d81101561030a57600b1490611127565b60ff919250600d015460081c16600381101561030a576002149087611120565b34610331576020366003190112610331576001600160a01b036111da61391a565b166000526005602052602060ff60406000205416604051908152f35b34610331576020366003190112610331576001600160a01b0361121761391a565b16600052600a602052604060002060405190816020825491828152019160005260206000209060005b818110611257576102718561046e81870382613602565b8254845260209093019260019283019201611240565b34610331576020366003190112610331576004356001600160401b0381116103315761129d903690600401613669565b60405181519060208301916112b381838561359e565b60039082019081528190036020019020546001600160a01b031661143d573360005260026020526112e86040600020546136ee565b61142c5760206113039160405180938192865192839161359e565b60039082019081520301902080546001600160a01b03191633908117909155600090815260026020526040902081516001600160401b038111610643576113548161134e84546136ee565b84613a7b565b6020601f82116001146113c8579080611382926000916113bd57508160011b916000199060031b1c19161790565b90555b7ff681a6e5cf03ecba385f32439e3a53ca704ad8f2a8d20230aa6a3971dc2ae21860405160208152806105c3339460208301906135c1565b90508401518561059b565b601f1982169083600052806000209160005b818110611414575090836001949392106113fb575b5050811b019055611385565b85015160001960f88460031b161c1916905584806113ef565b9192602060018192868a0151815501940192016113da565b63e278de3960e01b60005260046000fd5b631677261960e21b60005260046000fd5b346103315760803660031901126103315760043561146a61395e565b906044356001600160401b0381116103315761148a903690600401613687565b90926114946139bc565b9133600052600160205260ff6040600020541615610320573360005260056020526114df60ff6040600020541685600052600960205260ff60026040600020015460b01c1614613bad565b836000526009602052604060002060028101805460ff8160a01c16600581101561030a576004036117c35760ff600d84015460081c16600381101561030a576002036117a2575060ff815460a81c16600d81101561030a57600b036117235761154786613fcf565b83156116065760ff851680156115f5576000908152600460205260409020546001600160a01b0316156115e457805460ff60b81b191660b89590951b60ff60b81b169490941784556000805160206142d983398151915293805460ff60a81b1916600560a81b1790556005600052600d602052610ec2857fa5049387d9cb649c59f4bda666105ba636c2a103d8e2b232ba4d125737cd2149613ad6565b63fac301e360e01b60005260046000fd5b636c1ba33960e01b60005260046000fd5b805460ff60a81b1916600360a91b17905560048101959493506001600160401b0382116106435761163b82610f3088546136ee565b600095601f83116001146116b25761167b83806000805160206142d9833981519152979899600091610fb257508160011b916000199060031b1c19161790565b90555b6006600052600d602052610fad857fa48544818c2c710afa9849c61ec9c60e8acdb3eaa2885f33b37e118cc8fd04ac613ad6565b80875260208720601f19841697805b89811061170b5750846000805160206142d9833981519152979899106116f1575b5050600183811b01905561167e565b880135600019600386901b60f8161c1916905587806116e2565b9091602060018192858c0135815501930191016116c1565b60405162461bcd60e51b815260206004820152604b60248201527f5065726d6f686f6e616e2070696e64616820676162756e67204b4b206861727560448201527f732073756461682064696b6f6e6669726d617369206b6570616c61206b656c7560648201526a30b933b0903a3ab53ab0b760a91b608482015260a490fd5b60a81c60ff16600d81101561030a5761102e576117be86614066565b611547565b63243d08b360e21b60005260046000fd5b34610331576117e23661396d565b9192903360005260026020526117fc6040600020546136ee565b1561096a57816000526009602052604060002092600284019182549460ff8660a01c16600581101561030a576004036117c357600d81019560ff875460081c16600381101561030a57600203611abc5760a81c60ff16600d81101561030a57600a03611a6b5761186b8561402f565b60405183838237602081858101600f81520301902060005b81548981831015611a3857508761189a8385613930565b90549060031b1c146118af5750600101611883565b909596976000198201918211611a22577fa25323c522b668730629025f46ec29f731ed5e7a94e4c4a2c15ffa8d94b128d2976119298461192460409a61190b8f976118fd9061196b9a613930565b90549060031b1c9184613930565b90919082549060031b91821b91600019901b1916179055565b613b6e565b82156119a957805460ff60a81b1916600b60a81b179055600b6000908152600d60205287902061195a908a90613ad6565b9060ff801983541691151516179055565b600b810180546001600160a01b0319163317905542600c909101558251918291819083378101600081520390209381519015158152426020820152a3005b805460ff60a81b1916600360aa1b1790556004840180546119cd906108ae906136ee565b60478155600052623ab0b760e91b600160206000207f4469746f6c616b206f6c6568206b6570616c61206b656c75617267612074756a81550155611a1d89886000600c8152600d60205220613ad6565b61195a565b634e487b7160e01b600052601160045260246000fd5b91505061196b91507fa25323c522b668730629025f46ec29f731ed5e7a94e4c4a2c15ffa8d94b128d29697604096611929565b60405162461bcd60e51b815260206004820152602360248201527f53746174757320746964616b2076616c696420756e74756b206b6f6e6669726d60448201526261736960e81b6064820152608490fd5b60405162461bcd60e51b815260206004820152602160248201527f42756b616e207065726d6f686f6e616e2070696e64616820676162756e67204b6044820152604b60f81b6064820152608490fd5b3461033157604036600319011261033157611b2461391a565b6024356001600160401b03811161033157611b43903690600401613687565b6000549092906001600160a01b031633036106bc576001600160a01b03166000818152600160209081526040808320805460ff19169055600590915290205460ff16929083611cef575b6001600160401b03821161064357611baf82611baa6006546136ee565b613a16565b600093601f8311600114611c6057611bed83806000805160206142b983398151915297600091611c5557508160011b916000199060031b1c19161790565b6006555b7fc008778747a33ed2186935953768eacc55b807b5e3af2943d345b200d5fecd4960405160408152600060408201526060602082015280611c36606082018789613ab5565b0390a3611c50604051928392602084526020840191613ab5565b0390a1005b90508601358861059b565b60068552601f198316947ff652222313e28459528d920b65115c16c04f3efc82aaedc97be59f3f377c0d3f90805b878110611cd75750846000805160206142b98339815191529710611cbd575b5050600183811b01600655611bf1565b850135600019600386901b60f8161c191690558580611cad565b9091602060018192858a013581550193019101611c8e565b83600052600460205260406000206001600160601b0360a01b8154169055806000526005602052604060002060ff198154169055611b8d565b3461033157608036600319011261033157600435611d4461395e565b6044356001600160401b03811161033157611d63903690600401613687565b926064356001600160401b03811161033157611d83903690600401613687565b60005491959094916001600160a01b031633036106bc5782600052600960205260406000206002810195865460ff8160a01c16600581101561030a57600403612196575060ff875460a81c16600d8110158061030a576007821490818015612189575b156121785761030a57156121575750611dff60076139e6565b9660005b8854808210156121485787611e18838c613930565b90549060031b1c14611e2d5750600101611e03565b600099919293949596979899198101908111611a2257611e579261190b6118fd6119249385613930565b841561202757805460ff60a81b1916600360a81b1790556003600052600d602052611ea2857f26b4a10d0f0b04925c23bd4480ee147c916e5e87a7d68206a533dad160ac81e2613ad6565b80611ef4575b506000805160206142f9833981519152939495505b6007810160018060a01b0333166001600160601b0360a01b825416179055600a42910155610ef96040519283923397429285613afe565b84600052600e60205260406000206001600160401b03821161064357611f2482611f1e83546136ee565b83613a7b565b6000601f8311600114611fa157978260008051602061431983398151915292611f77828a9b9c966000805160206142f98339815191529b97600091611f9657508160011b916000199060031b1c19161790565b90555b611f8b604051928392429184613b56565b0390a2859493611ea8565b90508501358e61059b565b8181526020812090601f198416815b81811061200f57509288999a9285926000805160206142f98339815191529a966000805160206143198339815191529610611ff5575b5050600182811b019055611f7a565b840135600019600385901b60f8161c191690558b80611fe6565b9192602060018192868f013581550194019201611fb0565b805460ff60a81b1916600160aa1b179055506004810195506001600160401b0382116106435761205b82610f3088546136ee565b600095601f83116001146120d75761209b83806000805160206142f9833981519152979899600091610fb257508160011b916000199060031b1c19161790565b90555b6004600052600d6020526120d2857fafafe8948a4ed9d478b1e9a5780b119b5edd00ea7d07bc35bef7c814824eb94b613ad6565b611ebd565b80875260208720601f19841697805b8981106121305750846000805160206142f983398151915297989910612116575b5050600183811b01905561209e565b880135600019600386901b60f8161c191690558780612107565b9091602060018192858c0135815501930191016120e6565b50509091929394959650611e57565b600b90600098929394959697985003611e575761217386613fcf565b611e57565b63656d7eb560e01b60005260046000fd5b50506000600b8314611de6565b60a81c60ff16600d81101561030a5760010361220e576121b660016139e6565b9660005b88548082101561214857876121cf838c613930565b90549060031b1c146121e457506001016121ba565b600099919293949596979899198101908111611a22576121739261190b6118fd6119249385613930565b633c78815f60e01b60005260046000fd5b346103315760c03660031901126103315760056004351015610331576024356001600160401b0381116103315761225a903690600401613687565b6044359160ff83168303610331576122706139bc565b9060036084351015806103315760a4356001600160401b0381116103315761229c903690600401613687565b90913360005260026020526122b56040600020546136ee565b1561096a57851561066a5760ff87166000908152600460205260409020546001600160a01b0316156115e45760009460048035146129ae575b600854956122fb87613b23565b6008555060048035148061299e575b1561299757600a5b60009860048035036129915782995b50600480350361298a576084355b6040519a61233c8c6135e6565b898c524260208d01523360408d015261235a60043560608e01613b32565b6123678460808e01613b3e565b60ff83811660a08e01521660c08c0152612382368b8a613623565b60e08c0152602060808190526040519061239c9082613602565b600081526101008c01526101208b01600090526101408b01600090526101608b01600090526101808b01600090526101a08b01600090526101c08b01600090526101e08b01600090526102008b01600090526102208b01600090526102408b019061240691613b4a565b6000888152608051600990526040908190208b51815560208c01516001820155908b01516002820180546001600160a01b0319166001600160a01b039290921691909117905560608b01519a9060058c101561030a5760028101805460ff60a01b191660a09d909d1b60ff60a01b169c909c17909b55608081015160009b90600d8110156129765760028201805460a085015160c086015162ffffff60a81b1990921660a89490941b60ff60a81b169390931760b09390931b60ff60b01b169290921760b89290921b60ff60b81b1691909117905560e082015180516001600160401b0381116128e85761250a8161250160038601546136ee565b60038601613a7b565b6080518e6001601f841114612907579061253993836128fc575b50508160011b916000199060031b1c19161790565b60038201555b6101008201518051906001600160401b0382116128e8578d906125728361256960048701546136ee565b60048701613a7b565b60805191601f841160011461287357928061024095936125a993600d96926128685750508160011b916000199060031b1c19161790565b60048201555b6101208401516005820180546001600160a01b039283166001600160a01b03199182161790915561014086015160068401805491841691831691909117905561016086015160078401805491841691831691909117905561018086015160088401556101a086015160098401556101c0860151600a8401556101e0860151600b84018054919093169116179055610200840151600c8201556102208401519101805460ff191691151560ff16919091178155910151600381101561285457926126b88a60408e60ff83976126bd976126c29a61ff0082549160081b169061ff001916179055338352600a608051526126a985858520613ad6565b168152600b6080515220613ad6565b6139e6565b613ad6565b6004803514612836575b5060048035149081612810575b50612776575b50506004803503612741576127317fa0b9d3ab20139b1dab107ee5e773449c3bc1cba0be29c7281e39e5623d699b9d916040519461271f866084356139d9565b60606080518701526060860191613ab5565b924260408201528033940390a380f35b6127317f76091af5eb885b36d291fafffdf0282c662dd305c7a5efb5f216ce4133972fca916040519461271f866004356139cc565b80156127a45761279d918185926040519283378101600f8152816080519103019020613ad6565b84806126df565b60405162461bcd60e51b81526080516004820152603d60248201527f4e494b206b6570616c61206b656c75617267612074756a75616e2077616a696260448201527f20646969736920756e74756b2070696e64616820676162756e67204b4b0000006064820152608490fd5b905061282257600260843514876126d9565b634e487b7160e01b86526021600452602486fd5b60ff168752600c6080515261284e8560408920613ad6565b876126cc565b634e487b7160e01b8c52602160045260248cfd5b015190503880612524565b91906004850183526080518320925b601f19851681106128cf5750926102409492600192600d9583601f198116106128b6575b505050811b0160048201556125af565b015160001960f88460031b161c191690553880806128a6565b8183015184556080516001909401939283019201612882565b634e487b7160e01b8e52604160045260248efd5b015190508f80612524565b90600385018252608051822091935b601f198416851061295a576001945083601f19811610612941575b505050811b01600382015561253f565b015160001960f88460031b161c191690558e8080612931565b8181015183556080519485019460019093019290910190612916565b634e487b7160e01b8d52602160045260248dfd5b600061232f565b89612321565b6000612312565b506000915060843560021461230a565b60ff811680156129e0578652600460205260408620546001600160a01b03166122ee5763fac301e360e01b8652600486fd5b636c1ba33960e01b8752600487fd5b3461033157606036600319011261033157612a086139ac565b6024356001600160a01b0381169190829003610331576044356001600160401b03811161033157612a3d903690600401613687565b600054919290916001600160a01b031633036106bc578315612c3a5760ff166000818152600460205260409020549093906001600160a01b0316612c295780600052600560205260ff604060002054161580612c20575b15612c0f578360005260046020526040600020816001600160601b0360a01b82541617905580600052600560205260406000208460ff198254161790558060005260016020526040600020600160ff198254161790556001600160401b03821161064357612b0782611baa6006546136ee565b600093601f8311600114612b8057612b4583806000805160206142b983398151915297600091611c5557508160011b916000199060031b1c19161790565b6006555b7f8418aea3839e9ae83ed3f1125ef966aa3033c97a2c25a85e07bfe51e7e4fa41a6040516020815280611c36602082018789613ab5565b60068552601f198316947ff652222313e28459528d920b65115c16c04f3efc82aaedc97be59f3f377c0d3f90805b878110612bf75750846000805160206142b98339815191529710612bdd575b5050600183811b01600655612b49565b850135600019600386901b60f8161c191690558580612bcd565b9091602060018192858a013581550193019101612bae565b6338077c8760e21b60005260046000fd5b50831515612a94565b6348745fab60e01b60005260046000fd5b639fabe1c160e01b60005260046000fd5b34610331576020366003190112610331576001600160a01b03612c6c61391a565b166000526001602052602060ff604060002054166040519015158152f35b34610331576020366003190112610331576004356001600160401b03811161033157612cbc6020913690600401613669565b81612cd0604051928381519384920161359e565b600390820190815281900382019020546040516001600160a01b039091168152f35b346103315760003660031901126103315733600052600160205260ff60406000205416156103205733600052600560205260ff60406000205416600052600b602052604060002060405190816020825491828152019160005260206000209060005b818110612d6b576102718561046e81870382613602565b8254845260209093019260019283019201612d54565b3461033157602036600319011261033157600435600d811015610331576000546001600160a01b031633036106bc57612db9906139e6565b60405190816020825491828152019160005260206000209060005b818110612deb576102718561046e81870382613602565b8254845260209093019260019283019201612dd4565b3461033157612e0f3661396d565b919233600052600160205260ff6040600020541615610320578060005260096020526040600020936002850193845460ff8160a01c16600581101561030a576004036117c35760ff8160a81c16600d81101561030a576005036130bc5733600052600560205260ff80604060002054169160b81c16036130ab57612e9360056139e6565b9460005b86548082101561309e5785612eac838a613930565b90549060031b1c14612ec15750600101612e97565b60009791929394959697198101908111611a2257612ee99261190b6118fd6119249385613930565b8215612f7f57805460ff60a81b1916600760a81b1790556007600052600d602052929391926000805160206142d983398151915292612f48857fb91432bedff11256dbe14161d3606a2657bc9dacf8742f6b817d871dd53fb976613ad6565b6006810160018060a01b0333166001600160601b0360a01b825416179055600942910155610ef96040519283923397429285613afe565b805460ff60a81b1916600160ab1b17905560048501946001600160401b03821161064357612fb182610f3088546136ee565b600095601f831160011461302d57612ff183806000805160206142d9833981519152979899600091610fb257508160011b916000199060031b1c19161790565b90555b6008600052600d602052613028857f0b705463cf5f7356780ee6e96132d37412c1b5816a4d207b8dcd42c349767457613ad6565b612f48565b80875260208720601f19841697805b8981106130865750846000805160206142d98339815191529798991061306c575b5050600183811b019055612ff4565b880135600019600386901b60f8161c19169055878061305d565b9091602060018192858c01358155019301910161303c565b5050909192939450612ee9565b635a6db8ab60e01b60005260046000fd5b63384bca1f60e11b60005260046000fd5b34610331576020366003190112610331576004356001600160401b03811161033157602061310081923690600401613687565b91908260405193849283378101600f815203019020541515604051908152f35b346103315760403660031901126103315761313961391a565b6001600160a01b03166000908152600a60205260409020805460243591908210156103315760209161070b91613930565b3461033157602036600319011261033157600435600052600960205261027161036260ff60026040600020015460a81c16613c62565b346103315760003660031901126103315733600052600160205260ff60406000205416156103205733600052600560205260ff60406000205416600052600c602052604060002060405190816020825491828152019160005260206000209060005b818110613219576102718561046e81870382613602565b8254845260209093019260019283019201613202565b34610331576040366003190112610331576004356001600160401b0381116103315761325f903690600401613669565b6024356001600160401b0381116103315761327e903690600401613687565b604051835190602085019161329481838561359e565b60039082019081528190036020019020546001600160a01b031661143d573360005260026020526132c96040600020546136ee565b61142c5760206132e49160405180938192885192839161359e565b60039082019081520301902080546001600160a01b03191633908117909155600090815260026020526040902083516001600160401b0381116106435761332f8161134e84546136ee565b6020601f821160011461353a57908061335d9260009161352f57508160011b916000199060031b1c19161790565b90555b6001600160401b038111610643576133796007546136ee565b601f81116134d5575b50600092601f8211600114613434576133d382807f262db39bd0808699e53948bb8d4427b6399e3aa80e4e5d22462b61781dab6cd79660009161342957508160011b916000199060031b1c19161790565b6007555b7ff681a6e5cf03ecba385f32439e3a53ca704ad8f2a8d20230aa6a3971dc2ae218604051602081528061340f339460208301906135c1565b0390a2611c50604051928392602084526020840191613ab5565b90508501358761059b565b60078452601f198216937fa66cc928b5edb82af9bd49922954155ab7b0942694bea4ce44661d9a8736c68890805b8681106134bd5750837f262db39bd0808699e53948bb8d4427b6399e3aa80e4e5d22462b61781dab6cd796106134a3575b5050600182811b016007556133d7565b840135600019600385901b60f8161c191690558480613493565b90916020600181928589013581550193019101613462565b600760005261351f907fa66cc928b5edb82af9bd49922954155ab7b0942694bea4ce44661d9a8736c688601f840160051c81019160208510613525575b601f0160051c01906139ff565b83613382565b9091508190613512565b90508601518761059b565b601f1982169083600052806000209160005b8181106135865750908360019493921061356d575b5050811b019055613360565b87015160001960f88460031b161c191690558680613561565b9192602060018192868c01518155019401920161354c565b60005b8381106135b15750506000910152565b81810151838201526020016135a1565b906020916135da8151809281855285808601910161359e565b601f01601f1916010190565b61026081019081106001600160401b0382111761064357604052565b90601f801991011681019081106001600160401b0382111761064357604052565b9291926001600160401b038211610643576040519161364c601f8201601f191660200184613602565b829481845281830111610331578281602093846000960137010152565b9080601f830112156103315781602061368493359101613623565b90565b9181601f84011215610331578235916001600160401b038311610331576020838186019501011161033157565b602060408183019282815284518094520192019060005b8181106136d85750505090565b82518452602093840193909201916001016136cb565b90600182811c9216801561371e575b602083101461370857565b634e487b7160e01b600052602260045260246000fd5b91607f16916136fd565b604051906000826006549161373c836136ee565b80835292600181169081156137c25750600114613762575b61376092500383613602565b565b506006600090815290917ff652222313e28459528d920b65115c16c04f3efc82aaedc97be59f3f377c0d3f5b8183106137a657505090602061376092820101613754565b602091935080600191548385890101520191019091849261378e565b6020925061376094915060ff191682840152151560051b820101613754565b60405190600082600754916137f5836136ee565b80835292600181169081156137c257506001146138185761376092500383613602565b506007600090815290917fa66cc928b5edb82af9bd49922954155ab7b0942694bea4ce44661d9a8736c6885b81831061385c57505090602061376092820101613754565b6020919350806001915483858901015201910190918492613844565b906040519182600082549261388c846136ee565b80845293600181169081156138f857506001146138b1575b5061376092500383613602565b90506000929192526020600020906000915b8183106138dc57505090602061376092820101386138a4565b60209193508060019154838589010152019101909184926138c3565b90506020925061376094915060ff191682840152151560051b820101386138a4565b600435906001600160a01b038216820361033157565b80548210156139485760005260206000200190600090565b634e487b7160e01b600052603260045260246000fd5b60243590811515820361033157565b6060600319820112610331576004359160243580151581036103315791604435906001600160401b038211610331576139a891600401613687565b9091565b6004359060ff8216820361033157565b6064359060ff8216820361033157565b90600582101561030a5752565b90600382101561030a5752565b600d81101561030a57600052600d602052604060002090565b818110613a0a575050565b600081556001016139ff565b90601f8211613a23575050565b6137609160066000526020600020906020601f840160051c8301931061352557601f0160051c01906139ff565b90601f8111613a5d575050565b613760916000526002601f6020600020920160051c820191016139ff565b9190601f8111613a8a57505050565b613760926000526020600020906020601f840160051c8301931061352557601f0160051c01906139ff565b908060209392818452848401376000828201840152601f01601f1916010190565b9081549168010000000000000000831015610643578261190b91600161376095018155613930565b94939291604092613b1e9215158752606060208801526060870191613ab5565b930152565b6000198114611a225760010190565b600582101561030a5752565b600d82101561030a5752565b600382101561030a5752565b939291602091613b1e91604087526040870191613ab5565b80548015613b97576000190190613b858282613930565b8154906000199060031b1b1916905555565b634e487b7160e01b600052603160045260246000fd5b15613bb457565b60405162461bcd60e51b8152602060048201526024808201527f48616e7961206b616c75726168616e206173616c2079616e672062657277656e604482015263616e672160e01b6064820152608490fd5b6001600160401b0381116106435760051b60200190565b90613c2682613c05565b613c336040519182613602565b8281528092613c44601f1991613c05565b0190602036910137565b80518210156139485760209160051b010190565b600d81101561030a578015613fa857600060018214613f74575060028114613f4457600060038214613f11575060048114613ee257600060058214613ea4575060068114613e6f57600060078214613e31575060088114613df557600060098214613db75750600a8114613d7b57600090600b8114613d4557600c915014613d1657604051613cf2604082613602565b601481527314dd185d1d5cc8151a59185ac8111a5ad95b985b60621b602082015290565b604051613d24604082613602565b60118152702234ba37b630b59025a5902a3ab53ab0b760791b602082015290565b5050604051613d55604082613602565b60168152752234b5b7b73334b936b0b9b49025a5902a3ab53ab0b760511b602082015290565b50604051613d8a604082613602565b601d81527f4d656e756e676775204b6f6e6669726d617369204b4b2054756a75616e000000602082015290565b50506040805190613dc89082613602565b601781527f4469626174616c6b616e206f6c65682050656d6f686f6e000000000000000000602082015290565b50604051613e04604082613602565b601881527f4469746f6c616b204b616c75726168616e2054756a75616e0000000000000000602082015290565b50506040805190613e429082613602565b601a81527f4469736574756a7569204b616c75726168616e2054756a75616e000000000000602082015290565b50604051613e7e604082613602565b6016815275111a5d1bdb185ac812d85b1d5c985a185b88105cd85b60521b602082015290565b50506040805190613eb59082613602565b601881527f4469736574756a7569204b616c75726168616e204173616c0000000000000000602082015290565b50604051613ef1604082613602565b601081526f111a5d1bdb185ac8111d5ad8d85c1a5b60821b602082015290565b50506040805190613f229082613602565b6012815271111a5cd95d1d5a9d5a48111d5ad8d85c1a5b60721b602082015290565b50604051613f53604082613602565b60118152702234ba37b630b59025b0b63ab930b430b760791b602082015290565b50506040805190613f859082613602565b60138152722234b9b2ba3ab53ab49025b0b63ab930b430b760691b602082015290565b50604051613fb7604082613602565b60088152672234b0b53ab5b0b760c11b602082015290565b613fd9600b6139e6565b60005b8154808210156140295783613ff18385613930565b90549060031b1c146140065750600101613fdc565b9092506000198101908111611a22576137609261190b6118fd6119249385613930565b50505050565b614039600a6139e6565b60005b81548082101561402957836140518385613930565b90549060031b1c14614006575060010161403c565b61407060006139e6565b60005b81548082101561402957836140888385613930565b90549060031b1c146140065750600101614073565b600581101561030a57801561419a5760006001821461417157506002811461414d5760009060038114614128576004915014614104576040516140e1604082613602565b601381527212995b9a5cc8151a59185ac8111a5ad95b985b606a1b602082015290565b604051614112604082613602565b60068152650a0d2dcc8c2d60d31b602082015290565b5050604051614138604082613602565b6005815264436572616960d81b602082015290565b5060405161415c604082613602565b600581526425b0bbb4b760d91b602082015290565b505060408051906141829082613602565b600881526725b2b6b0ba34b0b760c11b602082015290565b506040516141a9604082613602565b600981526825b2b630b434b930b760b91b602082015290565b600381101561030a57801561427c576000906001811461424e576002915014614220576040516141f3604082613602565b601a81527f4a656e69732050696e64616820546964616b2044696b656e616c000000000000602082015290565b60405161422e604082613602565b601081526f50696e64616820476162756e67204b4b60801b602082015290565b505060405161425e604082613602565b600e81526d50696e646168204d616e6469726960901b602082015290565b5060405161428b604082613602565b601781527f50696e6461682053656c75727568204b656c756172676100000000000000000060208201529056fe05b7d468eb456c6bffbac7ac5f22f68ca5ce358ae4551017aeb9e69bf8fa11eeb464c40b6330ada9cbaedc9b928b83d905cd3051349abb7332ae44607384da596b79a244eb3993d9a079f4708e9832062b305d6080c8372aac9c82d882a9557b75c675465e0858e943fd2e773390edaac64e2ee57918f3f49a20e198c1a54425a2646970667358221220f0a8a20f2ed9e57df5531666e93198af60cb8d7862073bf33f37f6a736dd405664736f6c634300081c0033",
  "linkReferences": {},
  "deployedLinkReferences": {}
}