{
  "_format": "hh-sol-artifact-1",
  "contractName": "PencatatanSipil",
  "sourceName": "contracts/PencatatanSipil.sol",
  "abi": [
    {
      "inputs": [],
      "name": "AddressSudahDipakai",
      "type": "error"
    },
    {
      "inputs": [],
      "name": "AddressZero",
      "type": "error"
    },
    {
      "inputs": [],
      "name": "AksesDitolak",
      "type": "error"
    },
    {
      "inputs": [],
      "name": "BelumAdaDokumenResmi",
      "type": "error"
    },
    {
      "inputs": [],
      "name": "BelumDisetujuiDukcapil",
      "type": "error"
    },
    {
      "inputs": [],
      "name": "BelumDiverifikasiKalurahanAsal",
      "type": "error"
    },
    {
      "inputs": [],
      "name": "BukanPemilikPermohonan",
      "type": "error"
    },
    {
      "inputs": [],
      "name": "BukanPermohonanPindah",
      "type": "error"
    },
    {
      "inputs": [],
      "name": "CidKosong",
      "type": "error"
    },
    {
      "inputs": [],
      "name": "HanyaKalurahanTujuan",
      "type": "error"
    },
    {
      "inputs": [],
      "name": "IdKalurahanTujuanTidakDikenal",
      "type": "error"
    },
    {
      "inputs": [],
      "name": "IdSudahDipakai",
      "type": "error"
    },
    {
      "inputs": [],
      "name": "NikSudahDiklaim",
      "type": "error"
    },
    {
      "inputs": [],
      "name": "OnlyDukcapil",
      "type": "error"
    },
    {
      "inputs": [],
      "name": "OnlyKalurahan",
      "type": "error"
    },
    {
      "inputs": [],
      "name": "OnlyWargaTerdaftar",
      "type": "error"
    },
    {
      "inputs": [],
      "name": "PermohonanBelumDisetujuiKalurahan",
      "type": "error"
    },
    {
      "inputs": [],
      "name": "PermohonanBukanDiajukan",
      "type": "error"
    },
    {
      "inputs": [],
      "name": "PermohonanPindahBelumDisetujuiKalurahanTujuan",
      "type": "error"
    },
    {
      "inputs": [],
      "name": "TidakDapatDibatalkan",
      "type": "error"
    },
    {
      "inputs": [],
      "name": "TujuanTidakValid",
      "type": "error"
    },
    {
      "inputs": [],
      "name": "WalletSudahDigunakan",
      "type": "error"
    },
    {
      "anonymous": false,
      "inputs": [
        {
          "indexed": true,
          "internalType": "uint256",
          "name": "idPermohonan",
          "type": "uint256"
        },
        {
          "indexed": false,
          "internalType": "string",
          "name": "cidDokumen",
          "type": "string"
        },
        {
          "indexed": false,
          "internalType": "uint256",
          "name": "waktu",
          "type": "uint256"
        }
      ],
      "name": "DokumenResmiDiunggah",
      "type": "event"
    },
    {
      "anonymous": false,
      "inputs": [
        {
          "indexed": false,
          "internalType": "string",
          "name": "newCID",
          "type": "string"
        }
      ],
      "name": "KalurahanMappingCIDUpdated",
      "type": "event"
    },
    {
      "anonymous": false,
      "inputs": [
        {
          "indexed": true,
          "internalType": "uint8",
          "name": "id",
          "type": "uint8"
        },
        {
          "indexed": true,
          "internalType": "address",
          "name": "akun",
          "type": "address"
        },
        {
          "indexed": false,
          "internalType": "string",
          "name": "nama",
          "type": "string"
        }
      ],
      "name": "KalurahanRemoved",
      "type": "event"
    },
    {
      "anonymous": false,
      "inputs": [
        {
          "indexed": true,
          "internalType": "uint256",
          "name": "idPermohonan",
          "type": "uint256"
        },
        {
          "indexed": true,
          "internalType": "string",
          "name": "nikKepalaKeluargaTujuan",
          "type": "string"
        },
        {
          "indexed": false,
          "internalType": "bool",
          "name": "disetujui",
          "type": "bool"
        },
        {
          "indexed": false,
          "internalType": "uint256",
          "name": "waktu",
          "type": "uint256"
        }
      ],
      "name": "KonfirmasiKKTujuan",
      "type": "event"
    },
    {
      "anonymous": false,
      "inputs": [
        {
          "indexed": true,
          "internalType": "uint256",
          "name": "id",
          "type": "uint256"
        },
        {
          "indexed": true,
          "internalType": "address",
          "name": "pemohon",
          "type": "address"
        },
        {
          "indexed": false,
          "internalType": "enum PencatatanTypes.JenisPermohonan",
          "name": "jenis",
          "type": "uint8"
        },
        {
          "indexed": false,
          "internalType": "string",
          "name": "cidIPFS",
          "type": "string"
        },
        {
          "indexed": false,
          "internalType": "uint256",
          "name": "waktu",
          "type": "uint256"
        }
      ],
      "name": "PermohonanDiajukan",
      "type": "event"
    },
    {
      "anonymous": false,
      "inputs": [
        {
          "indexed": true,
          "internalType": "uint256",
          "name": "id",
          "type": "uint256"
        },
        {
          "indexed": true,
          "internalType": "address",
          "name": "pemohon",
          "type": "address"
        },
        {
          "indexed": false,
          "internalType": "uint256",
          "name": "waktu",
          "type": "uint256"
        }
      ],
      "name": "PermohonanDibatalkan",
      "type": "event"
    },
    {
      "anonymous": false,
      "inputs": [
        {
          "indexed": true,
          "internalType": "uint256",
          "name": "id",
          "type": "uint256"
        },
        {
          "indexed": true,
          "internalType": "address",
          "name": "pemohon",
          "type": "address"
        },
        {
          "indexed": false,
          "internalType": "enum PencatatanTypes.JenisPindah",
          "name": "jenisPindah",
          "type": "uint8"
        },
        {
          "indexed": false,
          "internalType": "string",
          "name": "cidIPFS",
          "type": "string"
        },
        {
          "indexed": false,
          "internalType": "uint256",
          "name": "waktu",
          "type": "uint256"
        }
      ],
      "name": "PermohonanPindahDiajukan",
      "type": "event"
    },
    {
      "anonymous": false,
      "inputs": [
        {
          "indexed": true,
          "internalType": "uint256",
          "name": "id",
          "type": "uint256"
        },
        {
          "indexed": true,
          "internalType": "address",
          "name": "verifikator",
          "type": "address"
        },
        {
          "indexed": false,
          "internalType": "bool",
          "name": "disetujui",
          "type": "bool"
        },
        {
          "indexed": false,
          "internalType": "string",
          "name": "alasan",
          "type": "string"
        },
        {
          "indexed": false,
          "internalType": "uint256",
          "name": "waktu",
          "type": "uint256"
        }
      ],
      "name": "VerifikasiDukcapil",
      "type": "event"
    },
    {
      "anonymous": false,
      "inputs": [
        {
          "indexed": true,
          "internalType": "uint256",
          "name": "id",
          "type": "uint256"
        },
        {
          "indexed": true,
          "internalType": "address",
          "name": "verifikator",
          "type": "address"
        },
        {
          "indexed": false,
          "internalType": "bool",
          "name": "disetujui",
          "type": "bool"
        },
        {
          "indexed": false,
          "internalType": "string",
          "name": "alasan",
          "type": "string"
        },
        {
          "indexed": false,
          "internalType": "uint256",
          "name": "waktu",
          "type": "uint256"
        }
      ],
      "name": "VerifikasiKalurahan",
      "type": "event"
    },
    {
      "anonymous": false,
      "inputs": [
        {
          "indexed": true,
          "internalType": "address",
          "name": "wallet",
          "type": "address"
        },
        {
          "indexed": false,
          "internalType": "string",
          "name": "nik",
          "type": "string"
        }
      ],
      "name": "WargaTerdaftar",
      "type": "event"
    },
    {
      "inputs": [
        {
          "internalType": "string",
          "name": "_nikKepalaKeluarga",
          "type": "string"
        }
      ],
      "name": "adaPermohonanMenungguKonfirmasi",
      "outputs": [
        {
          "internalType": "bool",
          "name": "",
          "type": "bool"
        }
      ],
      "stateMutability": "view",
      "type": "function"
    },
    {
      "inputs": [
        {
          "internalType": "uint8",
          "name": "",
          "type": "uint8"
        }
      ],
      "name": "addressKalurahanById",
      "outputs": [
        {
          "internalType": "address",
          "name": "",
          "type": "address"
        }
      ],
      "stateMutability": "view",
      "type": "function"
    },
    {
      "inputs": [
        {
          "internalType": "uint256",
          "name": "_id",
          "type": "uint256"
        }
      ],
      "name": "batalkanPermohonan",
      "outputs": [],
      "stateMutability": "nonpayable",
      "type": "function"
    },
    {
      "inputs": [
        {
          "internalType": "uint256",
          "name": "",
          "type": "uint256"
        }
      ],
      "name": "cidDokumenResmi",
      "outputs": [
        {
          "internalType": "string",
          "name": "",
          "type": "string"
        }
      ],
      "stateMutability": "view",
      "type": "function"
    },
    {
      "inputs": [
        {
          "internalType": "uint8",
          "name": "",
          "type": "uint8"
        },
        {
          "internalType": "uint256",
          "name": "",
          "type": "uint256"
        }
      ],
      "name": "daftarPermohonanKalurahanAsal",
      "outputs": [
        {
          "internalType": "uint256",
          "name": "",
          "type": "uint256"
        }
      ],
      "stateMutability": "view",
      "type": "function"
    },
    {
      "inputs": [
        {
          "internalType": "address",
          "name": "",
          "type": "address"
        },
        {
          "internalType": "uint256",
          "name": "",
          "type": "uint256"
        }
      ],
      "name": "daftarPermohonanPemohon",
      "outputs": [
        {
          "internalType": "uint256",
          "name": "",
          "type": "uint256"
        }
      ],
      "stateMutability": "view",
      "type": "function"
    },
    {
      "inputs": [
        {
          "internalType": "enum PencatatanTypes.Status",
          "name": "",
          "type": "uint8"
        },
        {
          "internalType": "uint256",
          "name": "",
          "type": "uint256"
        }
      ],
      "name": "daftarPermohonanPerStatus",
      "outputs": [
        {
          "internalType": "uint256",
          "name": "",
          "type": "uint256"
        }
      ],
      "stateMutability": "view",
      "type": "function"
    },
    {
      "inputs": [],
      "name": "dukcapil",
      "outputs": [
        {
          "internalType": "address",
          "name": "",
          "type": "address"
        }
      ],
      "stateMutability": "view",
      "type": "function"
    },
    {
      "inputs": [
        {
          "internalType": "uint256",
          "name": "_id",
          "type": "uint256"
        }
      ],
      "name": "getDokumenResmi",
      "outputs": [
        {
          "internalType": "string",
          "name": "",
          "type": "string"
        }
      ],
      "stateMutability": "view",
      "type": "function"
    },
    {
      "inputs": [
        {
          "internalType": "uint256",
          "name": "_id",
          "type": "uint256"
        }
      ],
      "name": "getJenisPermohonan",
      "outputs": [
        {
          "internalType": "string",
          "name": "",
          "type": "string"
        }
      ],
      "stateMutability": "view",
      "type": "function"
    },
    {
      "inputs": [
        {
          "internalType": "uint256",
          "name": "_id",
          "type": "uint256"
        }
      ],
      "name": "getJenisPindah",
      "outputs": [
        {
          "internalType": "string",
          "name": "",
          "type": "string"
        }
      ],
      "stateMutability": "view",
      "type": "function"
    },
    {
      "inputs": [],
      "name": "getKalurahanMappingCID",
      "outputs": [
        {
          "internalType": "string",
          "name": "",
          "type": "string"
        }
      ],
      "stateMutability": "view",
      "type": "function"
    },
    {
      "inputs": [
        {
          "internalType": "uint256",
          "name": "_id",
          "type": "uint256"
        }
      ],
      "name": "getPermohonan",
      "outputs": [
        {
          "components": [
            {
              "internalType": "uint256",
              "name": "id",
              "type": "uint256"
            },
            {
              "internalType": "uint256",
              "name": "waktuPengajuan",
              "type": "uint256"
            },
            {
              "internalType": "address",
              "name": "pemohon",
              "type": "address"
            },
            {
              "internalType": "enum PencatatanTypes.JenisPermohonan",
              "name": "jenis",
              "type": "uint8"
            },
            {
              "internalType": "enum PencatatanTypes.Status",
              "name": "status",
              "type": "uint8"
            },
            {
              "internalType": "uint8",
              "name": "idKalurahanAsal",
              "type": "uint8"
            },
            {
              "internalType": "uint8",
              "name": "idKalurahanTujuan",
              "type": "uint8"
            },
            {
              "internalType": "string",
              "name": "cidIPFS",
              "type": "string"
            },
            {
              "internalType": "string",
              "name": "alasanPenolakan",
              "type": "string"
            },
            {
              "internalType": "address",
              "name": "verifikatorKalurahan",
              "type": "address"
            },
            {
              "internalType": "address",
              "name": "verifikatorKalurahanTujuan",
              "type": "address"
            },
            {
              "internalType": "address",
              "name": "verifikatorDukcapil",
              "type": "address"
            },
            {
              "internalType": "uint256",
              "name": "waktuVerifikasiKalurahan",
              "type": "uint256"
            },
            {
              "internalType": "uint256",
              "name": "waktuVerifikasiKalurahanTujuan",
              "type": "uint256"
            },
            {
              "internalType": "uint256",
              "name": "waktuVerifikasiDukcapil",
              "type": "uint256"
            },
            {
              "internalType": "address",
              "name": "konfirmatorKKTujuan",
              "type": "address"
            },
            {
              "internalType": "uint256",
              "name": "waktuKonfirmasiKKTujuan",
              "type": "uint256"
            },
            {
              "internalType": "bool",
              "name": "konfirmasiKKTujuan",
              "type": "bool"
            },
            {
              "internalType": "enum PencatatanTypes.JenisPindah",
              "name": "jenisPindah",
              "type": "uint8"
            }
          ],
          "internalType": "struct PencatatanTypes.Permohonan",
          "name": "",
          "type": "tuple"
        }
      ],
      "stateMutability": "view",
      "type": "function"
    },
    {
      "inputs": [
        {
          "internalType": "enum PencatatanTypes.Status",
          "name": "_status",
          "type": "uint8"
        }
      ],
      "name": "getPermohonanBelumVerifikasiKalurahan",
      "outputs": [
        {
          "internalType": "uint256[]",
          "name": "",
          "type": "uint256[]"
        }
      ],
      "stateMutability": "view",
      "type": "function"
    },
    {
      "inputs": [],
      "name": "getPermohonanByKalurahanAsal",
      "outputs": [
        {
          "internalType": "uint256[]",
          "name": "",
          "type": "uint256[]"
        }
      ],
      "stateMutability": "view",
      "type": "function"
    },
    {
      "inputs": [],
      "name": "getPermohonanByKalurahanTujuan",
      "outputs": [
        {
          "internalType": "uint256[]",
          "name": "",
          "type": "uint256[]"
        }
      ],
      "stateMutability": "view",
      "type": "function"
    },
    {
      "inputs": [
        {
          "internalType": "enum PencatatanTypes.Status",
          "name": "_status",
          "type": "uint8"
        }
      ],
      "name": "getPermohonanForDukcapil",
      "outputs": [
        {
          "internalType": "uint256[]",
          "name": "",
          "type": "uint256[]"
        }
      ],
      "stateMutability": "view",
      "type": "function"
    },
    {
      "inputs": [
        {
          "internalType": "address",
          "name": "_pemohon",
          "type": "address"
        }
      ],
      "name": "getPermohonanIDsByPemohon",
      "outputs": [
        {
          "internalType": "uint256[]",
          "name": "",
          "type": "uint256[]"
        }
      ],
      "stateMutability": "view",
      "type": "function"
    },
    {
      "inputs": [
        {
          "internalType": "string",
          "name": "_nikKepalaKeluarga",
          "type": "string"
        }
      ],
      "name": "getPermohonanMenungguKonfirmasiKK",
      "outputs": [
        {
          "internalType": "uint256[]",
          "name": "",
          "type": "uint256[]"
        }
      ],
      "stateMutability": "view",
      "type": "function"
    },
    {
      "inputs": [
        {
          "internalType": "uint256",
          "name": "_id",
          "type": "uint256"
        }
      ],
      "name": "getStatusPermohonan",
      "outputs": [
        {
          "internalType": "string",
          "name": "",
          "type": "string"
        }
      ],
      "stateMutability": "view",
      "type": "function"
    },
    {
      "inputs": [
        {
          "internalType": "address",
          "name": "_akun",
          "type": "address"
        }
      ],
      "name": "hapusKalurahan",
      "outputs": [],
      "stateMutability": "nonpayable",
      "type": "function"
    },
    {
      "inputs": [
        {
          "internalType": "address",
          "name": "",
          "type": "address"
        }
      ],
      "name": "idKalurahanByAddress",
      "outputs": [
        {
          "internalType": "uint8",
          "name": "",
          "type": "uint8"
        }
      ],
      "stateMutability": "view",
      "type": "function"
    },
    {
      "inputs": [],
      "name": "jumlahPermohonan",
      "outputs": [
        {
          "internalType": "uint256",
          "name": "",
          "type": "uint256"
        }
      ],
      "stateMutability": "view",
      "type": "function"
    },
    {
      "inputs": [
        {
          "internalType": "address",
          "name": "",
          "type": "address"
        }
      ],
      "name": "kalurahan",
      "outputs": [
        {
          "internalType": "bool",
          "name": "",
          "type": "bool"
        }
      ],
      "stateMutability": "view",
      "type": "function"
    },
    {
      "inputs": [],
      "name": "kalurahanMappingCID",
      "outputs": [
        {
          "internalType": "string",
          "name": "",
          "type": "string"
        }
      ],
      "stateMutability": "view",
      "type": "function"
    },
    {
      "inputs": [
        {
          "internalType": "uint256",
          "name": "_id",
          "type": "uint256"
        },
        {
          "internalType": "bool",
          "name": "_disetujui",
          "type": "bool"
        },
        {
          "internalType": "string",
          "name": "_nikKepalaKeluargaTujuan",
          "type": "string"
        }
      ],
      "name": "konfirmasiPindahGabungKK",
      "outputs": [],
      "stateMutability": "nonpayable",
      "type": "function"
    },
    {
      "inputs": [
        {
          "internalType": "address",
          "name": "",
          "type": "address"
        }
      ],
      "name": "nikByWallet",
      "outputs": [
        {
          "internalType": "string",
          "name": "",
          "type": "string"
        }
      ],
      "stateMutability": "view",
      "type": "function"
    },
    {
      "inputs": [
        {
          "internalType": "string",
          "name": "",
          "type": "string"
        },
        {
          "internalType": "uint256",
          "name": "",
          "type": "uint256"
        }
      ],
      "name": "permohonanMenungguKonfirmasiKK",
      "outputs": [
        {
          "internalType": "uint256",
          "name": "",
          "type": "uint256"
        }
      ],
      "stateMutability": "view",
      "type": "function"
    },
    {
      "inputs": [
        {
          "internalType": "string",
          "name": "_nik",
          "type": "string"
        }
      ],
      "name": "registerWarga",
      "outputs": [],
      "stateMutability": "nonpayable",
      "type": "function"
    },
    {
      "inputs": [
        {
          "internalType": "string",
          "name": "_cid",
          "type": "string"
        }
      ],
      "name": "setKalurahanMappingCID",
      "outputs": [],
      "stateMutability": "nonpayable",
      "type": "function"
    },
    {
      "inputs": [
        {
          "internalType": "enum PencatatanTypes.JenisPermohonan",
          "name": "_jenis",
          "type": "uint8"
        },
        {
          "internalType": "string",
          "name": "_cidIPFS",
          "type": "string"
        },
        {
          "internalType": "uint8",
          "name": "_idKalurahanAsal",
          "type": "uint8"
        },
        {
          "internalType": "uint8",
          "name": "_idKalurahanTujuan",
          "type": "uint8"
        },
        {
          "internalType": "enum PencatatanTypes.JenisPindah",
          "name": "_jenisPindah",
          "type": "uint8"
        }
      ],
      "name": "submitPermohonan",
      "outputs": [],
      "stateMutability": "nonpayable",
      "type": "function"
    },
    {
      "inputs": [
        {
          "internalType": "uint8",
          "name": "_id",
          "type": "uint8"
        },
        {
          "internalType": "address",
          "name": "_akun",
          "type": "address"
        }
      ],
      "name": "tambahKalurahanById",
      "outputs": [],
      "stateMutability": "nonpayable",
      "type": "function"
    },
    {
      "inputs": [
        {
          "internalType": "uint256",
          "name": "_id",
          "type": "uint256"
        },
        {
          "internalType": "string",
          "name": "_cidDokumen",
          "type": "string"
        }
      ],
      "name": "unggahDokumenResmi",
      "outputs": [],
      "stateMutability": "nonpayable",
      "type": "function"
    },
    {
      "inputs": [
        {
          "internalType": "uint256",
          "name": "_id",
          "type": "uint256"
        },
        {
          "internalType": "bool",
          "name": "_disetujui",
          "type": "bool"
        },
        {
          "internalType": "string",
          "name": "_alasan",
          "type": "string"
        }
      ],
      "name": "verifikasiDukcapil",
      "outputs": [],
      "stateMutability": "nonpayable",
      "type": "function"
    },
    {
      "inputs": [
        {
          "internalType": "uint256",
          "name": "_id",
          "type": "uint256"
        },
        {
          "internalType": "bool",
          "name": "_disetujui",
          "type": "bool"
        },
        {
          "internalType": "string",
          "name": "_alasan",
          "type": "string"
        }
      ],
      "name": "verifikasiKalurahan",
      "outputs": [],
      "stateMutability": "nonpayable",
      "type": "function"
    },
    {
      "inputs": [
        {
          "internalType": "uint256",
          "name": "_id",
          "type": "uint256"
        },
        {
          "internalType": "bool",
          "name": "_disetujui",
          "type": "bool"
        },
        {
          "internalType": "string",
          "name": "_alasan",
          "type": "string"
        },
        {
          "internalType": "uint8",
          "name": "_idKalurahanTujuan",
          "type": "uint8"
        }
      ],
      "name": "verifikasiKalurahanAsalPindah",
      "outputs": [],
      "stateMutability": "nonpayable",
      "type": "function"
    },
    {
      "inputs": [
        {
          "internalType": "uint256",
          "name": "_id",
          "type": "uint256"
        },
        {
          "internalType": "bool",
          "name": "_disetujui",
          "type": "bool"
        },
        {
          "internalType": "string",
          "name": "_alasan",
          "type": "string"
        },
        {
          "internalType": "string",
          "name": "_nikKepalaKeluargaTujuan",
          "type": "string"
        }
      ],
      "name": "verifikasiKalurahanTujuanPindah",
      "outputs": [],
      "stateMutability": "nonpayable",
      "type": "function"
    },
    {
      "inputs": [
        {
          "internalType": "string",
          "name": "",
          "type": "string"
        }
      ],
      "name": "walletByNik",
      "outputs": [
        {
          "internalType": "address",
          "name": "",
          "type": "address"
        }
      ],
      "stateMutability": "view",
      "type": "function"
    }
  ],
  "bytecode": "0x60808060405234602757600080546001600160a01b031916331790556138d7908161002d8239f35b600080fdfe6080604052600436101561001257600080fd5b60003560e01c80630bfa49df146103555780630facc3b31461265357806311481b6d1461253e578063244c82cf1461219a5780632bbe04a61461210b5780632c086747146120415780632d7c56431461200b57806349cda27e14611e2d5780634bef492314611de35780634cdf813b14611d905780634ec6202214611d105780634f5414c714611c8157806350952c1414611c195780636434852314611bda5780637df4ab6a146118805780637ec410f8146115bb578063825e827a146113d5578063835b1ece1461135e57806389b4126214611321578063a1468b3d146110cf578063a197fb2514611064578063a439ef061461102e578063a48bff9214610ff2578063a7014a0c14610ce4578063aa02000714610cae578063ab0680c114610c6c578063acbb35cf14610b2b578063b4750ad314610a86578063b48da9b914610a4c578063bccf5e1114610695578063be50586f14610648578063c76681d614610453578063d3b26d3f146103b8578063d4c0418b1461038f578063ea69c80214610371578063eae3073214610355578063f908a8ff146103155763fea8abac146101be57600080fd5b3461031057602036600319011261031057600435600d81101590816103105733600052600160205260ff60406000205416156102ff5733600052600560205260ff60406000205416600052600a602052604060002090815461021f81613253565b93600093845b83811061027357868661023781613253565b9160005b82811061025457604051806102508682612d84565b0390f35b8061026160019284613285565b5161026c8287613285565b520161023b565b61027d8183612dbe565b90549060031b1c60005260086020528260ff60026040600020015460a81c16906102e957600d8110156102e95785146102b9575b600101610225565b946102e16001916102ca8885612dbe565b90549060031b1c6102db828b613285565b52613094565b9590506102b1565b634e487b7160e01b600052602160045260246000fd5b631902707f60e31b60005260046000fd5b600080fd5b3461031057602036600319011261031057600435600052600e6020526102506103416040600020612fd9565b604051918291602083526020830190612ced565b3461031057600036600319011261031057610250610341612f20565b34610310576000366003190112610310576020600754604051908152f35b34610310576000366003190112610310576000546040516001600160a01b039091168152602090f35b34610310576020366003190112610310576004356001600160401b038111610310576103ea6020913690600401612d12565b91908260405193849283378101600d81520301902060405190816020825491828152019160005260206000209060005b81811061043d576102508561043181870382612e08565b60405191829182612d84565b825484526020909301926001928301920161041a565b34610310576040366003190112610310576004356024356001600160401b03811161031057610486903690600401612d12565b600054909291906001600160a01b031633036106375781600052600860205260ff60026040600020015460a81c16600d8110156102e9576003036106265782156106155781600052600e6020526040600020926001600160401b0381116105ff576104fb816104f58654612ee6565b866130fd565b600093601f821160011461057d5761054d82807f75c675465e0858e943fd2e773390edaac64e2ee57918f3f49a20e198c1a544259697600091610572575b508160011b916000199060031b1c19161790565b90555b61056760405192839260408452604084019161315f565b4260208301520390a2005b905085013588610539565b80855260208520601f19831695805b8781106105e75750837f75c675465e0858e943fd2e773390edaac64e2ee57918f3f49a20e198c1a544259697106105cd575b5050600182811b019055610550565b840135600019600385901b60f8161c1916905585806105be565b9091602060018192858901358155019301910161058c565b634e487b7160e01b600052604160045260246000fd5b630f4cd64160e41b60005260046000fd5b634241280360e01b60005260046000fd5b632897e6d360e21b60005260046000fd5b3461031057604036600319011261031057600435600d811015610310576106716024359161307b565b80548210156103105760209161068691612dbe565b90549060031b1c604051908152f35b34610310576106a336612e8d565b600054929390926001600160a01b03163303610637578060005260086020526040600020936002850193845460ff8160a01c1660058110156102e9576004036109c0575060ff855460a81c16600d8110156102e9576007036109af57610709600761307b565b9460005b8654808210156109a25785610722838a612dbe565b90549060031b1c14610737575060010161070d565b6000979192939495969719810190811161098c5761078b9261076d61075f6107869385612dbe565b90549060031b1c9184612dbe565b90919082549060031b91821b91600019901b1916179055565b6131a5565b821561083857805460ff60a81b1916600360a81b1790556003600052600c602052929391927f6b79a244eb3993d9a079f4708e9832062b305d6080c8372aac9c82d882a9557b926107fc857fc0da782485e77ae272268ae0a3ff44c1552ecb60b3743924de17a815e0a3cfd7613137565b6007810160018060a01b0333166001600160601b0360a01b825416179055600a429101556108336040519283923397429285613180565b0390a3005b805460ff60a81b1916600160aa1b17905560048501946001600160401b0382116105ff576108708261086a8854612ee6565b886130fd565b600095601f8311600114610909576108c283807f6b79a244eb3993d9a079f4708e9832062b305d6080c8372aac9c82d882a9557b9798996000916108fe57508160011b916000199060031b1c19161790565b90555b6004600052600c6020526108f9857f5b84bb9e0f5aa9cc45a8bb66468db5d4816d1e75ff86b5e1f1dd8d144dab8097613137565b6107fc565b90508901358a610539565b80875260208720601f19841697805b8981106109745750847f6b79a244eb3993d9a079f4708e9832062b305d6080c8372aac9c82d882a9557b9798991061095a575b5050600183811b0190556108c5565b880135600019600386901b60f8161c19169055878061094b565b9091602060018192858c013581550193019101610918565b634e487b7160e01b600052601160045260246000fd5b505090919293945061078b565b63656d7eb560e01b60005260046000fd5b60a81c60ff16600d8110156102e957600103610a3b576109e0600161307b565b9460005b8654808210156109a257856109f9838a612dbe565b90549060031b1c14610a0e57506001016109e4565b6000979192939495969719810190811161098c57610a369261076d61075f6107869385612dbe565b61078b565b633c78815f60e01b60005260046000fd5b34610310576020366003190112610310576001600160a01b03610a6d612d5f565b1660005260026020526102506103416040600020612fd9565b34610310576020366003190112610310576004356000818152600860209081526040808320600201548354600e909352922054336001600160a01b03928316149290911690610ad490612ee6565b15610b1a573314908115610b12575b5015610b0157600052600e6020526102506103416040600020612fd9565b6370436def60e11b60005260046000fd5b905082610ae3565b63c31a6dc560e01b60005260046000fd5b3461031057602036600319011261031057600435336000526002602052610b56604060002054612ee6565b15610c5b57600081815260086020526040902060028101805491929091336001600160a01b03821603610c4a5760a81c60ff16600d8110156102e957610c3957610b9f90613299565b805460ff60a81b1916600960a81b179055426008820155600481018054610bcf90610bc990612ee6565b826130d2565b604781556000526237b71760e91b600160206000207f5065726d6f686f6e616e206469626174616c6b616e206f6c65682070656d6f688155015554604051904282527fc32fdc85bad287b87324f2b5c9affb2708f355d219541e068064d32eaed8d66560203393a3005b634db47d8360e01b60005260046000fd5b638c1f61f360e01b60005260046000fd5b630a878caf60e31b60005260046000fd5b3461031057604036600319011261031057610c85612d4f565b60ff6024359116600052600a602052604060002080548210156103105760209161068691612dbe565b3461031057602036600319011261031057600435600052600860205261025061034160ff600d6040600020015460081c1661378b565b34610310576020366003190112610310576000610240604051610d0681612dec565b8281528260208201528260408201528260608201528260808201528260a08201528260c0820152606060e0820152606061010082015282610120820152826101408201528261016082015282610180820152826101a0820152826101c0820152826101e0820152826102008201528261022082015201526004356000526008602052604060002060405190610d9a82612dec565b805482526001810154602083015260028101546001600160a01b0381166040840152610dd060a082901c60ff16606085016130a3565b60ff8160a81c1690600d8210156102e957610eae9260ff600d9281946080880152818160b01c1660a088015260b81c1660c0860152610e1160038201612fd9565b60e0860152610e2260048201612fd9565b61010086015260058101546001600160a01b03908116610120870152600682015481166101408701526007820154811661016087015260088083015461018088015260098301546101a0880152600a8301546101c0880152600b8301549091166101e0870152600c8201546102008701529101548281161515610220860152901c1661024083016130af565b6040519060208252805160208301526020810151604083015260018060a01b036040820151166060830152610eeb60608201516080840190612ecc565b608081015190600d8210156102e957829160a083015260ff60a08201511660c083015260ff60c08201511660e0830152610250610240610f58610f4060e0850151610260610100880152610280870190612ced565b610100850151868203601f1901610120880152612ced565b9260018060a01b036101208201511661014086015260018060a01b036101408201511661016086015260018060a01b03610160820151166101808601526101808101516101a08601526101a08101516101c08601526101c08101516101e086015260018060a01b036101e0820151166102008601526102008101516102208601526102208101511515828601520151610260840190612ed9565b346103105760203660031901126103105760ff61100d612d4f565b166000526004602052602060018060a01b0360406000205416604051908152f35b3461031057602036600319011261031057600435600052600860205261025061034160ff60026040600020015460a01c16613666565b34610310576040366003190112610310576004356001600160401b03811161031057611094903690600401612e6f565b6110b06020602435928160405193828580945193849201612cca565b8101600d81520301902080548210156103105760209161068691612dbe565b34610310576110dd36612e8d565b92909133600052600160205260ff60406000205416156102ff5733600052600560205261112a60ff6040600020541683600052600860205260ff60026040600020015460b01c16146131e4565b8160005260086020526040600020936002850160ff815460a81c16600d8110156102e9576113105761115b84613299565b82156111f157805460ff60a81b1916600160a81b1790556001600052600c60205292939192600080516020613882833981519152926111ba857fd421a5181c571bba3f01190c922c3b2a896fc1d84e86c9f17ac10e67ebef8b5c613137565b6005810160018060a01b0333166001600160601b0360a01b8254161790556008429101556108336040519283923397429285613180565b805460ff60a81b1916600160a91b17905560048501946001600160401b0382116105ff576112238261086a8854612ee6565b600095601f831160011461129f5761126383806000805160206138828339815191529798996000916108fe57508160011b916000199060031b1c19161790565b90555b6002600052600c60205261129a857f5d6016397a73f5e079297ac5a36fef17b4d9c3831618e63ab105738020ddd720613137565b6111ba565b80875260208720601f19841697805b8981106112f8575084600080516020613882833981519152979899106112de575b5050600183811b019055611266565b880135600019600386901b60f8161c1916905587806112cf565b9091602060018192858c0135815501930191016112ae565b63d2bc121d60e01b60005260046000fd5b34610310576020366003190112610310576001600160a01b03611342612d5f565b166000526005602052602060ff60406000205416604051908152f35b34610310576020366003190112610310576001600160a01b0361137f612d5f565b166000526009602052604060002060405190816020825491828152019160005260206000209060005b8181106113bf576102508561043181870382612e08565b82548452602090930192600192830192016113a8565b34610310576020366003190112610310576004356001600160401b03811161031057611405903690600401612e6f565b604051815190602083019161141b818385612cca565b60039082019081528190036020019020546001600160a01b03166115aa57336000526002602052611450604060002054612ee6565b61159957602061146b91604051809381928651928391612cca565b60039082019081520301902080546001600160a01b03191633908117909155600090815260026020526040902081516001600160401b0381116105ff576114bc816114b68454612ee6565b846130fd565b6020601f82116001146115355790806114ea9260009161152a57508160011b916000199060031b1c19161790565b90555b7ff681a6e5cf03ecba385f32439e3a53ca704ad8f2a8d20230aa6a3971dc2ae218604051602081528061152533946020830190612ced565b0390a2005b905084015185610539565b601f1982169083600052806000209160005b81811061158157509083600194939210611568575b5050811b0190556114ed565b85015160001960f88460031b161c19169055848061155c565b9192602060018192868a015181550194019201611547565b63e278de3960e01b60005260046000fd5b631677261960e21b60005260046000fd5b34610310576080366003190112610310576004356115d7612d75565b906044356001600160401b038111610310576115f7903690600401612d12565b9092611601612d3f565b9133600052600160205260ff60406000205416156102ff5733600052600560205261164c60ff6040600020541685600052600860205260ff60026040600020015460b01c16146131e4565b836000526008602052604060002060028101805460ff8160a81c16600d8110156102e9576113105760a01c60ff1660058110156102e95760040361186f5761169386613299565b83156117525760ff85168015611741576000908152600460205260409020546001600160a01b03161561173057805460ff60b81b191660b89590951b60ff60b81b1694909417845560008051602061388283398151915293805460ff60a81b1916600560a81b1790556005600052600c6020526111ba857f2cd9ebf6ff19cdd7ffcc447d7c7d47b5991f5c7392a04512134e765802361fa6613137565b63fac301e360e01b60005260046000fd5b636c1ba33960e01b60005260046000fd5b805460ff60a81b1916600360a91b17905560048101959493506001600160401b0382116105ff576117878261086a8854612ee6565b600095601f83116001146117fe576117c783806000805160206138828339815191529798996000916108fe57508160011b916000199060031b1c19161790565b90555b6006600052600c60205261129a857f980f427e00e74f6d338adfccc7468518c8c8ea00836d0dce98c5fe154e17bf2b613137565b80875260208720601f19841697805b8981106118575750846000805160206138828339815191529798991061183d575b5050600183811b0190556117ca565b880135600019600386901b60f8161c19169055878061182e565b9091602060018192858c01358155019301910161180d565b63243d08b360e21b60005260046000fd5b346103105761188e36612e8d565b91923360005260026020526118a7604060002054612ee6565b15610c5b57806000526008602052604060002092600284019081549360ff8560a01c1660058110156102e95760040361186f57600d86019460ff865460081c1660038110156102e957600203611b8b5760a81c60ff16600d8110156102e957600a03611b3a57611917600a61307b565b9560005b875480821015611b2c5786611930838b612dbe565b90549060031b1c14611945575060010161191b565b600098919293949596979819810190811161098c5761196e9261076d61075f6107869385612dbe565b60405183838237602081858101600d81520301902060005b81548981831015611af957508761199d8385612dbe565b90549060031b1c146119b25750600101611986565b90959697600019820191821161098c577fa25323c522b668730629025f46ec29f731ed5e7a94e4c4a2c15ffa8d94b128d297611a008461078660409a61076d8f9761075f90611a429a612dbe565b8215611a8057805460ff60a81b1916600b60a81b179055600b6000908152600c602052879020611a31908a90613137565b9060ff801983541691151516179055565b600b810180546001600160a01b0319163317905542600c909101558251918291819083378101600081520390209381519015158152426020820152a3005b805460ff60a81b1916600360aa1b179055600484018054611aa490610bc990612ee6565b60478155600052623ab0b760e91b600160206000207f4469746f6c616b206f6c6568206b6570616c61206b656c75617267612074756a81550155611af489886000600c8152600c60205220613137565b611a31565b915050611a4291507fa25323c522b668730629025f46ec29f731ed5e7a94e4c4a2c15ffa8d94b128d29697604096611a00565b50509091929394955061196e565b60405162461bcd60e51b815260206004820152602360248201527f53746174757320746964616b2076616c696420756e74756b206b6f6e6669726d60448201526261736960e81b6064820152608490fd5b60405162461bcd60e51b815260206004820152602160248201527f42756b616e207065726d6f686f6e616e2070696e64616820676162756e67204b6044820152604b60f81b6064820152608490fd5b34610310576020366003190112610310576001600160a01b03611bfb612d5f565b166000526001602052602060ff604060002054166040519015158152f35b34610310576020366003190112610310576004356001600160401b03811161031057611c4b6020913690600401612e6f565b81611c5f6040519283815193849201612cca565b600390820190815281900382019020546040516001600160a01b039091168152f35b346103105760003660031901126103105733600052600160205260ff60406000205416156102ff5733600052600560205260ff60406000205416600052600a602052604060002060405190816020825491828152019160005260206000209060005b818110611cfa576102508561043181870382612e08565b8254845260209093019260019283019201611ce3565b3461031057602036600319011261031057600435600d811015610310576000546001600160a01b0316330361063757611d489061307b565b60405190816020825491828152019160005260206000209060005b818110611d7a576102508561043181870382612e08565b8254845260209093019260019283019201611d63565b34610310576020366003190112610310576004356001600160401b038111610310576020611dc381923690600401612d12565b91908260405193849283378101600d815203019020541515604051908152f35b3461031057604036600319011261031057611dfc612d5f565b6001600160a01b03166000908152600960205260409020805460243591908210156103105760209161068691612dbe565b34610310576020366003190112610310576004356001600160401b03811161031057611e5d903690600401612d12565b6000549091906001600160a01b03163303610637576001600160401b0382116105ff57611e8b600654612ee6565b601f8111611fb1575b50600091601f8111600114611f1057611ee581807f05b7d468eb456c6bffbac7ac5f22f68ca5ce358ae4551017aeb9e69bf8fa11ee95600091611f0557508160011b916000199060031b1c19161790565b6006555b611f0060405192839260208452602084019161315f565b0390a1005b905084013586610539565b60068352601f198116927ff652222313e28459528d920b65115c16c04f3efc82aaedc97be59f3f377c0d3f90805b858110611f995750827f05b7d468eb456c6bffbac7ac5f22f68ca5ce358ae4551017aeb9e69bf8fa11ee9510611f7f575b5050600181811b01600655611ee9565b830135600019600384901b60f8161c191690558380611f6f565b90916020600181928588013581550193019101611f3e565b6006600052611ffb907ff652222313e28459528d920b65115c16c04f3efc82aaedc97be59f3f377c0d3f601f850160051c81019160208610612001575b601f0160051c01906130bb565b82611e94565b9091508190611fee565b3461031057602036600319011261031057600435600052600860205261025061034160ff60026040600020015460a81c166132f9565b346103105760203660031901126103105761205a612d5f565b6000546001600160a01b03163303610637576001600160a01b03166000818152600160209081526040808320805460ff19169055600590915290205460ff16806120d2575b7fff465bdd426bd62b03af572638a7fbc92e0bd4ceb6c77721a320e5d5c42b2e1e604080516020815260006020820152a3005b80600052600460205260406000206001600160601b0360a01b8154169055816000526005602052604060002060ff19815416905561209f565b346103105760003660031901126103105733600052600160205260ff60406000205416156102ff5733600052600560205260ff60406000205416600052600b602052604060002060405190816020825491828152019160005260206000209060005b818110612184576102508561043181870382612e08565b825484526020909301926001928301920161216d565b34610310576080366003190112610310576004356121b6612d75565b6044356001600160401b038111610310576121d5903690600401612d12565b6064939193356001600160401b038111610310576121f7903690600401612d12565b93909133600052600160205260ff60406000205416156102ff57836000526008602052604060002060028101805460ff8160a01c1660058110156102e95760040361186f5760ff8160a81c16600d8110156102e95760050361252d5733600052600560205260ff80604060002054169160b81c160361251c5761227a600561307b565b9660005b88548082101561250d5788612293838c612dbe565b90549060031b1c146122a8575060010161227e565b60009991929394959697989919810190811161098c576122d29261076d61075f6107869385612dbe565b84156123ef5760ff600d84015460081c169060038210156102e9576000805160206138828339815191529688926002036123a157835460ff60a81b1916600560a91b17909355600a600052600c602090815261236a93612352847f9e6c92d7be355807bd948171438a5e65aaf9e4c36f1405c1b9ca25d27c4ea3a0613137565b8260405193849283378101600d815203019020613137565b6006810160018060a01b0333166001600160601b0360a01b8254161790556009429101556108336040519283923397429285613180565b5050815460ff60a81b1916600760a81b17909155506007600052600c6020526123ea857fdae089abd7155aa13ce498edb0d7a7156b783d015031f10c9a3d4f5fcb518971613137565b61236a565b50805460ff60a81b1916600160ab1b17905560048101959493506001600160401b0382116105ff576124258261086a8854612ee6565b600095601f831160011461249c5761246583806000805160206138828339815191529798996000916108fe57508160011b916000199060031b1c19161790565b90555b6008600052600c6020526123ea857f5ff1be3842b54290a9d10674244dae5848d2371b5314790c54805c086586e1df613137565b80875260208720601f19841697805b8981106124f5575084600080516020613882833981519152979899106124db575b5050600183811b019055612468565b880135600019600386901b60f8161c1916905587806124cc565b9091602060018192858c0135815501930191016124ab565b505090919293949596506122d2565b635a6db8ab60e01b60005260046000fd5b63384bca1f60e11b60005260046000fd5b3461031057604036600319011261031057612557612d4f565b6024356001600160a01b0381169190829003610310576000546001600160a01b031633036106375781156126425760ff166000818152600460205260409020546001600160a01b03166126315781600052600560205260ff604060002054161580612628575b15612617578060005260046020526040600020826001600160601b0360a01b82541617905581600052600560205260406000209060ff1982541617905560005260016020526040600020600160ff19825416179055600080f35b6338077c8760e21b60005260046000fd5b508015156125bd565b6348745fab60e01b60005260046000fd5b639fabe1c160e01b60005260046000fd5b346103105760a03660031901126103105760056004351015610310576024356001600160401b0381116103105761268e903690600401612d12565b60443560ff81168103610310576126a3612d3f565b92608435926003841015610310573360005260026020526126c8604060002054612ee6565b15610c5b5780156106155760ff83166000908152600460205260409020546001600160a01b0316156117305760009260048035149586612c89575b6007549461271086613094565b600755508615612c815780915b6000908815612c7a5787935b60ff6040519161273883612dec565b898352426020840152336040840152612756600435606085016130a3565b84608084015281841660a08401521660c0820152612775368789612e29565b60e08201526127df60209560405161278d8882612e08565b85815261010084015284610120840152846101408401528461016084015284610180840152846101a0840152846101c0840152846101e0840152846102008401528461022084015261024083016130af565b8783526008855260408084208251815560208301516001820155908201516002820180546001600160a01b0319166001600160a01b039290921691909117905560608201516005811015612c665760028201805460ff60a01b191660a09290921b60ff60a01b169190911790556080820151600d811015612c665760028201805460a085015160c086015162ffffff60a81b1990921660a89490941b60ff60a81b169390931760b09390931b60ff60b01b169290921760b89290921b60ff60b81b1691909117905560e08201518051906001600160401b038211612bd9576128d7826128ce6003860154612ee6565b600386016130fd565b8790601f8311600114612bf8576129069291879183612bed575b50508160011b916000199060031b1c19161790565b60038201555b6101008201518051906001600160401b038211612bd95761293d826129346004860154612ee6565b600486016130fd565b8790601f8311600114612b675782600d936102409593612972938a92612b5c5750508160011b916000199060031b1c19161790565b60048201555b6101208401516005820180546001600160a01b039283166001600160a01b03199182161790915561014086015160068401805491841691831691909117905561016086015160078401805491841691831691909117905561018086015160088401556101a086015160098401556101c0860151600a8401556101e0860151600b84018054919093169116179055610200840151600c8201556102208401519101805460ff191691151560ff169190911781559101516003811015612b4857815461ff00191660089190911b61ff0016179055338252600984526040822089929160ff91612a66908a90613137565b168152600a8452612a7a8760408320613137565b808052600c8452612a8e8760408320613137565b50612b2a575b5060009515612af05791612ae09160607fa0b9d3ab20139b1dab107ee5e773449c3bc1cba0be29c7281e39e5623d699b9d94612ad36040518099612ed9565b870152606086019161315f565b924260408201528033940390a380f35b93507f76091af5eb885b36d291fafffdf0282c662dd305c7a5efb5f216ce4133972fca91612ae091606060405196612ad388600435612ecc565b60ff16600052600b8152612b42846040600020613137565b86612a94565b634e487b7160e01b84526021600452602484fd5b0151905038806128f1565b9060048401875288872091875b8a601f1986168210612bc3575050926102409492600192600d9583601f19811610612baa575b505050811b016004820155612978565b015160001960f88460031b161c191690558f8080612b9a565b6001849582939585015181550194019201612b74565b634e487b7160e01b86526041600452602486fd5b015190508e806128f1565b91906003840187528887209087935b8a601f1985168610612c4d57506001945083601f19811610612c34575b505050811b01600382015561290c565b015160001960f88460031b161c191690558d8080612c24565b8282015184559485019460019093019290910190612c07565b634e487b7160e01b85526021600452602485fd5b8193612729565b60009161271d565b60ff81168015612cbb578552600460205260408520546001600160a01b03166127035763fac301e360e01b8552600485fd5b636c1ba33960e01b8652600486fd5b60005b838110612cdd5750506000910152565b8181015183820152602001612ccd565b90602091612d0681518092818552858086019101612cca565b601f01601f1916010190565b9181601f84011215610310578235916001600160401b038311610310576020838186019501011161031057565b6064359060ff8216820361031057565b6004359060ff8216820361031057565b600435906001600160a01b038216820361031057565b60243590811515820361031057565b602060408183019282815284518094520192019060005b818110612da85750505090565b8251845260209384019390920191600101612d9b565b8054821015612dd65760005260206000200190600090565b634e487b7160e01b600052603260045260246000fd5b61026081019081106001600160401b038211176105ff57604052565b90601f801991011681019081106001600160401b038211176105ff57604052565b9291926001600160401b0382116105ff5760405191612e52601f8201601f191660200184612e08565b829481845281830111610310578281602093846000960137010152565b9080601f8301121561031057816020612e8a93359101612e29565b90565b6060600319820112610310576004359160243580151581036103105791604435906001600160401b03821161031057612ec891600401612d12565b9091565b9060058210156102e95752565b9060038210156102e95752565b90600182811c92168015612f16575b6020831014612f0057565b634e487b7160e01b600052602260045260246000fd5b91607f1691612ef5565b6040519060008260065491612f3483612ee6565b8083529260018116908115612fba5750600114612f5a575b612f5892500383612e08565b565b506006600090815290917ff652222313e28459528d920b65115c16c04f3efc82aaedc97be59f3f377c0d3f5b818310612f9e575050906020612f5892820101612f4c565b6020919350806001915483858901015201910190918492612f86565b60209250612f5894915060ff191682840152151560051b820101612f4c565b9060405191826000825492612fed84612ee6565b80845293600181169081156130595750600114613012575b50612f5892500383612e08565b90506000929192526020600020906000915b81831061303d575050906020612f589282010138613005565b6020919350806001915483858901015201910190918492613024565b905060209250612f5894915060ff191682840152151560051b82010138613005565b600d8110156102e957600052600c602052604060002090565b600019811461098c5760010190565b60058210156102e95752565b60038210156102e95752565b8181106130c6575050565b600081556001016130bb565b90601f81116130df575050565b612f58916000526002601f6020600020920160051c820191016130bb565b9190601f811161310c57505050565b612f58926000526020600020906020601f840160051c8301931061200157601f0160051c01906130bb565b90815491680100000000000000008310156105ff578261076d916001612f5895018155612dbe565b908060209392818452848401376000828201840152601f01601f1916010190565b949392916040926131a0921515875260606020880152606087019161315f565b930152565b805480156131ce5760001901906131bc8282612dbe565b8154906000199060031b1b1916905555565b634e487b7160e01b600052603160045260246000fd5b156131eb57565b60405162461bcd60e51b8152602060048201526024808201527f48616e7961206b616c75726168616e206173616c2079616e672062657277656e604482015263616e672160e01b6064820152608490fd5b6001600160401b0381116105ff5760051b60200190565b9061325d8261323c565b61326a6040519182612e08565b828152809261327b601f199161323c565b0190602036910137565b8051821015612dd65760209160051b010190565b6132a3600061307b565b60005b8154808210156132f357836132bb8385612dbe565b90549060031b1c146132d057506001016132a6565b909250600019810190811161098c57612f589261076d61075f6107869385612dbe565b50505050565b600d8110156102e957801561363f5760006001821461360b5750600281146135db576000600382146135a85750600481146135795760006005821461353b575060068114613506576000600782146134c857506008811461348c5760006009821461344e5750600a811461341257600090600b81146133dc57600c9150146133ad57604051613389604082612e08565b601481527314dd185d1d5cc8151a59185ac8111a5ad95b985b60621b602082015290565b6040516133bb604082612e08565b60118152702234ba37b630b59025a5902a3ab53ab0b760791b602082015290565b50506040516133ec604082612e08565b60168152752234b5b7b73334b936b0b9b49025a5902a3ab53ab0b760511b602082015290565b50604051613421604082612e08565b601d81527f4d656e756e676775204b6f6e6669726d617369204b4b2054756a75616e000000602082015290565b5050604080519061345f9082612e08565b601781527f4469626174616c6b616e206f6c65682050656d6f686f6e000000000000000000602082015290565b5060405161349b604082612e08565b601881527f4469746f6c616b204b616c75726168616e2054756a75616e0000000000000000602082015290565b505060408051906134d99082612e08565b601a81527f4469736574756a7569204b616c75726168616e2054756a75616e000000000000602082015290565b50604051613515604082612e08565b6016815275111a5d1bdb185ac812d85b1d5c985a185b88105cd85b60521b602082015290565b5050604080519061354c9082612e08565b601881527f4469736574756a7569204b616c75726168616e204173616c0000000000000000602082015290565b50604051613588604082612e08565b601081526f111a5d1bdb185ac8111d5ad8d85c1a5b60821b602082015290565b505060408051906135b99082612e08565b6012815271111a5cd95d1d5a9d5a48111d5ad8d85c1a5b60721b602082015290565b506040516135ea604082612e08565b60118152702234ba37b630b59025b0b63ab930b430b760791b602082015290565b5050604080519061361c9082612e08565b60138152722234b9b2ba3ab53ab49025b0b63ab930b430b760691b602082015290565b5060405161364e604082612e08565b60088152672234b0b53ab5b0b760c11b602082015290565b60058110156102e95780156137635760006001821461373a57506002811461371657600090600381146136f15760049150146136cd576040516136aa604082612e08565b601381527212995b9a5cc8151a59185ac8111a5ad95b985b606a1b602082015290565b6040516136db604082612e08565b60068152650a0d2dcc8c2d60d31b602082015290565b5050604051613701604082612e08565b6005815264436572616960d81b602082015290565b50604051613725604082612e08565b600581526425b0bbb4b760d91b602082015290565b5050604080519061374b9082612e08565b600881526725b2b6b0ba34b0b760c11b602082015290565b50604051613772604082612e08565b600981526825b2b630b434b930b760b91b602082015290565b60038110156102e957801561384557600090600181146138175760029150146137e9576040516137bc604082612e08565b601a81527f4a656e69732050696e64616820546964616b2044696b656e616c000000000000602082015290565b6040516137f7604082612e08565b601081526f50696e64616820476162756e67204b4b60801b602082015290565b5050604051613827604082612e08565b600e81526d50696e646168204d616e6469726960901b602082015290565b50604051613854604082612e08565b601781527f50696e6461682053656c75727568204b656c756172676100000000000000000060208201529056feb464c40b6330ada9cbaedc9b928b83d905cd3051349abb7332ae44607384da59a2646970667358221220ad5dc9263a6cccc4f8b950ad2568d2b0781b5b820b3e583eb8fbf9ee868f20cf64736f6c634300081c0033",
  "linkReferences": {},
  "deployedLinkReferences": {}
}