{
  "_format": "hh-sol-artifact-1",
  "contractName": "PencatatanSipil",
  "sourceName": "contracts/PencatatanSipil.sol",
  "abi": [
    {
      "inputs": [
        {
          "internalType": "string",
          "name": "_initialNikMappingCID",
          "type": "string"
        }
      ],
      "stateMutability": "nonpayable",
      "type": "constructor"
    },
    {
      "inputs": [],
      "name": "AddressSudahDipakai",
      "type": "error"
    },
    {
      "inputs": [],
      "name": "AddressZero",
      "type": "error"
    },
    {
      "inputs": [],
      "name": "AksesDitolak",
      "type": "error"
    },
    {
      "inputs": [],
      "name": "BelumAdaDokumenResmi",
      "type": "error"
    },
    {
      "inputs": [],
      "name": "BelumDiverifikasiKalurahanAsal",
      "type": "error"
    },
    {
      "inputs": [],
      "name": "BukanPemilikPermohonan",
      "type": "error"
    },
    {
      "inputs": [],
      "name": "BukanPermohonanPindah",
      "type": "error"
    },
    {
      "inputs": [],
      "name": "CidKosong",
      "type": "error"
    },
    {
      "inputs": [],
      "name": "DokumenResmiSudahAda",
      "type": "error"
    },
    {
      "inputs": [],
      "name": "HanyaKalurahanTujuan",
      "type": "error"
    },
    {
      "inputs": [],
      "name": "IdKalurahanTujuanTidakDikenal",
      "type": "error"
    },
    {
      "inputs": [],
      "name": "IdSudahDipakai",
      "type": "error"
    },
    {
      "inputs": [],
      "name": "NikSudahDiklaim",
      "type": "error"
    },
    {
      "inputs": [],
      "name": "OnlyDukcapil",
      "type": "error"
    },
    {
      "inputs": [],
      "name": "OnlyKalurahan",
      "type": "error"
    },
    {
      "inputs": [],
      "name": "OnlyWargaTerdaftar",
      "type": "error"
    },
    {
      "inputs": [],
      "name": "PermohonanBelumDisetujuiKalurahan",
      "type": "error"
    },
    {
      "inputs": [],
      "name": "PermohonanBukanDiajukan",
      "type": "error"
    },
    {
      "inputs": [],
      "name": "PermohonanPindahBelumDisetujuiKalurahanTujuan",
      "type": "error"
    },
    {
      "inputs": [],
      "name": "StatusTidakValidUntukUploadDokumen",
      "type": "error"
    },
    {
      "inputs": [],
      "name": "TidakDapatDibatalkan",
      "type": "error"
    },
    {
      "inputs": [],
      "name": "TujuanTidakValid",
      "type": "error"
    },
    {
      "inputs": [],
      "name": "WalletSudahDigunakan",
      "type": "error"
    },
    {
      "anonymous": false,
      "inputs": [
        {
          "indexed": true,
          "internalType": "uint256",
          "name": "idPermohonan",
          "type": "uint256"
        },
        {
          "indexed": false,
          "internalType": "string",
          "name": "cidDokumen",
          "type": "string"
        },
        {
          "indexed": false,
          "internalType": "uint256",
          "name": "waktu",
          "type": "uint256"
        }
      ],
      "name": "DokumenResmiDiunggah",
      "type": "event"
    },
    {
      "anonymous": false,
      "inputs": [
        {
          "indexed": true,
          "internalType": "uint8",
          "name": "id",
          "type": "uint8"
        },
        {
          "indexed": true,
          "internalType": "address",
          "name": "akun",
          "type": "address"
        },
        {
          "indexed": false,
          "internalType": "string",
          "name": "newMappingCID",
          "type": "string"
        }
      ],
      "name": "KalurahanAdded",
      "type": "event"
    },
    {
      "anonymous": false,
      "inputs": [
        {
          "indexed": false,
          "internalType": "string",
          "name": "newCID",
          "type": "string"
        }
      ],
      "name": "KalurahanMappingCIDUpdated",
      "type": "event"
    },
    {
      "anonymous": false,
      "inputs": [
        {
          "indexed": true,
          "internalType": "uint8",
          "name": "id",
          "type": "uint8"
        },
        {
          "indexed": true,
          "internalType": "address",
          "name": "akun",
          "type": "address"
        },
        {
          "indexed": false,
          "internalType": "string",
          "name": "nama",
          "type": "string"
        },
        {
          "indexed": false,
          "internalType": "string",
          "name": "newMappingCID",
          "type": "string"
        }
      ],
      "name": "KalurahanRemoved",
      "type": "event"
    },
    {
      "anonymous": false,
      "inputs": [
        {
          "indexed": true,
          "internalType": "uint256",
          "name": "idPermohonan",
          "type": "uint256"
        },
        {
          "indexed": true,
          "internalType": "string",
          "name": "nikKepalaKeluargaTujuan",
          "type": "string"
        },
        {
          "indexed": false,
          "internalType": "bool",
          "name": "disetujui",
          "type": "bool"
        },
        {
          "indexed": false,
          "internalType": "uint256",
          "name": "waktu",
          "type": "uint256"
        }
      ],
      "name": "KonfirmasiKKTujuan",
      "type": "event"
    },
    {
      "anonymous": false,
      "inputs": [
        {
          "indexed": false,
          "internalType": "string",
          "name": "newCID",
          "type": "string"
        }
      ],
      "name": "NikMappingCIDUpdated",
      "type": "event"
    },
    {
      "anonymous": false,
      "inputs": [
        {
          "indexed": true,
          "internalType": "uint256",
          "name": "id",
          "type": "uint256"
        },
        {
          "indexed": true,
          "internalType": "address",
          "name": "pemohon",
          "type": "address"
        },
        {
          "indexed": false,
          "internalType": "enum PencatatanTypes.JenisPermohonan",
          "name": "jenis",
          "type": "uint8"
        },
        {
          "indexed": false,
          "internalType": "string",
          "name": "cidIPFS",
          "type": "string"
        },
        {
          "indexed": false,
          "internalType": "uint256",
          "name": "waktu",
          "type": "uint256"
        }
      ],
      "name": "PermohonanDiajukan",
      "type": "event"
    },
    {
      "anonymous": false,
      "inputs": [
        {
          "indexed": true,
          "internalType": "uint256",
          "name": "id",
          "type": "uint256"
        },
        {
          "indexed": true,
          "internalType": "address",
          "name": "pemohon",
          "type": "address"
        },
        {
          "indexed": false,
          "internalType": "uint256",
          "name": "waktu",
          "type": "uint256"
        }
      ],
      "name": "PermohonanDibatalkan",
      "type": "event"
    },
    {
      "anonymous": false,
      "inputs": [
        {
          "indexed": true,
          "internalType": "uint256",
          "name": "id",
          "type": "uint256"
        },
        {
          "indexed": true,
          "internalType": "address",
          "name": "pemohon",
          "type": "address"
        },
        {
          "indexed": false,
          "internalType": "enum PencatatanTypes.JenisPindah",
          "name": "jenisPindah",
          "type": "uint8"
        },
        {
          "indexed": false,
          "internalType": "string",
          "name": "cidIPFS",
          "type": "string"
        },
        {
          "indexed": false,
          "internalType": "uint256",
          "name": "waktu",
          "type": "uint256"
        }
      ],
      "name": "PermohonanPindahDiajukan",
      "type": "event"
    },
    {
      "anonymous": false,
      "inputs": [
        {
          "indexed": true,
          "internalType": "uint256",
          "name": "id",
          "type": "uint256"
        },
        {
          "indexed": true,
          "internalType": "address",
          "name": "verifikator",
          "type": "address"
        },
        {
          "indexed": false,
          "internalType": "bool",
          "name": "disetujui",
          "type": "bool"
        },
        {
          "indexed": false,
          "internalType": "string",
          "name": "alasan",
          "type": "string"
        },
        {
          "indexed": false,
          "internalType": "uint256",
          "name": "waktu",
          "type": "uint256"
        }
      ],
      "name": "VerifikasiDukcapil",
      "type": "event"
    },
    {
      "anonymous": false,
      "inputs": [
        {
          "indexed": true,
          "internalType": "uint256",
          "name": "id",
          "type": "uint256"
        },
        {
          "indexed": true,
          "internalType": "address",
          "name": "verifikator",
          "type": "address"
        },
        {
          "indexed": false,
          "internalType": "bool",
          "name": "disetujui",
          "type": "bool"
        },
        {
          "indexed": false,
          "internalType": "string",
          "name": "alasan",
          "type": "string"
        },
        {
          "indexed": false,
          "internalType": "uint256",
          "name": "waktu",
          "type": "uint256"
        }
      ],
      "name": "VerifikasiKalurahan",
      "type": "event"
    },
    {
      "anonymous": false,
      "inputs": [
        {
          "indexed": true,
          "internalType": "address",
          "name": "wallet",
          "type": "address"
        },
        {
          "indexed": false,
          "internalType": "string",
          "name": "nik",
          "type": "string"
        }
      ],
      "name": "WargaTerdaftar",
      "type": "event"
    },
    {
      "inputs": [
        {
          "internalType": "string",
          "name": "_nikKepalaKeluarga",
          "type": "string"
        }
      ],
      "name": "adaPermohonanMenungguKonfirmasi",
      "outputs": [
        {
          "internalType": "bool",
          "name": "",
          "type": "bool"
        }
      ],
      "stateMutability": "view",
      "type": "function"
    },
    {
      "inputs": [
        {
          "internalType": "uint8",
          "name": "",
          "type": "uint8"
        }
      ],
      "name": "addressKalurahanById",
      "outputs": [
        {
          "internalType": "address",
          "name": "",
          "type": "address"
        }
      ],
      "stateMutability": "view",
      "type": "function"
    },
    {
      "inputs": [
        {
          "internalType": "uint256",
          "name": "_id",
          "type": "uint256"
        }
      ],
      "name": "batalkanPermohonan",
      "outputs": [],
      "stateMutability": "nonpayable",
      "type": "function"
    },
    {
      "inputs": [
        {
          "internalType": "uint256",
          "name": "",
          "type": "uint256"
        }
      ],
      "name": "cidDokumenResmi",
      "outputs": [
        {
          "internalType": "string",
          "name": "",
          "type": "string"
        }
      ],
      "stateMutability": "view",
      "type": "function"
    },
    {
      "inputs": [
        {
          "internalType": "uint8",
          "name": "",
          "type": "uint8"
        },
        {
          "internalType": "uint256",
          "name": "",
          "type": "uint256"
        }
      ],
      "name": "daftarPermohonanKalurahanAsal",
      "outputs": [
        {
          "internalType": "uint256",
          "name": "",
          "type": "uint256"
        }
      ],
      "stateMutability": "view",
      "type": "function"
    },
    {
      "inputs": [
        {
          "internalType": "address",
          "name": "",
          "type": "address"
        },
        {
          "internalType": "uint256",
          "name": "",
          "type": "uint256"
        }
      ],
      "name": "daftarPermohonanPemohon",
      "outputs": [
        {
          "internalType": "uint256",
          "name": "",
          "type": "uint256"
        }
      ],
      "stateMutability": "view",
      "type": "function"
    },
    {
      "inputs": [
        {
          "internalType": "enum PencatatanTypes.Status",
          "name": "",
          "type": "uint8"
        },
        {
          "internalType": "uint256",
          "name": "",
          "type": "uint256"
        }
      ],
      "name": "daftarPermohonanPerStatus",
      "outputs": [
        {
          "internalType": "uint256",
          "name": "",
          "type": "uint256"
        }
      ],
      "stateMutability": "view",
      "type": "function"
    },
    {
      "inputs": [],
      "name": "dukcapil",
      "outputs": [
        {
          "internalType": "address",
          "name": "",
          "type": "address"
        }
      ],
      "stateMutability": "view",
      "type": "function"
    },
    {
      "inputs": [
        {
          "internalType": "uint256",
          "name": "_id",
          "type": "uint256"
        }
      ],
      "name": "getDokumenResmi",
      "outputs": [
        {
          "internalType": "string",
          "name": "",
          "type": "string"
        }
      ],
      "stateMutability": "view",
      "type": "function"
    },
    {
      "inputs": [
        {
          "internalType": "uint256",
          "name": "_id",
          "type": "uint256"
        }
      ],
      "name": "getJenisPermohonan",
      "outputs": [
        {
          "internalType": "string",
          "name": "",
          "type": "string"
        }
      ],
      "stateMutability": "view",
      "type": "function"
    },
    {
      "inputs": [
        {
          "internalType": "uint256",
          "name": "_id",
          "type": "uint256"
        }
      ],
      "name": "getJenisPindah",
      "outputs": [
        {
          "internalType": "string",
          "name": "",
          "type": "string"
        }
      ],
      "stateMutability": "view",
      "type": "function"
    },
    {
      "inputs": [],
      "name": "getKalurahanMappingCID",
      "outputs": [
        {
          "internalType": "string",
          "name": "",
          "type": "string"
        }
      ],
      "stateMutability": "view",
      "type": "function"
    },
    {
      "inputs": [],
      "name": "getNikMappingCID",
      "outputs": [
        {
          "internalType": "string",
          "name": "",
          "type": "string"
        }
      ],
      "stateMutability": "view",
      "type": "function"
    },
    {
      "inputs": [
        {
          "internalType": "uint256",
          "name": "_id",
          "type": "uint256"
        }
      ],
      "name": "getPermohonan",
      "outputs": [
        {
          "components": [
            {
              "internalType": "uint256",
              "name": "id",
              "type": "uint256"
            },
            {
              "internalType": "uint256",
              "name": "waktuPengajuan",
              "type": "uint256"
            },
            {
              "internalType": "address",
              "name": "pemohon",
              "type": "address"
            },
            {
              "internalType": "enum PencatatanTypes.JenisPermohonan",
              "name": "jenis",
              "type": "uint8"
            },
            {
              "internalType": "enum PencatatanTypes.Status",
              "name": "status",
              "type": "uint8"
            },
            {
              "internalType": "uint8",
              "name": "idKalurahanAsal",
              "type": "uint8"
            },
            {
              "internalType": "uint8",
              "name": "idKalurahanTujuan",
              "type": "uint8"
            },
            {
              "internalType": "string",
              "name": "cidIPFS",
              "type": "string"
            },
            {
              "internalType": "string",
              "name": "alasanPenolakan",
              "type": "string"
            },
            {
              "internalType": "address",
              "name": "verifikatorKalurahan",
              "type": "address"
            },
            {
              "internalType": "address",
              "name": "verifikatorKalurahanTujuan",
              "type": "address"
            },
            {
              "internalType": "address",
              "name": "verifikatorDukcapil",
              "type": "address"
            },
            {
              "internalType": "uint256",
              "name": "waktuVerifikasiKalurahan",
              "type": "uint256"
            },
            {
              "internalType": "uint256",
              "name": "waktuVerifikasiKalurahanTujuan",
              "type": "uint256"
            },
            {
              "internalType": "uint256",
              "name": "waktuVerifikasiDukcapil",
              "type": "uint256"
            },
            {
              "internalType": "address",
              "name": "konfirmatorKKTujuan",
              "type": "address"
            },
            {
              "internalType": "uint256",
              "name": "waktuKonfirmasiKKTujuan",
              "type": "uint256"
            },
            {
              "internalType": "bool",
              "name": "konfirmasiKKTujuan",
              "type": "bool"
            },
            {
              "internalType": "enum PencatatanTypes.JenisPindah",
              "name": "jenisPindah",
              "type": "uint8"
            }
          ],
          "internalType": "struct PencatatanTypes.Permohonan",
          "name": "",
          "type": "tuple"
        }
      ],
      "stateMutability": "view",
      "type": "function"
    },
    {
      "inputs": [
        {
          "internalType": "enum PencatatanTypes.Status",
          "name": "_status",
          "type": "uint8"
        }
      ],
      "name": "getPermohonanBelumVerifikasiKalurahan",
      "outputs": [
        {
          "internalType": "uint256[]",
          "name": "",
          "type": "uint256[]"
        }
      ],
      "stateMutability": "view",
      "type": "function"
    },
    {
      "inputs": [],
      "name": "getPermohonanByKalurahanAsal",
      "outputs": [
        {
          "internalType": "uint256[]",
          "name": "",
          "type": "uint256[]"
        }
      ],
      "stateMutability": "view",
      "type": "function"
    },
    {
      "inputs": [],
      "name": "getPermohonanByKalurahanTujuan",
      "outputs": [
        {
          "internalType": "uint256[]",
          "name": "",
          "type": "uint256[]"
        }
      ],
      "stateMutability": "view",
      "type": "function"
    },
    {
      "inputs": [
        {
          "internalType": "enum PencatatanTypes.Status",
          "name": "_status",
          "type": "uint8"
        }
      ],
      "name": "getPermohonanForDukcapil",
      "outputs": [
        {
          "internalType": "uint256[]",
          "name": "",
          "type": "uint256[]"
        }
      ],
      "stateMutability": "view",
      "type": "function"
    },
    {
      "inputs": [
        {
          "internalType": "address",
          "name": "_pemohon",
          "type": "address"
        }
      ],
      "name": "getPermohonanIDsByPemohon",
      "outputs": [
        {
          "internalType": "uint256[]",
          "name": "",
          "type": "uint256[]"
        }
      ],
      "stateMutability": "view",
      "type": "function"
    },
    {
      "inputs": [
        {
          "internalType": "string",
          "name": "_nikKepalaKeluarga",
          "type": "string"
        }
      ],
      "name": "getPermohonanMenungguKonfirmasiKK",
      "outputs": [
        {
          "internalType": "uint256[]",
          "name": "",
          "type": "uint256[]"
        }
      ],
      "stateMutability": "view",
      "type": "function"
    },
    {
      "inputs": [
        {
          "internalType": "uint256",
          "name": "_id",
          "type": "uint256"
        }
      ],
      "name": "getStatusPermohonan",
      "outputs": [
        {
          "internalType": "string",
          "name": "",
          "type": "string"
        }
      ],
      "stateMutability": "view",
      "type": "function"
    },
    {
      "inputs": [
        {
          "internalType": "address",
          "name": "_akun",
          "type": "address"
        },
        {
          "internalType": "string",
          "name": "_newMappingCID",
          "type": "string"
        }
      ],
      "name": "hapusKalurahan",
      "outputs": [],
      "stateMutability": "nonpayable",
      "type": "function"
    },
    {
      "inputs": [
        {
          "internalType": "address",
          "name": "",
          "type": "address"
        }
      ],
      "name": "idKalurahanByAddress",
      "outputs": [
        {
          "internalType": "uint8",
          "name": "",
          "type": "uint8"
        }
      ],
      "stateMutability": "view",
      "type": "function"
    },
    {
      "inputs": [],
      "name": "jumlahPermohonan",
      "outputs": [
        {
          "internalType": "uint256",
          "name": "",
          "type": "uint256"
        }
      ],
      "stateMutability": "view",
      "type": "function"
    },
    {
      "inputs": [
        {
          "internalType": "address",
          "name": "",
          "type": "address"
        }
      ],
      "name": "kalurahan",
      "outputs": [
        {
          "internalType": "bool",
          "name": "",
          "type": "bool"
        }
      ],
      "stateMutability": "view",
      "type": "function"
    },
    {
      "inputs": [],
      "name": "kalurahanMappingCID",
      "outputs": [
        {
          "internalType": "string",
          "name": "",
          "type": "string"
        }
      ],
      "stateMutability": "view",
      "type": "function"
    },
    {
      "inputs": [
        {
          "internalType": "uint256",
          "name": "_id",
          "type": "uint256"
        },
        {
          "internalType": "bool",
          "name": "_disetujui",
          "type": "bool"
        },
        {
          "internalType": "string",
          "name": "_nikKepalaKeluargaTujuan",
          "type": "string"
        }
      ],
      "name": "konfirmasiPindahGabungKK",
      "outputs": [],
      "stateMutability": "nonpayable",
      "type": "function"
    },
    {
      "inputs": [
        {
          "internalType": "address",
          "name": "",
          "type": "address"
        }
      ],
      "name": "nikByWallet",
      "outputs": [
        {
          "internalType": "string",
          "name": "",
          "type": "string"
        }
      ],
      "stateMutability": "view",
      "type": "function"
    },
    {
      "inputs": [],
      "name": "nikMappingCID",
      "outputs": [
        {
          "internalType": "string",
          "name": "",
          "type": "string"
        }
      ],
      "stateMutability": "view",
      "type": "function"
    },
    {
      "inputs": [
        {
          "internalType": "string",
          "name": "",
          "type": "string"
        },
        {
          "internalType": "uint256",
          "name": "",
          "type": "uint256"
        }
      ],
      "name": "permohonanMenungguKonfirmasiKK",
      "outputs": [
        {
          "internalType": "uint256",
          "name": "",
          "type": "uint256"
        }
      ],
      "stateMutability": "view",
      "type": "function"
    },
    {
      "inputs": [
        {
          "internalType": "string",
          "name": "_nik",
          "type": "string"
        }
      ],
      "name": "registerWarga",
      "outputs": [],
      "stateMutability": "nonpayable",
      "type": "function"
    },
    {
      "inputs": [
        {
          "internalType": "string",
          "name": "_nik",
          "type": "string"
        },
        {
          "internalType": "string",
          "name": "_mappingCID",
          "type": "string"
        }
      ],
      "name": "registerWargaAndUpdateMapping",
      "outputs": [],
      "stateMutability": "nonpayable",
      "type": "function"
    },
    {
      "inputs": [
        {
          "internalType": "enum PencatatanTypes.JenisPermohonan",
          "name": "_jenis",
          "type": "uint8"
        },
        {
          "internalType": "string",
          "name": "_cidIPFS",
          "type": "string"
        },
        {
          "internalType": "uint8",
          "name": "_idKalurahanAsal",
          "type": "uint8"
        },
        {
          "internalType": "uint8",
          "name": "_idKalurahanTujuan",
          "type": "uint8"
        },
        {
          "internalType": "enum PencatatanTypes.JenisPindah",
          "name": "_jenisPindah",
          "type": "uint8"
        }
      ],
      "name": "submitPermohonan",
      "outputs": [],
      "stateMutability": "nonpayable",
      "type": "function"
    },
    {
      "inputs": [
        {
          "internalType": "uint8",
          "name": "_id",
          "type": "uint8"
        },
        {
          "internalType": "address",
          "name": "_akun",
          "type": "address"
        },
        {
          "internalType": "string",
          "name": "_newMappingCID",
          "type": "string"
        }
      ],
      "name": "tambahKalurahanById",
      "outputs": [],
      "stateMutability": "nonpayable",
      "type": "function"
    },
    {
      "inputs": [
        {
          "internalType": "uint256",
          "name": "_id",
          "type": "uint256"
        },
        {
          "internalType": "string",
          "name": "_cidDokumen",
          "type": "string"
        }
      ],
      "name": "unggahDokumenResmi",
      "outputs": [],
      "stateMutability": "nonpayable",
      "type": "function"
    },
    {
      "inputs": [
        {
          "internalType": "uint256",
          "name": "_id",
          "type": "uint256"
        },
        {
          "internalType": "bool",
          "name": "_disetujui",
          "type": "bool"
        },
        {
          "internalType": "string",
          "name": "_alasan",
          "type": "string"
        },
        {
          "internalType": "string",
          "name": "_cidDokumen",
          "type": "string"
        }
      ],
      "name": "verifikasiDukcapil",
      "outputs": [],
      "stateMutability": "nonpayable",
      "type": "function"
    },
    {
      "inputs": [
        {
          "internalType": "uint256",
          "name": "_id",
          "type": "uint256"
        },
        {
          "internalType": "bool",
          "name": "_disetujui",
          "type": "bool"
        },
        {
          "internalType": "string",
          "name": "_alasan",
          "type": "string"
        }
      ],
      "name": "verifikasiKalurahan",
      "outputs": [],
      "stateMutability": "nonpayable",
      "type": "function"
    },
    {
      "inputs": [
        {
          "internalType": "uint256",
          "name": "_id",
          "type": "uint256"
        },
        {
          "internalType": "bool",
          "name": "_disetujui",
          "type": "bool"
        },
        {
          "internalType": "string",
          "name": "_alasan",
          "type": "string"
        },
        {
          "internalType": "uint8",
          "name": "_idKalurahanTujuan",
          "type": "uint8"
        }
      ],
      "name": "verifikasiKalurahanAsalPindah",
      "outputs": [],
      "stateMutability": "nonpayable",
      "type": "function"
    },
    {
      "inputs": [
        {
          "internalType": "uint256",
          "name": "_id",
          "type": "uint256"
        },
        {
          "internalType": "bool",
          "name": "_disetujui",
          "type": "bool"
        },
        {
          "internalType": "string",
          "name": "_alasan",
          "type": "string"
        },
        {
          "internalType": "string",
          "name": "_nikKepalaKeluargaTujuan",
          "type": "string"
        }
      ],
      "name": "verifikasiKalurahanTujuanPindah",
      "outputs": [],
      "stateMutability": "nonpayable",
      "type": "function"
    },
    {
      "inputs": [
        {
          "internalType": "string",
          "name": "",
          "type": "string"
        }
      ],
      "name": "walletByNik",
      "outputs": [
        {
          "internalType": "address",
          "name": "",
          "type": "address"
        }
      ],
      "stateMutability": "view",
      "type": "function"
    }
  ],
  "bytecode": "0x608060405234610231576142fa8038038061001981610236565b928339810190602081830312610231578051906001600160401b038211610231570181601f82011215610231578051906001600160401b0382116102065761006a601f8301601f1916602001610236565b92828452602083830101116102315760005b82811061021c57600083850160200181905280546001600160a01b03191633179055835184906001600160401b03811161020657600754600181811c911680156101fc575b60208210146101e657601f8111610181575b50602091601f821160011461011d57918192600092610112575b50508160011b916000199060031b1c1916176007555b60405161409e908161025c8239f35b0151905082806100ed565b601f198216926007600052806000209160005b85811061016957508360019510610150575b505050811b01600755610103565b015160001960f88460031b161c19169055828080610142565b91926020600181928685015181550194019201610130565b60076000527fa66cc928b5edb82af9bd49922954155ab7b0942694bea4ce44661d9a8736c688601f830160051c810191602084106101dc575b601f0160051c01905b8181106101d057506100d3565b600081556001016101c3565b90915081906101ba565b634e487b7160e01b600052602260045260246000fd5b90607f16906100c1565b634e487b7160e01b600052604160045260246000fd5b8060208092840101518282870101520161007c565b600080fd5b6040519190601f01601f191682016001600160401b038111838210176102065760405256fe6080604052600436101561001257600080fd5b60003560e01c80630bfa49df1461036b5780630facc3b314612c83578063219d541f14612914578063244c82cf146125bc5780632bbe04a61461252d5780632d7c5643146124f75780634635e378146103a55780634bef4923146124ad5780634cdf813b1461245a5780634ec62022146123da5780634f5414c71461234b57806350952c14146122e357806364348523146122a457806364c4f113146120485780636c89cf8c14611b1057806370ec4e06146118f35780637df4ab6a146115575780637ec410f81461128f578063825e827a146110ae578063835b1ece1461103757806389b4126214610ffa578063a1468b3d14610d92578063a197fb2514610d27578063a439ef0614610cf1578063a48bff9214610cb5578063a7014a0c146109a7578063aa02000714610971578063ab0680c11461092f578063acbb35cf146107ee578063b4750ad314610749578063b48da9b91461070f578063be50586f146106c2578063c76681d614610485578063d3b26d3f146103ea578063d4c0418b146103c1578063e1140b0d146103a5578063ea69c80214610387578063eae307321461036b578063f908a8ff1461032b5763fea8abac146101d457600080fd5b3461032657602036600319011261032657600435600d81101590816103265733600052600160205260ff60406000205416156103155733600052600560205260ff60406000205416600052600b6020526040600020908154610235816139ba565b93600093845b83811061028957868661024d816139ba565b9160005b82811061026a57604051806102668682613491565b0390f35b80610277600192846139ec565b5161028282876139ec565b5201610251565b610293818361370d565b90549060031b1c60005260096020528260ff60026040600020015460a81c16906102ff57600d8110156102ff5785146102cf575b60010161023b565b946102f76001916102e0888561370d565b90549060031b1c6102f1828b6139ec565b526137a9565b9590506102c7565b634e487b7160e01b600052602160045260246000fd5b631902707f60e31b60005260046000fd5b600080fd5b3461032657602036600319011261032657600435600052600e6020526102666103576040600020613655565b60405191829160208352602083019061331d565b3461032657600036600319011261032657610266610357613505565b34610326576000366003190112610326576020600854604051908152f35b34610326576000366003190112610326576102666103576135be565b34610326576000366003190112610326576000546040516001600160a01b039091168152602090f35b34610326576020366003190112610326576004356001600160401b0381116103265761041c6020913690600401613342565b91908260405193849283378101600f81520301902060405190816020825491828152019160005260206000209060005b81811061046f5761026685610463818703826133ab565b60405191829182613491565b825484526020909301926001928301920161044c565b34610326576040366003190112610326576004356024356001600160401b038111610326576104b8903690600401613342565b600054909291906001600160a01b031633036106b15781600052600960205260ff60026040600020015460a81c16600d81101590816102ff57600381149182156106a3575b8215610692575b8215610681575b50501561067057821561065f5781600052600e60205261052f6040600020546134cb565b61064e5781600052600e6020526040600020926001600160401b038111610638576105648161055e86546134cb565b8661384c565b600093601f82116001146105c8576105a4828060008051602061404983398151915296976000916105bd575b508160011b916000199060031b1c19161790565b90555b6105b86040519283924291846138f4565b0390a2005b905085013588610590565b80855260208520601f19831695805b878110610620575083600080516020614049833981519152969710610606575b5050600182811b0190556105a7565b840135600019600385901b60f8161c1916905585806105f7565b909160206001819285890135815501930191016105d7565b634e487b7160e01b600052604160045260246000fd5b6317ef2a1d60e31b60005260046000fd5b630f4cd64160e41b60005260046000fd5b63291bd15960e11b60005260046000fd5b9091506102ff57600b14848061050b565b8092506102ff576001811491610504565b5060078114915060006104fd565b632897e6d360e21b60005260046000fd5b3461032657604036600319011261032657600435600d811015610326576106eb60243591613790565b8054821015610326576020916107009161370d565b90549060031b1c604051908152f35b34610326576020366003190112610326576001600160a01b036107306136f7565b1660005260026020526102666103576040600020613655565b34610326576020366003190112610326576004356000818152600960209081526040808320600201548354600e909352922054336001600160a01b03928316149290911690610797906134cb565b156107dd5733149081156107d5575b50156107c457600052600e6020526102666103576040600020613655565b6370436def60e11b60005260046000fd5b9050826107a6565b63c31a6dc560e01b60005260046000fd5b34610326576020366003190112610326576004353360005260026020526108196040600020546134cb565b1561091e57600081815260096020526040902060028101805491929091336001600160a01b0382160361090d5760a81c60ff16600d8110156102ff576108fc5761086290613a00565b805460ff60a81b1916600960a81b1790554260088201556004810180546108929061088c906134cb565b82613821565b604781556000526237b71760e91b600160206000207f5065726d6f686f6e616e206469626174616c6b616e206f6c65682070656d6f688155015554604051904282527fc32fdc85bad287b87324f2b5c9affb2708f355d219541e068064d32eaed8d66560203393a3005b634db47d8360e01b60005260046000fd5b638c1f61f360e01b60005260046000fd5b630a878caf60e31b60005260046000fd5b346103265760403660031901126103265761094861337f565b60ff6024359116600052600b60205260406000208054821015610326576020916107009161370d565b3461032657602036600319011261032657600435600052600960205261026661035760ff600d6040600020015460081c16613ef2565b346103265760203660031901126103265760006102406040516109c98161338f565b8281528260208201528260408201528260608201528260808201528260a08201528260c0820152606060e0820152606061010082015282610120820152826101408201528261016082015282610180820152826101a0820152826101c0820152826101e0820152826102008201528261022082015201526004356000526009602052604060002060405190610a5d8261338f565b805482526001810154602083015260028101546001600160a01b0381166040840152610a9360a082901c60ff16606085016137b8565b60ff8160a81c1690600d8210156102ff57610b719260ff600d9281946080880152818160b01c1660a088015260b81c1660c0860152610ad460038201613655565b60e0860152610ae560048201613655565b61010086015260058101546001600160a01b03908116610120870152600682015481166101408701526007820154811661016087015260088083015461018088015260098301546101a0880152600a8301546101c0880152600b8301549091166101e0870152600c8201546102008701529101548281161515610220860152901c1661024083016137c4565b6040519060208252805160208301526020810151604083015260018060a01b036040820151166060830152610bae60608201516080840190613776565b608081015190600d8210156102ff57829160a083015260ff60a08201511660c083015260ff60c08201511660e0830152610266610240610c1b610c0360e085015161026061010088015261028087019061331d565b610100850151868203601f190161012088015261331d565b9260018060a01b036101208201511661014086015260018060a01b036101408201511661016086015260018060a01b03610160820151166101808601526101808101516101a08601526101a08101516101c08601526101c08101516101e086015260018060a01b036101e0820151166102008601526102008101516102208601526102208101511515828601520151610260840190613783565b346103265760203660031901126103265760ff610cd061337f565b166000526004602052602060018060a01b0360406000205416604051908152f35b3461032657602036600319011261032657600435600052600960205261026661035760ff60026040600020015460a01c16613dcd565b34610326576040366003190112610326576004356001600160401b03811161032657610d57903690600401613412565b610d7360206024359281604051938285809451938492016132fa565b8101600f8152030190208054821015610326576020916107009161370d565b3461032657610da03661373b565b92909133600052600160205260ff604060002054161561031557336000526005602052610ded60ff6040600020541683600052600960205260ff60026040600020015460b01c161461394b565b8160005260096020526040600020936002850160ff815460a81c16600d8110156102ff57610fe957610e1e84613a00565b8215610eb957805460ff60a81b1916600160a81b1790556001600052600d6020529293919260008051602061400983398151915292610e7d857ffd54ff1ed53f34a900b24c5ba64f85761163b5d82d98a47b9bd80e45466993c5613886565b6005810160018060a01b0333166001600160601b0360a01b825416179055600842910155610eb460405192839233974292856138cf565b0390a3005b805460ff60a81b1916600160a91b17905560048501946001600160401b03821161063857610ef182610eeb88546134cb565b8861384c565b600095601f8311600114610f7857610f318380600080516020614009833981519152979899600091610f6d57508160011b916000199060031b1c19161790565b90555b6002600052600d602052610f68857f10a81eed9d63d16face5e76357905348e6253d3394086026bb2bf2145d7cc249613886565b610e7d565b90508901358a610590565b80875260208720601f19841697805b898110610fd157508460008051602061400983398151915297989910610fb7575b5050600183811b019055610f34565b880135600019600386901b60f8161c191690558780610fa8565b9091602060018192858c013581550193019101610f87565b63d2bc121d60e01b60005260046000fd5b34610326576020366003190112610326576001600160a01b0361101b6136f7565b166000526005602052602060ff60406000205416604051908152f35b34610326576020366003190112610326576001600160a01b036110586136f7565b16600052600a602052604060002060405190816020825491828152019160005260206000209060005b8181106110985761026685610463818703826133ab565b8254845260209093019260019283019201611081565b34610326576020366003190112610326576004356001600160401b038111610326576110de903690600401613412565b60405181519060208301916110f48183856132fa565b60039082019081528190036020019020546001600160a01b031661127e573360005260026020526111296040600020546134cb565b61126d576020611144916040518093819286519283916132fa565b60039082019081520301902080546001600160a01b03191633908117909155600090815260026020526040902081516001600160401b038111610638576111958161118f84546134cb565b8461384c565b6020601f82116001146112095790806111c3926000916111fe57508160011b916000199060031b1c19161790565b90555b7ff681a6e5cf03ecba385f32439e3a53ca704ad8f2a8d20230aa6a3971dc2ae21860405160208152806105b83394602083019061331d565b905084015185610590565b601f1982169083600052806000209160005b8181106112555750908360019493921061123c575b5050811b0190556111c6565b85015160001960f88460031b161c191690558480611230565b9192602060018192868a01518155019401920161121b565b63e278de3960e01b60005260046000fd5b631677261960e21b60005260046000fd5b34610326576080366003190112610326576024356004358115158203610326576044356001600160401b038111610326576112ce903690600401613342565b90926112d861336f565b9133600052600160205260ff60406000205416156103155733600052600560205261132360ff6040600020541685600052600960205260ff60026040600020015460b01c161461394b565b836000526009602052604060002060028101805460ff8160a81c16600d8110156102ff57610fe95760a01c60ff1660058110156102ff576004036115465761136a86613a00565b83156114295760ff85168015611418576000908152600460205260409020546001600160a01b03161561140757805460ff60b81b191660b89590951b60ff60b81b1694909417845560008051602061400983398151915293805460ff60a81b1916600560a81b1790556005600052600d602052610e7d857fa5049387d9cb649c59f4bda666105ba636c2a103d8e2b232ba4d125737cd2149613886565b63fac301e360e01b60005260046000fd5b636c1ba33960e01b60005260046000fd5b805460ff60a81b1916600360a91b17905560048101959493506001600160401b0382116106385761145e82610eeb88546134cb565b600095601f83116001146114d55761149e8380600080516020614009833981519152979899600091610f6d57508160011b916000199060031b1c19161790565b90555b6006600052600d602052610f68857fa48544818c2c710afa9849c61ec9c60e8acdb3eaa2885f33b37e118cc8fd04ac613886565b80875260208720601f19841697805b89811061152e57508460008051602061400983398151915297989910611514575b5050600183811b0190556114a1565b880135600019600386901b60f8161c191690558780611505565b9091602060018192858c0135815501930191016114e4565b63243d08b360e21b60005260046000fd5b34610326576115653661373b565b919233600052600260205261157e6040600020546134cb565b1561091e57806000526009602052604060002092600284019081549360ff8560a01c1660058110156102ff5760040361154657600d86019460ff865460081c1660038110156102ff576002036118a45760a81c60ff16600d8110156102ff57600a03611853576115ee600a613790565b9560005b8754808210156118455786611607838b61370d565b90549060031b1c1461161c57506001016115f2565b60009891929394959697981981019081116117fc576116719261165361164561166c938561370d565b90549060031b1c918461370d565b90919082549060031b91821b91600019901b1916179055565b61390c565b60405183838237602081858101600f81520301902060005b815489818310156118125750876116a0838561370d565b90549060031b1c146116b55750600101611689565b9095969760001982019182116117fc577fa25323c522b668730629025f46ec29f731ed5e7a94e4c4a2c15ffa8d94b128d2976117038461166c60409a6116538f97611645906117459a61370d565b821561178357805460ff60a81b1916600b60a81b179055600b6000908152600d602052879020611734908a90613886565b9060ff801983541691151516179055565b600b810180546001600160a01b0319163317905542600c909101558251918291819083378101600081520390209381519015158152426020820152a3005b805460ff60a81b1916600360aa1b1790556004840180546117a79061088c906134cb565b60478155600052623ab0b760e91b600160206000207f4469746f6c616b206f6c6568206b6570616c61206b656c75617267612074756a815501556117f789886000600c8152600d60205220613886565b611734565b634e487b7160e01b600052601160045260246000fd5b91505061174591507fa25323c522b668730629025f46ec29f731ed5e7a94e4c4a2c15ffa8d94b128d29697604096611703565b505090919293949550611671565b60405162461bcd60e51b815260206004820152602360248201527f53746174757320746964616b2076616c696420756e74756b206b6f6e6669726d60448201526261736960e81b6064820152608490fd5b60405162461bcd60e51b815260206004820152602160248201527f42756b616e207065726d6f686f6e616e2070696e64616820676162756e67204b6044820152604b60f81b6064820152608490fd5b346103265760403660031901126103265761190c6136f7565b6024356001600160401b0381116103265761192b903690600401613342565b6000549092906001600160a01b031633036106b1576001600160a01b03166000818152600160209081526040808320805460ff19169055600590915290205460ff16929083611ad7575b6001600160401b03821161063857611997826119926006546134cb565b6137e7565b600093601f8311600114611a48576119d58380600080516020613fe983398151915297600091611a3d57508160011b916000199060031b1c19161790565b6006555b7fc008778747a33ed2186935953768eacc55b807b5e3af2943d345b200d5fecd4960405160408152600060408201526060602082015280611a1e6060820187896138ae565b0390a3611a386040519283926020845260208401916138ae565b0390a1005b905086013588610590565b60068552601f198316947ff652222313e28459528d920b65115c16c04f3efc82aaedc97be59f3f377c0d3f90805b878110611abf575084600080516020613fe98339815191529710611aa5575b5050600183811b016006556119d9565b850135600019600386901b60f8161c191690558580611a95565b9091602060018192858a013581550193019101611a76565b83600052600460205260406000206001600160601b0360a01b8154169055806000526005602052604060002060ff198154169055611975565b3461032657611b1e36613430565b9390949160018060a01b036000541633036106b15782600052600960205260406000206002810195865460ff8160a01c1660058110156102ff57600403611fba575060ff875460a81c16600d811015806102ff576007821490818015611fad575b15611f9c576102ff5715611ef05750611b986007613790565b9660005b885480821015611ee15787611bb1838c61370d565b90549060031b1c14611bc65750600101611b9c565b6000999192939495969798991981019081116117fc57611bf09261165361164561166c938561370d565b8415611dc057805460ff60a81b1916600360a81b1790556003600052600d602052611c3b857f26b4a10d0f0b04925c23bd4480ee147c916e5e87a7d68206a533dad160ac81e2613886565b80611c8d575b50600080516020614029833981519152939495505b6007810160018060a01b0333166001600160601b0360a01b825416179055600a42910155610eb460405192839233974292856138cf565b84600052600e60205260406000206001600160401b03821161063857611cbd82611cb783546134cb565b8361384c565b6000601f8311600114611d3a57978260008051602061404983398151915292611d10828a9b9c966000805160206140298339815191529b97600091611d2f57508160011b916000199060031b1c19161790565b90555b611d246040519283924291846138f4565b0390a2859493611c41565b90508501358e610590565b8181526020812090601f198416815b818110611da857509288999a9285926000805160206140298339815191529a966000805160206140498339815191529610611d8e575b5050600182811b019055611d13565b840135600019600385901b60f8161c191690558b80611d7f565b9192602060018192868f013581550194019201611d49565b805460ff60a81b1916600160aa1b179055506004810195506001600160401b03821161063857611df482610eeb88546134cb565b600095601f8311600114611e7057611e348380600080516020614029833981519152979899600091610f6d57508160011b916000199060031b1c19161790565b90555b6004600052600d602052611e6b857fafafe8948a4ed9d478b1e9a5780b119b5edd00ea7d07bc35bef7c814824eb94b613886565b611c56565b80875260208720601f19841697805b898110611ec957508460008051602061402983398151915297989910611eaf575b5050600183811b019055611e37565b880135600019600386901b60f8161c191690558780611ea0565b9091602060018192858c013581550193019101611e7f565b50509091929394959650611bf0565b600b600098929394959697989114611f09575b50611bf0565b96959493929190611f1a600b613790565b885b815480821015611f8c5788611f31838561370d565b90549060031b1c14611f465750600101611f1c565b909192939495969798996000198201918211611f785750829161165361164561166c93611f729661370d565b88611f03565b634e487b7160e01b81526011600452602490fd5b5050509091929394959650611f72565b63656d7eb560e01b60005260046000fd5b50506000600b8314611b7f565b60a81c60ff16600d8110156102ff5760010361203757611fda6001613790565b9660005b885480821015611ee15787611ff3838c61370d565b90549060031b1c146120085750600101611fde565b6000999192939495969798991981019081116117fc576120329261165361164561166c938561370d565b611bf0565b633c78815f60e01b60005260046000fd5b346103265760603660031901126103265761206161337f565b6024356001600160a01b0381169190829003610326576044356001600160401b03811161032657612096903690600401613342565b600054919290916001600160a01b031633036106b15783156122935760ff166000818152600460205260409020549093906001600160a01b03166122825780600052600560205260ff604060002054161580612279575b15612268578360005260046020526040600020816001600160601b0360a01b82541617905580600052600560205260406000208460ff198254161790558060005260016020526040600020600160ff198254161790556001600160401b03821161063857612160826119926006546134cb565b600093601f83116001146121d95761219e8380600080516020613fe983398151915297600091611a3d57508160011b916000199060031b1c19161790565b6006555b7f8418aea3839e9ae83ed3f1125ef966aa3033c97a2c25a85e07bfe51e7e4fa41a6040516020815280611a1e6020820187896138ae565b60068552601f198316947ff652222313e28459528d920b65115c16c04f3efc82aaedc97be59f3f377c0d3f90805b878110612250575084600080516020613fe98339815191529710612236575b5050600183811b016006556121a2565b850135600019600386901b60f8161c191690558580612226565b9091602060018192858a013581550193019101612207565b6338077c8760e21b60005260046000fd5b508315156120ed565b6348745fab60e01b60005260046000fd5b639fabe1c160e01b60005260046000fd5b34610326576020366003190112610326576001600160a01b036122c56136f7565b166000526001602052602060ff604060002054166040519015158152f35b34610326576020366003190112610326576004356001600160401b038111610326576123156020913690600401613412565b8161232960405192838151938492016132fa565b600390820190815281900382019020546040516001600160a01b039091168152f35b346103265760003660031901126103265733600052600160205260ff60406000205416156103155733600052600560205260ff60406000205416600052600b602052604060002060405190816020825491828152019160005260206000209060005b8181106123c45761026685610463818703826133ab565b82548452602090930192600192830192016123ad565b3461032657602036600319011261032657600435600d811015610326576000546001600160a01b031633036106b15761241290613790565b60405190816020825491828152019160005260206000209060005b8181106124445761026685610463818703826133ab565b825484526020909301926001928301920161242d565b34610326576020366003190112610326576004356001600160401b03811161032657602061248d81923690600401613342565b91908260405193849283378101600f815203019020541515604051908152f35b34610326576040366003190112610326576124c66136f7565b6001600160a01b03166000908152600a6020526040902080546024359190821015610326576020916107009161370d565b3461032657602036600319011261032657600435600052600960205261026661035760ff60026040600020015460a81c16613a60565b346103265760003660031901126103265733600052600160205260ff60406000205416156103155733600052600560205260ff60406000205416600052600c602052604060002060405190816020825491828152019160005260206000209060005b8181106125a65761026685610463818703826133ab565b825484526020909301926001928301920161258f565b34610326576125ca36613430565b93909194929433600052600160205260ff604060002054161561031557836000526009602052604060002060028101805460ff8160a01c1660058110156102ff576004036115465760ff8160a81c16600d8110156102ff576005036129035733600052600560205260ff80604060002054169160b81c16036128f2576126506005613790565b9660005b8854808210156128e35788612669838c61370d565b90549060031b1c1461267e5750600101612654565b6000999192939495969798991981019081116117fc576126a89261165361164561166c938561370d565b84156127c55760ff600d84015460081c169060038210156102ff5760008051602061400983398151915296889260020361277757835460ff60a81b1916600560a91b17909355600a600052600d602090815261274093612728847fba9d637f252776d5e1b3534bbd7554a1265a4ef0539d9ca50abe118598a6973c613886565b8260405193849283378101600f815203019020613886565b6006810160018060a01b0333166001600160601b0360a01b825416179055600942910155610eb460405192839233974292856138cf565b5050815460ff60a81b1916600760a81b17909155506007600052600d6020526127c0857fb91432bedff11256dbe14161d3606a2657bc9dacf8742f6b817d871dd53fb976613886565b612740565b50805460ff60a81b1916600160ab1b17905560048101959493506001600160401b038211610638576127fb82610eeb88546134cb565b600095601f83116001146128725761283b8380600080516020614009833981519152979899600091610f6d57508160011b916000199060031b1c19161790565b90555b6008600052600d6020526127c0857f0b705463cf5f7356780ee6e96132d37412c1b5816a4d207b8dcd42c349767457613886565b80875260208720601f19841697805b8981106128cb575084600080516020614009833981519152979899106128b1575b5050600183811b01905561283e565b880135600019600386901b60f8161c1916905587806128a2565b9091602060018192858c013581550193019101612881565b505090919293949596506126a8565b635a6db8ab60e01b60005260046000fd5b63384bca1f60e11b60005260046000fd5b34610326576040366003190112610326576004356001600160401b03811161032657612944903690600401613412565b6024356001600160401b03811161032657612963903690600401613342565b60405183519060208501916129798183856132fa565b60039082019081528190036020019020546001600160a01b031661127e573360005260026020526129ae6040600020546134cb565b61126d5760206129c9916040518093819288519283916132fa565b60039082019081520301902080546001600160a01b03191633908117909155600090815260026020526040902083516001600160401b03811161063857612a148161118f84546134cb565b6020601f8211600114612c1f579080612a4292600091612c1457508160011b916000199060031b1c19161790565b90555b6001600160401b03811161063857612a5e6007546134cb565b601f8111612bba575b50600092601f8211600114612b1957612ab882807f262db39bd0808699e53948bb8d4427b6399e3aa80e4e5d22462b61781dab6cd796600091612b0e57508160011b916000199060031b1c19161790565b6007555b7ff681a6e5cf03ecba385f32439e3a53ca704ad8f2a8d20230aa6a3971dc2ae2186040516020815280612af43394602083019061331d565b0390a2611a386040519283926020845260208401916138ae565b905085013587610590565b60078452601f198216937fa66cc928b5edb82af9bd49922954155ab7b0942694bea4ce44661d9a8736c68890805b868110612ba25750837f262db39bd0808699e53948bb8d4427b6399e3aa80e4e5d22462b61781dab6cd79610612b88575b5050600182811b01600755612abc565b840135600019600385901b60f8161c191690558480612b78565b90916020600181928589013581550193019101612b47565b6007600052612c04907fa66cc928b5edb82af9bd49922954155ab7b0942694bea4ce44661d9a8736c688601f840160051c81019160208510612c0a575b601f0160051c01906137d0565b83612a67565b9091508190612bf7565b905086015187610590565b601f1982169083600052806000209160005b818110612c6b57509083600194939210612c52575b5050811b019055612a45565b87015160001960f88460031b161c191690558680612c46565b9192602060018192868c015181550194019201612c31565b346103265760a03660031901126103265760056004351015610326576024356001600160401b03811161032657612cbe903690600401613342565b60443560ff8116810361032657612cd361336f565b9260843592600384101561032657336000526002602052612cf86040600020546134cb565b1561091e57801561065f5760ff83166000908152600460205260409020546001600160a01b03161561140757600092600480351495866132b9575b60085494612d40866137a9565b6008555086156132b15780915b60009088156132aa5787935b60ff60405191612d688361338f565b898352426020840152336040840152612d86600435606085016137b8565b84608084015281841660a08401521660c0820152612da53687896133cc565b60e0820152612e0f602095604051612dbd88826133ab565b85815261010084015284610120840152846101408401528461016084015284610180840152846101a0840152846101c0840152846101e0840152846102008401528461022084015261024083016137c4565b8783526009855260408084208251815560208301516001820155908201516002820180546001600160a01b0319166001600160a01b0392909216919091179055606082015160058110156132965760028201805460ff60a01b191660a09290921b60ff60a01b169190911790556080820151600d8110156132965760028201805460a085015160c086015162ffffff60a81b1990921660a89490941b60ff60a81b169390931760b09390931b60ff60b01b169290921760b89290921b60ff60b81b1691909117905560e08201518051906001600160401b03821161320957612f0782612efe60038601546134cb565b6003860161384c565b8790601f831160011461322857612f36929187918361321d575b50508160011b916000199060031b1c19161790565b60038201555b6101008201518051906001600160401b03821161320957612f6d82612f6460048601546134cb565b6004860161384c565b8790601f83116001146131975782600d936102409593612fa2938a9261318c5750508160011b916000199060031b1c19161790565b60048201555b6101208401516005820180546001600160a01b039283166001600160a01b03199182161790915561014086015160068401805491841691831691909117905561016086015160078401805491841691831691909117905561018086015160088401556101a086015160098401556101c0860151600a8401556101e0860151600b84018054919093169116179055610200840151600c8201556102208401519101805460ff191691151560ff16919091178155910151600381101561317857815461ff00191660089190911b61ff0016179055338252600a84526040822089929160ff91613096908a90613886565b168152600b84526130aa8760408320613886565b808052600d84526130be8760408320613886565b5061315a575b506000951561312057916131109160607fa0b9d3ab20139b1dab107ee5e773449c3bc1cba0be29c7281e39e5623d699b9d946131036040518099613783565b87015260608601916138ae565b924260408201528033940390a380f35b93507f76091af5eb885b36d291fafffdf0282c662dd305c7a5efb5f216ce4133972fca916131109160606040519661310388600435613776565b60ff16600052600c8152613172846040600020613886565b866130c4565b634e487b7160e01b84526021600452602484fd5b015190503880612f21565b9060048401875288872091875b8a601f19861682106131f3575050926102409492600192600d9583601f198116106131da575b505050811b016004820155612fa8565b015160001960f88460031b161c191690558f80806131ca565b60018495829395850151815501940192016131a4565b634e487b7160e01b86526041600452602486fd5b015190508e80612f21565b91906003840187528887209087935b8a601f198516861061327d57506001945083601f19811610613264575b505050811b016003820155612f3c565b015160001960f88460031b161c191690558d8080613254565b8282015184559485019460019093019290910190613237565b634e487b7160e01b85526021600452602485fd5b8193612d59565b600091612d4d565b60ff811680156132eb578552600460205260408520546001600160a01b0316612d335763fac301e360e01b8552600485fd5b636c1ba33960e01b8652600486fd5b60005b83811061330d5750506000910152565b81810151838201526020016132fd565b90602091613336815180928185528580860191016132fa565b601f01601f1916010190565b9181601f84011215610326578235916001600160401b038311610326576020838186019501011161032657565b6064359060ff8216820361032657565b6004359060ff8216820361032657565b61026081019081106001600160401b0382111761063857604052565b90601f801991011681019081106001600160401b0382111761063857604052565b9291926001600160401b03821161063857604051916133f5601f8201601f1916602001846133ab565b829481845281830111610326578281602093846000960137010152565b9080601f830112156103265781602061342d933591016133cc565b90565b60806003198201126103265760043591602435801515810361032657916044356001600160401b038111610326578161346b91600401613342565b92909291606435906001600160401b0382116103265761348d91600401613342565b9091565b602060408183019282815284518094520192019060005b8181106134b55750505090565b82518452602093840193909201916001016134a8565b90600182811c921680156134fb575b60208310146134e557565b634e487b7160e01b600052602260045260246000fd5b91607f16916134da565b6040519060008260065491613519836134cb565b808352926001811690811561359f575060011461353f575b61353d925003836133ab565b565b506006600090815290917ff652222313e28459528d920b65115c16c04f3efc82aaedc97be59f3f377c0d3f5b81831061358357505090602061353d92820101613531565b602091935080600191548385890101520191019091849261356b565b6020925061353d94915060ff191682840152151560051b820101613531565b60405190600082600754916135d2836134cb565b808352926001811690811561359f57506001146135f55761353d925003836133ab565b506007600090815290917fa66cc928b5edb82af9bd49922954155ab7b0942694bea4ce44661d9a8736c6885b81831061363957505090602061353d92820101613531565b6020919350806001915483858901015201910190918492613621565b9060405191826000825492613669846134cb565b80845293600181169081156136d5575060011461368e575b5061353d925003836133ab565b90506000929192526020600020906000915b8183106136b957505090602061353d9282010138613681565b60209193508060019154838589010152019101909184926136a0565b90506020925061353d94915060ff191682840152151560051b82010138613681565b600435906001600160a01b038216820361032657565b80548210156137255760005260206000200190600090565b634e487b7160e01b600052603260045260246000fd5b6060600319820112610326576004359160243580151581036103265791604435906001600160401b0382116103265761348d91600401613342565b9060058210156102ff5752565b9060038210156102ff5752565b600d8110156102ff57600052600d602052604060002090565b60001981146117fc5760010190565b60058210156102ff5752565b60038210156102ff5752565b8181106137db575050565b600081556001016137d0565b90601f82116137f4575050565b61353d9160066000526020600020906020601f840160051c83019310612c0a57601f0160051c01906137d0565b90601f811161382e575050565b61353d916000526002601f6020600020920160051c820191016137d0565b9190601f811161385b57505050565b61353d926000526020600020906020601f840160051c83019310612c0a57601f0160051c01906137d0565b9081549168010000000000000000831015610638578261165391600161353d9501815561370d565b908060209392818452848401376000828201840152601f01601f1916010190565b949392916040926138ef92151587526060602088015260608701916138ae565b930152565b9392916020916138ef916040875260408701916138ae565b80548015613935576000190190613923828261370d565b8154906000199060031b1b1916905555565b634e487b7160e01b600052603160045260246000fd5b1561395257565b60405162461bcd60e51b8152602060048201526024808201527f48616e7961206b616c75726168616e206173616c2079616e672062657277656e604482015263616e672160e01b6064820152608490fd5b6001600160401b0381116106385760051b60200190565b906139c4826139a3565b6139d160405191826133ab565b82815280926139e2601f19916139a3565b0190602036910137565b80518210156137255760209160051b010190565b613a0a6000613790565b60005b815480821015613a5a5783613a22838561370d565b90549060031b1c14613a375750600101613a0d565b90925060001981019081116117fc5761353d9261165361164561166c938561370d565b50505050565b600d8110156102ff578015613da657600060018214613d72575060028114613d4257600060038214613d0f575060048114613ce057600060058214613ca2575060068114613c6d57600060078214613c2f575060088114613bf357600060098214613bb55750600a8114613b7957600090600b8114613b4357600c915014613b1457604051613af06040826133ab565b601481527314dd185d1d5cc8151a59185ac8111a5ad95b985b60621b602082015290565b604051613b226040826133ab565b60118152702234ba37b630b59025a5902a3ab53ab0b760791b602082015290565b5050604051613b536040826133ab565b60168152752234b5b7b73334b936b0b9b49025a5902a3ab53ab0b760511b602082015290565b50604051613b886040826133ab565b601d81527f4d656e756e676775204b6f6e6669726d617369204b4b2054756a75616e000000602082015290565b50506040805190613bc690826133ab565b601781527f4469626174616c6b616e206f6c65682050656d6f686f6e000000000000000000602082015290565b50604051613c026040826133ab565b601881527f4469746f6c616b204b616c75726168616e2054756a75616e0000000000000000602082015290565b50506040805190613c4090826133ab565b601a81527f4469736574756a7569204b616c75726168616e2054756a75616e000000000000602082015290565b50604051613c7c6040826133ab565b6016815275111a5d1bdb185ac812d85b1d5c985a185b88105cd85b60521b602082015290565b50506040805190613cb390826133ab565b601881527f4469736574756a7569204b616c75726168616e204173616c0000000000000000602082015290565b50604051613cef6040826133ab565b601081526f111a5d1bdb185ac8111d5ad8d85c1a5b60821b602082015290565b50506040805190613d2090826133ab565b6012815271111a5cd95d1d5a9d5a48111d5ad8d85c1a5b60721b602082015290565b50604051613d516040826133ab565b60118152702234ba37b630b59025b0b63ab930b430b760791b602082015290565b50506040805190613d8390826133ab565b60138152722234b9b2ba3ab53ab49025b0b63ab930b430b760691b602082015290565b50604051613db56040826133ab565b60088152672234b0b53ab5b0b760c11b602082015290565b60058110156102ff578015613eca57600060018214613ea1575060028114613e7d5760009060038114613e58576004915014613e3457604051613e116040826133ab565b601381527212995b9a5cc8151a59185ac8111a5ad95b985b606a1b602082015290565b604051613e426040826133ab565b60068152650a0d2dcc8c2d60d31b602082015290565b5050604051613e686040826133ab565b6005815264436572616960d81b602082015290565b50604051613e8c6040826133ab565b600581526425b0bbb4b760d91b602082015290565b50506040805190613eb290826133ab565b600881526725b2b6b0ba34b0b760c11b602082015290565b50604051613ed96040826133ab565b600981526825b2b630b434b930b760b91b602082015290565b60038110156102ff578015613fac5760009060018114613f7e576002915014613f5057604051613f236040826133ab565b601a81527f4a656e69732050696e64616820546964616b2044696b656e616c000000000000602082015290565b604051613f5e6040826133ab565b601081526f50696e64616820476162756e67204b4b60801b602082015290565b5050604051613f8e6040826133ab565b600e81526d50696e646168204d616e6469726960901b602082015290565b50604051613fbb6040826133ab565b601781527f50696e6461682053656c75727568204b656c756172676100000000000000000060208201529056fe05b7d468eb456c6bffbac7ac5f22f68ca5ce358ae4551017aeb9e69bf8fa11eeb464c40b6330ada9cbaedc9b928b83d905cd3051349abb7332ae44607384da596b79a244eb3993d9a079f4708e9832062b305d6080c8372aac9c82d882a9557b75c675465e0858e943fd2e773390edaac64e2ee57918f3f49a20e198c1a54425a2646970667358221220c429b31a5813b859c404c900a12fe67568e5eedc0222f8c509392df32b07ac4a64736f6c634300081c0033",
  "linkReferences": {},
  "deployedLinkReferences": {}
}