{
  "_format": "hh-sol-artifact-1",
  "contractName": "PencatatanSipil",
  "sourceName": "contracts/PencatatanSipil.sol",
  "abi": [
    {
      "inputs": [
        {
          "internalType": "string",
          "name": "_initialNikMappingCID",
          "type": "string"
        }
      ],
      "stateMutability": "nonpayable",
      "type": "constructor"
    },
    {
      "inputs": [],
      "name": "AddressSudahDipakai",
      "type": "error"
    },
    {
      "inputs": [],
      "name": "AddressZero",
      "type": "error"
    },
    {
      "inputs": [],
      "name": "AksesDitolak",
      "type": "error"
    },
    {
      "inputs": [],
      "name": "BelumAdaDokumenResmi",
      "type": "error"
    },
    {
      "inputs": [],
      "name": "BelumDiverifikasiKalurahanAsal",
      "type": "error"
    },
    {
      "inputs": [],
      "name": "BukanPemilikPermohonan",
      "type": "error"
    },
    {
      "inputs": [],
      "name": "BukanPermohonanPindah",
      "type": "error"
    },
    {
      "inputs": [],
      "name": "CidKosong",
      "type": "error"
    },
    {
      "inputs": [],
      "name": "DokumenResmiSudahAda",
      "type": "error"
    },
    {
      "inputs": [],
      "name": "HanyaKalurahanTujuan",
      "type": "error"
    },
    {
      "inputs": [],
      "name": "IdKalurahanTujuanTidakDikenal",
      "type": "error"
    },
    {
      "inputs": [],
      "name": "IdSudahDipakai",
      "type": "error"
    },
    {
      "inputs": [],
      "name": "NikSudahDiklaim",
      "type": "error"
    },
    {
      "inputs": [],
      "name": "OnlyDukcapil",
      "type": "error"
    },
    {
      "inputs": [],
      "name": "OnlyKalurahan",
      "type": "error"
    },
    {
      "inputs": [],
      "name": "OnlyWargaTerdaftar",
      "type": "error"
    },
    {
      "inputs": [],
      "name": "PermohonanBelumDisetujuiKalurahan",
      "type": "error"
    },
    {
      "inputs": [],
      "name": "PermohonanBukanDiajukan",
      "type": "error"
    },
    {
      "inputs": [],
      "name": "PermohonanPindahBelumDisetujuiKalurahanTujuan",
      "type": "error"
    },
    {
      "inputs": [],
      "name": "StatusTidakValidUntukUploadDokumen",
      "type": "error"
    },
    {
      "inputs": [],
      "name": "TidakDapatDibatalkan",
      "type": "error"
    },
    {
      "inputs": [],
      "name": "TujuanTidakValid",
      "type": "error"
    },
    {
      "inputs": [],
      "name": "WalletSudahDigunakan",
      "type": "error"
    },
    {
      "anonymous": false,
      "inputs": [
        {
          "indexed": true,
          "internalType": "uint256",
          "name": "idPermohonan",
          "type": "uint256"
        },
        {
          "indexed": false,
          "internalType": "string",
          "name": "cidDokumen",
          "type": "string"
        },
        {
          "indexed": false,
          "internalType": "uint256",
          "name": "waktu",
          "type": "uint256"
        }
      ],
      "name": "DokumenResmiDiunggah",
      "type": "event"
    },
    {
      "anonymous": false,
      "inputs": [
        {
          "indexed": true,
          "internalType": "uint8",
          "name": "id",
          "type": "uint8"
        },
        {
          "indexed": true,
          "internalType": "address",
          "name": "akun",
          "type": "address"
        },
        {
          "indexed": false,
          "internalType": "string",
          "name": "newMappingCID",
          "type": "string"
        }
      ],
      "name": "KalurahanAdded",
      "type": "event"
    },
    {
      "anonymous": false,
      "inputs": [
        {
          "indexed": false,
          "internalType": "string",
          "name": "newCID",
          "type": "string"
        }
      ],
      "name": "KalurahanMappingCIDUpdated",
      "type": "event"
    },
    {
      "anonymous": false,
      "inputs": [
        {
          "indexed": true,
          "internalType": "uint8",
          "name": "id",
          "type": "uint8"
        },
        {
          "indexed": true,
          "internalType": "address",
          "name": "akun",
          "type": "address"
        },
        {
          "indexed": false,
          "internalType": "string",
          "name": "nama",
          "type": "string"
        },
        {
          "indexed": false,
          "internalType": "string",
          "name": "newMappingCID",
          "type": "string"
        }
      ],
      "name": "KalurahanRemoved",
      "type": "event"
    },
    {
      "anonymous": false,
      "inputs": [
        {
          "indexed": true,
          "internalType": "uint256",
          "name": "idPermohonan",
          "type": "uint256"
        },
        {
          "indexed": true,
          "internalType": "bytes32",
          "name": "nikKepalaKeluargaTujuanHash",
          "type": "bytes32"
        },
        {
          "indexed": false,
          "internalType": "bool",
          "name": "disetujui",
          "type": "bool"
        },
        {
          "indexed": false,
          "internalType": "uint256",
          "name": "waktu",
          "type": "uint256"
        }
      ],
      "name": "KonfirmasiKKTujuan",
      "type": "event"
    },
    {
      "anonymous": false,
      "inputs": [
        {
          "indexed": false,
          "internalType": "string",
          "name": "newCID",
          "type": "string"
        }
      ],
      "name": "NikMappingCIDUpdated",
      "type": "event"
    },
    {
      "anonymous": false,
      "inputs": [
        {
          "indexed": true,
          "internalType": "uint256",
          "name": "id",
          "type": "uint256"
        },
        {
          "indexed": true,
          "internalType": "address",
          "name": "pemohon",
          "type": "address"
        },
        {
          "indexed": false,
          "internalType": "enum PencatatanTypes.JenisPermohonan",
          "name": "jenis",
          "type": "uint8"
        },
        {
          "indexed": false,
          "internalType": "string",
          "name": "cidIPFS",
          "type": "string"
        },
        {
          "indexed": false,
          "internalType": "uint256",
          "name": "waktu",
          "type": "uint256"
        }
      ],
      "name": "PermohonanDiajukan",
      "type": "event"
    },
    {
      "anonymous": false,
      "inputs": [
        {
          "indexed": true,
          "internalType": "uint256",
          "name": "id",
          "type": "uint256"
        },
        {
          "indexed": true,
          "internalType": "address",
          "name": "pemohon",
          "type": "address"
        },
        {
          "indexed": false,
          "internalType": "uint256",
          "name": "waktu",
          "type": "uint256"
        }
      ],
      "name": "PermohonanDibatalkan",
      "type": "event"
    },
    {
      "anonymous": false,
      "inputs": [
        {
          "indexed": true,
          "internalType": "uint256",
          "name": "id",
          "type": "uint256"
        },
        {
          "indexed": true,
          "internalType": "address",
          "name": "pemohon",
          "type": "address"
        },
        {
          "indexed": false,
          "internalType": "enum PencatatanTypes.JenisPindah",
          "name": "jenisPindah",
          "type": "uint8"
        },
        {
          "indexed": false,
          "internalType": "string",
          "name": "cidIPFS",
          "type": "string"
        },
        {
          "indexed": false,
          "internalType": "uint256",
          "name": "waktu",
          "type": "uint256"
        }
      ],
      "name": "PermohonanPindahDiajukan",
      "type": "event"
    },
    {
      "anonymous": false,
      "inputs": [
        {
          "indexed": true,
          "internalType": "uint256",
          "name": "id",
          "type": "uint256"
        },
        {
          "indexed": true,
          "internalType": "address",
          "name": "verifikator",
          "type": "address"
        },
        {
          "indexed": false,
          "internalType": "bool",
          "name": "disetujui",
          "type": "bool"
        },
        {
          "indexed": false,
          "internalType": "string",
          "name": "alasan",
          "type": "string"
        },
        {
          "indexed": false,
          "internalType": "uint256",
          "name": "waktu",
          "type": "uint256"
        }
      ],
      "name": "VerifikasiDukcapil",
      "type": "event"
    },
    {
      "anonymous": false,
      "inputs": [
        {
          "indexed": true,
          "internalType": "uint256",
          "name": "id",
          "type": "uint256"
        },
        {
          "indexed": true,
          "internalType": "address",
          "name": "verifikator",
          "type": "address"
        },
        {
          "indexed": false,
          "internalType": "bool",
          "name": "disetujui",
          "type": "bool"
        },
        {
          "indexed": false,
          "internalType": "string",
          "name": "alasan",
          "type": "string"
        },
        {
          "indexed": false,
          "internalType": "uint256",
          "name": "waktu",
          "type": "uint256"
        }
      ],
      "name": "VerifikasiKalurahan",
      "type": "event"
    },
    {
      "anonymous": false,
      "inputs": [
        {
          "indexed": true,
          "internalType": "address",
          "name": "wallet",
          "type": "address"
        },
        {
          "indexed": false,
          "internalType": "string",
          "name": "nik",
          "type": "string"
        }
      ],
      "name": "WargaTerdaftar",
      "type": "event"
    },
    {
      "inputs": [
        {
          "internalType": "bytes32",
          "name": "_nikKepalaKeluargaHash",
          "type": "bytes32"
        }
      ],
      "name": "adaPermohonanMenungguKonfirmasi",
      "outputs": [
        {
          "internalType": "bool",
          "name": "",
          "type": "bool"
        }
      ],
      "stateMutability": "view",
      "type": "function"
    },
    {
      "inputs": [
        {
          "internalType": "uint8",
          "name": "",
          "type": "uint8"
        }
      ],
      "name": "addressKalurahanById",
      "outputs": [
        {
          "internalType": "address",
          "name": "",
          "type": "address"
        }
      ],
      "stateMutability": "view",
      "type": "function"
    },
    {
      "inputs": [
        {
          "internalType": "uint256",
          "name": "_id",
          "type": "uint256"
        }
      ],
      "name": "batalkanPermohonan",
      "outputs": [],
      "stateMutability": "nonpayable",
      "type": "function"
    },
    {
      "inputs": [
        {
          "internalType": "uint256",
          "name": "",
          "type": "uint256"
        }
      ],
      "name": "cidDokumenResmi",
      "outputs": [
        {
          "internalType": "string",
          "name": "",
          "type": "string"
        }
      ],
      "stateMutability": "view",
      "type": "function"
    },
    {
      "inputs": [
        {
          "internalType": "uint8",
          "name": "",
          "type": "uint8"
        },
        {
          "internalType": "uint256",
          "name": "",
          "type": "uint256"
        }
      ],
      "name": "daftarPermohonanKalurahanAsal",
      "outputs": [
        {
          "internalType": "uint256",
          "name": "",
          "type": "uint256"
        }
      ],
      "stateMutability": "view",
      "type": "function"
    },
    {
      "inputs": [
        {
          "internalType": "address",
          "name": "",
          "type": "address"
        },
        {
          "internalType": "uint256",
          "name": "",
          "type": "uint256"
        }
      ],
      "name": "daftarPermohonanPemohon",
      "outputs": [
        {
          "internalType": "uint256",
          "name": "",
          "type": "uint256"
        }
      ],
      "stateMutability": "view",
      "type": "function"
    },
    {
      "inputs": [
        {
          "internalType": "enum PencatatanTypes.Status",
          "name": "",
          "type": "uint8"
        },
        {
          "internalType": "uint256",
          "name": "",
          "type": "uint256"
        }
      ],
      "name": "daftarPermohonanPerStatus",
      "outputs": [
        {
          "internalType": "uint256",
          "name": "",
          "type": "uint256"
        }
      ],
      "stateMutability": "view",
      "type": "function"
    },
    {
      "inputs": [],
      "name": "dukcapil",
      "outputs": [
        {
          "internalType": "address",
          "name": "",
          "type": "address"
        }
      ],
      "stateMutability": "view",
      "type": "function"
    },
    {
      "inputs": [
        {
          "internalType": "uint256",
          "name": "_id",
          "type": "uint256"
        }
      ],
      "name": "getDokumenResmi",
      "outputs": [
        {
          "internalType": "string",
          "name": "",
          "type": "string"
        }
      ],
      "stateMutability": "view",
      "type": "function"
    },
    {
      "inputs": [
        {
          "internalType": "uint256",
          "name": "_id",
          "type": "uint256"
        }
      ],
      "name": "getJenisPermohonan",
      "outputs": [
        {
          "internalType": "string",
          "name": "",
          "type": "string"
        }
      ],
      "stateMutability": "view",
      "type": "function"
    },
    {
      "inputs": [
        {
          "internalType": "uint256",
          "name": "_id",
          "type": "uint256"
        }
      ],
      "name": "getJenisPindah",
      "outputs": [
        {
          "internalType": "string",
          "name": "",
          "type": "string"
        }
      ],
      "stateMutability": "view",
      "type": "function"
    },
    {
      "inputs": [],
      "name": "getKalurahanMappingCID",
      "outputs": [
        {
          "internalType": "string",
          "name": "",
          "type": "string"
        }
      ],
      "stateMutability": "view",
      "type": "function"
    },
    {
      "inputs": [],
      "name": "getNikMappingCID",
      "outputs": [
        {
          "internalType": "string",
          "name": "",
          "type": "string"
        }
      ],
      "stateMutability": "view",
      "type": "function"
    },
    {
      "inputs": [
        {
          "internalType": "uint256",
          "name": "_id",
          "type": "uint256"
        }
      ],
      "name": "getPermohonan",
      "outputs": [
        {
          "components": [
            {
              "internalType": "uint256",
              "name": "id",
              "type": "uint256"
            },
            {
              "internalType": "uint256",
              "name": "waktuPengajuan",
              "type": "uint256"
            },
            {
              "internalType": "address",
              "name": "pemohon",
              "type": "address"
            },
            {
              "internalType": "enum PencatatanTypes.JenisPermohonan",
              "name": "jenis",
              "type": "uint8"
            },
            {
              "internalType": "enum PencatatanTypes.Status",
              "name": "status",
              "type": "uint8"
            },
            {
              "internalType": "uint8",
              "name": "idKalurahanAsal",
              "type": "uint8"
            },
            {
              "internalType": "uint8",
              "name": "idKalurahanTujuan",
              "type": "uint8"
            },
            {
              "internalType": "string",
              "name": "cidIPFS",
              "type": "string"
            },
            {
              "internalType": "string",
              "name": "alasanPenolakan",
              "type": "string"
            },
            {
              "internalType": "address",
              "name": "verifikatorKalurahan",
              "type": "address"
            },
            {
              "internalType": "address",
              "name": "verifikatorKalurahanTujuan",
              "type": "address"
            },
            {
              "internalType": "address",
              "name": "verifikatorDukcapil",
              "type": "address"
            },
            {
              "internalType": "uint256",
              "name": "waktuVerifikasiKalurahan",
              "type": "uint256"
            },
            {
              "internalType": "uint256",
              "name": "waktuVerifikasiKalurahanTujuan",
              "type": "uint256"
            },
            {
              "internalType": "uint256",
              "name": "waktuVerifikasiDukcapil",
              "type": "uint256"
            },
            {
              "internalType": "address",
              "name": "konfirmatorKKTujuan",
              "type": "address"
            },
            {
              "internalType": "uint256",
              "name": "waktuKonfirmasiKKTujuan",
              "type": "uint256"
            },
            {
              "internalType": "bool",
              "name": "konfirmasiKKTujuan",
              "type": "bool"
            },
            {
              "internalType": "enum PencatatanTypes.JenisPindah",
              "name": "jenisPindah",
              "type": "uint8"
            }
          ],
          "internalType": "struct PencatatanTypes.Permohonan",
          "name": "",
          "type": "tuple"
        }
      ],
      "stateMutability": "view",
      "type": "function"
    },
    {
      "inputs": [
        {
          "internalType": "enum PencatatanTypes.Status",
          "name": "_status",
          "type": "uint8"
        }
      ],
      "name": "getPermohonanBelumVerifikasiKalurahan",
      "outputs": [
        {
          "internalType": "uint256[]",
          "name": "",
          "type": "uint256[]"
        }
      ],
      "stateMutability": "view",
      "type": "function"
    },
    {
      "inputs": [],
      "name": "getPermohonanByKalurahanAsal",
      "outputs": [
        {
          "internalType": "uint256[]",
          "name": "",
          "type": "uint256[]"
        }
      ],
      "stateMutability": "view",
      "type": "function"
    },
    {
      "inputs": [],
      "name": "getPermohonanByKalurahanTujuan",
      "outputs": [
        {
          "internalType": "uint256[]",
          "name": "",
          "type": "uint256[]"
        }
      ],
      "stateMutability": "view",
      "type": "function"
    },
    {
      "inputs": [
        {
          "internalType": "enum PencatatanTypes.Status",
          "name": "_status",
          "type": "uint8"
        }
      ],
      "name": "getPermohonanForDukcapil",
      "outputs": [
        {
          "internalType": "uint256[]",
          "name": "",
          "type": "uint256[]"
        }
      ],
      "stateMutability": "view",
      "type": "function"
    },
    {
      "inputs": [
        {
          "internalType": "address",
          "name": "_pemohon",
          "type": "address"
        }
      ],
      "name": "getPermohonanIDsByPemohon",
      "outputs": [
        {
          "internalType": "uint256[]",
          "name": "",
          "type": "uint256[]"
        }
      ],
      "stateMutability": "view",
      "type": "function"
    },
    {
      "inputs": [
        {
          "internalType": "bytes32",
          "name": "_nikKepalaKeluargaHash",
          "type": "bytes32"
        }
      ],
      "name": "getPermohonanMenungguKonfirmasiKK",
      "outputs": [
        {
          "internalType": "uint256[]",
          "name": "",
          "type": "uint256[]"
        }
      ],
      "stateMutability": "view",
      "type": "function"
    },
    {
      "inputs": [],
      "name": "getPermohonanSiapVerifikasiKalurahanAsal",
      "outputs": [
        {
          "internalType": "uint256[]",
          "name": "",
          "type": "uint256[]"
        }
      ],
      "stateMutability": "view",
      "type": "function"
    },
    {
      "inputs": [
        {
          "internalType": "uint256",
          "name": "_id",
          "type": "uint256"
        }
      ],
      "name": "getStatusPermohonan",
      "outputs": [
        {
          "internalType": "string",
          "name": "",
          "type": "string"
        }
      ],
      "stateMutability": "view",
      "type": "function"
    },
    {
      "inputs": [
        {
          "internalType": "address",
          "name": "_akun",
          "type": "address"
        },
        {
          "internalType": "string",
          "name": "_newMappingCID",
          "type": "string"
        }
      ],
      "name": "hapusKalurahan",
      "outputs": [],
      "stateMutability": "nonpayable",
      "type": "function"
    },
    {
      "inputs": [
        {
          "internalType": "address",
          "name": "",
          "type": "address"
        }
      ],
      "name": "idKalurahanByAddress",
      "outputs": [
        {
          "internalType": "uint8",
          "name": "",
          "type": "uint8"
        }
      ],
      "stateMutability": "view",
      "type": "function"
    },
    {
      "inputs": [],
      "name": "jumlahPermohonan",
      "outputs": [
        {
          "internalType": "uint256",
          "name": "",
          "type": "uint256"
        }
      ],
      "stateMutability": "view",
      "type": "function"
    },
    {
      "inputs": [
        {
          "internalType": "address",
          "name": "",
          "type": "address"
        }
      ],
      "name": "kalurahan",
      "outputs": [
        {
          "internalType": "bool",
          "name": "",
          "type": "bool"
        }
      ],
      "stateMutability": "view",
      "type": "function"
    },
    {
      "inputs": [],
      "name": "kalurahanMappingCID",
      "outputs": [
        {
          "internalType": "string",
          "name": "",
          "type": "string"
        }
      ],
      "stateMutability": "view",
      "type": "function"
    },
    {
      "inputs": [
        {
          "internalType": "uint256",
          "name": "_id",
          "type": "uint256"
        },
        {
          "internalType": "bool",
          "name": "_disetujui",
          "type": "bool"
        },
        {
          "internalType": "bytes32",
          "name": "_nikKepalaKeluargaTujuanHash",
          "type": "bytes32"
        }
      ],
      "name": "konfirmasiPindahGabungKK",
      "outputs": [],
      "stateMutability": "nonpayable",
      "type": "function"
    },
    {
      "inputs": [
        {
          "internalType": "address",
          "name": "",
          "type": "address"
        }
      ],
      "name": "nikByWallet",
      "outputs": [
        {
          "internalType": "string",
          "name": "",
          "type": "string"
        }
      ],
      "stateMutability": "view",
      "type": "function"
    },
    {
      "inputs": [],
      "name": "nikMappingCID",
      "outputs": [
        {
          "internalType": "string",
          "name": "",
          "type": "string"
        }
      ],
      "stateMutability": "view",
      "type": "function"
    },
    {
      "inputs": [
        {
          "internalType": "bytes32",
          "name": "",
          "type": "bytes32"
        },
        {
          "internalType": "uint256",
          "name": "",
          "type": "uint256"
        }
      ],
      "name": "permohonanMenungguKonfirmasiKK",
      "outputs": [
        {
          "internalType": "uint256",
          "name": "",
          "type": "uint256"
        }
      ],
      "stateMutability": "view",
      "type": "function"
    },
    {
      "inputs": [
        {
          "internalType": "string",
          "name": "_nik",
          "type": "string"
        }
      ],
      "name": "registerWarga",
      "outputs": [],
      "stateMutability": "nonpayable",
      "type": "function"
    },
    {
      "inputs": [
        {
          "internalType": "string",
          "name": "_nik",
          "type": "string"
        },
        {
          "internalType": "string",
          "name": "_mappingCID",
          "type": "string"
        }
      ],
      "name": "registerWargaAndUpdateMapping",
      "outputs": [],
      "stateMutability": "nonpayable",
      "type": "function"
    },
    {
      "inputs": [
        {
          "internalType": "enum PencatatanTypes.JenisPermohonan",
          "name": "_jenis",
          "type": "uint8"
        },
        {
          "internalType": "string",
          "name": "_cidIPFS",
          "type": "string"
        },
        {
          "internalType": "uint8",
          "name": "_idKalurahanAsal",
          "type": "uint8"
        },
        {
          "internalType": "uint8",
          "name": "_idKalurahanTujuan",
          "type": "uint8"
        },
        {
          "internalType": "enum PencatatanTypes.JenisPindah",
          "name": "_jenisPindah",
          "type": "uint8"
        },
        {
          "internalType": "bytes32",
          "name": "_nikKepalaKeluargaTujuanHash",
          "type": "bytes32"
        }
      ],
      "name": "submitPermohonan",
      "outputs": [],
      "stateMutability": "nonpayable",
      "type": "function"
    },
    {
      "inputs": [
        {
          "internalType": "uint8",
          "name": "_id",
          "type": "uint8"
        },
        {
          "internalType": "address",
          "name": "_akun",
          "type": "address"
        },
        {
          "internalType": "string",
          "name": "_newMappingCID",
          "type": "string"
        }
      ],
      "name": "tambahKalurahanById",
      "outputs": [],
      "stateMutability": "nonpayable",
      "type": "function"
    },
    {
      "inputs": [
        {
          "internalType": "uint256",
          "name": "_id",
          "type": "uint256"
        },
        {
          "internalType": "string",
          "name": "_cidDokumen",
          "type": "string"
        }
      ],
      "name": "unggahDokumenResmi",
      "outputs": [],
      "stateMutability": "nonpayable",
      "type": "function"
    },
    {
      "inputs": [
        {
          "internalType": "uint256",
          "name": "_id",
          "type": "uint256"
        },
        {
          "internalType": "bool",
          "name": "_disetujui",
          "type": "bool"
        },
        {
          "internalType": "string",
          "name": "_alasan",
          "type": "string"
        },
        {
          "internalType": "string",
          "name": "_cidDokumen",
          "type": "string"
        }
      ],
      "name": "verifikasiDukcapil",
      "outputs": [],
      "stateMutability": "nonpayable",
      "type": "function"
    },
    {
      "inputs": [
        {
          "internalType": "uint256",
          "name": "_id",
          "type": "uint256"
        },
        {
          "internalType": "bool",
          "name": "_disetujui",
          "type": "bool"
        },
        {
          "internalType": "string",
          "name": "_alasan",
          "type": "string"
        }
      ],
      "name": "verifikasiKalurahan",
      "outputs": [],
      "stateMutability": "nonpayable",
      "type": "function"
    },
    {
      "inputs": [
        {
          "internalType": "uint256",
          "name": "_id",
          "type": "uint256"
        },
        {
          "internalType": "bool",
          "name": "_disetujui",
          "type": "bool"
        },
        {
          "internalType": "string",
          "name": "_alasan",
          "type": "string"
        },
        {
          "internalType": "uint8",
          "name": "_idKalurahanTujuan",
          "type": "uint8"
        }
      ],
      "name": "verifikasiKalurahanAsalPindah",
      "outputs": [],
      "stateMutability": "nonpayable",
      "type": "function"
    },
    {
      "inputs": [
        {
          "internalType": "uint256",
          "name": "_id",
          "type": "uint256"
        },
        {
          "internalType": "bool",
          "name": "_disetujui",
          "type": "bool"
        },
        {
          "internalType": "string",
          "name": "_alasan",
          "type": "string"
        }
      ],
      "name": "verifikasiKalurahanTujuanPindah",
      "outputs": [],
      "stateMutability": "nonpayable",
      "type": "function"
    },
    {
      "inputs": [
        {
          "internalType": "string",
          "name": "",
          "type": "string"
        }
      ],
      "name": "walletByNik",
      "outputs": [
        {
          "internalType": "address",
          "name": "",
          "type": "address"
        }
      ],
      "stateMutability": "view",
      "type": "function"
    }
  ],
  "bytecode": "0x608060405234610231576144f28038038061001981610236565b928339810190602081830312610231578051906001600160401b038211610231570181601f82011215610231578051906001600160401b0382116102065761006a601f8301601f1916602001610236565b92828452602083830101116102315760005b82811061021c57600083850160200181905280546001600160a01b03191633179055835184906001600160401b03811161020657600754600181811c911680156101fc575b60208210146101e657601f8111610181575b50602091601f821160011461011d57918192600092610112575b50508160011b916000199060031b1c1916176007555b604051614296908161025c8239f35b0151905082806100ed565b601f198216926007600052806000209160005b85811061016957508360019510610150575b505050811b01600755610103565b015160001960f88460031b161c19169055828080610142565b91926020600181928685015181550194019201610130565b60076000527fa66cc928b5edb82af9bd49922954155ab7b0942694bea4ce44661d9a8736c688601f830160051c810191602084106101dc575b601f0160051c01905b8181106101d057506100d3565b600081556001016101c3565b90915081906101ba565b634e487b7160e01b600052602260045260246000fd5b90607f16906100c1565b634e487b7160e01b600052604160045260246000fd5b8060208092840101518282870101520161007c565b600080fd5b6040519190601f01601f191682016001600160401b038111838210176102065760405256fe6080604052600436101561001257600080fd5b60003560e01c8063080b5c41146134915780630bfa49df14610376578063219d541f146131225780632bbe04a6146130935780632d7c56431461305d5780634635e378146103b05780634835980e14612ff45780634bef492314612faa5780634ea609a314612cde5780634ec6202214612c5e5780634f5414c714612bcf57806350952c1414612b675780635b2a3282146123e057806364348523146123a157806364c4f113146121455780636c89cf8c14611c4e57806370ec4e0614611a3157806372e4e7a014611a035780637dc40b6e146116da5780637ec410f814611354578063825e827a14611173578063835b1ece146110f057806389b41262146110b35780639d4a525714610f39578063a1468b3d14610cd1578063a439ef0614610c9b578063a48bff9214610c5f578063a7014a0c14610958578063aa02000714610922578063ab0680c1146108e0578063acbb35cf1461075e578063b4750ad3146106b9578063b48da9b91461067f578063be50586f14610632578063c76681d6146103f5578063d4c0418b146103cc578063e1140b0d146103b0578063ea69c80214610392578063eae3073214610376578063f908a8ff146103365763fea8abac146101df57600080fd5b3461033157602036600319011261033157600435600d81101590816103315733600052600160205260ff60406000205416156103205733600052600560205260ff60406000205416600052600b602052604060002090815461024081613b44565b93600093845b83811061029457868661025881613b44565b9160005b8281106102755760405180610271868261360a565b0390f35b8061028260019284613b76565b5161028d8287613b76565b520161025c565b61029e81836134c6565b90549060031b1c60005260096020528260ff60026040600020015460a81c169061030a57600d81101561030a5785146102da575b600101610246565b946103026001916102eb88856134c6565b90549060031b1c6102fc828b613b76565b52613a4b565b9590506102d2565b634e487b7160e01b600052602160045260246000fd5b631902707f60e31b60005260046000fd5b600080fd5b3461033157602036600319011261033157600435600052600e60205261027161036260406000206137ce565b604051918291602083526020830190613517565b346103315760003660031901126103315761027161036261367e565b34610331576000366003190112610331576020600854604051908152f35b3461033157600036600319011261033157610271610362613737565b34610331576000366003190112610331576000546040516001600160a01b039091168152602090f35b34610331576040366003190112610331576004356024356001600160401b038111610331576104289036906004016135dd565b600054909291906001600160a01b031633036106215781600052600960205260ff60026040600020015460a81c16600d811015908161030a5760038114918215610613575b8215610602575b82156105f1575b5050156105e05782156105cf5781600052600e60205261049f604060002054613644565b6105be5781600052600e6020526040600020926001600160401b0381116105a8576104d4816104ce8654613644565b866139a3565b600093601f8211600114610538576105148280600080516020614241833981519152969760009161052d575b508160011b916000199060031b1c19161790565b90555b610528604051928392429184613a7e565b0390a2005b905085013588610500565b80855260208520601f19831695805b878110610590575083600080516020614241833981519152969710610576575b5050600182811b019055610517565b840135600019600385901b60f8161c191690558580610567565b90916020600181928589013581550193019101610547565b634e487b7160e01b600052604160045260246000fd5b6317ef2a1d60e31b60005260046000fd5b630f4cd64160e41b60005260046000fd5b63291bd15960e11b60005260046000fd5b90915061030a57600b14848061047b565b80925061030a576001811491610474565b50600781149150600061046d565b632897e6d360e21b60005260046000fd5b3461033157604036600319011261033157600435600d8110156103315761065b6024359161390e565b805482101561033157602091610670916134c6565b90549060031b1c604051908152f35b34610331576020366003190112610331576001600160a01b036106a0613870565b16600052600260205261027161036260406000206137ce565b34610331576020366003190112610331576004356000818152600960209081526040808320600201548354600e909352922054336001600160a01b0392831614929091169061070790613644565b1561074d573314908115610745575b501561073457600052600e60205261027161036260406000206137ce565b6370436def60e11b60005260046000fd5b905082610716565b63c31a6dc560e01b60005260046000fd5b3461033157602036600319011261033157600435336000526002602052610789604060002054613644565b156108cf57600081815260096020526040902060028101805491929091336001600160a01b038216036108be5760a81c60ff16600d8110158061030a578115908180156108b1575b156108a05761030a571561088357506107e990613f8e565b805460ff60a81b1916600960a81b1790554260088201556004810180546108199061081390613644565b82613978565b604781556000526237b71760e91b600160206000207f5065726d6f686f6e616e206469626174616c6b616e206f6c65682070656d6f688155015554604051904282527fc32fdc85bad287b87324f2b5c9affb2708f355d219541e068064d32eaed8d66560203393a3005b600a14610891575b506107e9565b61089a90613f57565b8261088b565b634db47d8360e01b60005260046000fd5b50506000600a83146107d1565b638c1f61f360e01b60005260046000fd5b630a878caf60e31b60005260046000fd5b34610331576040366003190112610331576108f96138e4565b60ff6024359116600052600b6020526040600020805482101561033157602091610670916134c6565b3461033157602036600319011261033157600435600052600960205261027161036260ff600d6040600020015460081c166140ea565b3461033157602036600319011261033157600061024060405161097a8161353c565b8281528260208201528260408201528260608201528260808201528260a08201528260c0820152606060e0820152606061010082015282610120820152826101408201528261016082015282610180820152826101a0820152826101c0820152826101e08201528261020082015282610220820152015260043560005260096020526040600020610b1b60ff600d60405193610a158561353c565b805485526001810154602086015260028101546001600160a01b03811660408701528390610a4c60a082901c831660608901613a5a565b610a5e828260a81c1660808901613a66565b818160b01c1660a088015260b81c1660c0860152610a7e600382016137ce565b60e0860152610a8f600482016137ce565b61010086015260058101546001600160a01b03908116610120870152600682015481166101408701526007820154811661016087015260088083015461018088015260098301546101a0880152600a8301546101c0880152600b8301549091166101e0870152600c8201546102008701529101548281161515610220860152901c166102408301613a72565b6040519060208252805160208301526020810151604083015260018060a01b036040820151166060830152610b58606082015160808401906138f4565b608081015190600d82101561030a57829160a083015260ff60a08201511660c083015260ff60c08201511660e0830152610271610240610bc5610bad60e0850151610260610100880152610280870190613517565b610100850151868203601f1901610120880152613517565b9260018060a01b036101208201511661014086015260018060a01b036101408201511661016086015260018060a01b03610160820151166101808601526101808101516101a08601526101a08101516101c08601526101c08101516101e086015260018060a01b036101e0820151166102008601526102008101516102208601526102208101511515828601520151610260840190613901565b346103315760203660031901126103315760ff610c7a6138e4565b166000526004602052602060018060a01b0360406000205416604051908152f35b3461033157602036600319011261033157600435600052600960205261027161036260ff60026040600020015460a01c16613fc5565b3461033157610cdf36613895565b92909133600052600160205260ff604060002054161561032057336000526005602052610d2c60ff6040600020541683600052600960205260ff60026040600020015460b01c1614613ad5565b8160005260096020526040600020936002850160ff815460a81c16600d81101561030a57610f2857610d5d84613f8e565b8215610df857805460ff60a81b1916600160a81b1790556001600052600d6020529293919260008051602061420183398151915292610dbc857ffd54ff1ed53f34a900b24c5ba64f85761163b5d82d98a47b9bd80e45466993c56139fe565b6005810160018060a01b0333166001600160601b0360a01b825416179055600842910155610df36040519283923397429285613a26565b0390a3005b805460ff60a81b1916600160a91b17905560048501946001600160401b0382116105a857610e3082610e2a8854613644565b886139a3565b600095601f8311600114610eb757610e708380600080516020614201833981519152979899600091610eac57508160011b916000199060031b1c19161790565b90555b6002600052600d602052610ea7857f10a81eed9d63d16face5e76357905348e6253d3394086026bb2bf2145d7cc2496139fe565b610dbc565b90508901358a610500565b80875260208720601f19841697805b898110610f1057508460008051602061420183398151915297989910610ef6575b5050600183811b019055610e73565b880135600019600386901b60f8161c191690558780610ee7565b9091602060018192858c013581550193019101610ec6565b63d2bc121d60e01b60005260046000fd5b346103315760003660031901126103315733600052600160205260ff60406000205416156103205733600052600560205260ff60406000205416600052600b6020526040600020805490610f8c82613b44565b91600091825b828110610fdd57505050610fa581613b44565b9160005b828110610fbe5760405180610271868261360a565b80610fcb60019284613b76565b51610fd68287613b76565b5201610fa9565b610fe781836134c6565b90549060031b1c60005260096020526040600020600281015460ff8160a01c16600581101561030a576004149182611093575b5081611078575b8115611060575b50611036575b600101610f92565b9261105860019161104786856134c6565b90549060031b1c6102fc8289613b76565b93905061102e565b60ff915060a81c16600d81101561030a571586611028565b905060ff8160a81c16600d81101561030a57600b1490611021565b60ff919250600d015460081c16600381101561030a57600214908761101a565b34610331576020366003190112610331576001600160a01b036110d4613870565b166000526005602052602060ff60406000205416604051908152f35b34610331576020366003190112610331576001600160a01b03611111613870565b16600052600a602052604060002060405190816020825491828152019160005260206000209060005b81811061115d576102718561115181870382613558565b6040519182918261360a565b825484526020909301926001928301920161113a565b34610331576020366003190112610331576004356001600160401b038111610331576111a39036906004016135bf565b60405181519060208301916111b98183856134f4565b60039082019081528190036020019020546001600160a01b0316611343573360005260026020526111ee604060002054613644565b611332576020611209916040518093819286519283916134f4565b60039082019081520301902080546001600160a01b03191633908117909155600090815260026020526040902081516001600160401b0381116105a85761125a816112548454613644565b846139a3565b6020601f82116001146112ce579080611288926000916112c357508160011b916000199060031b1c19161790565b90555b7ff681a6e5cf03ecba385f32439e3a53ca704ad8f2a8d20230aa6a3971dc2ae218604051602081528061052833946020830190613517565b905084015185610500565b601f1982169083600052806000209160005b81811061131a57509083600194939210611301575b5050811b01905561128b565b85015160001960f88460031b161c1916905584806112f5565b9192602060018192868a0151815501940192016112e0565b63e278de3960e01b60005260046000fd5b631677261960e21b60005260046000fd5b3461033157608036600319011261033157600435611370613886565b906044356001600160401b038111610331576113909036906004016135dd565b909261139a6138d4565b9133600052600160205260ff6040600020541615610320573360005260056020526113e560ff6040600020541685600052600960205260ff60026040600020015460b01c1614613ad5565b836000526009602052604060002060028101805460ff8160a01c16600581101561030a576004036116c95760ff600d84015460081c16600381101561030a576002036116a8575060ff815460a81c16600d81101561030a57600b036116295761144d86613ef7565b831561150c5760ff851680156114fb576000908152600460205260409020546001600160a01b0316156114ea57805460ff60b81b191660b89590951b60ff60b81b1694909417845560008051602061420183398151915293805460ff60a81b1916600560a81b1790556005600052600d602052610dbc857fa5049387d9cb649c59f4bda666105ba636c2a103d8e2b232ba4d125737cd21496139fe565b63fac301e360e01b60005260046000fd5b636c1ba33960e01b60005260046000fd5b805460ff60a81b1916600360a91b17905560048101959493506001600160401b0382116105a85761154182610e2a8854613644565b600095601f83116001146115b8576115818380600080516020614201833981519152979899600091610eac57508160011b916000199060031b1c19161790565b90555b6006600052600d602052610ea7857fa48544818c2c710afa9849c61ec9c60e8acdb3eaa2885f33b37e118cc8fd04ac6139fe565b80875260208720601f19841697805b898110611611575084600080516020614201833981519152979899106115f7575b5050600183811b019055611584565b880135600019600386901b60f8161c1916905587806115e8565b9091602060018192858c0135815501930191016115c7565b60405162461bcd60e51b815260206004820152604b60248201527f5065726d6f686f6e616e2070696e64616820676162756e67204b4b206861727560448201527f732073756461682064696b6f6e6669726d617369206b6570616c61206b656c7560648201526a30b933b0903a3ab53ab0b760a91b608482015260a490fd5b60a81c60ff16600d81101561030a57610f28576116c486613f8e565b61144d565b63243d08b360e21b60005260046000fd5b34610331576060366003190112610331576004356116f6613886565b60443591336000526002602052611711604060002054613644565b156108cf57806000526009602052604060002091600283019081549360ff8560a01c16600581101561030a576004036116c957600d81019460ff865460081c16600381101561030a576002036119b45760a81c60ff16600d81101561030a57600a036119635761178084613f57565b85600052600f602052604060002060005b81548082101561193157866117a683856134c6565b90549060031b1c146117bb5750600101611791565b90949596600019820191821161191b577fb3d39cbcdbaa7e9151453dc7f6f4856b95e939800ab547c6b91a4e1ac65aadb0966118348461182f6040996118166118088b986118769a6134c6565b90549060031b1c91846134c6565b90919082549060031b91821b91600019901b1916179055565b613a96565b82156118a257805460ff60a81b1916600b60a81b179055600b6000908152600d6020528690206118659089906139fe565b9060ff801983541691151516179055565b600b810180546001600160a01b0319163317905542600c909101819055825191151582526020820152a3005b805460ff60a81b1916600360aa1b1790556004840180546118c69061081390613644565b60478155600052623ab0b760e91b600160206000207f4469746f6c616b206f6c6568206b6570616c61206b656c75617267612074756a8155015561191688876000600c8152600d602052206139fe565b611865565b634e487b7160e01b600052601160045260246000fd5b505050611876827fb3d39cbcdbaa7e9151453dc7f6f4856b95e939800ab547c6b91a4e1ac65aadb09596604095611834565b60405162461bcd60e51b815260206004820152602360248201527f53746174757320746964616b2076616c696420756e74756b206b6f6e6669726d60448201526261736960e81b6064820152608490fd5b60405162461bcd60e51b815260206004820152602160248201527f42756b616e207065726d6f686f6e616e2070696e64616820676162756e67204b6044820152604b60f81b6064820152608490fd5b3461033157602036600319011261033157600435600052600f60205260206040600020541515604051908152f35b3461033157604036600319011261033157611a4a613870565b6024356001600160401b03811161033157611a699036906004016135dd565b6000549092906001600160a01b03163303610621576001600160a01b03166000818152600160209081526040808320805460ff19169055600590915290205460ff16929083611c15575b6001600160401b0382116105a857611ad582611ad0600654613644565b61393e565b600093601f8311600114611b8657611b1383806000805160206141e183398151915297600091611b7b57508160011b916000199060031b1c19161790565b6006555b7fc008778747a33ed2186935953768eacc55b807b5e3af2943d345b200d5fecd4960405160408152600060408201526060602082015280611b5c6060820187896139dd565b0390a3611b766040519283926020845260208401916139dd565b0390a1005b905086013588610500565b60068552601f198316947ff652222313e28459528d920b65115c16c04f3efc82aaedc97be59f3f377c0d3f90805b878110611bfd5750846000805160206141e18339815191529710611be3575b5050600183811b01600655611b17565b850135600019600386901b60f8161c191690558580611bd3565b9091602060018192858a013581550193019101611bb4565b83600052600460205260406000206001600160601b0360a01b8154169055806000526005602052604060002060ff198154169055611ab3565b3461033157608036600319011261033157600435611c6a613886565b6044356001600160401b03811161033157611c899036906004016135dd565b926064356001600160401b03811161033157611ca99036906004016135dd565b60005491959094916001600160a01b031633036106215782600052600960205260406000206002810195865460ff8160a01c16600581101561030a576004036120bc575060ff875460a81c16600d8110158061030a5760078214908180156120af575b1561209e5761030a571561207d5750611d25600761390e565b9660005b88548082101561206e5787611d3e838c6134c6565b90549060031b1c14611d535750600101611d29565b60009991929394959697989919810190811161191b57611d7d9261181661180861182f93856134c6565b8415611f4d57805460ff60a81b1916600360a81b1790556003600052600d602052611dc8857f26b4a10d0f0b04925c23bd4480ee147c916e5e87a7d68206a533dad160ac81e26139fe565b80611e1a575b50600080516020614221833981519152939495505b6007810160018060a01b0333166001600160601b0360a01b825416179055600a42910155610df36040519283923397429285613a26565b84600052600e60205260406000206001600160401b0382116105a857611e4a82611e448354613644565b836139a3565b6000601f8311600114611ec757978260008051602061424183398151915292611e9d828a9b9c966000805160206142218339815191529b97600091611ebc57508160011b916000199060031b1c19161790565b90555b611eb1604051928392429184613a7e565b0390a2859493611dce565b90508501358e610500565b8181526020812090601f198416815b818110611f3557509288999a9285926000805160206142218339815191529a966000805160206142418339815191529610611f1b575b5050600182811b019055611ea0565b840135600019600385901b60f8161c191690558b80611f0c565b9192602060018192868f013581550194019201611ed6565b805460ff60a81b1916600160aa1b179055506004810195506001600160401b0382116105a857611f8182610e2a8854613644565b600095601f8311600114611ffd57611fc18380600080516020614221833981519152979899600091610eac57508160011b916000199060031b1c19161790565b90555b6004600052600d602052611ff8857fafafe8948a4ed9d478b1e9a5780b119b5edd00ea7d07bc35bef7c814824eb94b6139fe565b611de3565b80875260208720601f19841697805b8981106120565750846000805160206142218339815191529798991061203c575b5050600183811b019055611fc4565b880135600019600386901b60f8161c19169055878061202d565b9091602060018192858c01358155019301910161200c565b50509091929394959650611d7d565b600b90600098929394959697985003611d7d5761209986613ef7565b611d7d565b63656d7eb560e01b60005260046000fd5b50506000600b8314611d0c565b60a81c60ff16600d81101561030a57600103612134576120dc600161390e565b9660005b88548082101561206e57876120f5838c6134c6565b90549060031b1c1461210a57506001016120e0565b60009991929394959697989919810190811161191b576120999261181661180861182f93856134c6565b633c78815f60e01b60005260046000fd5b346103315760603660031901126103315761215e6138e4565b6024356001600160a01b0381169190829003610331576044356001600160401b038111610331576121939036906004016135dd565b600054919290916001600160a01b031633036106215783156123905760ff166000818152600460205260409020549093906001600160a01b031661237f5780600052600560205260ff604060002054161580612376575b15612365578360005260046020526040600020816001600160601b0360a01b82541617905580600052600560205260406000208460ff198254161790558060005260016020526040600020600160ff198254161790556001600160401b0382116105a85761225d82611ad0600654613644565b600093601f83116001146122d65761229b83806000805160206141e183398151915297600091611b7b57508160011b916000199060031b1c19161790565b6006555b7f8418aea3839e9ae83ed3f1125ef966aa3033c97a2c25a85e07bfe51e7e4fa41a6040516020815280611b5c6020820187896139dd565b60068552601f198316947ff652222313e28459528d920b65115c16c04f3efc82aaedc97be59f3f377c0d3f90805b87811061234d5750846000805160206141e18339815191529710612333575b5050600183811b0160065561229f565b850135600019600386901b60f8161c191690558580612323565b9091602060018192858a013581550193019101612304565b6338077c8760e21b60005260046000fd5b508315156121ea565b6348745fab60e01b60005260046000fd5b639fabe1c160e01b60005260046000fd5b34610331576020366003190112610331576001600160a01b036123c2613870565b166000526001602052602060ff604060002054166040519015158152f35b346103315760c03660031901126103315760056004351015610331576024356001600160401b0381116103315761241b9036906004016135dd565b6044359060ff82168203610331576124316138d4565b9260036084351015918261033157336000526002602052612456604060002054613644565b156108cf5780156105cf5760ff84166000908152600460205260409020546001600160a01b0316156114ea576000926004803514612b26575b6008549361249c85613a4b565b60085550600480351480612b17575b15612b0f57600a955b6000966004803503612b095781975b506004803503612b0157608435965b60ff604051996124e18b61353c565b888b524260208c01523360408c01526124ff60043560608d01613a5a565b61250c8460808d01613a66565b81831660a08c01521660c08a0152612525368688613579565b60e08a015261259960209860405161253d8b82613558565b600081526101008c015260006101208c015260006101408c015260006101608c015260006101808c015260006101a08c015260006101c08c015260006101e08c015260006102008c015260006102208c01526102408b01613a72565b6000878152600989526040908190208a51815560208b01516001820155908a01516002820180546001600160a01b0319166001600160a01b039290921691909117905560608a0151999060058b101561030a5760028101805460ff60a01b191660a09c909c1b60ff60a01b169b909b17909a55608081015160009a90600d811015612aed5760028201805460a085015160c086015162ffffff60a81b1990921660a89490941b60ff60a81b169390931760b09390931b60ff60b01b169290921760b89290921b60ff60b81b1691909117905560e082015180516001600160401b038111612a605761269a816126916003860154613644565b600386016139a3565b8b8d601f8311600114612a7f57906126c79383612a74575b50508160011b916000199060031b1c19161790565b60038201555b6101008201518051906001600160401b038211612a60576126fe826126f56004860154613644565b600486016139a3565b8b908d601f84116001146129ed579280610240959361273493600d96926129e25750508160011b916000199060031b1c19161790565b60048201555b6101208401516005820180546001600160a01b039283166001600160a01b03199182161790915561014086015160068401805491841691831691909117905561016086015160078401805491841691831691909117905561018086015160088401556101a086015160098401556101c0860151600a8401556101e0860151600b84018054919093169116179055610200840151600c8201556102208401519101805460ff191691151560ff1691909117815591015160038110156129ce579260ff899361282d8560408f8f600a906128469961284b9c61ff0082549160081b169061ff00191617905533835252206139fe565b168b52600b8a526128418360408d206139fe565b61390e565b6139fe565b60048035146129b2575b506004803514908161298c575b506128fe575b60048035036128c6577fa0b9d3ab20139b1dab107ee5e773449c3bc1cba0be29c7281e39e5623d699b9d916128b6916060604051966128a988608435613901565b87015260608601916139dd565b924260408201528033940390a380f35b7f76091af5eb885b36d291fafffdf0282c662dd305c7a5efb5f216ce4133972fca916128b6916060604051966128a9886004356138f4565b60a435156129215760a4358552600f845261291c83604087206139fe565b612868565b60405162461bcd60e51b815260048101859052603d60248201527f4e494b206b6570616c61206b656c75617267612074756a75616e2077616a696260448201527f20646969736920756e74756b2070696e64616820676162756e67204b4b0000006064820152608490fd5b905061299e5760026084351486612862565b634e487b7160e01b85526021600452602485fd5b60ff168652600c85526129c884604088206139fe565b86612855565b634e487b7160e01b8b52602160045260248bfd5b0151905038806126b2565b6004850181528d81209291908e5b601f1986168210612a49575050926102409492600192600d9583601f19811610612a30575b505050811b01600482015561273a565b015160001960f88460031b161c191690558f8080612a20565b60018495829395850151815501940192018e6129fb565b634e487b7160e01b8d52604160045260248dfd5b015190508e806126b2565b908d9360038601835284832092945b601f1985168610612ad357506001945083601f19811610612aba575b505050811b0160038201556126cd565b015160001960f88460031b161c191690558d8080612aaa565b82820151845594850194600190930192909101908e612a8e565b634e487b7160e01b8c52602160045260248cfd5b6000966124d2565b876124c3565b6000956124b4565b505060006002608435146124ab565b60ff86168015612b58578452600460205260408420546001600160a01b031661248f5763fac301e360e01b8452600484fd5b636c1ba33960e01b8552600485fd5b34610331576020366003190112610331576004356001600160401b03811161033157612b9960209136906004016135bf565b81612bad60405192838151938492016134f4565b600390820190815281900382019020546040516001600160a01b039091168152f35b346103315760003660031901126103315733600052600160205260ff60406000205416156103205733600052600560205260ff60406000205416600052600b602052604060002060405190816020825491828152019160005260206000209060005b818110612c48576102718561115181870382613558565b8254845260209093019260019283019201612c31565b3461033157602036600319011261033157600435600d811015610331576000546001600160a01b0316330361062157612c969061390e565b60405190816020825491828152019160005260206000209060005b818110612cc8576102718561115181870382613558565b8254845260209093019260019283019201612cb1565b3461033157612cec36613895565b919233600052600160205260ff6040600020541615610320578060005260096020526040600020936002850193845460ff8160a01c16600581101561030a576004036116c95760ff8160a81c16600d81101561030a57600503612f995733600052600560205260ff80604060002054169160b81c1603612f8857612d70600561390e565b9460005b865480821015612f7b5785612d89838a6134c6565b90549060031b1c14612d9e5750600101612d74565b6000979192939495969719810190811161191b57612dc69261181661180861182f93856134c6565b8215612e5c57805460ff60a81b1916600760a81b1790556007600052600d6020529293919260008051602061420183398151915292612e25857fb91432bedff11256dbe14161d3606a2657bc9dacf8742f6b817d871dd53fb9766139fe565b6006810160018060a01b0333166001600160601b0360a01b825416179055600942910155610df36040519283923397429285613a26565b805460ff60a81b1916600160ab1b17905560048501946001600160401b0382116105a857612e8e82610e2a8854613644565b600095601f8311600114612f0a57612ece8380600080516020614201833981519152979899600091610eac57508160011b916000199060031b1c19161790565b90555b6008600052600d602052612f05857f0b705463cf5f7356780ee6e96132d37412c1b5816a4d207b8dcd42c3497674576139fe565b612e25565b80875260208720601f19841697805b898110612f6357508460008051602061420183398151915297989910612f49575b5050600183811b019055612ed1565b880135600019600386901b60f8161c191690558780612f3a565b9091602060018192858c013581550193019101612f19565b5050909192939450612dc6565b635a6db8ab60e01b60005260046000fd5b63384bca1f60e11b60005260046000fd5b3461033157604036600319011261033157612fc3613870565b6001600160a01b03166000908152600a602052604090208054602435919082101561033157602091610670916134c6565b3461033157602036600319011261033157600435600052600f602052604060002060405190816020825491828152019160005260206000209060005b818110613047576102718561115181870382613558565b8254845260209093019260019283019201613030565b3461033157602036600319011261033157600435600052600960205261027161036260ff60026040600020015460a81c16613b8a565b346103315760003660031901126103315733600052600160205260ff60406000205416156103205733600052600560205260ff60406000205416600052600c602052604060002060405190816020825491828152019160005260206000209060005b81811061310c576102718561115181870382613558565b82548452602090930192600192830192016130f5565b34610331576040366003190112610331576004356001600160401b038111610331576131529036906004016135bf565b6024356001600160401b038111610331576131719036906004016135dd565b60405183519060208501916131878183856134f4565b60039082019081528190036020019020546001600160a01b0316611343573360005260026020526131bc604060002054613644565b6113325760206131d7916040518093819288519283916134f4565b60039082019081520301902080546001600160a01b03191633908117909155600090815260026020526040902083516001600160401b0381116105a857613222816112548454613644565b6020601f821160011461342d5790806132509260009161342257508160011b916000199060031b1c19161790565b90555b6001600160401b0381116105a85761326c600754613644565b601f81116133c8575b50600092601f8211600114613327576132c682807f262db39bd0808699e53948bb8d4427b6399e3aa80e4e5d22462b61781dab6cd79660009161331c57508160011b916000199060031b1c19161790565b6007555b7ff681a6e5cf03ecba385f32439e3a53ca704ad8f2a8d20230aa6a3971dc2ae218604051602081528061330233946020830190613517565b0390a2611b766040519283926020845260208401916139dd565b905085013587610500565b60078452601f198216937fa66cc928b5edb82af9bd49922954155ab7b0942694bea4ce44661d9a8736c68890805b8681106133b05750837f262db39bd0808699e53948bb8d4427b6399e3aa80e4e5d22462b61781dab6cd79610613396575b5050600182811b016007556132ca565b840135600019600385901b60f8161c191690558480613386565b90916020600181928589013581550193019101613355565b6007600052613412907fa66cc928b5edb82af9bd49922954155ab7b0942694bea4ce44661d9a8736c688601f840160051c81019160208510613418575b601f0160051c0190613927565b83613275565b9091508190613405565b905086015187610500565b601f1982169083600052806000209160005b81811061347957509083600194939210613460575b5050811b019055613253565b87015160001960f88460031b161c191690558680613454565b9192602060018192868c01518155019401920161343f565b3461033157604036600319011261033157602435600435600052600f6020526040600020805482101561033157602091610670915b80548210156134de5760005260206000200190600090565b634e487b7160e01b600052603260045260246000fd5b60005b8381106135075750506000910152565b81810151838201526020016134f7565b90602091613530815180928185528580860191016134f4565b601f01601f1916010190565b61026081019081106001600160401b038211176105a857604052565b90601f801991011681019081106001600160401b038211176105a857604052565b9291926001600160401b0382116105a857604051916135a2601f8201601f191660200184613558565b829481845281830111610331578281602093846000960137010152565b9080601f83011215610331578160206135da93359101613579565b90565b9181601f84011215610331578235916001600160401b038311610331576020838186019501011161033157565b602060408183019282815284518094520192019060005b81811061362e5750505090565b8251845260209384019390920191600101613621565b90600182811c92168015613674575b602083101461365e57565b634e487b7160e01b600052602260045260246000fd5b91607f1691613653565b604051906000826006549161369283613644565b808352926001811690811561371857506001146136b8575b6136b692500383613558565b565b506006600090815290917ff652222313e28459528d920b65115c16c04f3efc82aaedc97be59f3f377c0d3f5b8183106136fc5750509060206136b6928201016136aa565b60209193508060019154838589010152019101909184926136e4565b602092506136b694915060ff191682840152151560051b8201016136aa565b604051906000826007549161374b83613644565b8083529260018116908115613718575060011461376e576136b692500383613558565b506007600090815290917fa66cc928b5edb82af9bd49922954155ab7b0942694bea4ce44661d9a8736c6885b8183106137b25750509060206136b6928201016136aa565b602091935080600191548385890101520191019091849261379a565b90604051918260008254926137e284613644565b808452936001811690811561384e5750600114613807575b506136b692500383613558565b90506000929192526020600020906000915b8183106138325750509060206136b692820101386137fa565b6020919350806001915483858901015201910190918492613819565b9050602092506136b694915060ff191682840152151560051b820101386137fa565b600435906001600160a01b038216820361033157565b60243590811515820361033157565b6060600319820112610331576004359160243580151581036103315791604435906001600160401b038211610331576138d0916004016135dd565b9091565b6064359060ff8216820361033157565b6004359060ff8216820361033157565b90600582101561030a5752565b90600382101561030a5752565b600d81101561030a57600052600d602052604060002090565b818110613932575050565b60008155600101613927565b90601f821161394b575050565b6136b69160066000526020600020906020601f840160051c8301931061341857601f0160051c0190613927565b90601f8111613985575050565b6136b6916000526002601f6020600020920160051c82019101613927565b9190601f81116139b257505050565b6136b6926000526020600020906020601f840160051c8301931061341857601f0160051c0190613927565b908060209392818452848401376000828201840152601f01601f1916010190565b90815491680100000000000000008310156105a857826118169160016136b6950181556134c6565b94939291604092613a4692151587526060602088015260608701916139dd565b930152565b600019811461191b5760010190565b600582101561030a5752565b600d82101561030a5752565b600382101561030a5752565b939291602091613a46916040875260408701916139dd565b80548015613abf576000190190613aad82826134c6565b8154906000199060031b1b1916905555565b634e487b7160e01b600052603160045260246000fd5b15613adc57565b60405162461bcd60e51b8152602060048201526024808201527f48616e7961206b616c75726168616e206173616c2079616e672062657277656e604482015263616e672160e01b6064820152608490fd5b6001600160401b0381116105a85760051b60200190565b90613b4e82613b2d565b613b5b6040519182613558565b8281528092613b6c601f1991613b2d565b0190602036910137565b80518210156134de5760209160051b010190565b600d81101561030a578015613ed057600060018214613e9c575060028114613e6c57600060038214613e39575060048114613e0a57600060058214613dcc575060068114613d9757600060078214613d59575060088114613d1d57600060098214613cdf5750600a8114613ca357600090600b8114613c6d57600c915014613c3e57604051613c1a604082613558565b601481527314dd185d1d5cc8151a59185ac8111a5ad95b985b60621b602082015290565b604051613c4c604082613558565b60118152702234ba37b630b59025a5902a3ab53ab0b760791b602082015290565b5050604051613c7d604082613558565b60168152752234b5b7b73334b936b0b9b49025a5902a3ab53ab0b760511b602082015290565b50604051613cb2604082613558565b601d81527f4d656e756e676775204b6f6e6669726d617369204b4b2054756a75616e000000602082015290565b50506040805190613cf09082613558565b601781527f4469626174616c6b616e206f6c65682050656d6f686f6e000000000000000000602082015290565b50604051613d2c604082613558565b601881527f4469746f6c616b204b616c75726168616e2054756a75616e0000000000000000602082015290565b50506040805190613d6a9082613558565b601a81527f4469736574756a7569204b616c75726168616e2054756a75616e000000000000602082015290565b50604051613da6604082613558565b6016815275111a5d1bdb185ac812d85b1d5c985a185b88105cd85b60521b602082015290565b50506040805190613ddd9082613558565b601881527f4469736574756a7569204b616c75726168616e204173616c0000000000000000602082015290565b50604051613e19604082613558565b601081526f111a5d1bdb185ac8111d5ad8d85c1a5b60821b602082015290565b50506040805190613e4a9082613558565b6012815271111a5cd95d1d5a9d5a48111d5ad8d85c1a5b60721b602082015290565b50604051613e7b604082613558565b60118152702234ba37b630b59025b0b63ab930b430b760791b602082015290565b50506040805190613ead9082613558565b60138152722234b9b2ba3ab53ab49025b0b63ab930b430b760691b602082015290565b50604051613edf604082613558565b60088152672234b0b53ab5b0b760c11b602082015290565b613f01600b61390e565b60005b815480821015613f515783613f1983856134c6565b90549060031b1c14613f2e5750600101613f04565b909250600019810190811161191b576136b69261181661180861182f93856134c6565b50505050565b613f61600a61390e565b60005b815480821015613f515783613f7983856134c6565b90549060031b1c14613f2e5750600101613f64565b613f98600061390e565b60005b815480821015613f515783613fb083856134c6565b90549060031b1c14613f2e5750600101613f9b565b600581101561030a5780156140c257600060018214614099575060028114614075576000906003811461405057600491501461402c57604051614009604082613558565b601381527212995b9a5cc8151a59185ac8111a5ad95b985b606a1b602082015290565b60405161403a604082613558565b60068152650a0d2dcc8c2d60d31b602082015290565b5050604051614060604082613558565b6005815264436572616960d81b602082015290565b50604051614084604082613558565b600581526425b0bbb4b760d91b602082015290565b505060408051906140aa9082613558565b600881526725b2b6b0ba34b0b760c11b602082015290565b506040516140d1604082613558565b600981526825b2b630b434b930b760b91b602082015290565b600381101561030a5780156141a457600090600181146141765760029150146141485760405161411b604082613558565b601a81527f4a656e69732050696e64616820546964616b2044696b656e616c000000000000602082015290565b604051614156604082613558565b601081526f50696e64616820476162756e67204b4b60801b602082015290565b5050604051614186604082613558565b600e81526d50696e646168204d616e6469726960901b602082015290565b506040516141b3604082613558565b601781527f50696e6461682053656c75727568204b656c756172676100000000000000000060208201529056fe05b7d468eb456c6bffbac7ac5f22f68ca5ce358ae4551017aeb9e69bf8fa11eeb464c40b6330ada9cbaedc9b928b83d905cd3051349abb7332ae44607384da596b79a244eb3993d9a079f4708e9832062b305d6080c8372aac9c82d882a9557b75c675465e0858e943fd2e773390edaac64e2ee57918f3f49a20e198c1a54425a2646970667358221220930f4dfc078fcb8940ad0841456347f5da26c7204e828c74f1904396b33a9b9d64736f6c634300081c0033",
  "linkReferences": {},
  "deployedLinkReferences": {}
}